{
	"contracts/ERC20.sol": {
		"MyToken": {
			"abi": [
				{
					"inputs": [],
					"stateMutability": "nonpayable",
					"type": "constructor"
				},
				{
					"inputs": [
						{
							"internalType": "address",
							"name": "",
							"type": "address"
						}
					],
					"name": "balances",
					"outputs": [
						{
							"internalType": "uint256",
							"name": "",
							"type": "uint256"
						}
					],
					"stateMutability": "view",
					"type": "function"
				},
				{
					"inputs": [
						{
							"internalType": "address",
							"name": "receiver",
							"type": "address"
						},
						{
							"internalType": "uint256",
							"name": "amount",
							"type": "uint256"
						}
					],
					"name": "mint",
					"outputs": [],
					"stateMutability": "nonpayable",
					"type": "function"
				},
				{
					"inputs": [],
					"name": "minter",
					"outputs": [
						{
							"internalType": "address",
							"name": "",
							"type": "address"
						}
					],
					"stateMutability": "view",
					"type": "function"
				},
				{
					"inputs": [
						{
							"internalType": "address",
							"name": "receiver",
							"type": "address"
						},
						{
							"internalType": "uint256",
							"name": "amount",
							"type": "uint256"
						}
					],
					"name": "transfer",
					"outputs": [],
					"stateMutability": "nonpayable",
					"type": "function"
				}
			],
			"devdoc": {
				"kind": "dev",
				"methods": {},
				"version": 1
			},
			"evm": {
				"assembly": "    /* \"contracts/ERC20.sol\":72:581  contract MyToken {\r... */\n  mstore(0x40, 0x80)\n    /* \"contracts/ERC20.sol\":169:214  constructor() {\r... */\n  callvalue\n  dup1\n  iszero\n  tag_1\n  jumpi\n  0x00\n  dup1\n  revert\ntag_1:\n  pop\n    /* \"contracts/ERC20.sol\":198:208  msg.sender */\n  caller\n    /* \"contracts/ERC20.sol\":190:196  minter */\n  0x00\n  dup1\n    /* \"contracts/ERC20.sol\":190:208  minter =msg.sender */\n  0x0100\n  exp\n  dup2\n  sload\n  dup2\n  0xffffffffffffffffffffffffffffffffffffffff\n  mul\n  not\n  and\n  swap1\n  dup4\n  0xffffffffffffffffffffffffffffffffffffffff\n  and\n  mul\n  or\n  swap1\n  sstore\n  pop\n    /* \"contracts/ERC20.sol\":72:581  contract MyToken {\r... */\n  dataSize(sub_0)\n  dup1\n  dataOffset(sub_0)\n  0x00\n  codecopy\n  0x00\n  return\nstop\n\nsub_0: assembly {\n        /* \"contracts/ERC20.sol\":72:581  contract MyToken {\r... */\n      mstore(0x40, 0x80)\n      callvalue\n      dup1\n      iszero\n      tag_1\n      jumpi\n      0x00\n      dup1\n      revert\n    tag_1:\n      pop\n      jumpi(tag_2, lt(calldatasize, 0x04))\n      shr(0xe0, calldataload(0x00))\n      dup1\n      0x07546172\n      eq\n      tag_3\n      jumpi\n      dup1\n      0x27e235e3\n      eq\n      tag_4\n      jumpi\n      dup1\n      0x40c10f19\n      eq\n      tag_5\n      jumpi\n      dup1\n      0xa9059cbb\n      eq\n      tag_6\n      jumpi\n    tag_2:\n      0x00\n      dup1\n      revert\n        /* \"contracts/ERC20.sol\":96:117  address public minter */\n    tag_3:\n      tag_7\n      tag_8\n      jump\t// in\n    tag_7:\n      mload(0x40)\n      tag_9\n      swap2\n      swap1\n      tag_10\n      jump\t// in\n    tag_9:\n      mload(0x40)\n      dup1\n      swap2\n      sub\n      swap1\n      return\n        /* \"contracts/ERC20.sol\":124:164  mapping (address =>uint) public balances */\n    tag_4:\n      tag_11\n      0x04\n      dup1\n      calldatasize\n      sub\n      dup2\n      add\n      swap1\n      tag_12\n      swap2\n      swap1\n      tag_13\n      jump\t// in\n    tag_12:\n      tag_14\n      jump\t// in\n    tag_11:\n      mload(0x40)\n      tag_15\n      swap2\n      swap1\n      tag_16\n      jump\t// in\n    tag_15:\n      mload(0x40)\n      dup1\n      swap2\n      sub\n      swap1\n      return\n        /* \"contracts/ERC20.sol\":219:373  function mint(address receiver,uint amount) public {\r... */\n    tag_5:\n      tag_17\n      0x04\n      dup1\n      calldatasize\n      sub\n      dup2\n      add\n      swap1\n      tag_18\n      swap2\n      swap1\n      tag_19\n      jump\t// in\n    tag_18:\n      tag_20\n      jump\t// in\n    tag_17:\n      stop\n        /* \"contracts/ERC20.sol\":377:578  function transfer(address receiver, uint amount) public {\r... */\n    tag_6:\n      tag_21\n      0x04\n      dup1\n      calldatasize\n      sub\n      dup2\n      add\n      swap1\n      tag_22\n      swap2\n      swap1\n      tag_19\n      jump\t// in\n    tag_22:\n      tag_23\n      jump\t// in\n    tag_21:\n      stop\n        /* \"contracts/ERC20.sol\":96:117  address public minter */\n    tag_8:\n      0x00\n      dup1\n      sload\n      swap1\n      0x0100\n      exp\n      swap1\n      div\n      0xffffffffffffffffffffffffffffffffffffffff\n      and\n      dup2\n      jump\t// out\n        /* \"contracts/ERC20.sol\":124:164  mapping (address =>uint) public balances */\n    tag_14:\n      mstore(0x20, 0x01)\n      dup1\n      0x00\n      mstore\n      keccak256(0x00, 0x40)\n      0x00\n      swap2\n      pop\n      swap1\n      pop\n      sload\n      dup2\n      jump\t// out\n        /* \"contracts/ERC20.sol\":219:373  function mint(address receiver,uint amount) public {\r... */\n    tag_20:\n        /* \"contracts/ERC20.sol\":302:308  minter */\n      0x00\n      dup1\n      sload\n      swap1\n      0x0100\n      exp\n      swap1\n      div\n      0xffffffffffffffffffffffffffffffffffffffff\n      and\n        /* \"contracts/ERC20.sol\":288:308  msg.sender == minter */\n      0xffffffffffffffffffffffffffffffffffffffff\n      and\n        /* \"contracts/ERC20.sol\":288:298  msg.sender */\n      caller\n        /* \"contracts/ERC20.sol\":288:308  msg.sender == minter */\n      0xffffffffffffffffffffffffffffffffffffffff\n      and\n      eq\n        /* \"contracts/ERC20.sol\":280:331  require(msg.sender == minter,\"your not the minter\") */\n      tag_25\n      jumpi\n      mload(0x40)\n      0x08c379a000000000000000000000000000000000000000000000000000000000\n      dup2\n      mstore\n      0x04\n      add\n      tag_26\n      swap1\n      tag_27\n      jump\t// in\n    tag_26:\n      mload(0x40)\n      dup1\n      swap2\n      sub\n      swap1\n      revert\n    tag_25:\n        /* \"contracts/ERC20.sol\":363:369  amount */\n      dup1\n        /* \"contracts/ERC20.sol\":341:349  balances */\n      0x01\n        /* \"contracts/ERC20.sol\":341:359  balances[receiver] */\n      0x00\n        /* \"contracts/ERC20.sol\":350:358  receiver */\n      dup5\n        /* \"contracts/ERC20.sol\":341:359  balances[receiver] */\n      0xffffffffffffffffffffffffffffffffffffffff\n      and\n      0xffffffffffffffffffffffffffffffffffffffff\n      and\n      dup2\n      mstore\n      0x20\n      add\n      swap1\n      dup2\n      mstore\n      0x20\n      add\n      0x00\n      keccak256\n      0x00\n        /* \"contracts/ERC20.sol\":341:369  balances[receiver] += amount */\n      dup3\n      dup3\n      sload\n      tag_28\n      swap2\n      swap1\n      tag_29\n      jump\t// in\n    tag_28:\n      swap3\n      pop\n      pop\n      dup2\n      swap1\n      sstore\n      pop\n        /* \"contracts/ERC20.sol\":219:373  function mint(address receiver,uint amount) public {\r... */\n      pop\n      pop\n      jump\t// out\n        /* \"contracts/ERC20.sol\":377:578  function transfer(address receiver, uint amount) public {\r... */\n    tag_23:\n        /* \"contracts/ERC20.sol\":457:465  balances */\n      0x01\n        /* \"contracts/ERC20.sol\":457:477  balances[msg.sender] */\n      0x00\n        /* \"contracts/ERC20.sol\":466:476  msg.sender */\n      caller\n        /* \"contracts/ERC20.sol\":457:477  balances[msg.sender] */\n      0xffffffffffffffffffffffffffffffffffffffff\n      and\n      0xffffffffffffffffffffffffffffffffffffffff\n      and\n      dup2\n      mstore\n      0x20\n      add\n      swap1\n      dup2\n      mstore\n      0x20\n      add\n      0x00\n      keccak256\n      sload\n        /* \"contracts/ERC20.sol\":448:454  amount */\n      dup2\n        /* \"contracts/ERC20.sol\":448:477  amount<= balances[msg.sender] */\n      gt\n      iszero\n        /* \"contracts/ERC20.sol\":440:502  require(amount<= balances[msg.sender], \"insufficient Balance\") */\n      tag_31\n      jumpi\n      mload(0x40)\n      0x08c379a000000000000000000000000000000000000000000000000000000000\n      dup2\n      mstore\n      0x04\n      add\n      tag_32\n      swap1\n      tag_33\n      jump\t// in\n    tag_32:\n      mload(0x40)\n      dup1\n      swap2\n      sub\n      swap1\n      revert\n    tag_31:\n        /* \"contracts/ERC20.sol\":533:539  amount */\n      dup1\n        /* \"contracts/ERC20.sol\":509:517  balances */\n      0x01\n        /* \"contracts/ERC20.sol\":509:529  balances[msg.sender] */\n      0x00\n        /* \"contracts/ERC20.sol\":518:528  msg.sender */\n      caller\n        /* \"contracts/ERC20.sol\":509:529  balances[msg.sender] */\n      0xffffffffffffffffffffffffffffffffffffffff\n      and\n      0xffffffffffffffffffffffffffffffffffffffff\n      and\n      dup2\n      mstore\n      0x20\n      add\n      swap1\n      dup2\n      mstore\n      0x20\n      add\n      0x00\n      keccak256\n      0x00\n        /* \"contracts/ERC20.sol\":509:539  balances[msg.sender] -= amount */\n      dup3\n      dup3\n      sload\n      tag_34\n      swap2\n      swap1\n      tag_35\n      jump\t// in\n    tag_34:\n      swap3\n      pop\n      pop\n      dup2\n      swap1\n      sstore\n      pop\n        /* \"contracts/ERC20.sol\":568:574  amount */\n      dup1\n        /* \"contracts/ERC20.sol\":546:554  balances */\n      0x01\n        /* \"contracts/ERC20.sol\":546:564  balances[receiver] */\n      0x00\n        /* \"contracts/ERC20.sol\":555:563  receiver */\n      dup5\n        /* \"contracts/ERC20.sol\":546:564  balances[receiver] */\n      0xffffffffffffffffffffffffffffffffffffffff\n      and\n      0xffffffffffffffffffffffffffffffffffffffff\n      and\n      dup2\n      mstore\n      0x20\n      add\n      swap1\n      dup2\n      mstore\n      0x20\n      add\n      0x00\n      keccak256\n      0x00\n        /* \"contracts/ERC20.sol\":546:574  balances[receiver] += amount */\n      dup3\n      dup3\n      sload\n      tag_36\n      swap2\n      swap1\n      tag_29\n      jump\t// in\n    tag_36:\n      swap3\n      pop\n      pop\n      dup2\n      swap1\n      sstore\n      pop\n        /* \"contracts/ERC20.sol\":377:578  function transfer(address receiver, uint amount) public {\r... */\n      pop\n      pop\n      jump\t// out\n        /* \"#utility.yul\":7:146   */\n    tag_38:\n        /* \"#utility.yul\":53:58   */\n      0x00\n        /* \"#utility.yul\":91:97   */\n      dup2\n        /* \"#utility.yul\":78:98   */\n      calldataload\n        /* \"#utility.yul\":69:98   */\n      swap1\n      pop\n        /* \"#utility.yul\":107:140   */\n      tag_40\n        /* \"#utility.yul\":134:139   */\n      dup2\n        /* \"#utility.yul\":107:140   */\n      tag_41\n      jump\t// in\n    tag_40:\n        /* \"#utility.yul\":7:146   */\n      swap3\n      swap2\n      pop\n      pop\n      jump\t// out\n        /* \"#utility.yul\":152:291   */\n    tag_42:\n        /* \"#utility.yul\":198:203   */\n      0x00\n        /* \"#utility.yul\":236:242   */\n      dup2\n        /* \"#utility.yul\":223:243   */\n      calldataload\n        /* \"#utility.yul\":214:243   */\n      swap1\n      pop\n        /* \"#utility.yul\":252:285   */\n      tag_44\n        /* \"#utility.yul\":279:284   */\n      dup2\n        /* \"#utility.yul\":252:285   */\n      tag_45\n      jump\t// in\n    tag_44:\n        /* \"#utility.yul\":152:291   */\n      swap3\n      swap2\n      pop\n      pop\n      jump\t// out\n        /* \"#utility.yul\":297:626   */\n    tag_13:\n        /* \"#utility.yul\":356:362   */\n      0x00\n        /* \"#utility.yul\":405:407   */\n      0x20\n        /* \"#utility.yul\":393:402   */\n      dup3\n        /* \"#utility.yul\":384:391   */\n      dup5\n        /* \"#utility.yul\":380:403   */\n      sub\n        /* \"#utility.yul\":376:408   */\n      slt\n        /* \"#utility.yul\":373:492   */\n      iszero\n      tag_47\n      jumpi\n        /* \"#utility.yul\":411:490   */\n      tag_48\n      tag_49\n      jump\t// in\n    tag_48:\n        /* \"#utility.yul\":373:492   */\n    tag_47:\n        /* \"#utility.yul\":531:532   */\n      0x00\n        /* \"#utility.yul\":556:609   */\n      tag_50\n        /* \"#utility.yul\":601:608   */\n      dup5\n        /* \"#utility.yul\":592:598   */\n      dup3\n        /* \"#utility.yul\":581:590   */\n      dup6\n        /* \"#utility.yul\":577:599   */\n      add\n        /* \"#utility.yul\":556:609   */\n      tag_38\n      jump\t// in\n    tag_50:\n        /* \"#utility.yul\":546:609   */\n      swap2\n      pop\n        /* \"#utility.yul\":502:619   */\n      pop\n        /* \"#utility.yul\":297:626   */\n      swap3\n      swap2\n      pop\n      pop\n      jump\t// out\n        /* \"#utility.yul\":632:1106   */\n    tag_19:\n        /* \"#utility.yul\":700:706   */\n      0x00\n        /* \"#utility.yul\":708:714   */\n      dup1\n        /* \"#utility.yul\":757:759   */\n      0x40\n        /* \"#utility.yul\":745:754   */\n      dup4\n        /* \"#utility.yul\":736:743   */\n      dup6\n        /* \"#utility.yul\":732:755   */\n      sub\n        /* \"#utility.yul\":728:760   */\n      slt\n        /* \"#utility.yul\":725:844   */\n      iszero\n      tag_52\n      jumpi\n        /* \"#utility.yul\":763:842   */\n      tag_53\n      tag_49\n      jump\t// in\n    tag_53:\n        /* \"#utility.yul\":725:844   */\n    tag_52:\n        /* \"#utility.yul\":883:884   */\n      0x00\n        /* \"#utility.yul\":908:961   */\n      tag_54\n        /* \"#utility.yul\":953:960   */\n      dup6\n        /* \"#utility.yul\":944:950   */\n      dup3\n        /* \"#utility.yul\":933:942   */\n      dup7\n        /* \"#utility.yul\":929:951   */\n      add\n        /* \"#utility.yul\":908:961   */\n      tag_38\n      jump\t// in\n    tag_54:\n        /* \"#utility.yul\":898:961   */\n      swap3\n      pop\n        /* \"#utility.yul\":854:971   */\n      pop\n        /* \"#utility.yul\":1010:1012   */\n      0x20\n        /* \"#utility.yul\":1036:1089   */\n      tag_55\n        /* \"#utility.yul\":1081:1088   */\n      dup6\n        /* \"#utility.yul\":1072:1078   */\n      dup3\n        /* \"#utility.yul\":1061:1070   */\n      dup7\n        /* \"#utility.yul\":1057:1079   */\n      add\n        /* \"#utility.yul\":1036:1089   */\n      tag_42\n      jump\t// in\n    tag_55:\n        /* \"#utility.yul\":1026:1089   */\n      swap2\n      pop\n        /* \"#utility.yul\":981:1099   */\n      pop\n        /* \"#utility.yul\":632:1106   */\n      swap3\n      pop\n      swap3\n      swap1\n      pop\n      jump\t// out\n        /* \"#utility.yul\":1112:1230   */\n    tag_56:\n        /* \"#utility.yul\":1199:1223   */\n      tag_58\n        /* \"#utility.yul\":1217:1222   */\n      dup2\n        /* \"#utility.yul\":1199:1223   */\n      tag_59\n      jump\t// in\n    tag_58:\n        /* \"#utility.yul\":1194:1197   */\n      dup3\n        /* \"#utility.yul\":1187:1224   */\n      mstore\n        /* \"#utility.yul\":1112:1230   */\n      pop\n      pop\n      jump\t// out\n        /* \"#utility.yul\":1236:1602   */\n    tag_60:\n        /* \"#utility.yul\":1378:1381   */\n      0x00\n        /* \"#utility.yul\":1399:1466   */\n      tag_62\n        /* \"#utility.yul\":1463:1465   */\n      0x13\n        /* \"#utility.yul\":1458:1461   */\n      dup4\n        /* \"#utility.yul\":1399:1466   */\n      tag_63\n      jump\t// in\n    tag_62:\n        /* \"#utility.yul\":1392:1466   */\n      swap2\n      pop\n        /* \"#utility.yul\":1475:1568   */\n      tag_64\n        /* \"#utility.yul\":1564:1567   */\n      dup3\n        /* \"#utility.yul\":1475:1568   */\n      tag_65\n      jump\t// in\n    tag_64:\n        /* \"#utility.yul\":1593:1595   */\n      0x20\n        /* \"#utility.yul\":1588:1591   */\n      dup3\n        /* \"#utility.yul\":1584:1596   */\n      add\n        /* \"#utility.yul\":1577:1596   */\n      swap1\n      pop\n        /* \"#utility.yul\":1236:1602   */\n      swap2\n      swap1\n      pop\n      jump\t// out\n        /* \"#utility.yul\":1608:1974   */\n    tag_66:\n        /* \"#utility.yul\":1750:1753   */\n      0x00\n        /* \"#utility.yul\":1771:1838   */\n      tag_68\n        /* \"#utility.yul\":1835:1837   */\n      0x14\n        /* \"#utility.yul\":1830:1833   */\n      dup4\n        /* \"#utility.yul\":1771:1838   */\n      tag_63\n      jump\t// in\n    tag_68:\n        /* \"#utility.yul\":1764:1838   */\n      swap2\n      pop\n        /* \"#utility.yul\":1847:1940   */\n      tag_69\n        /* \"#utility.yul\":1936:1939   */\n      dup3\n        /* \"#utility.yul\":1847:1940   */\n      tag_70\n      jump\t// in\n    tag_69:\n        /* \"#utility.yul\":1965:1967   */\n      0x20\n        /* \"#utility.yul\":1960:1963   */\n      dup3\n        /* \"#utility.yul\":1956:1968   */\n      add\n        /* \"#utility.yul\":1949:1968   */\n      swap1\n      pop\n        /* \"#utility.yul\":1608:1974   */\n      swap2\n      swap1\n      pop\n      jump\t// out\n        /* \"#utility.yul\":1980:2098   */\n    tag_71:\n        /* \"#utility.yul\":2067:2091   */\n      tag_73\n        /* \"#utility.yul\":2085:2090   */\n      dup2\n        /* \"#utility.yul\":2067:2091   */\n      tag_74\n      jump\t// in\n    tag_73:\n        /* \"#utility.yul\":2062:2065   */\n      dup3\n        /* \"#utility.yul\":2055:2092   */\n      mstore\n        /* \"#utility.yul\":1980:2098   */\n      pop\n      pop\n      jump\t// out\n        /* \"#utility.yul\":2104:2326   */\n    tag_10:\n        /* \"#utility.yul\":2197:2201   */\n      0x00\n        /* \"#utility.yul\":2235:2237   */\n      0x20\n        /* \"#utility.yul\":2224:2233   */\n      dup3\n        /* \"#utility.yul\":2220:2238   */\n      add\n        /* \"#utility.yul\":2212:2238   */\n      swap1\n      pop\n        /* \"#utility.yul\":2248:2319   */\n      tag_76\n        /* \"#utility.yul\":2316:2317   */\n      0x00\n        /* \"#utility.yul\":2305:2314   */\n      dup4\n        /* \"#utility.yul\":2301:2318   */\n      add\n        /* \"#utility.yul\":2292:2298   */\n      dup5\n        /* \"#utility.yul\":2248:2319   */\n      tag_56\n      jump\t// in\n    tag_76:\n        /* \"#utility.yul\":2104:2326   */\n      swap3\n      swap2\n      pop\n      pop\n      jump\t// out\n        /* \"#utility.yul\":2332:2751   */\n    tag_27:\n        /* \"#utility.yul\":2498:2502   */\n      0x00\n        /* \"#utility.yul\":2536:2538   */\n      0x20\n        /* \"#utility.yul\":2525:2534   */\n      dup3\n        /* \"#utility.yul\":2521:2539   */\n      add\n        /* \"#utility.yul\":2513:2539   */\n      swap1\n      pop\n        /* \"#utility.yul\":2585:2594   */\n      dup2\n        /* \"#utility.yul\":2579:2583   */\n      dup2\n        /* \"#utility.yul\":2575:2595   */\n      sub\n        /* \"#utility.yul\":2571:2572   */\n      0x00\n        /* \"#utility.yul\":2560:2569   */\n      dup4\n        /* \"#utility.yul\":2556:2573   */\n      add\n        /* \"#utility.yul\":2549:2596   */\n      mstore\n        /* \"#utility.yul\":2613:2744   */\n      tag_78\n        /* \"#utility.yul\":2739:2743   */\n      dup2\n        /* \"#utility.yul\":2613:2744   */\n      tag_60\n      jump\t// in\n    tag_78:\n        /* \"#utility.yul\":2605:2744   */\n      swap1\n      pop\n        /* \"#utility.yul\":2332:2751   */\n      swap2\n      swap1\n      pop\n      jump\t// out\n        /* \"#utility.yul\":2757:3176   */\n    tag_33:\n        /* \"#utility.yul\":2923:2927   */\n      0x00\n        /* \"#utility.yul\":2961:2963   */\n      0x20\n        /* \"#utility.yul\":2950:2959   */\n      dup3\n        /* \"#utility.yul\":2946:2964   */\n      add\n        /* \"#utility.yul\":2938:2964   */\n      swap1\n      pop\n        /* \"#utility.yul\":3010:3019   */\n      dup2\n        /* \"#utility.yul\":3004:3008   */\n      dup2\n        /* \"#utility.yul\":3000:3020   */\n      sub\n        /* \"#utility.yul\":2996:2997   */\n      0x00\n        /* \"#utility.yul\":2985:2994   */\n      dup4\n        /* \"#utility.yul\":2981:2998   */\n      add\n        /* \"#utility.yul\":2974:3021   */\n      mstore\n        /* \"#utility.yul\":3038:3169   */\n      tag_80\n        /* \"#utility.yul\":3164:3168   */\n      dup2\n        /* \"#utility.yul\":3038:3169   */\n      tag_66\n      jump\t// in\n    tag_80:\n        /* \"#utility.yul\":3030:3169   */\n      swap1\n      pop\n        /* \"#utility.yul\":2757:3176   */\n      swap2\n      swap1\n      pop\n      jump\t// out\n        /* \"#utility.yul\":3182:3404   */\n    tag_16:\n        /* \"#utility.yul\":3275:3279   */\n      0x00\n        /* \"#utility.yul\":3313:3315   */\n      0x20\n        /* \"#utility.yul\":3302:3311   */\n      dup3\n        /* \"#utility.yul\":3298:3316   */\n      add\n        /* \"#utility.yul\":3290:3316   */\n      swap1\n      pop\n        /* \"#utility.yul\":3326:3397   */\n      tag_82\n        /* \"#utility.yul\":3394:3395   */\n      0x00\n        /* \"#utility.yul\":3383:3392   */\n      dup4\n        /* \"#utility.yul\":3379:3396   */\n      add\n        /* \"#utility.yul\":3370:3376   */\n      dup5\n        /* \"#utility.yul\":3326:3397   */\n      tag_71\n      jump\t// in\n    tag_82:\n        /* \"#utility.yul\":3182:3404   */\n      swap3\n      swap2\n      pop\n      pop\n      jump\t// out\n        /* \"#utility.yul\":3491:3660   */\n    tag_63:\n        /* \"#utility.yul\":3575:3586   */\n      0x00\n        /* \"#utility.yul\":3609:3615   */\n      dup3\n        /* \"#utility.yul\":3604:3607   */\n      dup3\n        /* \"#utility.yul\":3597:3616   */\n      mstore\n        /* \"#utility.yul\":3649:3653   */\n      0x20\n        /* \"#utility.yul\":3644:3647   */\n      dup3\n        /* \"#utility.yul\":3640:3654   */\n      add\n        /* \"#utility.yul\":3625:3654   */\n      swap1\n      pop\n        /* \"#utility.yul\":3491:3660   */\n      swap3\n      swap2\n      pop\n      pop\n      jump\t// out\n        /* \"#utility.yul\":3666:3971   */\n    tag_29:\n        /* \"#utility.yul\":3706:3709   */\n      0x00\n        /* \"#utility.yul\":3725:3745   */\n      tag_87\n        /* \"#utility.yul\":3743:3744   */\n      dup3\n        /* \"#utility.yul\":3725:3745   */\n      tag_74\n      jump\t// in\n    tag_87:\n        /* \"#utility.yul\":3720:3745   */\n      swap2\n      pop\n        /* \"#utility.yul\":3759:3779   */\n      tag_88\n        /* \"#utility.yul\":3777:3778   */\n      dup4\n        /* \"#utility.yul\":3759:3779   */\n      tag_74\n      jump\t// in\n    tag_88:\n        /* \"#utility.yul\":3754:3779   */\n      swap3\n      pop\n        /* \"#utility.yul\":3913:3914   */\n      dup3\n        /* \"#utility.yul\":3845:3911   */\n      0xffffffffffffffffffffffffffffffffffffffffffffffffffffffffffffffff\n        /* \"#utility.yul\":3841:3915   */\n      sub\n        /* \"#utility.yul\":3838:3839   */\n      dup3\n        /* \"#utility.yul\":3835:3916   */\n      gt\n        /* \"#utility.yul\":3832:3939   */\n      iszero\n      tag_89\n      jumpi\n        /* \"#utility.yul\":3919:3937   */\n      tag_90\n      tag_91\n      jump\t// in\n    tag_90:\n        /* \"#utility.yul\":3832:3939   */\n    tag_89:\n        /* \"#utility.yul\":3963:3964   */\n      dup3\n        /* \"#utility.yul\":3960:3961   */\n      dup3\n        /* \"#utility.yul\":3956:3965   */\n      add\n        /* \"#utility.yul\":3949:3965   */\n      swap1\n      pop\n        /* \"#utility.yul\":3666:3971   */\n      swap3\n      swap2\n      pop\n      pop\n      jump\t// out\n        /* \"#utility.yul\":3977:4168   */\n    tag_35:\n        /* \"#utility.yul\":4017:4021   */\n      0x00\n        /* \"#utility.yul\":4037:4057   */\n      tag_93\n        /* \"#utility.yul\":4055:4056   */\n      dup3\n        /* \"#utility.yul\":4037:4057   */\n      tag_74\n      jump\t// in\n    tag_93:\n        /* \"#utility.yul\":4032:4057   */\n      swap2\n      pop\n        /* \"#utility.yul\":4071:4091   */\n      tag_94\n        /* \"#utility.yul\":4089:4090   */\n      dup4\n        /* \"#utility.yul\":4071:4091   */\n      tag_74\n      jump\t// in\n    tag_94:\n        /* \"#utility.yul\":4066:4091   */\n      swap3\n      pop\n        /* \"#utility.yul\":4110:4111   */\n      dup3\n        /* \"#utility.yul\":4107:4108   */\n      dup3\n        /* \"#utility.yul\":4104:4112   */\n      lt\n        /* \"#utility.yul\":4101:4135   */\n      iszero\n      tag_95\n      jumpi\n        /* \"#utility.yul\":4115:4133   */\n      tag_96\n      tag_91\n      jump\t// in\n    tag_96:\n        /* \"#utility.yul\":4101:4135   */\n    tag_95:\n        /* \"#utility.yul\":4160:4161   */\n      dup3\n        /* \"#utility.yul\":4157:4158   */\n      dup3\n        /* \"#utility.yul\":4153:4162   */\n      sub\n        /* \"#utility.yul\":4145:4162   */\n      swap1\n      pop\n        /* \"#utility.yul\":3977:4168   */\n      swap3\n      swap2\n      pop\n      pop\n      jump\t// out\n        /* \"#utility.yul\":4174:4270   */\n    tag_59:\n        /* \"#utility.yul\":4211:4218   */\n      0x00\n        /* \"#utility.yul\":4240:4264   */\n      tag_98\n        /* \"#utility.yul\":4258:4263   */\n      dup3\n        /* \"#utility.yul\":4240:4264   */\n      tag_99\n      jump\t// in\n    tag_98:\n        /* \"#utility.yul\":4229:4264   */\n      swap1\n      pop\n        /* \"#utility.yul\":4174:4270   */\n      swap2\n      swap1\n      pop\n      jump\t// out\n        /* \"#utility.yul\":4276:4402   */\n    tag_99:\n        /* \"#utility.yul\":4313:4320   */\n      0x00\n        /* \"#utility.yul\":4353:4395   */\n      0xffffffffffffffffffffffffffffffffffffffff\n        /* \"#utility.yul\":4346:4351   */\n      dup3\n        /* \"#utility.yul\":4342:4396   */\n      and\n        /* \"#utility.yul\":4331:4396   */\n      swap1\n      pop\n        /* \"#utility.yul\":4276:4402   */\n      swap2\n      swap1\n      pop\n      jump\t// out\n        /* \"#utility.yul\":4408:4485   */\n    tag_74:\n        /* \"#utility.yul\":4445:4452   */\n      0x00\n        /* \"#utility.yul\":4474:4479   */\n      dup2\n        /* \"#utility.yul\":4463:4479   */\n      swap1\n      pop\n        /* \"#utility.yul\":4408:4485   */\n      swap2\n      swap1\n      pop\n      jump\t// out\n        /* \"#utility.yul\":4491:4671   */\n    tag_91:\n        /* \"#utility.yul\":4539:4616   */\n      0x4e487b7100000000000000000000000000000000000000000000000000000000\n        /* \"#utility.yul\":4536:4537   */\n      0x00\n        /* \"#utility.yul\":4529:4617   */\n      mstore\n        /* \"#utility.yul\":4636:4640   */\n      0x11\n        /* \"#utility.yul\":4633:4634   */\n      0x04\n        /* \"#utility.yul\":4626:4641   */\n      mstore\n        /* \"#utility.yul\":4660:4664   */\n      0x24\n        /* \"#utility.yul\":4657:4658   */\n      0x00\n        /* \"#utility.yul\":4650:4665   */\n      revert\n        /* \"#utility.yul\":4800:4917   */\n    tag_49:\n        /* \"#utility.yul\":4909:4910   */\n      0x00\n        /* \"#utility.yul\":4906:4907   */\n      dup1\n        /* \"#utility.yul\":4899:4911   */\n      revert\n        /* \"#utility.yul\":4923:5092   */\n    tag_65:\n        /* \"#utility.yul\":5063:5084   */\n      0x796f7572206e6f7420746865206d696e74657200000000000000000000000000\n        /* \"#utility.yul\":5059:5060   */\n      0x00\n        /* \"#utility.yul\":5051:5057   */\n      dup3\n        /* \"#utility.yul\":5047:5061   */\n      add\n        /* \"#utility.yul\":5040:5085   */\n      mstore\n        /* \"#utility.yul\":4923:5092   */\n      pop\n      jump\t// out\n        /* \"#utility.yul\":5098:5268   */\n    tag_70:\n        /* \"#utility.yul\":5238:5260   */\n      0x696e73756666696369656e742042616c616e6365000000000000000000000000\n        /* \"#utility.yul\":5234:5235   */\n      0x00\n        /* \"#utility.yul\":5226:5232   */\n      dup3\n        /* \"#utility.yul\":5222:5236   */\n      add\n        /* \"#utility.yul\":5215:5261   */\n      mstore\n        /* \"#utility.yul\":5098:5268   */\n      pop\n      jump\t// out\n        /* \"#utility.yul\":5274:5396   */\n    tag_41:\n        /* \"#utility.yul\":5347:5371   */\n      tag_109\n        /* \"#utility.yul\":5365:5370   */\n      dup2\n        /* \"#utility.yul\":5347:5371   */\n      tag_59\n      jump\t// in\n    tag_109:\n        /* \"#utility.yul\":5340:5345   */\n      dup2\n        /* \"#utility.yul\":5337:5372   */\n      eq\n        /* \"#utility.yul\":5327:5390   */\n      tag_110\n      jumpi\n        /* \"#utility.yul\":5386:5387   */\n      0x00\n        /* \"#utility.yul\":5383:5384   */\n      dup1\n        /* \"#utility.yul\":5376:5388   */\n      revert\n        /* \"#utility.yul\":5327:5390   */\n    tag_110:\n        /* \"#utility.yul\":5274:5396   */\n      pop\n      jump\t// out\n        /* \"#utility.yul\":5402:5524   */\n    tag_45:\n        /* \"#utility.yul\":5475:5499   */\n      tag_112\n        /* \"#utility.yul\":5493:5498   */\n      dup2\n        /* \"#utility.yul\":5475:5499   */\n      tag_74\n      jump\t// in\n    tag_112:\n        /* \"#utility.yul\":5468:5473   */\n      dup2\n        /* \"#utility.yul\":5465:5500   */\n      eq\n        /* \"#utility.yul\":5455:5518   */\n      tag_113\n      jumpi\n        /* \"#utility.yul\":5514:5515   */\n      0x00\n        /* \"#utility.yul\":5511:5512   */\n      dup1\n        /* \"#utility.yul\":5504:5516   */\n      revert\n        /* \"#utility.yul\":5455:5518   */\n    tag_113:\n        /* \"#utility.yul\":5402:5524   */\n      pop\n      jump\t// out\n\n    auxdata: 0xa2646970667358221220264ab441419b2b0df8e7c5b275f96d1e7f1963a58b6351efde59b2acf24ac6be64736f6c63430008070033\n}\n",
				"bytecode": {
					"linkReferences": {},
					"object": "608060405234801561001057600080fd5b50336000806101000a81548173ffffffffffffffffffffffffffffffffffffffff021916908373ffffffffffffffffffffffffffffffffffffffff16021790555061065f806100606000396000f3fe608060405234801561001057600080fd5b506004361061004c5760003560e01c8063075461721461005157806327e235e31461006f57806340c10f191461009f578063a9059cbb146100bb575b600080fd5b6100596100d7565b6040516100669190610428565b60405180910390f35b61008960048036038101906100849190610357565b6100fb565b6040516100969190610483565b60405180910390f35b6100b960048036038101906100b49190610384565b610113565b005b6100d560048036038101906100d09190610384565b6101fb565b005b60008054906101000a900473ffffffffffffffffffffffffffffffffffffffff1681565b60016020528060005260406000206000915090505481565b60008054906101000a900473ffffffffffffffffffffffffffffffffffffffff1673ffffffffffffffffffffffffffffffffffffffff163373ffffffffffffffffffffffffffffffffffffffff16146101a1576040517f08c379a000000000000000000000000000000000000000000000000000000000815260040161019890610443565b60405180910390fd5b80600160008473ffffffffffffffffffffffffffffffffffffffff1673ffffffffffffffffffffffffffffffffffffffff16815260200190815260200160002060008282546101f091906104af565b925050819055505050565b600160003373ffffffffffffffffffffffffffffffffffffffff1673ffffffffffffffffffffffffffffffffffffffff1681526020019081526020016000205481111561027d576040517f08c379a000000000000000000000000000000000000000000000000000000000815260040161027490610463565b60405180910390fd5b80600160003373ffffffffffffffffffffffffffffffffffffffff1673ffffffffffffffffffffffffffffffffffffffff16815260200190815260200160002060008282546102cc9190610505565b9250508190555080600160008473ffffffffffffffffffffffffffffffffffffffff1673ffffffffffffffffffffffffffffffffffffffff168152602001908152602001600020600082825461032291906104af565b925050819055505050565b60008135905061033c816105fb565b92915050565b60008135905061035181610612565b92915050565b60006020828403121561036d5761036c6105a4565b5b600061037b8482850161032d565b91505092915050565b6000806040838503121561039b5761039a6105a4565b5b60006103a98582860161032d565b92505060206103ba85828601610342565b9150509250929050565b6103cd81610539565b82525050565b60006103e060138361049e565b91506103eb826105a9565b602082019050919050565b600061040360148361049e565b915061040e826105d2565b602082019050919050565b6104228161056b565b82525050565b600060208201905061043d60008301846103c4565b92915050565b6000602082019050818103600083015261045c816103d3565b9050919050565b6000602082019050818103600083015261047c816103f6565b9050919050565b60006020820190506104986000830184610419565b92915050565b600082825260208201905092915050565b60006104ba8261056b565b91506104c58361056b565b9250827fffffffffffffffffffffffffffffffffffffffffffffffffffffffffffffffff038211156104fa576104f9610575565b5b828201905092915050565b60006105108261056b565b915061051b8361056b565b92508282101561052e5761052d610575565b5b828203905092915050565b60006105448261054b565b9050919050565b600073ffffffffffffffffffffffffffffffffffffffff82169050919050565b6000819050919050565b7f4e487b7100000000000000000000000000000000000000000000000000000000600052601160045260246000fd5b600080fd5b7f796f7572206e6f7420746865206d696e74657200000000000000000000000000600082015250565b7f696e73756666696369656e742042616c616e6365000000000000000000000000600082015250565b61060481610539565b811461060f57600080fd5b50565b61061b8161056b565b811461062657600080fd5b5056fea2646970667358221220264ab441419b2b0df8e7c5b275f96d1e7f1963a58b6351efde59b2acf24ac6be64736f6c63430008070033",
					"opcodes": "PUSH1 0x80 PUSH1 0x40 MSTORE CALLVALUE DUP1 ISZERO PUSH2 0x10 JUMPI PUSH1 0x0 DUP1 REVERT JUMPDEST POP CALLER PUSH1 0x0 DUP1 PUSH2 0x100 EXP DUP2 SLOAD DUP2 PUSH20 0xFFFFFFFFFFFFFFFFFFFFFFFFFFFFFFFFFFFFFFFF MUL NOT AND SWAP1 DUP4 PUSH20 0xFFFFFFFFFFFFFFFFFFFFFFFFFFFFFFFFFFFFFFFF AND MUL OR SWAP1 SSTORE POP PUSH2 0x65F DUP1 PUSH2 0x60 PUSH1 0x0 CODECOPY PUSH1 0x0 RETURN INVALID PUSH1 0x80 PUSH1 0x40 MSTORE CALLVALUE DUP1 ISZERO PUSH2 0x10 JUMPI PUSH1 0x0 DUP1 REVERT JUMPDEST POP PUSH1 0x4 CALLDATASIZE LT PUSH2 0x4C JUMPI PUSH1 0x0 CALLDATALOAD PUSH1 0xE0 SHR DUP1 PUSH4 0x7546172 EQ PUSH2 0x51 JUMPI DUP1 PUSH4 0x27E235E3 EQ PUSH2 0x6F JUMPI DUP1 PUSH4 0x40C10F19 EQ PUSH2 0x9F JUMPI DUP1 PUSH4 0xA9059CBB EQ PUSH2 0xBB JUMPI JUMPDEST PUSH1 0x0 DUP1 REVERT JUMPDEST PUSH2 0x59 PUSH2 0xD7 JUMP JUMPDEST PUSH1 0x40 MLOAD PUSH2 0x66 SWAP2 SWAP1 PUSH2 0x428 JUMP JUMPDEST PUSH1 0x40 MLOAD DUP1 SWAP2 SUB SWAP1 RETURN JUMPDEST PUSH2 0x89 PUSH1 0x4 DUP1 CALLDATASIZE SUB DUP2 ADD SWAP1 PUSH2 0x84 SWAP2 SWAP1 PUSH2 0x357 JUMP JUMPDEST PUSH2 0xFB JUMP JUMPDEST PUSH1 0x40 MLOAD PUSH2 0x96 SWAP2 SWAP1 PUSH2 0x483 JUMP JUMPDEST PUSH1 0x40 MLOAD DUP1 SWAP2 SUB SWAP1 RETURN JUMPDEST PUSH2 0xB9 PUSH1 0x4 DUP1 CALLDATASIZE SUB DUP2 ADD SWAP1 PUSH2 0xB4 SWAP2 SWAP1 PUSH2 0x384 JUMP JUMPDEST PUSH2 0x113 JUMP JUMPDEST STOP JUMPDEST PUSH2 0xD5 PUSH1 0x4 DUP1 CALLDATASIZE SUB DUP2 ADD SWAP1 PUSH2 0xD0 SWAP2 SWAP1 PUSH2 0x384 JUMP JUMPDEST PUSH2 0x1FB JUMP JUMPDEST STOP JUMPDEST PUSH1 0x0 DUP1 SLOAD SWAP1 PUSH2 0x100 EXP SWAP1 DIV PUSH20 0xFFFFFFFFFFFFFFFFFFFFFFFFFFFFFFFFFFFFFFFF AND DUP2 JUMP JUMPDEST PUSH1 0x1 PUSH1 0x20 MSTORE DUP1 PUSH1 0x0 MSTORE PUSH1 0x40 PUSH1 0x0 KECCAK256 PUSH1 0x0 SWAP2 POP SWAP1 POP SLOAD DUP2 JUMP JUMPDEST PUSH1 0x0 DUP1 SLOAD SWAP1 PUSH2 0x100 EXP SWAP1 DIV PUSH20 0xFFFFFFFFFFFFFFFFFFFFFFFFFFFFFFFFFFFFFFFF AND PUSH20 0xFFFFFFFFFFFFFFFFFFFFFFFFFFFFFFFFFFFFFFFF AND CALLER PUSH20 0xFFFFFFFFFFFFFFFFFFFFFFFFFFFFFFFFFFFFFFFF AND EQ PUSH2 0x1A1 JUMPI PUSH1 0x40 MLOAD PUSH32 0x8C379A000000000000000000000000000000000000000000000000000000000 DUP2 MSTORE PUSH1 0x4 ADD PUSH2 0x198 SWAP1 PUSH2 0x443 JUMP JUMPDEST PUSH1 0x40 MLOAD DUP1 SWAP2 SUB SWAP1 REVERT JUMPDEST DUP1 PUSH1 0x1 PUSH1 0x0 DUP5 PUSH20 0xFFFFFFFFFFFFFFFFFFFFFFFFFFFFFFFFFFFFFFFF AND PUSH20 0xFFFFFFFFFFFFFFFFFFFFFFFFFFFFFFFFFFFFFFFF AND DUP2 MSTORE PUSH1 0x20 ADD SWAP1 DUP2 MSTORE PUSH1 0x20 ADD PUSH1 0x0 KECCAK256 PUSH1 0x0 DUP3 DUP3 SLOAD PUSH2 0x1F0 SWAP2 SWAP1 PUSH2 0x4AF JUMP JUMPDEST SWAP3 POP POP DUP2 SWAP1 SSTORE POP POP POP JUMP JUMPDEST PUSH1 0x1 PUSH1 0x0 CALLER PUSH20 0xFFFFFFFFFFFFFFFFFFFFFFFFFFFFFFFFFFFFFFFF AND PUSH20 0xFFFFFFFFFFFFFFFFFFFFFFFFFFFFFFFFFFFFFFFF AND DUP2 MSTORE PUSH1 0x20 ADD SWAP1 DUP2 MSTORE PUSH1 0x20 ADD PUSH1 0x0 KECCAK256 SLOAD DUP2 GT ISZERO PUSH2 0x27D JUMPI PUSH1 0x40 MLOAD PUSH32 0x8C379A000000000000000000000000000000000000000000000000000000000 DUP2 MSTORE PUSH1 0x4 ADD PUSH2 0x274 SWAP1 PUSH2 0x463 JUMP JUMPDEST PUSH1 0x40 MLOAD DUP1 SWAP2 SUB SWAP1 REVERT JUMPDEST DUP1 PUSH1 0x1 PUSH1 0x0 CALLER PUSH20 0xFFFFFFFFFFFFFFFFFFFFFFFFFFFFFFFFFFFFFFFF AND PUSH20 0xFFFFFFFFFFFFFFFFFFFFFFFFFFFFFFFFFFFFFFFF AND DUP2 MSTORE PUSH1 0x20 ADD SWAP1 DUP2 MSTORE PUSH1 0x20 ADD PUSH1 0x0 KECCAK256 PUSH1 0x0 DUP3 DUP3 SLOAD PUSH2 0x2CC SWAP2 SWAP1 PUSH2 0x505 JUMP JUMPDEST SWAP3 POP POP DUP2 SWAP1 SSTORE POP DUP1 PUSH1 0x1 PUSH1 0x0 DUP5 PUSH20 0xFFFFFFFFFFFFFFFFFFFFFFFFFFFFFFFFFFFFFFFF AND PUSH20 0xFFFFFFFFFFFFFFFFFFFFFFFFFFFFFFFFFFFFFFFF AND DUP2 MSTORE PUSH1 0x20 ADD SWAP1 DUP2 MSTORE PUSH1 0x20 ADD PUSH1 0x0 KECCAK256 PUSH1 0x0 DUP3 DUP3 SLOAD PUSH2 0x322 SWAP2 SWAP1 PUSH2 0x4AF JUMP JUMPDEST SWAP3 POP POP DUP2 SWAP1 SSTORE POP POP POP JUMP JUMPDEST PUSH1 0x0 DUP2 CALLDATALOAD SWAP1 POP PUSH2 0x33C DUP2 PUSH2 0x5FB JUMP JUMPDEST SWAP3 SWAP2 POP POP JUMP JUMPDEST PUSH1 0x0 DUP2 CALLDATALOAD SWAP1 POP PUSH2 0x351 DUP2 PUSH2 0x612 JUMP JUMPDEST SWAP3 SWAP2 POP POP JUMP JUMPDEST PUSH1 0x0 PUSH1 0x20 DUP3 DUP5 SUB SLT ISZERO PUSH2 0x36D JUMPI PUSH2 0x36C PUSH2 0x5A4 JUMP JUMPDEST JUMPDEST PUSH1 0x0 PUSH2 0x37B DUP5 DUP3 DUP6 ADD PUSH2 0x32D JUMP JUMPDEST SWAP2 POP POP SWAP3 SWAP2 POP POP JUMP JUMPDEST PUSH1 0x0 DUP1 PUSH1 0x40 DUP4 DUP6 SUB SLT ISZERO PUSH2 0x39B JUMPI PUSH2 0x39A PUSH2 0x5A4 JUMP JUMPDEST JUMPDEST PUSH1 0x0 PUSH2 0x3A9 DUP6 DUP3 DUP7 ADD PUSH2 0x32D JUMP JUMPDEST SWAP3 POP POP PUSH1 0x20 PUSH2 0x3BA DUP6 DUP3 DUP7 ADD PUSH2 0x342 JUMP JUMPDEST SWAP2 POP POP SWAP3 POP SWAP3 SWAP1 POP JUMP JUMPDEST PUSH2 0x3CD DUP2 PUSH2 0x539 JUMP JUMPDEST DUP3 MSTORE POP POP JUMP JUMPDEST PUSH1 0x0 PUSH2 0x3E0 PUSH1 0x13 DUP4 PUSH2 0x49E JUMP JUMPDEST SWAP2 POP PUSH2 0x3EB DUP3 PUSH2 0x5A9 JUMP JUMPDEST PUSH1 0x20 DUP3 ADD SWAP1 POP SWAP2 SWAP1 POP JUMP JUMPDEST PUSH1 0x0 PUSH2 0x403 PUSH1 0x14 DUP4 PUSH2 0x49E JUMP JUMPDEST SWAP2 POP PUSH2 0x40E DUP3 PUSH2 0x5D2 JUMP JUMPDEST PUSH1 0x20 DUP3 ADD SWAP1 POP SWAP2 SWAP1 POP JUMP JUMPDEST PUSH2 0x422 DUP2 PUSH2 0x56B JUMP JUMPDEST DUP3 MSTORE POP POP JUMP JUMPDEST PUSH1 0x0 PUSH1 0x20 DUP3 ADD SWAP1 POP PUSH2 0x43D PUSH1 0x0 DUP4 ADD DUP5 PUSH2 0x3C4 JUMP JUMPDEST SWAP3 SWAP2 POP POP JUMP JUMPDEST PUSH1 0x0 PUSH1 0x20 DUP3 ADD SWAP1 POP DUP2 DUP2 SUB PUSH1 0x0 DUP4 ADD MSTORE PUSH2 0x45C DUP2 PUSH2 0x3D3 JUMP JUMPDEST SWAP1 POP SWAP2 SWAP1 POP JUMP JUMPDEST PUSH1 0x0 PUSH1 0x20 DUP3 ADD SWAP1 POP DUP2 DUP2 SUB PUSH1 0x0 DUP4 ADD MSTORE PUSH2 0x47C DUP2 PUSH2 0x3F6 JUMP JUMPDEST SWAP1 POP SWAP2 SWAP1 POP JUMP JUMPDEST PUSH1 0x0 PUSH1 0x20 DUP3 ADD SWAP1 POP PUSH2 0x498 PUSH1 0x0 DUP4 ADD DUP5 PUSH2 0x419 JUMP JUMPDEST SWAP3 SWAP2 POP POP JUMP JUMPDEST PUSH1 0x0 DUP3 DUP3 MSTORE PUSH1 0x20 DUP3 ADD SWAP1 POP SWAP3 SWAP2 POP POP JUMP JUMPDEST PUSH1 0x0 PUSH2 0x4BA DUP3 PUSH2 0x56B JUMP JUMPDEST SWAP2 POP PUSH2 0x4C5 DUP4 PUSH2 0x56B JUMP JUMPDEST SWAP3 POP DUP3 PUSH32 0xFFFFFFFFFFFFFFFFFFFFFFFFFFFFFFFFFFFFFFFFFFFFFFFFFFFFFFFFFFFFFFFF SUB DUP3 GT ISZERO PUSH2 0x4FA JUMPI PUSH2 0x4F9 PUSH2 0x575 JUMP JUMPDEST JUMPDEST DUP3 DUP3 ADD SWAP1 POP SWAP3 SWAP2 POP POP JUMP JUMPDEST PUSH1 0x0 PUSH2 0x510 DUP3 PUSH2 0x56B JUMP JUMPDEST SWAP2 POP PUSH2 0x51B DUP4 PUSH2 0x56B JUMP JUMPDEST SWAP3 POP DUP3 DUP3 LT ISZERO PUSH2 0x52E JUMPI PUSH2 0x52D PUSH2 0x575 JUMP JUMPDEST JUMPDEST DUP3 DUP3 SUB SWAP1 POP SWAP3 SWAP2 POP POP JUMP JUMPDEST PUSH1 0x0 PUSH2 0x544 DUP3 PUSH2 0x54B JUMP JUMPDEST SWAP1 POP SWAP2 SWAP1 POP JUMP JUMPDEST PUSH1 0x0 PUSH20 0xFFFFFFFFFFFFFFFFFFFFFFFFFFFFFFFFFFFFFFFF DUP3 AND SWAP1 POP SWAP2 SWAP1 POP JUMP JUMPDEST PUSH1 0x0 DUP2 SWAP1 POP SWAP2 SWAP1 POP JUMP JUMPDEST PUSH32 0x4E487B7100000000000000000000000000000000000000000000000000000000 PUSH1 0x0 MSTORE PUSH1 0x11 PUSH1 0x4 MSTORE PUSH1 0x24 PUSH1 0x0 REVERT JUMPDEST PUSH1 0x0 DUP1 REVERT JUMPDEST PUSH32 0x796F7572206E6F7420746865206D696E74657200000000000000000000000000 PUSH1 0x0 DUP3 ADD MSTORE POP JUMP JUMPDEST PUSH32 0x696E73756666696369656E742042616C616E6365000000000000000000000000 PUSH1 0x0 DUP3 ADD MSTORE POP JUMP JUMPDEST PUSH2 0x604 DUP2 PUSH2 0x539 JUMP JUMPDEST DUP2 EQ PUSH2 0x60F JUMPI PUSH1 0x0 DUP1 REVERT JUMPDEST POP JUMP JUMPDEST PUSH2 0x61B DUP2 PUSH2 0x56B JUMP JUMPDEST DUP2 EQ PUSH2 0x626 JUMPI PUSH1 0x0 DUP1 REVERT JUMPDEST POP JUMP INVALID LOG2 PUSH5 0x6970667358 0x22 SLT KECCAK256 0x26 0x4A 0xB4 COINBASE COINBASE SWAP12 0x2B 0xD 0xF8 0xE7 0xC5 0xB2 PUSH22 0xF96D1E7F1963A58B6351EFDE59B2ACF24AC6BE64736F PUSH13 0x63430008070033000000000000 "
				},
				"gasEstimates": {
					"creation": {
						"codeDepositCost": "326200",
						"executionCost": "24628",
						"totalCost": "350828"
					},
					"external": {
						"balances(address)": "2814",
						"mint(address,uint256)": "infinite",
						"minter()": "2489",
						"transfer(address,uint256)": "infinite"
					}
				},
				"methodIdentifiers": {
					"balances(address)": "27e235e3",
					"mint(address,uint256)": "40c10f19",
					"minter()": "07546172",
					"transfer(address,uint256)": "a9059cbb"
				}
			},
			"userdoc": {
				"kind": "user",
				"methods": {},
				"version": 1
			}
		}
	}
}