{
	"contracts/erc20.sol": {
		"MyToken": {
			"abi": [
				{
					"inputs": [],
					"stateMutability": "nonpayable",
					"type": "constructor"
				},
				{
					"inputs": [
						{
							"internalType": "address",
							"name": "",
							"type": "address"
						}
					],
					"name": "balances",
					"outputs": [
						{
							"internalType": "uint256",
							"name": "",
							"type": "uint256"
						}
					],
					"stateMutability": "view",
					"type": "function"
				},
				{
					"inputs": [
						{
							"internalType": "address",
							"name": "receiver",
							"type": "address"
						},
						{
							"internalType": "uint256",
							"name": "amount",
							"type": "uint256"
						}
					],
					"name": "burn",
					"outputs": [],
					"stateMutability": "nonpayable",
					"type": "function"
				},
				{
					"inputs": [
						{
							"internalType": "address",
							"name": "receiver",
							"type": "address"
						},
						{
							"internalType": "uint256",
							"name": "amount",
							"type": "uint256"
						}
					],
					"name": "mint",
					"outputs": [],
					"stateMutability": "nonpayable",
					"type": "function"
				},
				{
					"inputs": [],
					"name": "minter",
					"outputs": [
						{
							"internalType": "address",
							"name": "",
							"type": "address"
						}
					],
					"stateMutability": "view",
					"type": "function"
				},
				{
					"inputs": [
						{
							"internalType": "address",
							"name": "receiver",
							"type": "address"
						},
						{
							"internalType": "uint256",
							"name": "amount",
							"type": "uint256"
						}
					],
					"name": "transfer",
					"outputs": [],
					"stateMutability": "nonpayable",
					"type": "function"
				}
			],
			"devdoc": {
				"kind": "dev",
				"methods": {},
				"version": 1
			},
			"evm": {
				"assembly": "    /* \"contracts/erc20.sol\":72:750  contract MyToken {\r... */\n  mstore(0x40, 0x80)\n    /* \"contracts/erc20.sol\":175:248  constructor() {\r... */\n  callvalue\n  dup1\n  iszero\n  tag_1\n  jumpi\n  0x00\n  dup1\n  revert\ntag_1:\n  pop\n    /* \"contracts/erc20.sol\":204:214  msg.sender */\n  caller\n    /* \"contracts/erc20.sol\":196:202  minter */\n  0x00\n  dup1\n    /* \"contracts/erc20.sol\":196:214  minter =msg.sender */\n  0x0100\n  exp\n  dup2\n  sload\n  dup2\n  0xffffffffffffffffffffffffffffffffffffffff\n  mul\n  not\n  and\n  swap1\n  dup4\n  0xffffffffffffffffffffffffffffffffffffffff\n  and\n  mul\n  or\n  swap1\n  sstore\n  pop\n    /* \"contracts/erc20.sol\":72:750  contract MyToken {\r... */\n  dataSize(sub_0)\n  dup1\n  dataOffset(sub_0)\n  0x00\n  codecopy\n  0x00\n  return\nstop\n\nsub_0: assembly {\n        /* \"contracts/erc20.sol\":72:750  contract MyToken {\r... */\n      mstore(0x40, 0x80)\n      callvalue\n      dup1\n      iszero\n      tag_1\n      jumpi\n      0x00\n      dup1\n      revert\n    tag_1:\n      pop\n      jumpi(tag_2, lt(calldatasize, 0x04))\n      shr(0xe0, calldataload(0x00))\n      dup1\n      0x07546172\n      eq\n      tag_3\n      jumpi\n      dup1\n      0x27e235e3\n      eq\n      tag_4\n      jumpi\n      dup1\n      0x40c10f19\n      eq\n      tag_5\n      jumpi\n      dup1\n      0x9dc29fac\n      eq\n      tag_6\n      jumpi\n      dup1\n      0xa9059cbb\n      eq\n      tag_7\n      jumpi\n    tag_2:\n      0x00\n      dup1\n      revert\n        /* \"contracts/erc20.sol\":96:117  address public minter */\n    tag_3:\n      tag_8\n      tag_9\n      jump\t// in\n    tag_8:\n      mload(0x40)\n      tag_10\n      swap2\n      swap1\n      tag_11\n      jump\t// in\n    tag_10:\n      mload(0x40)\n      dup1\n      swap2\n      sub\n      swap1\n      return\n        /* \"contracts/erc20.sol\":124:164  mapping (address =>uint) public balances */\n    tag_4:\n      tag_12\n      0x04\n      dup1\n      calldatasize\n      sub\n      dup2\n      add\n      swap1\n      tag_13\n      swap2\n      swap1\n      tag_14\n      jump\t// in\n    tag_13:\n      tag_15\n      jump\t// in\n    tag_12:\n      mload(0x40)\n      tag_16\n      swap2\n      swap1\n      tag_17\n      jump\t// in\n    tag_16:\n      mload(0x40)\n      dup1\n      swap2\n      sub\n      swap1\n      return\n        /* \"contracts/erc20.sol\":253:407  function mint(address receiver,uint amount) public {\r... */\n    tag_5:\n      tag_18\n      0x04\n      dup1\n      calldatasize\n      sub\n      dup2\n      add\n      swap1\n      tag_19\n      swap2\n      swap1\n      tag_20\n      jump\t// in\n    tag_19:\n      tag_21\n      jump\t// in\n    tag_18:\n      stop\n        /* \"contracts/erc20.sol\":411:565  function burn(address receiver,uint amount) public {\r... */\n    tag_6:\n      tag_22\n      0x04\n      dup1\n      calldatasize\n      sub\n      dup2\n      add\n      swap1\n      tag_23\n      swap2\n      swap1\n      tag_20\n      jump\t// in\n    tag_23:\n      tag_24\n      jump\t// in\n    tag_22:\n      stop\n        /* \"contracts/erc20.sol\":569:747  function transfer(address receiver, uint amount) public {\r... */\n    tag_7:\n      tag_25\n      0x04\n      dup1\n      calldatasize\n      sub\n      dup2\n      add\n      swap1\n      tag_26\n      swap2\n      swap1\n      tag_20\n      jump\t// in\n    tag_26:\n      tag_27\n      jump\t// in\n    tag_25:\n      stop\n        /* \"contracts/erc20.sol\":96:117  address public minter */\n    tag_9:\n      0x00\n      dup1\n      sload\n      swap1\n      0x0100\n      exp\n      swap1\n      div\n      0xffffffffffffffffffffffffffffffffffffffff\n      and\n      dup2\n      jump\t// out\n        /* \"contracts/erc20.sol\":124:164  mapping (address =>uint) public balances */\n    tag_15:\n      mstore(0x20, 0x01)\n      dup1\n      0x00\n      mstore\n      keccak256(0x00, 0x40)\n      0x00\n      swap2\n      pop\n      swap1\n      pop\n      sload\n      dup2\n      jump\t// out\n        /* \"contracts/erc20.sol\":253:407  function mint(address receiver,uint amount) public {\r... */\n    tag_21:\n        /* \"contracts/erc20.sol\":336:342  minter */\n      0x00\n      dup1\n      sload\n      swap1\n      0x0100\n      exp\n      swap1\n      div\n      0xffffffffffffffffffffffffffffffffffffffff\n      and\n        /* \"contracts/erc20.sol\":322:342  msg.sender == minter */\n      0xffffffffffffffffffffffffffffffffffffffff\n      and\n        /* \"contracts/erc20.sol\":322:332  msg.sender */\n      caller\n        /* \"contracts/erc20.sol\":322:342  msg.sender == minter */\n      0xffffffffffffffffffffffffffffffffffffffff\n      and\n      eq\n        /* \"contracts/erc20.sol\":314:365  require(msg.sender == minter,\"your not the minter\") */\n      tag_29\n      jumpi\n      mload(0x40)\n      0x08c379a000000000000000000000000000000000000000000000000000000000\n      dup2\n      mstore\n      0x04\n      add\n      tag_30\n      swap1\n      tag_31\n      jump\t// in\n    tag_30:\n      mload(0x40)\n      dup1\n      swap2\n      sub\n      swap1\n      revert\n    tag_29:\n        /* \"contracts/erc20.sol\":397:403  amount */\n      dup1\n        /* \"contracts/erc20.sol\":375:383  balances */\n      0x01\n        /* \"contracts/erc20.sol\":375:393  balances[receiver] */\n      0x00\n        /* \"contracts/erc20.sol\":384:392  receiver */\n      dup5\n        /* \"contracts/erc20.sol\":375:393  balances[receiver] */\n      0xffffffffffffffffffffffffffffffffffffffff\n      and\n      0xffffffffffffffffffffffffffffffffffffffff\n      and\n      dup2\n      mstore\n      0x20\n      add\n      swap1\n      dup2\n      mstore\n      0x20\n      add\n      0x00\n      keccak256\n      0x00\n        /* \"contracts/erc20.sol\":375:403  balances[receiver] += amount */\n      dup3\n      dup3\n      sload\n      tag_32\n      swap2\n      swap1\n      tag_33\n      jump\t// in\n    tag_32:\n      swap3\n      pop\n      pop\n      dup2\n      swap1\n      sstore\n      pop\n        /* \"contracts/erc20.sol\":253:407  function mint(address receiver,uint amount) public {\r... */\n      pop\n      pop\n      jump\t// out\n        /* \"contracts/erc20.sol\":411:565  function burn(address receiver,uint amount) public {\r... */\n    tag_24:\n        /* \"contracts/erc20.sol\":494:500  minter */\n      0x00\n      dup1\n      sload\n      swap1\n      0x0100\n      exp\n      swap1\n      div\n      0xffffffffffffffffffffffffffffffffffffffff\n      and\n        /* \"contracts/erc20.sol\":480:500  msg.sender == minter */\n      0xffffffffffffffffffffffffffffffffffffffff\n      and\n        /* \"contracts/erc20.sol\":480:490  msg.sender */\n      caller\n        /* \"contracts/erc20.sol\":480:500  msg.sender == minter */\n      0xffffffffffffffffffffffffffffffffffffffff\n      and\n      eq\n        /* \"contracts/erc20.sol\":472:523  require(msg.sender == minter,\"your not the minter\") */\n      tag_35\n      jumpi\n      mload(0x40)\n      0x08c379a000000000000000000000000000000000000000000000000000000000\n      dup2\n      mstore\n      0x04\n      add\n      tag_36\n      swap1\n      tag_31\n      jump\t// in\n    tag_36:\n      mload(0x40)\n      dup1\n      swap2\n      sub\n      swap1\n      revert\n    tag_35:\n        /* \"contracts/erc20.sol\":555:561  amount */\n      dup1\n        /* \"contracts/erc20.sol\":533:541  balances */\n      0x01\n        /* \"contracts/erc20.sol\":533:551  balances[receiver] */\n      0x00\n        /* \"contracts/erc20.sol\":542:550  receiver */\n      dup5\n        /* \"contracts/erc20.sol\":533:551  balances[receiver] */\n      0xffffffffffffffffffffffffffffffffffffffff\n      and\n      0xffffffffffffffffffffffffffffffffffffffff\n      and\n      dup2\n      mstore\n      0x20\n      add\n      swap1\n      dup2\n      mstore\n      0x20\n      add\n      0x00\n      keccak256\n      0x00\n        /* \"contracts/erc20.sol\":533:561  balances[receiver] -= amount */\n      dup3\n      dup3\n      sload\n      tag_37\n      swap2\n      swap1\n      tag_38\n      jump\t// in\n    tag_37:\n      swap3\n      pop\n      pop\n      dup2\n      swap1\n      sstore\n      pop\n        /* \"contracts/erc20.sol\":411:565  function burn(address receiver,uint amount) public {\r... */\n      pop\n      pop\n      jump\t// out\n        /* \"contracts/erc20.sol\":569:747  function transfer(address receiver, uint amount) public {\r... */\n    tag_27:\n        /* \"contracts/erc20.sol\":662:668  amount */\n      dup1\n        /* \"contracts/erc20.sol\":640:648  balances */\n      0x01\n        /* \"contracts/erc20.sol\":640:660  balances[msg.sender] */\n      0x00\n        /* \"contracts/erc20.sol\":649:659  msg.sender */\n      caller\n        /* \"contracts/erc20.sol\":640:660  balances[msg.sender] */\n      0xffffffffffffffffffffffffffffffffffffffff\n      and\n      0xffffffffffffffffffffffffffffffffffffffff\n      and\n      dup2\n      mstore\n      0x20\n      add\n      swap1\n      dup2\n      mstore\n      0x20\n      add\n      0x00\n      keccak256\n      sload\n        /* \"contracts/erc20.sol\":640:668  balances[msg.sender]>=amount */\n      lt\n      iszero\n        /* \"contracts/erc20.sol\":632:669  require(balances[msg.sender]>=amount) */\n      tag_40\n      jumpi\n      0x00\n      dup1\n      revert\n    tag_40:\n        /* \"contracts/erc20.sol\":700:706  amount */\n      dup1\n        /* \"contracts/erc20.sol\":676:684  balances */\n      0x01\n        /* \"contracts/erc20.sol\":676:696  balances[msg.sender] */\n      0x00\n        /* \"contracts/erc20.sol\":685:695  msg.sender */\n      caller\n        /* \"contracts/erc20.sol\":676:696  balances[msg.sender] */\n      0xffffffffffffffffffffffffffffffffffffffff\n      and\n      0xffffffffffffffffffffffffffffffffffffffff\n      and\n      dup2\n      mstore\n      0x20\n      add\n      swap1\n      dup2\n      mstore\n      0x20\n      add\n      0x00\n      keccak256\n      0x00\n        /* \"contracts/erc20.sol\":676:706  balances[msg.sender] -= amount */\n      dup3\n      dup3\n      sload\n      tag_41\n      swap2\n      swap1\n      tag_38\n      jump\t// in\n    tag_41:\n      swap3\n      pop\n      pop\n      dup2\n      swap1\n      sstore\n      pop\n        /* \"contracts/erc20.sol\":735:741  amount */\n      dup1\n        /* \"contracts/erc20.sol\":713:721  balances */\n      0x01\n        /* \"contracts/erc20.sol\":713:731  balances[receiver] */\n      0x00\n        /* \"contracts/erc20.sol\":722:730  receiver */\n      dup5\n        /* \"contracts/erc20.sol\":713:731  balances[receiver] */\n      0xffffffffffffffffffffffffffffffffffffffff\n      and\n      0xffffffffffffffffffffffffffffffffffffffff\n      and\n      dup2\n      mstore\n      0x20\n      add\n      swap1\n      dup2\n      mstore\n      0x20\n      add\n      0x00\n      keccak256\n      0x00\n        /* \"contracts/erc20.sol\":713:741  balances[receiver] += amount */\n      dup3\n      dup3\n      sload\n      tag_42\n      swap2\n      swap1\n      tag_33\n      jump\t// in\n    tag_42:\n      swap3\n      pop\n      pop\n      dup2\n      swap1\n      sstore\n      pop\n        /* \"contracts/erc20.sol\":569:747  function transfer(address receiver, uint amount) public {\r... */\n      pop\n      pop\n      jump\t// out\n        /* \"#utility.yul\":7:146   */\n    tag_44:\n        /* \"#utility.yul\":53:58   */\n      0x00\n        /* \"#utility.yul\":91:97   */\n      dup2\n        /* \"#utility.yul\":78:98   */\n      calldataload\n        /* \"#utility.yul\":69:98   */\n      swap1\n      pop\n        /* \"#utility.yul\":107:140   */\n      tag_46\n        /* \"#utility.yul\":134:139   */\n      dup2\n        /* \"#utility.yul\":107:140   */\n      tag_47\n      jump\t// in\n    tag_46:\n        /* \"#utility.yul\":7:146   */\n      swap3\n      swap2\n      pop\n      pop\n      jump\t// out\n        /* \"#utility.yul\":152:291   */\n    tag_48:\n        /* \"#utility.yul\":198:203   */\n      0x00\n        /* \"#utility.yul\":236:242   */\n      dup2\n        /* \"#utility.yul\":223:243   */\n      calldataload\n        /* \"#utility.yul\":214:243   */\n      swap1\n      pop\n        /* \"#utility.yul\":252:285   */\n      tag_50\n        /* \"#utility.yul\":279:284   */\n      dup2\n        /* \"#utility.yul\":252:285   */\n      tag_51\n      jump\t// in\n    tag_50:\n        /* \"#utility.yul\":152:291   */\n      swap3\n      swap2\n      pop\n      pop\n      jump\t// out\n        /* \"#utility.yul\":297:626   */\n    tag_14:\n        /* \"#utility.yul\":356:362   */\n      0x00\n        /* \"#utility.yul\":405:407   */\n      0x20\n        /* \"#utility.yul\":393:402   */\n      dup3\n        /* \"#utility.yul\":384:391   */\n      dup5\n        /* \"#utility.yul\":380:403   */\n      sub\n        /* \"#utility.yul\":376:408   */\n      slt\n        /* \"#utility.yul\":373:492   */\n      iszero\n      tag_53\n      jumpi\n        /* \"#utility.yul\":411:490   */\n      tag_54\n      tag_55\n      jump\t// in\n    tag_54:\n        /* \"#utility.yul\":373:492   */\n    tag_53:\n        /* \"#utility.yul\":531:532   */\n      0x00\n        /* \"#utility.yul\":556:609   */\n      tag_56\n        /* \"#utility.yul\":601:608   */\n      dup5\n        /* \"#utility.yul\":592:598   */\n      dup3\n        /* \"#utility.yul\":581:590   */\n      dup6\n        /* \"#utility.yul\":577:599   */\n      add\n        /* \"#utility.yul\":556:609   */\n      tag_44\n      jump\t// in\n    tag_56:\n        /* \"#utility.yul\":546:609   */\n      swap2\n      pop\n        /* \"#utility.yul\":502:619   */\n      pop\n        /* \"#utility.yul\":297:626   */\n      swap3\n      swap2\n      pop\n      pop\n      jump\t// out\n        /* \"#utility.yul\":632:1106   */\n    tag_20:\n        /* \"#utility.yul\":700:706   */\n      0x00\n        /* \"#utility.yul\":708:714   */\n      dup1\n        /* \"#utility.yul\":757:759   */\n      0x40\n        /* \"#utility.yul\":745:754   */\n      dup4\n        /* \"#utility.yul\":736:743   */\n      dup6\n        /* \"#utility.yul\":732:755   */\n      sub\n        /* \"#utility.yul\":728:760   */\n      slt\n        /* \"#utility.yul\":725:844   */\n      iszero\n      tag_58\n      jumpi\n        /* \"#utility.yul\":763:842   */\n      tag_59\n      tag_55\n      jump\t// in\n    tag_59:\n        /* \"#utility.yul\":725:844   */\n    tag_58:\n        /* \"#utility.yul\":883:884   */\n      0x00\n        /* \"#utility.yul\":908:961   */\n      tag_60\n        /* \"#utility.yul\":953:960   */\n      dup6\n        /* \"#utility.yul\":944:950   */\n      dup3\n        /* \"#utility.yul\":933:942   */\n      dup7\n        /* \"#utility.yul\":929:951   */\n      add\n        /* \"#utility.yul\":908:961   */\n      tag_44\n      jump\t// in\n    tag_60:\n        /* \"#utility.yul\":898:961   */\n      swap3\n      pop\n        /* \"#utility.yul\":854:971   */\n      pop\n        /* \"#utility.yul\":1010:1012   */\n      0x20\n        /* \"#utility.yul\":1036:1089   */\n      tag_61\n        /* \"#utility.yul\":1081:1088   */\n      dup6\n        /* \"#utility.yul\":1072:1078   */\n      dup3\n        /* \"#utility.yul\":1061:1070   */\n      dup7\n        /* \"#utility.yul\":1057:1079   */\n      add\n        /* \"#utility.yul\":1036:1089   */\n      tag_48\n      jump\t// in\n    tag_61:\n        /* \"#utility.yul\":1026:1089   */\n      swap2\n      pop\n        /* \"#utility.yul\":981:1099   */\n      pop\n        /* \"#utility.yul\":632:1106   */\n      swap3\n      pop\n      swap3\n      swap1\n      pop\n      jump\t// out\n        /* \"#utility.yul\":1112:1230   */\n    tag_62:\n        /* \"#utility.yul\":1199:1223   */\n      tag_64\n        /* \"#utility.yul\":1217:1222   */\n      dup2\n        /* \"#utility.yul\":1199:1223   */\n      tag_65\n      jump\t// in\n    tag_64:\n        /* \"#utility.yul\":1194:1197   */\n      dup3\n        /* \"#utility.yul\":1187:1224   */\n      mstore\n        /* \"#utility.yul\":1112:1230   */\n      pop\n      pop\n      jump\t// out\n        /* \"#utility.yul\":1236:1602   */\n    tag_66:\n        /* \"#utility.yul\":1378:1381   */\n      0x00\n        /* \"#utility.yul\":1399:1466   */\n      tag_68\n        /* \"#utility.yul\":1463:1465   */\n      0x13\n        /* \"#utility.yul\":1458:1461   */\n      dup4\n        /* \"#utility.yul\":1399:1466   */\n      tag_69\n      jump\t// in\n    tag_68:\n        /* \"#utility.yul\":1392:1466   */\n      swap2\n      pop\n        /* \"#utility.yul\":1475:1568   */\n      tag_70\n        /* \"#utility.yul\":1564:1567   */\n      dup3\n        /* \"#utility.yul\":1475:1568   */\n      tag_71\n      jump\t// in\n    tag_70:\n        /* \"#utility.yul\":1593:1595   */\n      0x20\n        /* \"#utility.yul\":1588:1591   */\n      dup3\n        /* \"#utility.yul\":1584:1596   */\n      add\n        /* \"#utility.yul\":1577:1596   */\n      swap1\n      pop\n        /* \"#utility.yul\":1236:1602   */\n      swap2\n      swap1\n      pop\n      jump\t// out\n        /* \"#utility.yul\":1608:1726   */\n    tag_72:\n        /* \"#utility.yul\":1695:1719   */\n      tag_74\n        /* \"#utility.yul\":1713:1718   */\n      dup2\n        /* \"#utility.yul\":1695:1719   */\n      tag_75\n      jump\t// in\n    tag_74:\n        /* \"#utility.yul\":1690:1693   */\n      dup3\n        /* \"#utility.yul\":1683:1720   */\n      mstore\n        /* \"#utility.yul\":1608:1726   */\n      pop\n      pop\n      jump\t// out\n        /* \"#utility.yul\":1732:1954   */\n    tag_11:\n        /* \"#utility.yul\":1825:1829   */\n      0x00\n        /* \"#utility.yul\":1863:1865   */\n      0x20\n        /* \"#utility.yul\":1852:1861   */\n      dup3\n        /* \"#utility.yul\":1848:1866   */\n      add\n        /* \"#utility.yul\":1840:1866   */\n      swap1\n      pop\n        /* \"#utility.yul\":1876:1947   */\n      tag_77\n        /* \"#utility.yul\":1944:1945   */\n      0x00\n        /* \"#utility.yul\":1933:1942   */\n      dup4\n        /* \"#utility.yul\":1929:1946   */\n      add\n        /* \"#utility.yul\":1920:1926   */\n      dup5\n        /* \"#utility.yul\":1876:1947   */\n      tag_62\n      jump\t// in\n    tag_77:\n        /* \"#utility.yul\":1732:1954   */\n      swap3\n      swap2\n      pop\n      pop\n      jump\t// out\n        /* \"#utility.yul\":1960:2379   */\n    tag_31:\n        /* \"#utility.yul\":2126:2130   */\n      0x00\n        /* \"#utility.yul\":2164:2166   */\n      0x20\n        /* \"#utility.yul\":2153:2162   */\n      dup3\n        /* \"#utility.yul\":2149:2167   */\n      add\n        /* \"#utility.yul\":2141:2167   */\n      swap1\n      pop\n        /* \"#utility.yul\":2213:2222   */\n      dup2\n        /* \"#utility.yul\":2207:2211   */\n      dup2\n        /* \"#utility.yul\":2203:2223   */\n      sub\n        /* \"#utility.yul\":2199:2200   */\n      0x00\n        /* \"#utility.yul\":2188:2197   */\n      dup4\n        /* \"#utility.yul\":2184:2201   */\n      add\n        /* \"#utility.yul\":2177:2224   */\n      mstore\n        /* \"#utility.yul\":2241:2372   */\n      tag_79\n        /* \"#utility.yul\":2367:2371   */\n      dup2\n        /* \"#utility.yul\":2241:2372   */\n      tag_66\n      jump\t// in\n    tag_79:\n        /* \"#utility.yul\":2233:2372   */\n      swap1\n      pop\n        /* \"#utility.yul\":1960:2379   */\n      swap2\n      swap1\n      pop\n      jump\t// out\n        /* \"#utility.yul\":2385:2607   */\n    tag_17:\n        /* \"#utility.yul\":2478:2482   */\n      0x00\n        /* \"#utility.yul\":2516:2518   */\n      0x20\n        /* \"#utility.yul\":2505:2514   */\n      dup3\n        /* \"#utility.yul\":2501:2519   */\n      add\n        /* \"#utility.yul\":2493:2519   */\n      swap1\n      pop\n        /* \"#utility.yul\":2529:2600   */\n      tag_81\n        /* \"#utility.yul\":2597:2598   */\n      0x00\n        /* \"#utility.yul\":2586:2595   */\n      dup4\n        /* \"#utility.yul\":2582:2599   */\n      add\n        /* \"#utility.yul\":2573:2579   */\n      dup5\n        /* \"#utility.yul\":2529:2600   */\n      tag_72\n      jump\t// in\n    tag_81:\n        /* \"#utility.yul\":2385:2607   */\n      swap3\n      swap2\n      pop\n      pop\n      jump\t// out\n        /* \"#utility.yul\":2694:2863   */\n    tag_69:\n        /* \"#utility.yul\":2778:2789   */\n      0x00\n        /* \"#utility.yul\":2812:2818   */\n      dup3\n        /* \"#utility.yul\":2807:2810   */\n      dup3\n        /* \"#utility.yul\":2800:2819   */\n      mstore\n        /* \"#utility.yul\":2852:2856   */\n      0x20\n        /* \"#utility.yul\":2847:2850   */\n      dup3\n        /* \"#utility.yul\":2843:2857   */\n      add\n        /* \"#utility.yul\":2828:2857   */\n      swap1\n      pop\n        /* \"#utility.yul\":2694:2863   */\n      swap3\n      swap2\n      pop\n      pop\n      jump\t// out\n        /* \"#utility.yul\":2869:3174   */\n    tag_33:\n        /* \"#utility.yul\":2909:2912   */\n      0x00\n        /* \"#utility.yul\":2928:2948   */\n      tag_86\n        /* \"#utility.yul\":2946:2947   */\n      dup3\n        /* \"#utility.yul\":2928:2948   */\n      tag_75\n      jump\t// in\n    tag_86:\n        /* \"#utility.yul\":2923:2948   */\n      swap2\n      pop\n        /* \"#utility.yul\":2962:2982   */\n      tag_87\n        /* \"#utility.yul\":2980:2981   */\n      dup4\n        /* \"#utility.yul\":2962:2982   */\n      tag_75\n      jump\t// in\n    tag_87:\n        /* \"#utility.yul\":2957:2982   */\n      swap3\n      pop\n        /* \"#utility.yul\":3116:3117   */\n      dup3\n        /* \"#utility.yul\":3048:3114   */\n      0xffffffffffffffffffffffffffffffffffffffffffffffffffffffffffffffff\n        /* \"#utility.yul\":3044:3118   */\n      sub\n        /* \"#utility.yul\":3041:3042   */\n      dup3\n        /* \"#utility.yul\":3038:3119   */\n      gt\n        /* \"#utility.yul\":3035:3142   */\n      iszero\n      tag_88\n      jumpi\n        /* \"#utility.yul\":3122:3140   */\n      tag_89\n      tag_90\n      jump\t// in\n    tag_89:\n        /* \"#utility.yul\":3035:3142   */\n    tag_88:\n        /* \"#utility.yul\":3166:3167   */\n      dup3\n        /* \"#utility.yul\":3163:3164   */\n      dup3\n        /* \"#utility.yul\":3159:3168   */\n      add\n        /* \"#utility.yul\":3152:3168   */\n      swap1\n      pop\n        /* \"#utility.yul\":2869:3174   */\n      swap3\n      swap2\n      pop\n      pop\n      jump\t// out\n        /* \"#utility.yul\":3180:3371   */\n    tag_38:\n        /* \"#utility.yul\":3220:3224   */\n      0x00\n        /* \"#utility.yul\":3240:3260   */\n      tag_92\n        /* \"#utility.yul\":3258:3259   */\n      dup3\n        /* \"#utility.yul\":3240:3260   */\n      tag_75\n      jump\t// in\n    tag_92:\n        /* \"#utility.yul\":3235:3260   */\n      swap2\n      pop\n        /* \"#utility.yul\":3274:3294   */\n      tag_93\n        /* \"#utility.yul\":3292:3293   */\n      dup4\n        /* \"#utility.yul\":3274:3294   */\n      tag_75\n      jump\t// in\n    tag_93:\n        /* \"#utility.yul\":3269:3294   */\n      swap3\n      pop\n        /* \"#utility.yul\":3313:3314   */\n      dup3\n        /* \"#utility.yul\":3310:3311   */\n      dup3\n        /* \"#utility.yul\":3307:3315   */\n      lt\n        /* \"#utility.yul\":3304:3338   */\n      iszero\n      tag_94\n      jumpi\n        /* \"#utility.yul\":3318:3336   */\n      tag_95\n      tag_90\n      jump\t// in\n    tag_95:\n        /* \"#utility.yul\":3304:3338   */\n    tag_94:\n        /* \"#utility.yul\":3363:3364   */\n      dup3\n        /* \"#utility.yul\":3360:3361   */\n      dup3\n        /* \"#utility.yul\":3356:3365   */\n      sub\n        /* \"#utility.yul\":3348:3365   */\n      swap1\n      pop\n        /* \"#utility.yul\":3180:3371   */\n      swap3\n      swap2\n      pop\n      pop\n      jump\t// out\n        /* \"#utility.yul\":3377:3473   */\n    tag_65:\n        /* \"#utility.yul\":3414:3421   */\n      0x00\n        /* \"#utility.yul\":3443:3467   */\n      tag_97\n        /* \"#utility.yul\":3461:3466   */\n      dup3\n        /* \"#utility.yul\":3443:3467   */\n      tag_98\n      jump\t// in\n    tag_97:\n        /* \"#utility.yul\":3432:3467   */\n      swap1\n      pop\n        /* \"#utility.yul\":3377:3473   */\n      swap2\n      swap1\n      pop\n      jump\t// out\n        /* \"#utility.yul\":3479:3605   */\n    tag_98:\n        /* \"#utility.yul\":3516:3523   */\n      0x00\n        /* \"#utility.yul\":3556:3598   */\n      0xffffffffffffffffffffffffffffffffffffffff\n        /* \"#utility.yul\":3549:3554   */\n      dup3\n        /* \"#utility.yul\":3545:3599   */\n      and\n        /* \"#utility.yul\":3534:3599   */\n      swap1\n      pop\n        /* \"#utility.yul\":3479:3605   */\n      swap2\n      swap1\n      pop\n      jump\t// out\n        /* \"#utility.yul\":3611:3688   */\n    tag_75:\n        /* \"#utility.yul\":3648:3655   */\n      0x00\n        /* \"#utility.yul\":3677:3682   */\n      dup2\n        /* \"#utility.yul\":3666:3682   */\n      swap1\n      pop\n        /* \"#utility.yul\":3611:3688   */\n      swap2\n      swap1\n      pop\n      jump\t// out\n        /* \"#utility.yul\":3694:3874   */\n    tag_90:\n        /* \"#utility.yul\":3742:3819   */\n      0x4e487b7100000000000000000000000000000000000000000000000000000000\n        /* \"#utility.yul\":3739:3740   */\n      0x00\n        /* \"#utility.yul\":3732:3820   */\n      mstore\n        /* \"#utility.yul\":3839:3843   */\n      0x11\n        /* \"#utility.yul\":3836:3837   */\n      0x04\n        /* \"#utility.yul\":3829:3844   */\n      mstore\n        /* \"#utility.yul\":3863:3867   */\n      0x24\n        /* \"#utility.yul\":3860:3861   */\n      0x00\n        /* \"#utility.yul\":3853:3868   */\n      revert\n        /* \"#utility.yul\":4003:4120   */\n    tag_55:\n        /* \"#utility.yul\":4112:4113   */\n      0x00\n        /* \"#utility.yul\":4109:4110   */\n      dup1\n        /* \"#utility.yul\":4102:4114   */\n      revert\n        /* \"#utility.yul\":4126:4295   */\n    tag_71:\n        /* \"#utility.yul\":4266:4287   */\n      0x796f7572206e6f7420746865206d696e74657200000000000000000000000000\n        /* \"#utility.yul\":4262:4263   */\n      0x00\n        /* \"#utility.yul\":4254:4260   */\n      dup3\n        /* \"#utility.yul\":4250:4264   */\n      add\n        /* \"#utility.yul\":4243:4288   */\n      mstore\n        /* \"#utility.yul\":4126:4295   */\n      pop\n      jump\t// out\n        /* \"#utility.yul\":4301:4423   */\n    tag_47:\n        /* \"#utility.yul\":4374:4398   */\n      tag_107\n        /* \"#utility.yul\":4392:4397   */\n      dup2\n        /* \"#utility.yul\":4374:4398   */\n      tag_65\n      jump\t// in\n    tag_107:\n        /* \"#utility.yul\":4367:4372   */\n      dup2\n        /* \"#utility.yul\":4364:4399   */\n      eq\n        /* \"#utility.yul\":4354:4417   */\n      tag_108\n      jumpi\n        /* \"#utility.yul\":4413:4414   */\n      0x00\n        /* \"#utility.yul\":4410:4411   */\n      dup1\n        /* \"#utility.yul\":4403:4415   */\n      revert\n        /* \"#utility.yul\":4354:4417   */\n    tag_108:\n        /* \"#utility.yul\":4301:4423   */\n      pop\n      jump\t// out\n        /* \"#utility.yul\":4429:4551   */\n    tag_51:\n        /* \"#utility.yul\":4502:4526   */\n      tag_110\n        /* \"#utility.yul\":4520:4525   */\n      dup2\n        /* \"#utility.yul\":4502:4526   */\n      tag_75\n      jump\t// in\n    tag_110:\n        /* \"#utility.yul\":4495:4500   */\n      dup2\n        /* \"#utility.yul\":4492:4527   */\n      eq\n        /* \"#utility.yul\":4482:4545   */\n      tag_111\n      jumpi\n        /* \"#utility.yul\":4541:4542   */\n      0x00\n        /* \"#utility.yul\":4538:4539   */\n      dup1\n        /* \"#utility.yul\":4531:4543   */\n      revert\n        /* \"#utility.yul\":4482:4545   */\n    tag_111:\n        /* \"#utility.yul\":4429:4551   */\n      pop\n      jump\t// out\n\n    auxdata: 0xa264697066735822122055d8aef52b2eef24911018a86a367d6a49e7de14a20e965a013feb0482012ce164736f6c63430008070033\n}\n",
				"bytecode": {
					"linkReferences": {},
					"object": "608060405234801561001057600080fd5b50336000806101000a81548173ffffffffffffffffffffffffffffffffffffffff021916908373ffffffffffffffffffffffffffffffffffffffff1602179055506106cc806100606000396000f3fe608060405234801561001057600080fd5b50600436106100575760003560e01c8063075461721461005c57806327e235e31461007a57806340c10f19146100aa5780639dc29fac146100c6578063a9059cbb146100e2575b600080fd5b6100646100fe565b60405161007191906104de565b60405180910390f35b610094600480360381019061008f9190610430565b610122565b6040516100a19190610519565b60405180910390f35b6100c460048036038101906100bf919061045d565b61013a565b005b6100e060048036038101906100db919061045d565b610222565b005b6100fc60048036038101906100f7919061045d565b61030a565b005b60008054906101000a900473ffffffffffffffffffffffffffffffffffffffff1681565b60016020528060005260406000206000915090505481565b60008054906101000a900473ffffffffffffffffffffffffffffffffffffffff1673ffffffffffffffffffffffffffffffffffffffff163373ffffffffffffffffffffffffffffffffffffffff16146101c8576040517f08c379a00000000000000000000000000000000000000000000000000000000081526004016101bf906104f9565b60405180910390fd5b80600160008473ffffffffffffffffffffffffffffffffffffffff1673ffffffffffffffffffffffffffffffffffffffff16815260200190815260200160002060008282546102179190610545565b925050819055505050565b60008054906101000a900473ffffffffffffffffffffffffffffffffffffffff1673ffffffffffffffffffffffffffffffffffffffff163373ffffffffffffffffffffffffffffffffffffffff16146102b0576040517f08c379a00000000000000000000000000000000000000000000000000000000081526004016102a7906104f9565b60405180910390fd5b80600160008473ffffffffffffffffffffffffffffffffffffffff1673ffffffffffffffffffffffffffffffffffffffff16815260200190815260200160002060008282546102ff919061059b565b925050819055505050565b80600160003373ffffffffffffffffffffffffffffffffffffffff1673ffffffffffffffffffffffffffffffffffffffff16815260200190815260200160002054101561035657600080fd5b80600160003373ffffffffffffffffffffffffffffffffffffffff1673ffffffffffffffffffffffffffffffffffffffff16815260200190815260200160002060008282546103a5919061059b565b9250508190555080600160008473ffffffffffffffffffffffffffffffffffffffff1673ffffffffffffffffffffffffffffffffffffffff16815260200190815260200160002060008282546103fb9190610545565b925050819055505050565b60008135905061041581610668565b92915050565b60008135905061042a8161067f565b92915050565b6000602082840312156104465761044561063a565b5b600061045484828501610406565b91505092915050565b600080604083850312156104745761047361063a565b5b600061048285828601610406565b92505060206104938582860161041b565b9150509250929050565b6104a6816105cf565b82525050565b60006104b9601383610534565b91506104c48261063f565b602082019050919050565b6104d881610601565b82525050565b60006020820190506104f3600083018461049d565b92915050565b60006020820190508181036000830152610512816104ac565b9050919050565b600060208201905061052e60008301846104cf565b92915050565b600082825260208201905092915050565b600061055082610601565b915061055b83610601565b9250827fffffffffffffffffffffffffffffffffffffffffffffffffffffffffffffffff038211156105905761058f61060b565b5b828201905092915050565b60006105a682610601565b91506105b183610601565b9250828210156105c4576105c361060b565b5b828203905092915050565b60006105da826105e1565b9050919050565b600073ffffffffffffffffffffffffffffffffffffffff82169050919050565b6000819050919050565b7f4e487b7100000000000000000000000000000000000000000000000000000000600052601160045260246000fd5b600080fd5b7f796f7572206e6f7420746865206d696e74657200000000000000000000000000600082015250565b610671816105cf565b811461067c57600080fd5b50565b61068881610601565b811461069357600080fd5b5056fea264697066735822122055d8aef52b2eef24911018a86a367d6a49e7de14a20e965a013feb0482012ce164736f6c63430008070033",
					"opcodes": "PUSH1 0x80 PUSH1 0x40 MSTORE CALLVALUE DUP1 ISZERO PUSH2 0x10 JUMPI PUSH1 0x0 DUP1 REVERT JUMPDEST POP CALLER PUSH1 0x0 DUP1 PUSH2 0x100 EXP DUP2 SLOAD DUP2 PUSH20 0xFFFFFFFFFFFFFFFFFFFFFFFFFFFFFFFFFFFFFFFF MUL NOT AND SWAP1 DUP4 PUSH20 0xFFFFFFFFFFFFFFFFFFFFFFFFFFFFFFFFFFFFFFFF AND MUL OR SWAP1 SSTORE POP PUSH2 0x6CC DUP1 PUSH2 0x60 PUSH1 0x0 CODECOPY PUSH1 0x0 RETURN INVALID PUSH1 0x80 PUSH1 0x40 MSTORE CALLVALUE DUP1 ISZERO PUSH2 0x10 JUMPI PUSH1 0x0 DUP1 REVERT JUMPDEST POP PUSH1 0x4 CALLDATASIZE LT PUSH2 0x57 JUMPI PUSH1 0x0 CALLDATALOAD PUSH1 0xE0 SHR DUP1 PUSH4 0x7546172 EQ PUSH2 0x5C JUMPI DUP1 PUSH4 0x27E235E3 EQ PUSH2 0x7A JUMPI DUP1 PUSH4 0x40C10F19 EQ PUSH2 0xAA JUMPI DUP1 PUSH4 0x9DC29FAC EQ PUSH2 0xC6 JUMPI DUP1 PUSH4 0xA9059CBB EQ PUSH2 0xE2 JUMPI JUMPDEST PUSH1 0x0 DUP1 REVERT JUMPDEST PUSH2 0x64 PUSH2 0xFE JUMP JUMPDEST PUSH1 0x40 MLOAD PUSH2 0x71 SWAP2 SWAP1 PUSH2 0x4DE JUMP JUMPDEST PUSH1 0x40 MLOAD DUP1 SWAP2 SUB SWAP1 RETURN JUMPDEST PUSH2 0x94 PUSH1 0x4 DUP1 CALLDATASIZE SUB DUP2 ADD SWAP1 PUSH2 0x8F SWAP2 SWAP1 PUSH2 0x430 JUMP JUMPDEST PUSH2 0x122 JUMP JUMPDEST PUSH1 0x40 MLOAD PUSH2 0xA1 SWAP2 SWAP1 PUSH2 0x519 JUMP JUMPDEST PUSH1 0x40 MLOAD DUP1 SWAP2 SUB SWAP1 RETURN JUMPDEST PUSH2 0xC4 PUSH1 0x4 DUP1 CALLDATASIZE SUB DUP2 ADD SWAP1 PUSH2 0xBF SWAP2 SWAP1 PUSH2 0x45D JUMP JUMPDEST PUSH2 0x13A JUMP JUMPDEST STOP JUMPDEST PUSH2 0xE0 PUSH1 0x4 DUP1 CALLDATASIZE SUB DUP2 ADD SWAP1 PUSH2 0xDB SWAP2 SWAP1 PUSH2 0x45D JUMP JUMPDEST PUSH2 0x222 JUMP JUMPDEST STOP JUMPDEST PUSH2 0xFC PUSH1 0x4 DUP1 CALLDATASIZE SUB DUP2 ADD SWAP1 PUSH2 0xF7 SWAP2 SWAP1 PUSH2 0x45D JUMP JUMPDEST PUSH2 0x30A JUMP JUMPDEST STOP JUMPDEST PUSH1 0x0 DUP1 SLOAD SWAP1 PUSH2 0x100 EXP SWAP1 DIV PUSH20 0xFFFFFFFFFFFFFFFFFFFFFFFFFFFFFFFFFFFFFFFF AND DUP2 JUMP JUMPDEST PUSH1 0x1 PUSH1 0x20 MSTORE DUP1 PUSH1 0x0 MSTORE PUSH1 0x40 PUSH1 0x0 KECCAK256 PUSH1 0x0 SWAP2 POP SWAP1 POP SLOAD DUP2 JUMP JUMPDEST PUSH1 0x0 DUP1 SLOAD SWAP1 PUSH2 0x100 EXP SWAP1 DIV PUSH20 0xFFFFFFFFFFFFFFFFFFFFFFFFFFFFFFFFFFFFFFFF AND PUSH20 0xFFFFFFFFFFFFFFFFFFFFFFFFFFFFFFFFFFFFFFFF AND CALLER PUSH20 0xFFFFFFFFFFFFFFFFFFFFFFFFFFFFFFFFFFFFFFFF AND EQ PUSH2 0x1C8 JUMPI PUSH1 0x40 MLOAD PUSH32 0x8C379A000000000000000000000000000000000000000000000000000000000 DUP2 MSTORE PUSH1 0x4 ADD PUSH2 0x1BF SWAP1 PUSH2 0x4F9 JUMP JUMPDEST PUSH1 0x40 MLOAD DUP1 SWAP2 SUB SWAP1 REVERT JUMPDEST DUP1 PUSH1 0x1 PUSH1 0x0 DUP5 PUSH20 0xFFFFFFFFFFFFFFFFFFFFFFFFFFFFFFFFFFFFFFFF AND PUSH20 0xFFFFFFFFFFFFFFFFFFFFFFFFFFFFFFFFFFFFFFFF AND DUP2 MSTORE PUSH1 0x20 ADD SWAP1 DUP2 MSTORE PUSH1 0x20 ADD PUSH1 0x0 KECCAK256 PUSH1 0x0 DUP3 DUP3 SLOAD PUSH2 0x217 SWAP2 SWAP1 PUSH2 0x545 JUMP JUMPDEST SWAP3 POP POP DUP2 SWAP1 SSTORE POP POP POP JUMP JUMPDEST PUSH1 0x0 DUP1 SLOAD SWAP1 PUSH2 0x100 EXP SWAP1 DIV PUSH20 0xFFFFFFFFFFFFFFFFFFFFFFFFFFFFFFFFFFFFFFFF AND PUSH20 0xFFFFFFFFFFFFFFFFFFFFFFFFFFFFFFFFFFFFFFFF AND CALLER PUSH20 0xFFFFFFFFFFFFFFFFFFFFFFFFFFFFFFFFFFFFFFFF AND EQ PUSH2 0x2B0 JUMPI PUSH1 0x40 MLOAD PUSH32 0x8C379A000000000000000000000000000000000000000000000000000000000 DUP2 MSTORE PUSH1 0x4 ADD PUSH2 0x2A7 SWAP1 PUSH2 0x4F9 JUMP JUMPDEST PUSH1 0x40 MLOAD DUP1 SWAP2 SUB SWAP1 REVERT JUMPDEST DUP1 PUSH1 0x1 PUSH1 0x0 DUP5 PUSH20 0xFFFFFFFFFFFFFFFFFFFFFFFFFFFFFFFFFFFFFFFF AND PUSH20 0xFFFFFFFFFFFFFFFFFFFFFFFFFFFFFFFFFFFFFFFF AND DUP2 MSTORE PUSH1 0x20 ADD SWAP1 DUP2 MSTORE PUSH1 0x20 ADD PUSH1 0x0 KECCAK256 PUSH1 0x0 DUP3 DUP3 SLOAD PUSH2 0x2FF SWAP2 SWAP1 PUSH2 0x59B JUMP JUMPDEST SWAP3 POP POP DUP2 SWAP1 SSTORE POP POP POP JUMP JUMPDEST DUP1 PUSH1 0x1 PUSH1 0x0 CALLER PUSH20 0xFFFFFFFFFFFFFFFFFFFFFFFFFFFFFFFFFFFFFFFF AND PUSH20 0xFFFFFFFFFFFFFFFFFFFFFFFFFFFFFFFFFFFFFFFF AND DUP2 MSTORE PUSH1 0x20 ADD SWAP1 DUP2 MSTORE PUSH1 0x20 ADD PUSH1 0x0 KECCAK256 SLOAD LT ISZERO PUSH2 0x356 JUMPI PUSH1 0x0 DUP1 REVERT JUMPDEST DUP1 PUSH1 0x1 PUSH1 0x0 CALLER PUSH20 0xFFFFFFFFFFFFFFFFFFFFFFFFFFFFFFFFFFFFFFFF AND PUSH20 0xFFFFFFFFFFFFFFFFFFFFFFFFFFFFFFFFFFFFFFFF AND DUP2 MSTORE PUSH1 0x20 ADD SWAP1 DUP2 MSTORE PUSH1 0x20 ADD PUSH1 0x0 KECCAK256 PUSH1 0x0 DUP3 DUP3 SLOAD PUSH2 0x3A5 SWAP2 SWAP1 PUSH2 0x59B JUMP JUMPDEST SWAP3 POP POP DUP2 SWAP1 SSTORE POP DUP1 PUSH1 0x1 PUSH1 0x0 DUP5 PUSH20 0xFFFFFFFFFFFFFFFFFFFFFFFFFFFFFFFFFFFFFFFF AND PUSH20 0xFFFFFFFFFFFFFFFFFFFFFFFFFFFFFFFFFFFFFFFF AND DUP2 MSTORE PUSH1 0x20 ADD SWAP1 DUP2 MSTORE PUSH1 0x20 ADD PUSH1 0x0 KECCAK256 PUSH1 0x0 DUP3 DUP3 SLOAD PUSH2 0x3FB SWAP2 SWAP1 PUSH2 0x545 JUMP JUMPDEST SWAP3 POP POP DUP2 SWAP1 SSTORE POP POP POP JUMP JUMPDEST PUSH1 0x0 DUP2 CALLDATALOAD SWAP1 POP PUSH2 0x415 DUP2 PUSH2 0x668 JUMP JUMPDEST SWAP3 SWAP2 POP POP JUMP JUMPDEST PUSH1 0x0 DUP2 CALLDATALOAD SWAP1 POP PUSH2 0x42A DUP2 PUSH2 0x67F JUMP JUMPDEST SWAP3 SWAP2 POP POP JUMP JUMPDEST PUSH1 0x0 PUSH1 0x20 DUP3 DUP5 SUB SLT ISZERO PUSH2 0x446 JUMPI PUSH2 0x445 PUSH2 0x63A JUMP JUMPDEST JUMPDEST PUSH1 0x0 PUSH2 0x454 DUP5 DUP3 DUP6 ADD PUSH2 0x406 JUMP JUMPDEST SWAP2 POP POP SWAP3 SWAP2 POP POP JUMP JUMPDEST PUSH1 0x0 DUP1 PUSH1 0x40 DUP4 DUP6 SUB SLT ISZERO PUSH2 0x474 JUMPI PUSH2 0x473 PUSH2 0x63A JUMP JUMPDEST JUMPDEST PUSH1 0x0 PUSH2 0x482 DUP6 DUP3 DUP7 ADD PUSH2 0x406 JUMP JUMPDEST SWAP3 POP POP PUSH1 0x20 PUSH2 0x493 DUP6 DUP3 DUP7 ADD PUSH2 0x41B JUMP JUMPDEST SWAP2 POP POP SWAP3 POP SWAP3 SWAP1 POP JUMP JUMPDEST PUSH2 0x4A6 DUP2 PUSH2 0x5CF JUMP JUMPDEST DUP3 MSTORE POP POP JUMP JUMPDEST PUSH1 0x0 PUSH2 0x4B9 PUSH1 0x13 DUP4 PUSH2 0x534 JUMP JUMPDEST SWAP2 POP PUSH2 0x4C4 DUP3 PUSH2 0x63F JUMP JUMPDEST PUSH1 0x20 DUP3 ADD SWAP1 POP SWAP2 SWAP1 POP JUMP JUMPDEST PUSH2 0x4D8 DUP2 PUSH2 0x601 JUMP JUMPDEST DUP3 MSTORE POP POP JUMP JUMPDEST PUSH1 0x0 PUSH1 0x20 DUP3 ADD SWAP1 POP PUSH2 0x4F3 PUSH1 0x0 DUP4 ADD DUP5 PUSH2 0x49D JUMP JUMPDEST SWAP3 SWAP2 POP POP JUMP JUMPDEST PUSH1 0x0 PUSH1 0x20 DUP3 ADD SWAP1 POP DUP2 DUP2 SUB PUSH1 0x0 DUP4 ADD MSTORE PUSH2 0x512 DUP2 PUSH2 0x4AC JUMP JUMPDEST SWAP1 POP SWAP2 SWAP1 POP JUMP JUMPDEST PUSH1 0x0 PUSH1 0x20 DUP3 ADD SWAP1 POP PUSH2 0x52E PUSH1 0x0 DUP4 ADD DUP5 PUSH2 0x4CF JUMP JUMPDEST SWAP3 SWAP2 POP POP JUMP JUMPDEST PUSH1 0x0 DUP3 DUP3 MSTORE PUSH1 0x20 DUP3 ADD SWAP1 POP SWAP3 SWAP2 POP POP JUMP JUMPDEST PUSH1 0x0 PUSH2 0x550 DUP3 PUSH2 0x601 JUMP JUMPDEST SWAP2 POP PUSH2 0x55B DUP4 PUSH2 0x601 JUMP JUMPDEST SWAP3 POP DUP3 PUSH32 0xFFFFFFFFFFFFFFFFFFFFFFFFFFFFFFFFFFFFFFFFFFFFFFFFFFFFFFFFFFFFFFFF SUB DUP3 GT ISZERO PUSH2 0x590 JUMPI PUSH2 0x58F PUSH2 0x60B JUMP JUMPDEST JUMPDEST DUP3 DUP3 ADD SWAP1 POP SWAP3 SWAP2 POP POP JUMP JUMPDEST PUSH1 0x0 PUSH2 0x5A6 DUP3 PUSH2 0x601 JUMP JUMPDEST SWAP2 POP PUSH2 0x5B1 DUP4 PUSH2 0x601 JUMP JUMPDEST SWAP3 POP DUP3 DUP3 LT ISZERO PUSH2 0x5C4 JUMPI PUSH2 0x5C3 PUSH2 0x60B JUMP JUMPDEST JUMPDEST DUP3 DUP3 SUB SWAP1 POP SWAP3 SWAP2 POP POP JUMP JUMPDEST PUSH1 0x0 PUSH2 0x5DA DUP3 PUSH2 0x5E1 JUMP JUMPDEST SWAP1 POP SWAP2 SWAP1 POP JUMP JUMPDEST PUSH1 0x0 PUSH20 0xFFFFFFFFFFFFFFFFFFFFFFFFFFFFFFFFFFFFFFFF DUP3 AND SWAP1 POP SWAP2 SWAP1 POP JUMP JUMPDEST PUSH1 0x0 DUP2 SWAP1 POP SWAP2 SWAP1 POP JUMP JUMPDEST PUSH32 0x4E487B7100000000000000000000000000000000000000000000000000000000 PUSH1 0x0 MSTORE PUSH1 0x11 PUSH1 0x4 MSTORE PUSH1 0x24 PUSH1 0x0 REVERT JUMPDEST PUSH1 0x0 DUP1 REVERT JUMPDEST PUSH32 0x796F7572206E6F7420746865206D696E74657200000000000000000000000000 PUSH1 0x0 DUP3 ADD MSTORE POP JUMP JUMPDEST PUSH2 0x671 DUP2 PUSH2 0x5CF JUMP JUMPDEST DUP2 EQ PUSH2 0x67C JUMPI PUSH1 0x0 DUP1 REVERT JUMPDEST POP JUMP JUMPDEST PUSH2 0x688 DUP2 PUSH2 0x601 JUMP JUMPDEST DUP2 EQ PUSH2 0x693 JUMPI PUSH1 0x0 DUP1 REVERT JUMPDEST POP JUMP INVALID LOG2 PUSH5 0x6970667358 0x22 SLT KECCAK256 SSTORE 0xD8 0xAE CREATE2 0x2B 0x2E 0xEF 0x24 SWAP2 LT XOR 0xA8 PUSH11 0x367D6A49E7DE14A20E965A ADD EXTCODEHASH 0xEB DIV DUP3 ADD 0x2C 0xE1 PUSH5 0x736F6C6343 STOP ADDMOD SMOD STOP CALLER "
				},
				"gasEstimates": {
					"creation": {
						"codeDepositCost": "348000",
						"executionCost": "24652",
						"totalCost": "372652"
					},
					"external": {
						"balances(address)": "2814",
						"burn(address,uint256)": "infinite",
						"mint(address,uint256)": "infinite",
						"minter()": "2489",
						"transfer(address,uint256)": "infinite"
					}
				},
				"methodIdentifiers": {
					"balances(address)": "27e235e3",
					"burn(address,uint256)": "9dc29fac",
					"mint(address,uint256)": "40c10f19",
					"minter()": "07546172",
					"transfer(address,uint256)": "a9059cbb"
				}
			},
			"userdoc": {
				"kind": "user",
				"methods": {},
				"version": 1
			}
		}
	}
}