{
	"contracts/Bitcoin.sol": {
		"MyBitcoin": {
			"abi": [
				{
					"inputs": [],
					"stateMutability": "nonpayable",
					"type": "constructor"
				},
				{
					"inputs": [
						{
							"internalType": "address",
							"name": "",
							"type": "address"
						},
						{
							"internalType": "address",
							"name": "",
							"type": "address"
						}
					],
					"name": "_allowances",
					"outputs": [
						{
							"internalType": "uint256",
							"name": "",
							"type": "uint256"
						}
					],
					"stateMutability": "view",
					"type": "function"
				},
				{
					"inputs": [
						{
							"internalType": "address",
							"name": "",
							"type": "address"
						},
						{
							"internalType": "address",
							"name": "",
							"type": "address"
						}
					],
					"name": "_approval",
					"outputs": [
						{
							"internalType": "uint256",
							"name": "",
							"type": "uint256"
						}
					],
					"stateMutability": "view",
					"type": "function"
				},
				{
					"inputs": [
						{
							"internalType": "address",
							"name": "",
							"type": "address"
						}
					],
					"name": "balances",
					"outputs": [
						{
							"internalType": "uint256",
							"name": "",
							"type": "uint256"
						}
					],
					"stateMutability": "view",
					"type": "function"
				},
				{
					"inputs": [
						{
							"internalType": "address",
							"name": "receiver",
							"type": "address"
						},
						{
							"internalType": "uint256",
							"name": "amount",
							"type": "uint256"
						}
					],
					"name": "burn",
					"outputs": [],
					"stateMutability": "nonpayable",
					"type": "function"
				},
				{
					"inputs": [],
					"name": "decimals",
					"outputs": [
						{
							"internalType": "uint256",
							"name": "",
							"type": "uint256"
						}
					],
					"stateMutability": "view",
					"type": "function"
				},
				{
					"inputs": [
						{
							"internalType": "address",
							"name": "receiver",
							"type": "address"
						},
						{
							"internalType": "uint256",
							"name": "amount",
							"type": "uint256"
						}
					],
					"name": "mint",
					"outputs": [],
					"stateMutability": "nonpayable",
					"type": "function"
				},
				{
					"inputs": [
						{
							"internalType": "address",
							"name": "receiver",
							"type": "address"
						},
						{
							"internalType": "uint256",
							"name": "amount",
							"type": "uint256"
						}
					],
					"name": "transfer",
					"outputs": [],
					"stateMutability": "nonpayable",
					"type": "function"
				},
				{
					"inputs": [
						{
							"internalType": "address",
							"name": "current_sender",
							"type": "address"
						},
						{
							"internalType": "address",
							"name": "receiver",
							"type": "address"
						},
						{
							"internalType": "uint256",
							"name": "amount",
							"type": "uint256"
						}
					],
					"name": "transferFrom",
					"outputs": [],
					"stateMutability": "nonpayable",
					"type": "function"
				},
				{
					"inputs": [],
					"name": "wakar",
					"outputs": [
						{
							"internalType": "address",
							"name": "",
							"type": "address"
						}
					],
					"stateMutability": "view",
					"type": "function"
				}
			],
			"devdoc": {
				"kind": "dev",
				"methods": {},
				"version": 1
			},
			"evm": {
				"assembly": "    /* \"contracts/Bitcoin.sol\":72:1099  contract MyBitcoin {\r... */\n  mstore(0x40, 0x80)\n    /* \"contracts/Bitcoin.sol\":355:404  constructor() {\r... */\n  callvalue\n  dup1\n  iszero\n  tag_1\n  jumpi\n  0x00\n  dup1\n  revert\ntag_1:\n  pop\n    /* \"contracts/Bitcoin.sol\":383:393  msg.sender */\n  caller\n    /* \"contracts/Bitcoin.sol\":376:381  wakar */\n  0x00\n  dup1\n    /* \"contracts/Bitcoin.sol\":376:393  wakar =msg.sender */\n  0x0100\n  exp\n  dup2\n  sload\n  dup2\n  0xffffffffffffffffffffffffffffffffffffffff\n  mul\n  not\n  and\n  swap1\n  dup4\n  0xffffffffffffffffffffffffffffffffffffffff\n  and\n  mul\n  or\n  swap1\n  sstore\n  pop\n    /* \"contracts/Bitcoin.sol\":72:1099  contract MyBitcoin {\r... */\n  dataSize(sub_0)\n  dup1\n  dataOffset(sub_0)\n  0x00\n  codecopy\n  0x00\n  return\nstop\n\nsub_0: assembly {\n        /* \"contracts/Bitcoin.sol\":72:1099  contract MyBitcoin {\r... */\n      mstore(0x40, 0x80)\n      callvalue\n      dup1\n      iszero\n      tag_1\n      jumpi\n      0x00\n      dup1\n      revert\n    tag_1:\n      pop\n      jumpi(tag_2, lt(calldatasize, 0x04))\n      shr(0xe0, calldataload(0x00))\n      dup1\n      0x2f5f1b6d\n      gt\n      tag_12\n      jumpi\n      dup1\n      0x2f5f1b6d\n      eq\n      tag_7\n      jumpi\n      dup1\n      0x313ce567\n      eq\n      tag_8\n      jumpi\n      dup1\n      0x40c10f19\n      eq\n      tag_9\n      jumpi\n      dup1\n      0x9dc29fac\n      eq\n      tag_10\n      jumpi\n      dup1\n      0xa9059cbb\n      eq\n      tag_11\n      jumpi\n      jump(tag_2)\n    tag_12:\n      dup1\n      0x024c2ddd\n      eq\n      tag_3\n      jumpi\n      dup1\n      0x13f27ae3\n      eq\n      tag_4\n      jumpi\n      dup1\n      0x23b872dd\n      eq\n      tag_5\n      jumpi\n      dup1\n      0x27e235e3\n      eq\n      tag_6\n      jumpi\n    tag_2:\n      0x00\n      dup1\n      revert\n        /* \"contracts/Bitcoin.sol\":217:280  mapping(address => mapping(address => uint)) public _allowances */\n    tag_3:\n      tag_13\n      0x04\n      dup1\n      calldatasize\n      sub\n      dup2\n      add\n      swap1\n      tag_14\n      swap2\n      swap1\n      tag_15\n      jump\t// in\n    tag_14:\n      tag_16\n      jump\t// in\n    tag_13:\n      mload(0x40)\n      tag_17\n      swap2\n      swap1\n      tag_18\n      jump\t// in\n    tag_17:\n      mload(0x40)\n      dup1\n      swap2\n      sub\n      swap1\n      return\n        /* \"contracts/Bitcoin.sol\":98:118  address public wakar */\n    tag_4:\n      tag_19\n      tag_20\n      jump\t// in\n    tag_19:\n      mload(0x40)\n      tag_21\n      swap2\n      swap1\n      tag_22\n      jump\t// in\n    tag_21:\n      mload(0x40)\n      dup1\n      swap2\n      sub\n      swap1\n      return\n        /* \"contracts/Bitcoin.sol\":901:1096  function transferFrom(address current_sender, address receiver, uint amount) public {\r... */\n    tag_5:\n      tag_23\n      0x04\n      dup1\n      calldatasize\n      sub\n      dup2\n      add\n      swap1\n      tag_24\n      swap2\n      swap1\n      tag_25\n      jump\t// in\n    tag_24:\n      tag_26\n      jump\t// in\n    tag_23:\n      stop\n        /* \"contracts/Bitcoin.sol\":125:165  mapping (address =>uint) public balances */\n    tag_6:\n      tag_27\n      0x04\n      dup1\n      calldatasize\n      sub\n      dup2\n      add\n      swap1\n      tag_28\n      swap2\n      swap1\n      tag_29\n      jump\t// in\n    tag_28:\n      tag_30\n      jump\t// in\n    tag_27:\n      mload(0x40)\n      tag_31\n      swap2\n      swap1\n      tag_18\n      jump\t// in\n    tag_31:\n      mload(0x40)\n      dup1\n      swap2\n      sub\n      swap1\n      return\n        /* \"contracts/Bitcoin.sol\":287:348  mapping(address => mapping(address => uint)) public _approval */\n    tag_7:\n      tag_32\n      0x04\n      dup1\n      calldatasize\n      sub\n      dup2\n      add\n      swap1\n      tag_33\n      swap2\n      swap1\n      tag_15\n      jump\t// in\n    tag_33:\n      tag_34\n      jump\t// in\n    tag_32:\n      mload(0x40)\n      tag_35\n      swap2\n      swap1\n      tag_18\n      jump\t// in\n    tag_35:\n      mload(0x40)\n      dup1\n      swap2\n      sub\n      swap1\n      return\n        /* \"contracts/Bitcoin.sol\":172:206  uint public constant decimals = 12 */\n    tag_8:\n      tag_36\n      tag_37\n      jump\t// in\n    tag_36:\n      mload(0x40)\n      tag_38\n      swap2\n      swap1\n      tag_18\n      jump\t// in\n    tag_38:\n      mload(0x40)\n      dup1\n      swap2\n      sub\n      swap1\n      return\n        /* \"contracts/Bitcoin.sol\":409:562  function mint(address receiver,uint amount) public {\r... */\n    tag_9:\n      tag_39\n      0x04\n      dup1\n      calldatasize\n      sub\n      dup2\n      add\n      swap1\n      tag_40\n      swap2\n      swap1\n      tag_41\n      jump\t// in\n    tag_40:\n      tag_42\n      jump\t// in\n    tag_39:\n      stop\n        /* \"contracts/Bitcoin.sol\":566:719  function burn(address receiver,uint amount) public {\r... */\n    tag_10:\n      tag_43\n      0x04\n      dup1\n      calldatasize\n      sub\n      dup2\n      add\n      swap1\n      tag_44\n      swap2\n      swap1\n      tag_41\n      jump\t// in\n    tag_44:\n      tag_45\n      jump\t// in\n    tag_43:\n      stop\n        /* \"contracts/Bitcoin.sol\":723:899  function transfer(address receiver, uint amount) public {\r... */\n    tag_11:\n      tag_46\n      0x04\n      dup1\n      calldatasize\n      sub\n      dup2\n      add\n      swap1\n      tag_47\n      swap2\n      swap1\n      tag_41\n      jump\t// in\n    tag_47:\n      tag_48\n      jump\t// in\n    tag_46:\n      stop\n        /* \"contracts/Bitcoin.sol\":217:280  mapping(address => mapping(address => uint)) public _allowances */\n    tag_16:\n      mstore(0x20, 0x02)\n      dup2\n      0x00\n      mstore\n      mstore(0x20, keccak256(0x00, 0x40))\n      dup1\n      0x00\n      mstore\n      keccak256(0x00, 0x40)\n      0x00\n      swap2\n      pop\n      swap2\n      pop\n      pop\n      sload\n      dup2\n      jump\t// out\n        /* \"contracts/Bitcoin.sol\":98:118  address public wakar */\n    tag_20:\n      0x00\n      dup1\n      sload\n      swap1\n      0x0100\n      exp\n      swap1\n      div\n      0xffffffffffffffffffffffffffffffffffffffff\n      and\n      dup2\n      jump\t// out\n        /* \"contracts/Bitcoin.sol\":901:1096  function transferFrom(address current_sender, address receiver, uint amount) public {\r... */\n    tag_26:\n        /* \"contracts/Bitcoin.sol\":1007:1017  msg.sender */\n      caller\n        /* \"contracts/Bitcoin.sol\":992:1017  current_sender=msg.sender */\n      swap3\n      pop\n        /* \"contracts/Bitcoin.sol\":1049:1055  amount */\n      dup1\n        /* \"contracts/Bitcoin.sol\":1021:1029  balances */\n      0x01\n        /* \"contracts/Bitcoin.sol\":1021:1045  balances[current_sender] */\n      0x00\n        /* \"contracts/Bitcoin.sol\":1030:1044  current_sender */\n      dup6\n        /* \"contracts/Bitcoin.sol\":1021:1045  balances[current_sender] */\n      0xffffffffffffffffffffffffffffffffffffffff\n      and\n      0xffffffffffffffffffffffffffffffffffffffff\n      and\n      dup2\n      mstore\n      0x20\n      add\n      swap1\n      dup2\n      mstore\n      0x20\n      add\n      0x00\n      keccak256\n      0x00\n        /* \"contracts/Bitcoin.sol\":1021:1055  balances[current_sender] -= amount */\n      dup3\n      dup3\n      sload\n      tag_50\n      swap2\n      swap1\n      tag_51\n      jump\t// in\n    tag_50:\n      swap3\n      pop\n      pop\n      dup2\n      swap1\n      sstore\n      pop\n        /* \"contracts/Bitcoin.sol\":1084:1090  amount */\n      dup1\n        /* \"contracts/Bitcoin.sol\":1062:1070  balances */\n      0x01\n        /* \"contracts/Bitcoin.sol\":1062:1080  balances[receiver] */\n      0x00\n        /* \"contracts/Bitcoin.sol\":1071:1079  receiver */\n      dup5\n        /* \"contracts/Bitcoin.sol\":1062:1080  balances[receiver] */\n      0xffffffffffffffffffffffffffffffffffffffff\n      and\n      0xffffffffffffffffffffffffffffffffffffffff\n      and\n      dup2\n      mstore\n      0x20\n      add\n      swap1\n      dup2\n      mstore\n      0x20\n      add\n      0x00\n      keccak256\n      0x00\n        /* \"contracts/Bitcoin.sol\":1062:1090  balances[receiver] += amount */\n      dup3\n      dup3\n      sload\n      tag_52\n      swap2\n      swap1\n      tag_53\n      jump\t// in\n    tag_52:\n      swap3\n      pop\n      pop\n      dup2\n      swap1\n      sstore\n      pop\n        /* \"contracts/Bitcoin.sol\":901:1096  function transferFrom(address current_sender, address receiver, uint amount) public {\r... */\n      pop\n      pop\n      pop\n      jump\t// out\n        /* \"contracts/Bitcoin.sol\":125:165  mapping (address =>uint) public balances */\n    tag_30:\n      mstore(0x20, 0x01)\n      dup1\n      0x00\n      mstore\n      keccak256(0x00, 0x40)\n      0x00\n      swap2\n      pop\n      swap1\n      pop\n      sload\n      dup2\n      jump\t// out\n        /* \"contracts/Bitcoin.sol\":287:348  mapping(address => mapping(address => uint)) public _approval */\n    tag_34:\n      mstore(0x20, 0x03)\n      dup2\n      0x00\n      mstore\n      mstore(0x20, keccak256(0x00, 0x40))\n      dup1\n      0x00\n      mstore\n      keccak256(0x00, 0x40)\n      0x00\n      swap2\n      pop\n      swap2\n      pop\n      pop\n      sload\n      dup2\n      jump\t// out\n        /* \"contracts/Bitcoin.sol\":172:206  uint public constant decimals = 12 */\n    tag_37:\n        /* \"contracts/Bitcoin.sol\":204:206  12 */\n      0x0c\n        /* \"contracts/Bitcoin.sol\":172:206  uint public constant decimals = 12 */\n      dup2\n      jump\t// out\n        /* \"contracts/Bitcoin.sol\":409:562  function mint(address receiver,uint amount) public {\r... */\n    tag_42:\n        /* \"contracts/Bitcoin.sol\":492:497  wakar */\n      0x00\n      dup1\n      sload\n      swap1\n      0x0100\n      exp\n      swap1\n      div\n      0xffffffffffffffffffffffffffffffffffffffff\n      and\n        /* \"contracts/Bitcoin.sol\":478:497  msg.sender == wakar */\n      0xffffffffffffffffffffffffffffffffffffffff\n      and\n        /* \"contracts/Bitcoin.sol\":478:488  msg.sender */\n      caller\n        /* \"contracts/Bitcoin.sol\":478:497  msg.sender == wakar */\n      0xffffffffffffffffffffffffffffffffffffffff\n      and\n      eq\n        /* \"contracts/Bitcoin.sol\":470:520  require(msg.sender == wakar,\"your not the minter\") */\n      tag_55\n      jumpi\n      mload(0x40)\n      0x08c379a000000000000000000000000000000000000000000000000000000000\n      dup2\n      mstore\n      0x04\n      add\n      tag_56\n      swap1\n      tag_57\n      jump\t// in\n    tag_56:\n      mload(0x40)\n      dup1\n      swap2\n      sub\n      swap1\n      revert\n    tag_55:\n        /* \"contracts/Bitcoin.sol\":552:558  amount */\n      dup1\n        /* \"contracts/Bitcoin.sol\":530:538  balances */\n      0x01\n        /* \"contracts/Bitcoin.sol\":530:548  balances[receiver] */\n      0x00\n        /* \"contracts/Bitcoin.sol\":539:547  receiver */\n      dup5\n        /* \"contracts/Bitcoin.sol\":530:548  balances[receiver] */\n      0xffffffffffffffffffffffffffffffffffffffff\n      and\n      0xffffffffffffffffffffffffffffffffffffffff\n      and\n      dup2\n      mstore\n      0x20\n      add\n      swap1\n      dup2\n      mstore\n      0x20\n      add\n      0x00\n      keccak256\n      0x00\n        /* \"contracts/Bitcoin.sol\":530:558  balances[receiver] += amount */\n      dup3\n      dup3\n      sload\n      tag_58\n      swap2\n      swap1\n      tag_53\n      jump\t// in\n    tag_58:\n      swap3\n      pop\n      pop\n      dup2\n      swap1\n      sstore\n      pop\n        /* \"contracts/Bitcoin.sol\":409:562  function mint(address receiver,uint amount) public {\r... */\n      pop\n      pop\n      jump\t// out\n        /* \"contracts/Bitcoin.sol\":566:719  function burn(address receiver,uint amount) public {\r... */\n    tag_45:\n        /* \"contracts/Bitcoin.sol\":649:654  wakar */\n      0x00\n      dup1\n      sload\n      swap1\n      0x0100\n      exp\n      swap1\n      div\n      0xffffffffffffffffffffffffffffffffffffffff\n      and\n        /* \"contracts/Bitcoin.sol\":635:654  msg.sender == wakar */\n      0xffffffffffffffffffffffffffffffffffffffff\n      and\n        /* \"contracts/Bitcoin.sol\":635:645  msg.sender */\n      caller\n        /* \"contracts/Bitcoin.sol\":635:654  msg.sender == wakar */\n      0xffffffffffffffffffffffffffffffffffffffff\n      and\n      eq\n        /* \"contracts/Bitcoin.sol\":627:677  require(msg.sender == wakar,\"your not the minter\") */\n      tag_60\n      jumpi\n      mload(0x40)\n      0x08c379a000000000000000000000000000000000000000000000000000000000\n      dup2\n      mstore\n      0x04\n      add\n      tag_61\n      swap1\n      tag_57\n      jump\t// in\n    tag_61:\n      mload(0x40)\n      dup1\n      swap2\n      sub\n      swap1\n      revert\n    tag_60:\n        /* \"contracts/Bitcoin.sol\":709:715  amount */\n      dup1\n        /* \"contracts/Bitcoin.sol\":687:695  balances */\n      0x01\n        /* \"contracts/Bitcoin.sol\":687:705  balances[receiver] */\n      0x00\n        /* \"contracts/Bitcoin.sol\":696:704  receiver */\n      dup5\n        /* \"contracts/Bitcoin.sol\":687:705  balances[receiver] */\n      0xffffffffffffffffffffffffffffffffffffffff\n      and\n      0xffffffffffffffffffffffffffffffffffffffff\n      and\n      dup2\n      mstore\n      0x20\n      add\n      swap1\n      dup2\n      mstore\n      0x20\n      add\n      0x00\n      keccak256\n      0x00\n        /* \"contracts/Bitcoin.sol\":687:715  balances[receiver] -= amount */\n      dup3\n      dup3\n      sload\n      tag_62\n      swap2\n      swap1\n      tag_51\n      jump\t// in\n    tag_62:\n      swap3\n      pop\n      pop\n      dup2\n      swap1\n      sstore\n      pop\n        /* \"contracts/Bitcoin.sol\":566:719  function burn(address receiver,uint amount) public {\r... */\n      pop\n      pop\n      jump\t// out\n        /* \"contracts/Bitcoin.sol\":723:899  function transfer(address receiver, uint amount) public {\r... */\n    tag_48:\n        /* \"contracts/Bitcoin.sol\":816:822  amount */\n      dup1\n        /* \"contracts/Bitcoin.sol\":794:802  balances */\n      0x01\n        /* \"contracts/Bitcoin.sol\":794:814  balances[msg.sender] */\n      0x00\n        /* \"contracts/Bitcoin.sol\":803:813  msg.sender */\n      caller\n        /* \"contracts/Bitcoin.sol\":794:814  balances[msg.sender] */\n      0xffffffffffffffffffffffffffffffffffffffff\n      and\n      0xffffffffffffffffffffffffffffffffffffffff\n      and\n      dup2\n      mstore\n      0x20\n      add\n      swap1\n      dup2\n      mstore\n      0x20\n      add\n      0x00\n      keccak256\n      sload\n        /* \"contracts/Bitcoin.sol\":794:822  balances[msg.sender]>=amount */\n      lt\n      iszero\n        /* \"contracts/Bitcoin.sol\":786:823  require(balances[msg.sender]>=amount) */\n      tag_64\n      jumpi\n      0x00\n      dup1\n      revert\n    tag_64:\n        /* \"contracts/Bitcoin.sol\":854:860  amount */\n      dup1\n        /* \"contracts/Bitcoin.sol\":830:838  balances */\n      0x01\n        /* \"contracts/Bitcoin.sol\":830:850  balances[msg.sender] */\n      0x00\n        /* \"contracts/Bitcoin.sol\":839:849  msg.sender */\n      caller\n        /* \"contracts/Bitcoin.sol\":830:850  balances[msg.sender] */\n      0xffffffffffffffffffffffffffffffffffffffff\n      and\n      0xffffffffffffffffffffffffffffffffffffffff\n      and\n      dup2\n      mstore\n      0x20\n      add\n      swap1\n      dup2\n      mstore\n      0x20\n      add\n      0x00\n      keccak256\n      0x00\n        /* \"contracts/Bitcoin.sol\":830:860  balances[msg.sender] -= amount */\n      dup3\n      dup3\n      sload\n      tag_65\n      swap2\n      swap1\n      tag_51\n      jump\t// in\n    tag_65:\n      swap3\n      pop\n      pop\n      dup2\n      swap1\n      sstore\n      pop\n        /* \"contracts/Bitcoin.sol\":889:895  amount */\n      dup1\n        /* \"contracts/Bitcoin.sol\":867:875  balances */\n      0x01\n        /* \"contracts/Bitcoin.sol\":867:885  balances[receiver] */\n      0x00\n        /* \"contracts/Bitcoin.sol\":876:884  receiver */\n      dup5\n        /* \"contracts/Bitcoin.sol\":867:885  balances[receiver] */\n      0xffffffffffffffffffffffffffffffffffffffff\n      and\n      0xffffffffffffffffffffffffffffffffffffffff\n      and\n      dup2\n      mstore\n      0x20\n      add\n      swap1\n      dup2\n      mstore\n      0x20\n      add\n      0x00\n      keccak256\n      0x00\n        /* \"contracts/Bitcoin.sol\":867:895  balances[receiver] += amount */\n      dup3\n      dup3\n      sload\n      tag_66\n      swap2\n      swap1\n      tag_53\n      jump\t// in\n    tag_66:\n      swap3\n      pop\n      pop\n      dup2\n      swap1\n      sstore\n      pop\n        /* \"contracts/Bitcoin.sol\":723:899  function transfer(address receiver, uint amount) public {\r... */\n      pop\n      pop\n      jump\t// out\n        /* \"#utility.yul\":7:146   */\n    tag_68:\n        /* \"#utility.yul\":53:58   */\n      0x00\n        /* \"#utility.yul\":91:97   */\n      dup2\n        /* \"#utility.yul\":78:98   */\n      calldataload\n        /* \"#utility.yul\":69:98   */\n      swap1\n      pop\n        /* \"#utility.yul\":107:140   */\n      tag_70\n        /* \"#utility.yul\":134:139   */\n      dup2\n        /* \"#utility.yul\":107:140   */\n      tag_71\n      jump\t// in\n    tag_70:\n        /* \"#utility.yul\":7:146   */\n      swap3\n      swap2\n      pop\n      pop\n      jump\t// out\n        /* \"#utility.yul\":152:291   */\n    tag_72:\n        /* \"#utility.yul\":198:203   */\n      0x00\n        /* \"#utility.yul\":236:242   */\n      dup2\n        /* \"#utility.yul\":223:243   */\n      calldataload\n        /* \"#utility.yul\":214:243   */\n      swap1\n      pop\n        /* \"#utility.yul\":252:285   */\n      tag_74\n        /* \"#utility.yul\":279:284   */\n      dup2\n        /* \"#utility.yul\":252:285   */\n      tag_75\n      jump\t// in\n    tag_74:\n        /* \"#utility.yul\":152:291   */\n      swap3\n      swap2\n      pop\n      pop\n      jump\t// out\n        /* \"#utility.yul\":297:626   */\n    tag_29:\n        /* \"#utility.yul\":356:362   */\n      0x00\n        /* \"#utility.yul\":405:407   */\n      0x20\n        /* \"#utility.yul\":393:402   */\n      dup3\n        /* \"#utility.yul\":384:391   */\n      dup5\n        /* \"#utility.yul\":380:403   */\n      sub\n        /* \"#utility.yul\":376:408   */\n      slt\n        /* \"#utility.yul\":373:492   */\n      iszero\n      tag_77\n      jumpi\n        /* \"#utility.yul\":411:490   */\n      tag_78\n      tag_79\n      jump\t// in\n    tag_78:\n        /* \"#utility.yul\":373:492   */\n    tag_77:\n        /* \"#utility.yul\":531:532   */\n      0x00\n        /* \"#utility.yul\":556:609   */\n      tag_80\n        /* \"#utility.yul\":601:608   */\n      dup5\n        /* \"#utility.yul\":592:598   */\n      dup3\n        /* \"#utility.yul\":581:590   */\n      dup6\n        /* \"#utility.yul\":577:599   */\n      add\n        /* \"#utility.yul\":556:609   */\n      tag_68\n      jump\t// in\n    tag_80:\n        /* \"#utility.yul\":546:609   */\n      swap2\n      pop\n        /* \"#utility.yul\":502:619   */\n      pop\n        /* \"#utility.yul\":297:626   */\n      swap3\n      swap2\n      pop\n      pop\n      jump\t// out\n        /* \"#utility.yul\":632:1106   */\n    tag_15:\n        /* \"#utility.yul\":700:706   */\n      0x00\n        /* \"#utility.yul\":708:714   */\n      dup1\n        /* \"#utility.yul\":757:759   */\n      0x40\n        /* \"#utility.yul\":745:754   */\n      dup4\n        /* \"#utility.yul\":736:743   */\n      dup6\n        /* \"#utility.yul\":732:755   */\n      sub\n        /* \"#utility.yul\":728:760   */\n      slt\n        /* \"#utility.yul\":725:844   */\n      iszero\n      tag_82\n      jumpi\n        /* \"#utility.yul\":763:842   */\n      tag_83\n      tag_79\n      jump\t// in\n    tag_83:\n        /* \"#utility.yul\":725:844   */\n    tag_82:\n        /* \"#utility.yul\":883:884   */\n      0x00\n        /* \"#utility.yul\":908:961   */\n      tag_84\n        /* \"#utility.yul\":953:960   */\n      dup6\n        /* \"#utility.yul\":944:950   */\n      dup3\n        /* \"#utility.yul\":933:942   */\n      dup7\n        /* \"#utility.yul\":929:951   */\n      add\n        /* \"#utility.yul\":908:961   */\n      tag_68\n      jump\t// in\n    tag_84:\n        /* \"#utility.yul\":898:961   */\n      swap3\n      pop\n        /* \"#utility.yul\":854:971   */\n      pop\n        /* \"#utility.yul\":1010:1012   */\n      0x20\n        /* \"#utility.yul\":1036:1089   */\n      tag_85\n        /* \"#utility.yul\":1081:1088   */\n      dup6\n        /* \"#utility.yul\":1072:1078   */\n      dup3\n        /* \"#utility.yul\":1061:1070   */\n      dup7\n        /* \"#utility.yul\":1057:1079   */\n      add\n        /* \"#utility.yul\":1036:1089   */\n      tag_68\n      jump\t// in\n    tag_85:\n        /* \"#utility.yul\":1026:1089   */\n      swap2\n      pop\n        /* \"#utility.yul\":981:1099   */\n      pop\n        /* \"#utility.yul\":632:1106   */\n      swap3\n      pop\n      swap3\n      swap1\n      pop\n      jump\t// out\n        /* \"#utility.yul\":1112:1731   */\n    tag_25:\n        /* \"#utility.yul\":1189:1195   */\n      0x00\n        /* \"#utility.yul\":1197:1203   */\n      dup1\n        /* \"#utility.yul\":1205:1211   */\n      0x00\n        /* \"#utility.yul\":1254:1256   */\n      0x60\n        /* \"#utility.yul\":1242:1251   */\n      dup5\n        /* \"#utility.yul\":1233:1240   */\n      dup7\n        /* \"#utility.yul\":1229:1252   */\n      sub\n        /* \"#utility.yul\":1225:1257   */\n      slt\n        /* \"#utility.yul\":1222:1341   */\n      iszero\n      tag_87\n      jumpi\n        /* \"#utility.yul\":1260:1339   */\n      tag_88\n      tag_79\n      jump\t// in\n    tag_88:\n        /* \"#utility.yul\":1222:1341   */\n    tag_87:\n        /* \"#utility.yul\":1380:1381   */\n      0x00\n        /* \"#utility.yul\":1405:1458   */\n      tag_89\n        /* \"#utility.yul\":1450:1457   */\n      dup7\n        /* \"#utility.yul\":1441:1447   */\n      dup3\n        /* \"#utility.yul\":1430:1439   */\n      dup8\n        /* \"#utility.yul\":1426:1448   */\n      add\n        /* \"#utility.yul\":1405:1458   */\n      tag_68\n      jump\t// in\n    tag_89:\n        /* \"#utility.yul\":1395:1458   */\n      swap4\n      pop\n        /* \"#utility.yul\":1351:1468   */\n      pop\n        /* \"#utility.yul\":1507:1509   */\n      0x20\n        /* \"#utility.yul\":1533:1586   */\n      tag_90\n        /* \"#utility.yul\":1578:1585   */\n      dup7\n        /* \"#utility.yul\":1569:1575   */\n      dup3\n        /* \"#utility.yul\":1558:1567   */\n      dup8\n        /* \"#utility.yul\":1554:1576   */\n      add\n        /* \"#utility.yul\":1533:1586   */\n      tag_68\n      jump\t// in\n    tag_90:\n        /* \"#utility.yul\":1523:1586   */\n      swap3\n      pop\n        /* \"#utility.yul\":1478:1596   */\n      pop\n        /* \"#utility.yul\":1635:1637   */\n      0x40\n        /* \"#utility.yul\":1661:1714   */\n      tag_91\n        /* \"#utility.yul\":1706:1713   */\n      dup7\n        /* \"#utility.yul\":1697:1703   */\n      dup3\n        /* \"#utility.yul\":1686:1695   */\n      dup8\n        /* \"#utility.yul\":1682:1704   */\n      add\n        /* \"#utility.yul\":1661:1714   */\n      tag_72\n      jump\t// in\n    tag_91:\n        /* \"#utility.yul\":1651:1714   */\n      swap2\n      pop\n        /* \"#utility.yul\":1606:1724   */\n      pop\n        /* \"#utility.yul\":1112:1731   */\n      swap3\n      pop\n      swap3\n      pop\n      swap3\n      jump\t// out\n        /* \"#utility.yul\":1737:2211   */\n    tag_41:\n        /* \"#utility.yul\":1805:1811   */\n      0x00\n        /* \"#utility.yul\":1813:1819   */\n      dup1\n        /* \"#utility.yul\":1862:1864   */\n      0x40\n        /* \"#utility.yul\":1850:1859   */\n      dup4\n        /* \"#utility.yul\":1841:1848   */\n      dup6\n        /* \"#utility.yul\":1837:1860   */\n      sub\n        /* \"#utility.yul\":1833:1865   */\n      slt\n        /* \"#utility.yul\":1830:1949   */\n      iszero\n      tag_93\n      jumpi\n        /* \"#utility.yul\":1868:1947   */\n      tag_94\n      tag_79\n      jump\t// in\n    tag_94:\n        /* \"#utility.yul\":1830:1949   */\n    tag_93:\n        /* \"#utility.yul\":1988:1989   */\n      0x00\n        /* \"#utility.yul\":2013:2066   */\n      tag_95\n        /* \"#utility.yul\":2058:2065   */\n      dup6\n        /* \"#utility.yul\":2049:2055   */\n      dup3\n        /* \"#utility.yul\":2038:2047   */\n      dup7\n        /* \"#utility.yul\":2034:2056   */\n      add\n        /* \"#utility.yul\":2013:2066   */\n      tag_68\n      jump\t// in\n    tag_95:\n        /* \"#utility.yul\":2003:2066   */\n      swap3\n      pop\n        /* \"#utility.yul\":1959:2076   */\n      pop\n        /* \"#utility.yul\":2115:2117   */\n      0x20\n        /* \"#utility.yul\":2141:2194   */\n      tag_96\n        /* \"#utility.yul\":2186:2193   */\n      dup6\n        /* \"#utility.yul\":2177:2183   */\n      dup3\n        /* \"#utility.yul\":2166:2175   */\n      dup7\n        /* \"#utility.yul\":2162:2184   */\n      add\n        /* \"#utility.yul\":2141:2194   */\n      tag_72\n      jump\t// in\n    tag_96:\n        /* \"#utility.yul\":2131:2194   */\n      swap2\n      pop\n        /* \"#utility.yul\":2086:2204   */\n      pop\n        /* \"#utility.yul\":1737:2211   */\n      swap3\n      pop\n      swap3\n      swap1\n      pop\n      jump\t// out\n        /* \"#utility.yul\":2217:2335   */\n    tag_97:\n        /* \"#utility.yul\":2304:2328   */\n      tag_99\n        /* \"#utility.yul\":2322:2327   */\n      dup2\n        /* \"#utility.yul\":2304:2328   */\n      tag_100\n      jump\t// in\n    tag_99:\n        /* \"#utility.yul\":2299:2302   */\n      dup3\n        /* \"#utility.yul\":2292:2329   */\n      mstore\n        /* \"#utility.yul\":2217:2335   */\n      pop\n      pop\n      jump\t// out\n        /* \"#utility.yul\":2341:2707   */\n    tag_101:\n        /* \"#utility.yul\":2483:2486   */\n      0x00\n        /* \"#utility.yul\":2504:2571   */\n      tag_103\n        /* \"#utility.yul\":2568:2570   */\n      0x13\n        /* \"#utility.yul\":2563:2566   */\n      dup4\n        /* \"#utility.yul\":2504:2571   */\n      tag_104\n      jump\t// in\n    tag_103:\n        /* \"#utility.yul\":2497:2571   */\n      swap2\n      pop\n        /* \"#utility.yul\":2580:2673   */\n      tag_105\n        /* \"#utility.yul\":2669:2672   */\n      dup3\n        /* \"#utility.yul\":2580:2673   */\n      tag_106\n      jump\t// in\n    tag_105:\n        /* \"#utility.yul\":2698:2700   */\n      0x20\n        /* \"#utility.yul\":2693:2696   */\n      dup3\n        /* \"#utility.yul\":2689:2701   */\n      add\n        /* \"#utility.yul\":2682:2701   */\n      swap1\n      pop\n        /* \"#utility.yul\":2341:2707   */\n      swap2\n      swap1\n      pop\n      jump\t// out\n        /* \"#utility.yul\":2713:2831   */\n    tag_107:\n        /* \"#utility.yul\":2800:2824   */\n      tag_109\n        /* \"#utility.yul\":2818:2823   */\n      dup2\n        /* \"#utility.yul\":2800:2824   */\n      tag_110\n      jump\t// in\n    tag_109:\n        /* \"#utility.yul\":2795:2798   */\n      dup3\n        /* \"#utility.yul\":2788:2825   */\n      mstore\n        /* \"#utility.yul\":2713:2831   */\n      pop\n      pop\n      jump\t// out\n        /* \"#utility.yul\":2837:3059   */\n    tag_22:\n        /* \"#utility.yul\":2930:2934   */\n      0x00\n        /* \"#utility.yul\":2968:2970   */\n      0x20\n        /* \"#utility.yul\":2957:2966   */\n      dup3\n        /* \"#utility.yul\":2953:2971   */\n      add\n        /* \"#utility.yul\":2945:2971   */\n      swap1\n      pop\n        /* \"#utility.yul\":2981:3052   */\n      tag_112\n        /* \"#utility.yul\":3049:3050   */\n      0x00\n        /* \"#utility.yul\":3038:3047   */\n      dup4\n        /* \"#utility.yul\":3034:3051   */\n      add\n        /* \"#utility.yul\":3025:3031   */\n      dup5\n        /* \"#utility.yul\":2981:3052   */\n      tag_97\n      jump\t// in\n    tag_112:\n        /* \"#utility.yul\":2837:3059   */\n      swap3\n      swap2\n      pop\n      pop\n      jump\t// out\n        /* \"#utility.yul\":3065:3484   */\n    tag_57:\n        /* \"#utility.yul\":3231:3235   */\n      0x00\n        /* \"#utility.yul\":3269:3271   */\n      0x20\n        /* \"#utility.yul\":3258:3267   */\n      dup3\n        /* \"#utility.yul\":3254:3272   */\n      add\n        /* \"#utility.yul\":3246:3272   */\n      swap1\n      pop\n        /* \"#utility.yul\":3318:3327   */\n      dup2\n        /* \"#utility.yul\":3312:3316   */\n      dup2\n        /* \"#utility.yul\":3308:3328   */\n      sub\n        /* \"#utility.yul\":3304:3305   */\n      0x00\n        /* \"#utility.yul\":3293:3302   */\n      dup4\n        /* \"#utility.yul\":3289:3306   */\n      add\n        /* \"#utility.yul\":3282:3329   */\n      mstore\n        /* \"#utility.yul\":3346:3477   */\n      tag_114\n        /* \"#utility.yul\":3472:3476   */\n      dup2\n        /* \"#utility.yul\":3346:3477   */\n      tag_101\n      jump\t// in\n    tag_114:\n        /* \"#utility.yul\":3338:3477   */\n      swap1\n      pop\n        /* \"#utility.yul\":3065:3484   */\n      swap2\n      swap1\n      pop\n      jump\t// out\n        /* \"#utility.yul\":3490:3712   */\n    tag_18:\n        /* \"#utility.yul\":3583:3587   */\n      0x00\n        /* \"#utility.yul\":3621:3623   */\n      0x20\n        /* \"#utility.yul\":3610:3619   */\n      dup3\n        /* \"#utility.yul\":3606:3624   */\n      add\n        /* \"#utility.yul\":3598:3624   */\n      swap1\n      pop\n        /* \"#utility.yul\":3634:3705   */\n      tag_116\n        /* \"#utility.yul\":3702:3703   */\n      0x00\n        /* \"#utility.yul\":3691:3700   */\n      dup4\n        /* \"#utility.yul\":3687:3704   */\n      add\n        /* \"#utility.yul\":3678:3684   */\n      dup5\n        /* \"#utility.yul\":3634:3705   */\n      tag_107\n      jump\t// in\n    tag_116:\n        /* \"#utility.yul\":3490:3712   */\n      swap3\n      swap2\n      pop\n      pop\n      jump\t// out\n        /* \"#utility.yul\":3799:3968   */\n    tag_104:\n        /* \"#utility.yul\":3883:3894   */\n      0x00\n        /* \"#utility.yul\":3917:3923   */\n      dup3\n        /* \"#utility.yul\":3912:3915   */\n      dup3\n        /* \"#utility.yul\":3905:3924   */\n      mstore\n        /* \"#utility.yul\":3957:3961   */\n      0x20\n        /* \"#utility.yul\":3952:3955   */\n      dup3\n        /* \"#utility.yul\":3948:3962   */\n      add\n        /* \"#utility.yul\":3933:3962   */\n      swap1\n      pop\n        /* \"#utility.yul\":3799:3968   */\n      swap3\n      swap2\n      pop\n      pop\n      jump\t// out\n        /* \"#utility.yul\":3974:4279   */\n    tag_53:\n        /* \"#utility.yul\":4014:4017   */\n      0x00\n        /* \"#utility.yul\":4033:4053   */\n      tag_121\n        /* \"#utility.yul\":4051:4052   */\n      dup3\n        /* \"#utility.yul\":4033:4053   */\n      tag_110\n      jump\t// in\n    tag_121:\n        /* \"#utility.yul\":4028:4053   */\n      swap2\n      pop\n        /* \"#utility.yul\":4067:4087   */\n      tag_122\n        /* \"#utility.yul\":4085:4086   */\n      dup4\n        /* \"#utility.yul\":4067:4087   */\n      tag_110\n      jump\t// in\n    tag_122:\n        /* \"#utility.yul\":4062:4087   */\n      swap3\n      pop\n        /* \"#utility.yul\":4221:4222   */\n      dup3\n        /* \"#utility.yul\":4153:4219   */\n      0xffffffffffffffffffffffffffffffffffffffffffffffffffffffffffffffff\n        /* \"#utility.yul\":4149:4223   */\n      sub\n        /* \"#utility.yul\":4146:4147   */\n      dup3\n        /* \"#utility.yul\":4143:4224   */\n      gt\n        /* \"#utility.yul\":4140:4247   */\n      iszero\n      tag_123\n      jumpi\n        /* \"#utility.yul\":4227:4245   */\n      tag_124\n      tag_125\n      jump\t// in\n    tag_124:\n        /* \"#utility.yul\":4140:4247   */\n    tag_123:\n        /* \"#utility.yul\":4271:4272   */\n      dup3\n        /* \"#utility.yul\":4268:4269   */\n      dup3\n        /* \"#utility.yul\":4264:4273   */\n      add\n        /* \"#utility.yul\":4257:4273   */\n      swap1\n      pop\n        /* \"#utility.yul\":3974:4279   */\n      swap3\n      swap2\n      pop\n      pop\n      jump\t// out\n        /* \"#utility.yul\":4285:4476   */\n    tag_51:\n        /* \"#utility.yul\":4325:4329   */\n      0x00\n        /* \"#utility.yul\":4345:4365   */\n      tag_127\n        /* \"#utility.yul\":4363:4364   */\n      dup3\n        /* \"#utility.yul\":4345:4365   */\n      tag_110\n      jump\t// in\n    tag_127:\n        /* \"#utility.yul\":4340:4365   */\n      swap2\n      pop\n        /* \"#utility.yul\":4379:4399   */\n      tag_128\n        /* \"#utility.yul\":4397:4398   */\n      dup4\n        /* \"#utility.yul\":4379:4399   */\n      tag_110\n      jump\t// in\n    tag_128:\n        /* \"#utility.yul\":4374:4399   */\n      swap3\n      pop\n        /* \"#utility.yul\":4418:4419   */\n      dup3\n        /* \"#utility.yul\":4415:4416   */\n      dup3\n        /* \"#utility.yul\":4412:4420   */\n      lt\n        /* \"#utility.yul\":4409:4443   */\n      iszero\n      tag_129\n      jumpi\n        /* \"#utility.yul\":4423:4441   */\n      tag_130\n      tag_125\n      jump\t// in\n    tag_130:\n        /* \"#utility.yul\":4409:4443   */\n    tag_129:\n        /* \"#utility.yul\":4468:4469   */\n      dup3\n        /* \"#utility.yul\":4465:4466   */\n      dup3\n        /* \"#utility.yul\":4461:4470   */\n      sub\n        /* \"#utility.yul\":4453:4470   */\n      swap1\n      pop\n        /* \"#utility.yul\":4285:4476   */\n      swap3\n      swap2\n      pop\n      pop\n      jump\t// out\n        /* \"#utility.yul\":4482:4578   */\n    tag_100:\n        /* \"#utility.yul\":4519:4526   */\n      0x00\n        /* \"#utility.yul\":4548:4572   */\n      tag_132\n        /* \"#utility.yul\":4566:4571   */\n      dup3\n        /* \"#utility.yul\":4548:4572   */\n      tag_133\n      jump\t// in\n    tag_132:\n        /* \"#utility.yul\":4537:4572   */\n      swap1\n      pop\n        /* \"#utility.yul\":4482:4578   */\n      swap2\n      swap1\n      pop\n      jump\t// out\n        /* \"#utility.yul\":4584:4710   */\n    tag_133:\n        /* \"#utility.yul\":4621:4628   */\n      0x00\n        /* \"#utility.yul\":4661:4703   */\n      0xffffffffffffffffffffffffffffffffffffffff\n        /* \"#utility.yul\":4654:4659   */\n      dup3\n        /* \"#utility.yul\":4650:4704   */\n      and\n        /* \"#utility.yul\":4639:4704   */\n      swap1\n      pop\n        /* \"#utility.yul\":4584:4710   */\n      swap2\n      swap1\n      pop\n      jump\t// out\n        /* \"#utility.yul\":4716:4793   */\n    tag_110:\n        /* \"#utility.yul\":4753:4760   */\n      0x00\n        /* \"#utility.yul\":4782:4787   */\n      dup2\n        /* \"#utility.yul\":4771:4787   */\n      swap1\n      pop\n        /* \"#utility.yul\":4716:4793   */\n      swap2\n      swap1\n      pop\n      jump\t// out\n        /* \"#utility.yul\":4799:4979   */\n    tag_125:\n        /* \"#utility.yul\":4847:4924   */\n      0x4e487b7100000000000000000000000000000000000000000000000000000000\n        /* \"#utility.yul\":4844:4845   */\n      0x00\n        /* \"#utility.yul\":4837:4925   */\n      mstore\n        /* \"#utility.yul\":4944:4948   */\n      0x11\n        /* \"#utility.yul\":4941:4942   */\n      0x04\n        /* \"#utility.yul\":4934:4949   */\n      mstore\n        /* \"#utility.yul\":4968:4972   */\n      0x24\n        /* \"#utility.yul\":4965:4966   */\n      0x00\n        /* \"#utility.yul\":4958:4973   */\n      revert\n        /* \"#utility.yul\":5108:5225   */\n    tag_79:\n        /* \"#utility.yul\":5217:5218   */\n      0x00\n        /* \"#utility.yul\":5214:5215   */\n      dup1\n        /* \"#utility.yul\":5207:5219   */\n      revert\n        /* \"#utility.yul\":5231:5400   */\n    tag_106:\n        /* \"#utility.yul\":5371:5392   */\n      0x796f7572206e6f7420746865206d696e74657200000000000000000000000000\n        /* \"#utility.yul\":5367:5368   */\n      0x00\n        /* \"#utility.yul\":5359:5365   */\n      dup3\n        /* \"#utility.yul\":5355:5369   */\n      add\n        /* \"#utility.yul\":5348:5393   */\n      mstore\n        /* \"#utility.yul\":5231:5400   */\n      pop\n      jump\t// out\n        /* \"#utility.yul\":5406:5528   */\n    tag_71:\n        /* \"#utility.yul\":5479:5503   */\n      tag_142\n        /* \"#utility.yul\":5497:5502   */\n      dup2\n        /* \"#utility.yul\":5479:5503   */\n      tag_100\n      jump\t// in\n    tag_142:\n        /* \"#utility.yul\":5472:5477   */\n      dup2\n        /* \"#utility.yul\":5469:5504   */\n      eq\n        /* \"#utility.yul\":5459:5522   */\n      tag_143\n      jumpi\n        /* \"#utility.yul\":5518:5519   */\n      0x00\n        /* \"#utility.yul\":5515:5516   */\n      dup1\n        /* \"#utility.yul\":5508:5520   */\n      revert\n        /* \"#utility.yul\":5459:5522   */\n    tag_143:\n        /* \"#utility.yul\":5406:5528   */\n      pop\n      jump\t// out\n        /* \"#utility.yul\":5534:5656   */\n    tag_75:\n        /* \"#utility.yul\":5607:5631   */\n      tag_145\n        /* \"#utility.yul\":5625:5630   */\n      dup2\n        /* \"#utility.yul\":5607:5631   */\n      tag_110\n      jump\t// in\n    tag_145:\n        /* \"#utility.yul\":5600:5605   */\n      dup2\n        /* \"#utility.yul\":5597:5632   */\n      eq\n        /* \"#utility.yul\":5587:5650   */\n      tag_146\n      jumpi\n        /* \"#utility.yul\":5646:5647   */\n      0x00\n        /* \"#utility.yul\":5643:5644   */\n      dup1\n        /* \"#utility.yul\":5636:5648   */\n      revert\n        /* \"#utility.yul\":5587:5650   */\n    tag_146:\n        /* \"#utility.yul\":5534:5656   */\n      pop\n      jump\t// out\n\n    auxdata: 0xa264697066735822122065a573e17928ed120d5c4b7b11ecb61ad9749d9e9187446204916fa4c1850a7764736f6c63430008070033\n}\n",
				"bytecode": {
					"linkReferences": {},
					"object": "608060405234801561001057600080fd5b50336000806101000a81548173ffffffffffffffffffffffffffffffffffffffff021916908373ffffffffffffffffffffffffffffffffffffffff160217905550610938806100606000396000f3fe608060405234801561001057600080fd5b50600436106100935760003560e01c80632f5f1b6d116100665780632f5f1b6d14610132578063313ce5671461016257806340c10f19146101805780639dc29fac1461019c578063a9059cbb146101b857610093565b8063024c2ddd1461009857806313f27ae3146100c857806323b872dd146100e657806327e235e314610102575b600080fd5b6100b260048036038101906100ad9190610636565b6101d4565b6040516100bf9190610785565b60405180910390f35b6100d06101f9565b6040516100dd919061074a565b60405180910390f35b61010060048036038101906100fb9190610676565b61021d565b005b61011c60048036038101906101179190610609565b6102d1565b6040516101299190610785565b60405180910390f35b61014c60048036038101906101479190610636565b6102e9565b6040516101599190610785565b60405180910390f35b61016a61030e565b6040516101779190610785565b60405180910390f35b61019a600480360381019061019591906106c9565b610313565b005b6101b660048036038101906101b191906106c9565b6103fb565b005b6101d260048036038101906101cd91906106c9565b6104e3565b005b6002602052816000526040600020602052806000526040600020600091509150505481565b60008054906101000a900473ffffffffffffffffffffffffffffffffffffffff1681565b33925080600160008573ffffffffffffffffffffffffffffffffffffffff1673ffffffffffffffffffffffffffffffffffffffff168152602001908152602001600020600082825461026f9190610807565b9250508190555080600160008473ffffffffffffffffffffffffffffffffffffffff1673ffffffffffffffffffffffffffffffffffffffff16815260200190815260200160002060008282546102c591906107b1565b92505081905550505050565b60016020528060005260406000206000915090505481565b6003602052816000526040600020602052806000526040600020600091509150505481565b600c81565b60008054906101000a900473ffffffffffffffffffffffffffffffffffffffff1673ffffffffffffffffffffffffffffffffffffffff163373ffffffffffffffffffffffffffffffffffffffff16146103a1576040517f08c379a000000000000000000000000000000000000000000000000000000000815260040161039890610765565b60405180910390fd5b80600160008473ffffffffffffffffffffffffffffffffffffffff1673ffffffffffffffffffffffffffffffffffffffff16815260200190815260200160002060008282546103f091906107b1565b925050819055505050565b60008054906101000a900473ffffffffffffffffffffffffffffffffffffffff1673ffffffffffffffffffffffffffffffffffffffff163373ffffffffffffffffffffffffffffffffffffffff1614610489576040517f08c379a000000000000000000000000000000000000000000000000000000000815260040161048090610765565b60405180910390fd5b80600160008473ffffffffffffffffffffffffffffffffffffffff1673ffffffffffffffffffffffffffffffffffffffff16815260200190815260200160002060008282546104d89190610807565b925050819055505050565b80600160003373ffffffffffffffffffffffffffffffffffffffff1673ffffffffffffffffffffffffffffffffffffffff16815260200190815260200160002054101561052f57600080fd5b80600160003373ffffffffffffffffffffffffffffffffffffffff1673ffffffffffffffffffffffffffffffffffffffff168152602001908152602001600020600082825461057e9190610807565b9250508190555080600160008473ffffffffffffffffffffffffffffffffffffffff1673ffffffffffffffffffffffffffffffffffffffff16815260200190815260200160002060008282546105d491906107b1565b925050819055505050565b6000813590506105ee816108d4565b92915050565b600081359050610603816108eb565b92915050565b60006020828403121561061f5761061e6108a6565b5b600061062d848285016105df565b91505092915050565b6000806040838503121561064d5761064c6108a6565b5b600061065b858286016105df565b925050602061066c858286016105df565b9150509250929050565b60008060006060848603121561068f5761068e6108a6565b5b600061069d868287016105df565b93505060206106ae868287016105df565b92505060406106bf868287016105f4565b9150509250925092565b600080604083850312156106e0576106df6108a6565b5b60006106ee858286016105df565b92505060206106ff858286016105f4565b9150509250929050565b6107128161083b565b82525050565b60006107256013836107a0565b9150610730826108ab565b602082019050919050565b6107448161086d565b82525050565b600060208201905061075f6000830184610709565b92915050565b6000602082019050818103600083015261077e81610718565b9050919050565b600060208201905061079a600083018461073b565b92915050565b600082825260208201905092915050565b60006107bc8261086d565b91506107c78361086d565b9250827fffffffffffffffffffffffffffffffffffffffffffffffffffffffffffffffff038211156107fc576107fb610877565b5b828201905092915050565b60006108128261086d565b915061081d8361086d565b9250828210156108305761082f610877565b5b828203905092915050565b60006108468261084d565b9050919050565b600073ffffffffffffffffffffffffffffffffffffffff82169050919050565b6000819050919050565b7f4e487b7100000000000000000000000000000000000000000000000000000000600052601160045260246000fd5b600080fd5b7f796f7572206e6f7420746865206d696e74657200000000000000000000000000600082015250565b6108dd8161083b565b81146108e857600080fd5b50565b6108f48161086d565b81146108ff57600080fd5b5056fea264697066735822122065a573e17928ed120d5c4b7b11ecb61ad9749d9e9187446204916fa4c1850a7764736f6c63430008070033",
					"opcodes": "PUSH1 0x80 PUSH1 0x40 MSTORE CALLVALUE DUP1 ISZERO PUSH2 0x10 JUMPI PUSH1 0x0 DUP1 REVERT JUMPDEST POP CALLER PUSH1 0x0 DUP1 PUSH2 0x100 EXP DUP2 SLOAD DUP2 PUSH20 0xFFFFFFFFFFFFFFFFFFFFFFFFFFFFFFFFFFFFFFFF MUL NOT AND SWAP1 DUP4 PUSH20 0xFFFFFFFFFFFFFFFFFFFFFFFFFFFFFFFFFFFFFFFF AND MUL OR SWAP1 SSTORE POP PUSH2 0x938 DUP1 PUSH2 0x60 PUSH1 0x0 CODECOPY PUSH1 0x0 RETURN INVALID PUSH1 0x80 PUSH1 0x40 MSTORE CALLVALUE DUP1 ISZERO PUSH2 0x10 JUMPI PUSH1 0x0 DUP1 REVERT JUMPDEST POP PUSH1 0x4 CALLDATASIZE LT PUSH2 0x93 JUMPI PUSH1 0x0 CALLDATALOAD PUSH1 0xE0 SHR DUP1 PUSH4 0x2F5F1B6D GT PUSH2 0x66 JUMPI DUP1 PUSH4 0x2F5F1B6D EQ PUSH2 0x132 JUMPI DUP1 PUSH4 0x313CE567 EQ PUSH2 0x162 JUMPI DUP1 PUSH4 0x40C10F19 EQ PUSH2 0x180 JUMPI DUP1 PUSH4 0x9DC29FAC EQ PUSH2 0x19C JUMPI DUP1 PUSH4 0xA9059CBB EQ PUSH2 0x1B8 JUMPI PUSH2 0x93 JUMP JUMPDEST DUP1 PUSH4 0x24C2DDD EQ PUSH2 0x98 JUMPI DUP1 PUSH4 0x13F27AE3 EQ PUSH2 0xC8 JUMPI DUP1 PUSH4 0x23B872DD EQ PUSH2 0xE6 JUMPI DUP1 PUSH4 0x27E235E3 EQ PUSH2 0x102 JUMPI JUMPDEST PUSH1 0x0 DUP1 REVERT JUMPDEST PUSH2 0xB2 PUSH1 0x4 DUP1 CALLDATASIZE SUB DUP2 ADD SWAP1 PUSH2 0xAD SWAP2 SWAP1 PUSH2 0x636 JUMP JUMPDEST PUSH2 0x1D4 JUMP JUMPDEST PUSH1 0x40 MLOAD PUSH2 0xBF SWAP2 SWAP1 PUSH2 0x785 JUMP JUMPDEST PUSH1 0x40 MLOAD DUP1 SWAP2 SUB SWAP1 RETURN JUMPDEST PUSH2 0xD0 PUSH2 0x1F9 JUMP JUMPDEST PUSH1 0x40 MLOAD PUSH2 0xDD SWAP2 SWAP1 PUSH2 0x74A JUMP JUMPDEST PUSH1 0x40 MLOAD DUP1 SWAP2 SUB SWAP1 RETURN JUMPDEST PUSH2 0x100 PUSH1 0x4 DUP1 CALLDATASIZE SUB DUP2 ADD SWAP1 PUSH2 0xFB SWAP2 SWAP1 PUSH2 0x676 JUMP JUMPDEST PUSH2 0x21D JUMP JUMPDEST STOP JUMPDEST PUSH2 0x11C PUSH1 0x4 DUP1 CALLDATASIZE SUB DUP2 ADD SWAP1 PUSH2 0x117 SWAP2 SWAP1 PUSH2 0x609 JUMP JUMPDEST PUSH2 0x2D1 JUMP JUMPDEST PUSH1 0x40 MLOAD PUSH2 0x129 SWAP2 SWAP1 PUSH2 0x785 JUMP JUMPDEST PUSH1 0x40 MLOAD DUP1 SWAP2 SUB SWAP1 RETURN JUMPDEST PUSH2 0x14C PUSH1 0x4 DUP1 CALLDATASIZE SUB DUP2 ADD SWAP1 PUSH2 0x147 SWAP2 SWAP1 PUSH2 0x636 JUMP JUMPDEST PUSH2 0x2E9 JUMP JUMPDEST PUSH1 0x40 MLOAD PUSH2 0x159 SWAP2 SWAP1 PUSH2 0x785 JUMP JUMPDEST PUSH1 0x40 MLOAD DUP1 SWAP2 SUB SWAP1 RETURN JUMPDEST PUSH2 0x16A PUSH2 0x30E JUMP JUMPDEST PUSH1 0x40 MLOAD PUSH2 0x177 SWAP2 SWAP1 PUSH2 0x785 JUMP JUMPDEST PUSH1 0x40 MLOAD DUP1 SWAP2 SUB SWAP1 RETURN JUMPDEST PUSH2 0x19A PUSH1 0x4 DUP1 CALLDATASIZE SUB DUP2 ADD SWAP1 PUSH2 0x195 SWAP2 SWAP1 PUSH2 0x6C9 JUMP JUMPDEST PUSH2 0x313 JUMP JUMPDEST STOP JUMPDEST PUSH2 0x1B6 PUSH1 0x4 DUP1 CALLDATASIZE SUB DUP2 ADD SWAP1 PUSH2 0x1B1 SWAP2 SWAP1 PUSH2 0x6C9 JUMP JUMPDEST PUSH2 0x3FB JUMP JUMPDEST STOP JUMPDEST PUSH2 0x1D2 PUSH1 0x4 DUP1 CALLDATASIZE SUB DUP2 ADD SWAP1 PUSH2 0x1CD SWAP2 SWAP1 PUSH2 0x6C9 JUMP JUMPDEST PUSH2 0x4E3 JUMP JUMPDEST STOP JUMPDEST PUSH1 0x2 PUSH1 0x20 MSTORE DUP2 PUSH1 0x0 MSTORE PUSH1 0x40 PUSH1 0x0 KECCAK256 PUSH1 0x20 MSTORE DUP1 PUSH1 0x0 MSTORE PUSH1 0x40 PUSH1 0x0 KECCAK256 PUSH1 0x0 SWAP2 POP SWAP2 POP POP SLOAD DUP2 JUMP JUMPDEST PUSH1 0x0 DUP1 SLOAD SWAP1 PUSH2 0x100 EXP SWAP1 DIV PUSH20 0xFFFFFFFFFFFFFFFFFFFFFFFFFFFFFFFFFFFFFFFF AND DUP2 JUMP JUMPDEST CALLER SWAP3 POP DUP1 PUSH1 0x1 PUSH1 0x0 DUP6 PUSH20 0xFFFFFFFFFFFFFFFFFFFFFFFFFFFFFFFFFFFFFFFF AND PUSH20 0xFFFFFFFFFFFFFFFFFFFFFFFFFFFFFFFFFFFFFFFF AND DUP2 MSTORE PUSH1 0x20 ADD SWAP1 DUP2 MSTORE PUSH1 0x20 ADD PUSH1 0x0 KECCAK256 PUSH1 0x0 DUP3 DUP3 SLOAD PUSH2 0x26F SWAP2 SWAP1 PUSH2 0x807 JUMP JUMPDEST SWAP3 POP POP DUP2 SWAP1 SSTORE POP DUP1 PUSH1 0x1 PUSH1 0x0 DUP5 PUSH20 0xFFFFFFFFFFFFFFFFFFFFFFFFFFFFFFFFFFFFFFFF AND PUSH20 0xFFFFFFFFFFFFFFFFFFFFFFFFFFFFFFFFFFFFFFFF AND DUP2 MSTORE PUSH1 0x20 ADD SWAP1 DUP2 MSTORE PUSH1 0x20 ADD PUSH1 0x0 KECCAK256 PUSH1 0x0 DUP3 DUP3 SLOAD PUSH2 0x2C5 SWAP2 SWAP1 PUSH2 0x7B1 JUMP JUMPDEST SWAP3 POP POP DUP2 SWAP1 SSTORE POP POP POP POP JUMP JUMPDEST PUSH1 0x1 PUSH1 0x20 MSTORE DUP1 PUSH1 0x0 MSTORE PUSH1 0x40 PUSH1 0x0 KECCAK256 PUSH1 0x0 SWAP2 POP SWAP1 POP SLOAD DUP2 JUMP JUMPDEST PUSH1 0x3 PUSH1 0x20 MSTORE DUP2 PUSH1 0x0 MSTORE PUSH1 0x40 PUSH1 0x0 KECCAK256 PUSH1 0x20 MSTORE DUP1 PUSH1 0x0 MSTORE PUSH1 0x40 PUSH1 0x0 KECCAK256 PUSH1 0x0 SWAP2 POP SWAP2 POP POP SLOAD DUP2 JUMP JUMPDEST PUSH1 0xC DUP2 JUMP JUMPDEST PUSH1 0x0 DUP1 SLOAD SWAP1 PUSH2 0x100 EXP SWAP1 DIV PUSH20 0xFFFFFFFFFFFFFFFFFFFFFFFFFFFFFFFFFFFFFFFF AND PUSH20 0xFFFFFFFFFFFFFFFFFFFFFFFFFFFFFFFFFFFFFFFF AND CALLER PUSH20 0xFFFFFFFFFFFFFFFFFFFFFFFFFFFFFFFFFFFFFFFF AND EQ PUSH2 0x3A1 JUMPI PUSH1 0x40 MLOAD PUSH32 0x8C379A000000000000000000000000000000000000000000000000000000000 DUP2 MSTORE PUSH1 0x4 ADD PUSH2 0x398 SWAP1 PUSH2 0x765 JUMP JUMPDEST PUSH1 0x40 MLOAD DUP1 SWAP2 SUB SWAP1 REVERT JUMPDEST DUP1 PUSH1 0x1 PUSH1 0x0 DUP5 PUSH20 0xFFFFFFFFFFFFFFFFFFFFFFFFFFFFFFFFFFFFFFFF AND PUSH20 0xFFFFFFFFFFFFFFFFFFFFFFFFFFFFFFFFFFFFFFFF AND DUP2 MSTORE PUSH1 0x20 ADD SWAP1 DUP2 MSTORE PUSH1 0x20 ADD PUSH1 0x0 KECCAK256 PUSH1 0x0 DUP3 DUP3 SLOAD PUSH2 0x3F0 SWAP2 SWAP1 PUSH2 0x7B1 JUMP JUMPDEST SWAP3 POP POP DUP2 SWAP1 SSTORE POP POP POP JUMP JUMPDEST PUSH1 0x0 DUP1 SLOAD SWAP1 PUSH2 0x100 EXP SWAP1 DIV PUSH20 0xFFFFFFFFFFFFFFFFFFFFFFFFFFFFFFFFFFFFFFFF AND PUSH20 0xFFFFFFFFFFFFFFFFFFFFFFFFFFFFFFFFFFFFFFFF AND CALLER PUSH20 0xFFFFFFFFFFFFFFFFFFFFFFFFFFFFFFFFFFFFFFFF AND EQ PUSH2 0x489 JUMPI PUSH1 0x40 MLOAD PUSH32 0x8C379A000000000000000000000000000000000000000000000000000000000 DUP2 MSTORE PUSH1 0x4 ADD PUSH2 0x480 SWAP1 PUSH2 0x765 JUMP JUMPDEST PUSH1 0x40 MLOAD DUP1 SWAP2 SUB SWAP1 REVERT JUMPDEST DUP1 PUSH1 0x1 PUSH1 0x0 DUP5 PUSH20 0xFFFFFFFFFFFFFFFFFFFFFFFFFFFFFFFFFFFFFFFF AND PUSH20 0xFFFFFFFFFFFFFFFFFFFFFFFFFFFFFFFFFFFFFFFF AND DUP2 MSTORE PUSH1 0x20 ADD SWAP1 DUP2 MSTORE PUSH1 0x20 ADD PUSH1 0x0 KECCAK256 PUSH1 0x0 DUP3 DUP3 SLOAD PUSH2 0x4D8 SWAP2 SWAP1 PUSH2 0x807 JUMP JUMPDEST SWAP3 POP POP DUP2 SWAP1 SSTORE POP POP POP JUMP JUMPDEST DUP1 PUSH1 0x1 PUSH1 0x0 CALLER PUSH20 0xFFFFFFFFFFFFFFFFFFFFFFFFFFFFFFFFFFFFFFFF AND PUSH20 0xFFFFFFFFFFFFFFFFFFFFFFFFFFFFFFFFFFFFFFFF AND DUP2 MSTORE PUSH1 0x20 ADD SWAP1 DUP2 MSTORE PUSH1 0x20 ADD PUSH1 0x0 KECCAK256 SLOAD LT ISZERO PUSH2 0x52F JUMPI PUSH1 0x0 DUP1 REVERT JUMPDEST DUP1 PUSH1 0x1 PUSH1 0x0 CALLER PUSH20 0xFFFFFFFFFFFFFFFFFFFFFFFFFFFFFFFFFFFFFFFF AND PUSH20 0xFFFFFFFFFFFFFFFFFFFFFFFFFFFFFFFFFFFFFFFF AND DUP2 MSTORE PUSH1 0x20 ADD SWAP1 DUP2 MSTORE PUSH1 0x20 ADD PUSH1 0x0 KECCAK256 PUSH1 0x0 DUP3 DUP3 SLOAD PUSH2 0x57E SWAP2 SWAP1 PUSH2 0x807 JUMP JUMPDEST SWAP3 POP POP DUP2 SWAP1 SSTORE POP DUP1 PUSH1 0x1 PUSH1 0x0 DUP5 PUSH20 0xFFFFFFFFFFFFFFFFFFFFFFFFFFFFFFFFFFFFFFFF AND PUSH20 0xFFFFFFFFFFFFFFFFFFFFFFFFFFFFFFFFFFFFFFFF AND DUP2 MSTORE PUSH1 0x20 ADD SWAP1 DUP2 MSTORE PUSH1 0x20 ADD PUSH1 0x0 KECCAK256 PUSH1 0x0 DUP3 DUP3 SLOAD PUSH2 0x5D4 SWAP2 SWAP1 PUSH2 0x7B1 JUMP JUMPDEST SWAP3 POP POP DUP2 SWAP1 SSTORE POP POP POP JUMP JUMPDEST PUSH1 0x0 DUP2 CALLDATALOAD SWAP1 POP PUSH2 0x5EE DUP2 PUSH2 0x8D4 JUMP JUMPDEST SWAP3 SWAP2 POP POP JUMP JUMPDEST PUSH1 0x0 DUP2 CALLDATALOAD SWAP1 POP PUSH2 0x603 DUP2 PUSH2 0x8EB JUMP JUMPDEST SWAP3 SWAP2 POP POP JUMP JUMPDEST PUSH1 0x0 PUSH1 0x20 DUP3 DUP5 SUB SLT ISZERO PUSH2 0x61F JUMPI PUSH2 0x61E PUSH2 0x8A6 JUMP JUMPDEST JUMPDEST PUSH1 0x0 PUSH2 0x62D DUP5 DUP3 DUP6 ADD PUSH2 0x5DF JUMP JUMPDEST SWAP2 POP POP SWAP3 SWAP2 POP POP JUMP JUMPDEST PUSH1 0x0 DUP1 PUSH1 0x40 DUP4 DUP6 SUB SLT ISZERO PUSH2 0x64D JUMPI PUSH2 0x64C PUSH2 0x8A6 JUMP JUMPDEST JUMPDEST PUSH1 0x0 PUSH2 0x65B DUP6 DUP3 DUP7 ADD PUSH2 0x5DF JUMP JUMPDEST SWAP3 POP POP PUSH1 0x20 PUSH2 0x66C DUP6 DUP3 DUP7 ADD PUSH2 0x5DF JUMP JUMPDEST SWAP2 POP POP SWAP3 POP SWAP3 SWAP1 POP JUMP JUMPDEST PUSH1 0x0 DUP1 PUSH1 0x0 PUSH1 0x60 DUP5 DUP7 SUB SLT ISZERO PUSH2 0x68F JUMPI PUSH2 0x68E PUSH2 0x8A6 JUMP JUMPDEST JUMPDEST PUSH1 0x0 PUSH2 0x69D DUP7 DUP3 DUP8 ADD PUSH2 0x5DF JUMP JUMPDEST SWAP4 POP POP PUSH1 0x20 PUSH2 0x6AE DUP7 DUP3 DUP8 ADD PUSH2 0x5DF JUMP JUMPDEST SWAP3 POP POP PUSH1 0x40 PUSH2 0x6BF DUP7 DUP3 DUP8 ADD PUSH2 0x5F4 JUMP JUMPDEST SWAP2 POP POP SWAP3 POP SWAP3 POP SWAP3 JUMP JUMPDEST PUSH1 0x0 DUP1 PUSH1 0x40 DUP4 DUP6 SUB SLT ISZERO PUSH2 0x6E0 JUMPI PUSH2 0x6DF PUSH2 0x8A6 JUMP JUMPDEST JUMPDEST PUSH1 0x0 PUSH2 0x6EE DUP6 DUP3 DUP7 ADD PUSH2 0x5DF JUMP JUMPDEST SWAP3 POP POP PUSH1 0x20 PUSH2 0x6FF DUP6 DUP3 DUP7 ADD PUSH2 0x5F4 JUMP JUMPDEST SWAP2 POP POP SWAP3 POP SWAP3 SWAP1 POP JUMP JUMPDEST PUSH2 0x712 DUP2 PUSH2 0x83B JUMP JUMPDEST DUP3 MSTORE POP POP JUMP JUMPDEST PUSH1 0x0 PUSH2 0x725 PUSH1 0x13 DUP4 PUSH2 0x7A0 JUMP JUMPDEST SWAP2 POP PUSH2 0x730 DUP3 PUSH2 0x8AB JUMP JUMPDEST PUSH1 0x20 DUP3 ADD SWAP1 POP SWAP2 SWAP1 POP JUMP JUMPDEST PUSH2 0x744 DUP2 PUSH2 0x86D JUMP JUMPDEST DUP3 MSTORE POP POP JUMP JUMPDEST PUSH1 0x0 PUSH1 0x20 DUP3 ADD SWAP1 POP PUSH2 0x75F PUSH1 0x0 DUP4 ADD DUP5 PUSH2 0x709 JUMP JUMPDEST SWAP3 SWAP2 POP POP JUMP JUMPDEST PUSH1 0x0 PUSH1 0x20 DUP3 ADD SWAP1 POP DUP2 DUP2 SUB PUSH1 0x0 DUP4 ADD MSTORE PUSH2 0x77E DUP2 PUSH2 0x718 JUMP JUMPDEST SWAP1 POP SWAP2 SWAP1 POP JUMP JUMPDEST PUSH1 0x0 PUSH1 0x20 DUP3 ADD SWAP1 POP PUSH2 0x79A PUSH1 0x0 DUP4 ADD DUP5 PUSH2 0x73B JUMP JUMPDEST SWAP3 SWAP2 POP POP JUMP JUMPDEST PUSH1 0x0 DUP3 DUP3 MSTORE PUSH1 0x20 DUP3 ADD SWAP1 POP SWAP3 SWAP2 POP POP JUMP JUMPDEST PUSH1 0x0 PUSH2 0x7BC DUP3 PUSH2 0x86D JUMP JUMPDEST SWAP2 POP PUSH2 0x7C7 DUP4 PUSH2 0x86D JUMP JUMPDEST SWAP3 POP DUP3 PUSH32 0xFFFFFFFFFFFFFFFFFFFFFFFFFFFFFFFFFFFFFFFFFFFFFFFFFFFFFFFFFFFFFFFF SUB DUP3 GT ISZERO PUSH2 0x7FC JUMPI PUSH2 0x7FB PUSH2 0x877 JUMP JUMPDEST JUMPDEST DUP3 DUP3 ADD SWAP1 POP SWAP3 SWAP2 POP POP JUMP JUMPDEST PUSH1 0x0 PUSH2 0x812 DUP3 PUSH2 0x86D JUMP JUMPDEST SWAP2 POP PUSH2 0x81D DUP4 PUSH2 0x86D JUMP JUMPDEST SWAP3 POP DUP3 DUP3 LT ISZERO PUSH2 0x830 JUMPI PUSH2 0x82F PUSH2 0x877 JUMP JUMPDEST JUMPDEST DUP3 DUP3 SUB SWAP1 POP SWAP3 SWAP2 POP POP JUMP JUMPDEST PUSH1 0x0 PUSH2 0x846 DUP3 PUSH2 0x84D JUMP JUMPDEST SWAP1 POP SWAP2 SWAP1 POP JUMP JUMPDEST PUSH1 0x0 PUSH20 0xFFFFFFFFFFFFFFFFFFFFFFFFFFFFFFFFFFFFFFFF DUP3 AND SWAP1 POP SWAP2 SWAP1 POP JUMP JUMPDEST PUSH1 0x0 DUP2 SWAP1 POP SWAP2 SWAP1 POP JUMP JUMPDEST PUSH32 0x4E487B7100000000000000000000000000000000000000000000000000000000 PUSH1 0x0 MSTORE PUSH1 0x11 PUSH1 0x4 MSTORE PUSH1 0x24 PUSH1 0x0 REVERT JUMPDEST PUSH1 0x0 DUP1 REVERT JUMPDEST PUSH32 0x796F7572206E6F7420746865206D696E74657200000000000000000000000000 PUSH1 0x0 DUP3 ADD MSTORE POP JUMP JUMPDEST PUSH2 0x8DD DUP2 PUSH2 0x83B JUMP JUMPDEST DUP2 EQ PUSH2 0x8E8 JUMPI PUSH1 0x0 DUP1 REVERT JUMPDEST POP JUMP JUMPDEST PUSH2 0x8F4 DUP2 PUSH2 0x86D JUMP JUMPDEST DUP2 EQ PUSH2 0x8FF JUMPI PUSH1 0x0 DUP1 REVERT JUMPDEST POP JUMP INVALID LOG2 PUSH5 0x6970667358 0x22 SLT KECCAK256 PUSH6 0xA573E17928ED SLT 0xD 0x5C 0x4B PUSH28 0x11ECB61AD9749D9E9187446204916FA4C1850A7764736F6C63430008 SMOD STOP CALLER "
				},
				"gasEstimates": {
					"creation": {
						"codeDepositCost": "472000",
						"executionCost": "24771",
						"totalCost": "496771"
					},
					"external": {
						"_allowances(address,address)": "infinite",
						"_approval(address,address)": "infinite",
						"balances(address)": "2881",
						"burn(address,uint256)": "infinite",
						"decimals()": "351",
						"mint(address,uint256)": "infinite",
						"transfer(address,uint256)": "infinite",
						"transferFrom(address,address,uint256)": "infinite",
						"wakar()": "2534"
					}
				},
				"methodIdentifiers": {
					"_allowances(address,address)": "024c2ddd",
					"_approval(address,address)": "2f5f1b6d",
					"balances(address)": "27e235e3",
					"burn(address,uint256)": "9dc29fac",
					"decimals()": "313ce567",
					"mint(address,uint256)": "40c10f19",
					"transfer(address,uint256)": "a9059cbb",
					"transferFrom(address,address,uint256)": "23b872dd",
					"wakar()": "13f27ae3"
				}
			},
			"userdoc": {
				"kind": "user",
				"methods": {},
				"version": 1
			}
		}
	}
}