{
	"contracts/Erc20.sol": {
		"CGCToken": {
			"abi": [
				{
					"inputs": [
						{
							"internalType": "string",
							"name": "_name",
							"type": "string"
						},
						{
							"internalType": "string",
							"name": "_symbol",
							"type": "string"
						},
						{
							"internalType": "uint8",
							"name": "_decimal",
							"type": "uint8"
						},
						{
							"internalType": "uint256",
							"name": "_tSupply",
							"type": "uint256"
						}
					],
					"stateMutability": "nonpayable",
					"type": "constructor"
				},
				{
					"anonymous": false,
					"inputs": [
						{
							"indexed": true,
							"internalType": "address",
							"name": "tokenOwner",
							"type": "address"
						},
						{
							"indexed": true,
							"internalType": "address",
							"name": "spender",
							"type": "address"
						},
						{
							"indexed": false,
							"internalType": "uint256",
							"name": "tokens",
							"type": "uint256"
						}
					],
					"name": "Approval",
					"type": "event"
				},
				{
					"anonymous": false,
					"inputs": [
						{
							"indexed": true,
							"internalType": "address",
							"name": "from",
							"type": "address"
						},
						{
							"indexed": true,
							"internalType": "address",
							"name": "to",
							"type": "address"
						},
						{
							"indexed": false,
							"internalType": "uint256",
							"name": "value",
							"type": "uint256"
						}
					],
					"name": "Transfer",
					"type": "event"
				},
				{
					"inputs": [
						{
							"internalType": "address",
							"name": "tokenOwner",
							"type": "address"
						}
					],
					"name": "balanceOf",
					"outputs": [
						{
							"internalType": "bool",
							"name": "",
							"type": "bool"
						}
					],
					"stateMutability": "view",
					"type": "function"
				},
				{
					"inputs": [],
					"name": "decimals",
					"outputs": [
						{
							"internalType": "uint8",
							"name": "",
							"type": "uint8"
						}
					],
					"stateMutability": "view",
					"type": "function"
				},
				{
					"inputs": [
						{
							"internalType": "uint256",
							"name": "_qty",
							"type": "uint256"
						}
					],
					"name": "mint",
					"outputs": [
						{
							"internalType": "uint256",
							"name": "",
							"type": "uint256"
						}
					],
					"stateMutability": "nonpayable",
					"type": "function"
				},
				{
					"inputs": [],
					"name": "name",
					"outputs": [
						{
							"internalType": "string",
							"name": "",
							"type": "string"
						}
					],
					"stateMutability": "view",
					"type": "function"
				},
				{
					"inputs": [],
					"name": "symbol",
					"outputs": [
						{
							"internalType": "string",
							"name": "",
							"type": "string"
						}
					],
					"stateMutability": "view",
					"type": "function"
				},
				{
					"inputs": [],
					"name": "totalSupply",
					"outputs": [
						{
							"internalType": "uint256",
							"name": "",
							"type": "uint256"
						}
					],
					"stateMutability": "view",
					"type": "function"
				},
				{
					"inputs": [
						{
							"internalType": "address",
							"name": "receiver",
							"type": "address"
						},
						{
							"internalType": "uint256",
							"name": "numtokens",
							"type": "uint256"
						}
					],
					"name": "transfer",
					"outputs": [
						{
							"internalType": "bool",
							"name": "",
							"type": "bool"
						}
					],
					"stateMutability": "nonpayable",
					"type": "function"
				}
			],
			"devdoc": {
				"kind": "dev",
				"methods": {},
				"version": 1
			},
			"evm": {
				"assembly": "    /* \"contracts/Erc20.sol\":384:1665  contract CGCToken is IERC20 {\r... */\n  mstore(0x40, 0x80)\n    /* \"contracts/Erc20.sol\":771:1016  constructor(string memory _name, string memory _symbol, uint8 _decimal, uint256 _tSupply) public {\r... */\n  callvalue\n  dup1\n  iszero\n  tag_1\n  jumpi\n  0x00\n  dup1\n  revert\ntag_1:\n  pop\n  mload(0x40)\n  sub(codesize, bytecodeSize)\n  dup1\n  bytecodeSize\n  dup4\n  codecopy\n  dup2\n  dup2\n  add\n  0x40\n  mstore\n  dup2\n  add\n  swap1\n  tag_2\n  swap2\n  swap1\n  tag_3\n  jump\t// in\ntag_2:\n    /* \"contracts/Erc20.sol\":892:900  _tSupply */\n  dup1\n    /* \"contracts/Erc20.sol\":877:889  _totalSupply */\n  0x05\n    /* \"contracts/Erc20.sol\":877:900  _totalSupply = _tSupply */\n  dup2\n  swap1\n  sstore\n  pop\n    /* \"contracts/Erc20.sol\":930:942  _totalSupply */\n  sload(0x05)\n    /* \"contracts/Erc20.sol\":907:915  balances */\n  0x03\n    /* \"contracts/Erc20.sol\":907:927  balances[msg.sender] */\n  0x00\n    /* \"contracts/Erc20.sol\":916:926  msg.sender */\n  caller\n    /* \"contracts/Erc20.sol\":907:927  balances[msg.sender] */\n  0xffffffffffffffffffffffffffffffffffffffff\n  and\n  0xffffffffffffffffffffffffffffffffffffffff\n  and\n  dup2\n  mstore\n  0x20\n  add\n  swap1\n  dup2\n  mstore\n  0x20\n  add\n  0x00\n  keccak256\n    /* \"contracts/Erc20.sol\":907:942  balances[msg.sender] = _totalSupply */\n  dup2\n  swap1\n  sstore\n  pop\n    /* \"contracts/Erc20.sol\":956:961  _name */\n  dup4\n    /* \"contracts/Erc20.sol\":949:953  name */\n  0x00\n    /* \"contracts/Erc20.sol\":949:961  name = _name */\n  swap1\n  dup1\n  mload\n  swap1\n  0x20\n  add\n  swap1\n  tag_6\n  swap3\n  swap2\n  swap1\n  tag_7\n  jump\t// in\ntag_6:\n  pop\n    /* \"contracts/Erc20.sol\":977:984  _symbol */\n  dup3\n    /* \"contracts/Erc20.sol\":968:974  symbol */\n  0x01\n    /* \"contracts/Erc20.sol\":968:984  symbol = _symbol */\n  swap1\n  dup1\n  mload\n  swap1\n  0x20\n  add\n  swap1\n  tag_8\n  swap3\n  swap2\n  swap1\n  tag_7\n  jump\t// in\ntag_8:\n  pop\n    /* \"contracts/Erc20.sol\":1002:1010  _decimal */\n  dup2\n    /* \"contracts/Erc20.sol\":991:999  decimals */\n  0x02\n  0x00\n    /* \"contracts/Erc20.sol\":991:1010  decimals = _decimal */\n  0x0100\n  exp\n  dup2\n  sload\n  dup2\n  0xff\n  mul\n  not\n  and\n  swap1\n  dup4\n  0xff\n  and\n  mul\n  or\n  swap1\n  sstore\n  pop\n    /* \"contracts/Erc20.sol\":771:1016  constructor(string memory _name, string memory _symbol, uint8 _decimal, uint256 _tSupply) public {\r... */\n  pop\n  pop\n  pop\n  pop\n    /* \"contracts/Erc20.sol\":384:1665  contract CGCToken is IERC20 {\r... */\n  jump(tag_9)\ntag_7:\n  dup3\n  dup1\n  sload\n  tag_10\n  swap1\n  tag_11\n  jump\t// in\ntag_10:\n  swap1\n  0x00\n  mstore\n  keccak256(0x00, 0x20)\n  swap1\n  0x1f\n  add\n  0x20\n  swap1\n  div\n  dup2\n  add\n  swap3\n  dup3\n  tag_13\n  jumpi\n  0x00\n  dup6\n  sstore\n  jump(tag_12)\ntag_13:\n  dup3\n  0x1f\n  lt\n  tag_14\n  jumpi\n  dup1\n  mload\n  not(0xff)\n  and\n  dup4\n  dup1\n  add\n  or\n  dup6\n  sstore\n  jump(tag_12)\ntag_14:\n  dup3\n  dup1\n  add\n  0x01\n  add\n  dup6\n  sstore\n  dup3\n  iszero\n  tag_12\n  jumpi\n  swap2\n  dup3\n  add\ntag_15:\n  dup3\n  dup2\n  gt\n  iszero\n  tag_16\n  jumpi\n  dup3\n  mload\n  dup3\n  sstore\n  swap2\n  0x20\n  add\n  swap2\n  swap1\n  0x01\n  add\n  swap1\n  jump(tag_15)\ntag_16:\ntag_12:\n  pop\n  swap1\n  pop\n  tag_17\n  swap2\n  swap1\n  tag_18\n  jump\t// in\ntag_17:\n  pop\n  swap1\n  jump\t// out\ntag_18:\ntag_19:\n  dup1\n  dup3\n  gt\n  iszero\n  tag_20\n  jumpi\n  0x00\n  dup2\n  0x00\n  swap1\n  sstore\n  pop\n  0x01\n  add\n  jump(tag_19)\ntag_20:\n  pop\n  swap1\n  jump\t// out\n    /* \"#utility.yul\":7:428   */\ntag_22:\n    /* \"#utility.yul\":96:101   */\n  0x00\n    /* \"#utility.yul\":121:187   */\n  tag_24\n    /* \"#utility.yul\":137:186   */\n  tag_25\n    /* \"#utility.yul\":179:185   */\n  dup5\n    /* \"#utility.yul\":137:186   */\n  tag_26\n  jump\t// in\ntag_25:\n    /* \"#utility.yul\":121:187   */\n  tag_27\n  jump\t// in\ntag_24:\n    /* \"#utility.yul\":112:187   */\n  swap1\n  pop\n    /* \"#utility.yul\":210:216   */\n  dup3\n    /* \"#utility.yul\":203:208   */\n  dup2\n    /* \"#utility.yul\":196:217   */\n  mstore\n    /* \"#utility.yul\":248:252   */\n  0x20\n    /* \"#utility.yul\":241:246   */\n  dup2\n    /* \"#utility.yul\":237:253   */\n  add\n    /* \"#utility.yul\":286:289   */\n  dup5\n    /* \"#utility.yul\":277:283   */\n  dup5\n    /* \"#utility.yul\":272:275   */\n  dup5\n    /* \"#utility.yul\":268:284   */\n  add\n    /* \"#utility.yul\":265:290   */\n  gt\n    /* \"#utility.yul\":262:374   */\n  iszero\n  tag_28\n  jumpi\n    /* \"#utility.yul\":293:372   */\n  tag_29\n  tag_30\n  jump\t// in\ntag_29:\n    /* \"#utility.yul\":262:374   */\ntag_28:\n    /* \"#utility.yul\":383:422   */\n  tag_31\n    /* \"#utility.yul\":415:421   */\n  dup5\n    /* \"#utility.yul\":410:413   */\n  dup3\n    /* \"#utility.yul\":405:408   */\n  dup6\n    /* \"#utility.yul\":383:422   */\n  tag_32\n  jump\t// in\ntag_31:\n    /* \"#utility.yul\":102:428   */\n  pop\n    /* \"#utility.yul\":7:428   */\n  swap4\n  swap3\n  pop\n  pop\n  pop\n  jump\t// out\n    /* \"#utility.yul\":448:803   */\ntag_33:\n    /* \"#utility.yul\":515:520   */\n  0x00\n    /* \"#utility.yul\":564:567   */\n  dup3\n    /* \"#utility.yul\":557:561   */\n  0x1f\n    /* \"#utility.yul\":549:555   */\n  dup4\n    /* \"#utility.yul\":545:562   */\n  add\n    /* \"#utility.yul\":541:568   */\n  slt\n    /* \"#utility.yul\":531:653   */\n  tag_35\n  jumpi\n    /* \"#utility.yul\":572:651   */\n  tag_36\n  tag_37\n  jump\t// in\ntag_36:\n    /* \"#utility.yul\":531:653   */\ntag_35:\n    /* \"#utility.yul\":682:688   */\n  dup2\n    /* \"#utility.yul\":676:689   */\n  mload\n    /* \"#utility.yul\":707:797   */\n  tag_38\n    /* \"#utility.yul\":793:796   */\n  dup5\n    /* \"#utility.yul\":785:791   */\n  dup3\n    /* \"#utility.yul\":778:782   */\n  0x20\n    /* \"#utility.yul\":770:776   */\n  dup7\n    /* \"#utility.yul\":766:783   */\n  add\n    /* \"#utility.yul\":707:797   */\n  tag_22\n  jump\t// in\ntag_38:\n    /* \"#utility.yul\":698:797   */\n  swap2\n  pop\n    /* \"#utility.yul\":521:803   */\n  pop\n    /* \"#utility.yul\":448:803   */\n  swap3\n  swap2\n  pop\n  pop\n  jump\t// out\n    /* \"#utility.yul\":809:952   */\ntag_39:\n    /* \"#utility.yul\":866:871   */\n  0x00\n    /* \"#utility.yul\":897:903   */\n  dup2\n    /* \"#utility.yul\":891:904   */\n  mload\n    /* \"#utility.yul\":882:904   */\n  swap1\n  pop\n    /* \"#utility.yul\":913:946   */\n  tag_41\n    /* \"#utility.yul\":940:945   */\n  dup2\n    /* \"#utility.yul\":913:946   */\n  tag_42\n  jump\t// in\ntag_41:\n    /* \"#utility.yul\":809:952   */\n  swap3\n  swap2\n  pop\n  pop\n  jump\t// out\n    /* \"#utility.yul\":958:1097   */\ntag_43:\n    /* \"#utility.yul\":1013:1018   */\n  0x00\n    /* \"#utility.yul\":1044:1050   */\n  dup2\n    /* \"#utility.yul\":1038:1051   */\n  mload\n    /* \"#utility.yul\":1029:1051   */\n  swap1\n  pop\n    /* \"#utility.yul\":1060:1091   */\n  tag_45\n    /* \"#utility.yul\":1085:1090   */\n  dup2\n    /* \"#utility.yul\":1060:1091   */\n  tag_46\n  jump\t// in\ntag_45:\n    /* \"#utility.yul\":958:1097   */\n  swap3\n  swap2\n  pop\n  pop\n  jump\t// out\n    /* \"#utility.yul\":1103:2265   */\ntag_3:\n    /* \"#utility.yul\":1218:1224   */\n  0x00\n    /* \"#utility.yul\":1226:1232   */\n  dup1\n    /* \"#utility.yul\":1234:1240   */\n  0x00\n    /* \"#utility.yul\":1242:1248   */\n  dup1\n    /* \"#utility.yul\":1291:1294   */\n  0x80\n    /* \"#utility.yul\":1279:1288   */\n  dup6\n    /* \"#utility.yul\":1270:1277   */\n  dup8\n    /* \"#utility.yul\":1266:1289   */\n  sub\n    /* \"#utility.yul\":1262:1295   */\n  slt\n    /* \"#utility.yul\":1259:1379   */\n  iszero\n  tag_48\n  jumpi\n    /* \"#utility.yul\":1298:1377   */\n  tag_49\n  tag_50\n  jump\t// in\ntag_49:\n    /* \"#utility.yul\":1259:1379   */\ntag_48:\n    /* \"#utility.yul\":1439:1440   */\n  0x00\n    /* \"#utility.yul\":1428:1437   */\n  dup6\n    /* \"#utility.yul\":1424:1441   */\n  add\n    /* \"#utility.yul\":1418:1442   */\n  mload\n    /* \"#utility.yul\":1469:1487   */\n  0xffffffffffffffff\n    /* \"#utility.yul\":1461:1467   */\n  dup2\n    /* \"#utility.yul\":1458:1488   */\n  gt\n    /* \"#utility.yul\":1455:1572   */\n  iszero\n  tag_51\n  jumpi\n    /* \"#utility.yul\":1491:1570   */\n  tag_52\n  tag_53\n  jump\t// in\ntag_52:\n    /* \"#utility.yul\":1455:1572   */\ntag_51:\n    /* \"#utility.yul\":1596:1670   */\n  tag_54\n    /* \"#utility.yul\":1662:1669   */\n  dup8\n    /* \"#utility.yul\":1653:1659   */\n  dup3\n    /* \"#utility.yul\":1642:1651   */\n  dup9\n    /* \"#utility.yul\":1638:1660   */\n  add\n    /* \"#utility.yul\":1596:1670   */\n  tag_33\n  jump\t// in\ntag_54:\n    /* \"#utility.yul\":1586:1670   */\n  swap5\n  pop\n    /* \"#utility.yul\":1389:1680   */\n  pop\n    /* \"#utility.yul\":1740:1742   */\n  0x20\n    /* \"#utility.yul\":1729:1738   */\n  dup6\n    /* \"#utility.yul\":1725:1743   */\n  add\n    /* \"#utility.yul\":1719:1744   */\n  mload\n    /* \"#utility.yul\":1771:1789   */\n  0xffffffffffffffff\n    /* \"#utility.yul\":1763:1769   */\n  dup2\n    /* \"#utility.yul\":1760:1790   */\n  gt\n    /* \"#utility.yul\":1757:1874   */\n  iszero\n  tag_55\n  jumpi\n    /* \"#utility.yul\":1793:1872   */\n  tag_56\n  tag_53\n  jump\t// in\ntag_56:\n    /* \"#utility.yul\":1757:1874   */\ntag_55:\n    /* \"#utility.yul\":1898:1972   */\n  tag_57\n    /* \"#utility.yul\":1964:1971   */\n  dup8\n    /* \"#utility.yul\":1955:1961   */\n  dup3\n    /* \"#utility.yul\":1944:1953   */\n  dup9\n    /* \"#utility.yul\":1940:1962   */\n  add\n    /* \"#utility.yul\":1898:1972   */\n  tag_33\n  jump\t// in\ntag_57:\n    /* \"#utility.yul\":1888:1972   */\n  swap4\n  pop\n    /* \"#utility.yul\":1690:1982   */\n  pop\n    /* \"#utility.yul\":2021:2023   */\n  0x40\n    /* \"#utility.yul\":2047:2109   */\n  tag_58\n    /* \"#utility.yul\":2101:2108   */\n  dup8\n    /* \"#utility.yul\":2092:2098   */\n  dup3\n    /* \"#utility.yul\":2081:2090   */\n  dup9\n    /* \"#utility.yul\":2077:2099   */\n  add\n    /* \"#utility.yul\":2047:2109   */\n  tag_43\n  jump\t// in\ntag_58:\n    /* \"#utility.yul\":2037:2109   */\n  swap3\n  pop\n    /* \"#utility.yul\":1992:2119   */\n  pop\n    /* \"#utility.yul\":2158:2160   */\n  0x60\n    /* \"#utility.yul\":2184:2248   */\n  tag_59\n    /* \"#utility.yul\":2240:2247   */\n  dup8\n    /* \"#utility.yul\":2231:2237   */\n  dup3\n    /* \"#utility.yul\":2220:2229   */\n  dup9\n    /* \"#utility.yul\":2216:2238   */\n  add\n    /* \"#utility.yul\":2184:2248   */\n  tag_39\n  jump\t// in\ntag_59:\n    /* \"#utility.yul\":2174:2248   */\n  swap2\n  pop\n    /* \"#utility.yul\":2129:2258   */\n  pop\n    /* \"#utility.yul\":1103:2265   */\n  swap3\n  swap6\n  swap2\n  swap5\n  pop\n  swap3\n  pop\n  jump\t// out\n    /* \"#utility.yul\":2271:2400   */\ntag_27:\n    /* \"#utility.yul\":2305:2311   */\n  0x00\n    /* \"#utility.yul\":2332:2352   */\n  tag_61\n  tag_62\n  jump\t// in\ntag_61:\n    /* \"#utility.yul\":2322:2352   */\n  swap1\n  pop\n    /* \"#utility.yul\":2361:2394   */\n  tag_63\n    /* \"#utility.yul\":2389:2393   */\n  dup3\n    /* \"#utility.yul\":2381:2387   */\n  dup3\n    /* \"#utility.yul\":2361:2394   */\n  tag_64\n  jump\t// in\ntag_63:\n    /* \"#utility.yul\":2271:2400   */\n  swap2\n  swap1\n  pop\n  jump\t// out\n    /* \"#utility.yul\":2406:2481   */\ntag_62:\n    /* \"#utility.yul\":2439:2445   */\n  0x00\n    /* \"#utility.yul\":2472:2474   */\n  0x40\n    /* \"#utility.yul\":2466:2475   */\n  mload\n    /* \"#utility.yul\":2456:2475   */\n  swap1\n  pop\n    /* \"#utility.yul\":2406:2481   */\n  swap1\n  jump\t// out\n    /* \"#utility.yul\":2487:2795   */\ntag_26:\n    /* \"#utility.yul\":2549:2553   */\n  0x00\n    /* \"#utility.yul\":2639:2657   */\n  0xffffffffffffffff\n    /* \"#utility.yul\":2631:2637   */\n  dup3\n    /* \"#utility.yul\":2628:2658   */\n  gt\n    /* \"#utility.yul\":2625:2681   */\n  iszero\n  tag_67\n  jumpi\n    /* \"#utility.yul\":2661:2679   */\n  tag_68\n  tag_69\n  jump\t// in\ntag_68:\n    /* \"#utility.yul\":2625:2681   */\ntag_67:\n    /* \"#utility.yul\":2699:2728   */\n  tag_70\n    /* \"#utility.yul\":2721:2727   */\n  dup3\n    /* \"#utility.yul\":2699:2728   */\n  tag_71\n  jump\t// in\ntag_70:\n    /* \"#utility.yul\":2691:2728   */\n  swap1\n  pop\n    /* \"#utility.yul\":2783:2787   */\n  0x20\n    /* \"#utility.yul\":2777:2781   */\n  dup2\n    /* \"#utility.yul\":2773:2788   */\n  add\n    /* \"#utility.yul\":2765:2788   */\n  swap1\n  pop\n    /* \"#utility.yul\":2487:2795   */\n  swap2\n  swap1\n  pop\n  jump\t// out\n    /* \"#utility.yul\":2801:2878   */\ntag_72:\n    /* \"#utility.yul\":2838:2845   */\n  0x00\n    /* \"#utility.yul\":2867:2872   */\n  dup2\n    /* \"#utility.yul\":2856:2872   */\n  swap1\n  pop\n    /* \"#utility.yul\":2801:2878   */\n  swap2\n  swap1\n  pop\n  jump\t// out\n    /* \"#utility.yul\":2884:2970   */\ntag_74:\n    /* \"#utility.yul\":2919:2926   */\n  0x00\n    /* \"#utility.yul\":2959:2963   */\n  0xff\n    /* \"#utility.yul\":2952:2957   */\n  dup3\n    /* \"#utility.yul\":2948:2964   */\n  and\n    /* \"#utility.yul\":2937:2964   */\n  swap1\n  pop\n    /* \"#utility.yul\":2884:2970   */\n  swap2\n  swap1\n  pop\n  jump\t// out\n    /* \"#utility.yul\":2976:3283   */\ntag_32:\n    /* \"#utility.yul\":3044:3045   */\n  0x00\n    /* \"#utility.yul\":3054:3167   */\ntag_77:\n    /* \"#utility.yul\":3068:3074   */\n  dup4\n    /* \"#utility.yul\":3065:3066   */\n  dup2\n    /* \"#utility.yul\":3062:3075   */\n  lt\n    /* \"#utility.yul\":3054:3167   */\n  iszero\n  tag_79\n  jumpi\n    /* \"#utility.yul\":3153:3154   */\n  dup1\n    /* \"#utility.yul\":3148:3151   */\n  dup3\n    /* \"#utility.yul\":3144:3155   */\n  add\n    /* \"#utility.yul\":3138:3156   */\n  mload\n    /* \"#utility.yul\":3134:3135   */\n  dup2\n    /* \"#utility.yul\":3129:3132   */\n  dup5\n    /* \"#utility.yul\":3125:3136   */\n  add\n    /* \"#utility.yul\":3118:3157   */\n  mstore\n    /* \"#utility.yul\":3090:3092   */\n  0x20\n    /* \"#utility.yul\":3087:3088   */\n  dup2\n    /* \"#utility.yul\":3083:3093   */\n  add\n    /* \"#utility.yul\":3078:3093   */\n  swap1\n  pop\n    /* \"#utility.yul\":3054:3167   */\n  jump(tag_77)\ntag_79:\n    /* \"#utility.yul\":3185:3191   */\n  dup4\n    /* \"#utility.yul\":3182:3183   */\n  dup2\n    /* \"#utility.yul\":3179:3192   */\n  gt\n    /* \"#utility.yul\":3176:3277   */\n  iszero\n  tag_80\n  jumpi\n    /* \"#utility.yul\":3265:3266   */\n  0x00\n    /* \"#utility.yul\":3256:3262   */\n  dup5\n    /* \"#utility.yul\":3251:3254   */\n  dup5\n    /* \"#utility.yul\":3247:3263   */\n  add\n    /* \"#utility.yul\":3240:3267   */\n  mstore\n    /* \"#utility.yul\":3176:3277   */\ntag_80:\n    /* \"#utility.yul\":3025:3283   */\n  pop\n    /* \"#utility.yul\":2976:3283   */\n  pop\n  pop\n  pop\n  jump\t// out\n    /* \"#utility.yul\":3289:3609   */\ntag_11:\n    /* \"#utility.yul\":3333:3339   */\n  0x00\n    /* \"#utility.yul\":3370:3371   */\n  0x02\n    /* \"#utility.yul\":3364:3368   */\n  dup3\n    /* \"#utility.yul\":3360:3372   */\n  div\n    /* \"#utility.yul\":3350:3372   */\n  swap1\n  pop\n    /* \"#utility.yul\":3417:3418   */\n  0x01\n    /* \"#utility.yul\":3411:3415   */\n  dup3\n    /* \"#utility.yul\":3407:3419   */\n  and\n    /* \"#utility.yul\":3438:3456   */\n  dup1\n    /* \"#utility.yul\":3428:3509   */\n  tag_82\n  jumpi\n    /* \"#utility.yul\":3494:3498   */\n  0x7f\n    /* \"#utility.yul\":3486:3492   */\n  dup3\n    /* \"#utility.yul\":3482:3499   */\n  and\n    /* \"#utility.yul\":3472:3499   */\n  swap2\n  pop\n    /* \"#utility.yul\":3428:3509   */\ntag_82:\n    /* \"#utility.yul\":3556:3558   */\n  0x20\n    /* \"#utility.yul\":3548:3554   */\n  dup3\n    /* \"#utility.yul\":3545:3559   */\n  lt\n    /* \"#utility.yul\":3525:3543   */\n  dup2\n    /* \"#utility.yul\":3522:3560   */\n  eq\n    /* \"#utility.yul\":3519:3603   */\n  iszero\n  tag_83\n  jumpi\n    /* \"#utility.yul\":3575:3593   */\n  tag_84\n  tag_85\n  jump\t// in\ntag_84:\n    /* \"#utility.yul\":3519:3603   */\ntag_83:\n    /* \"#utility.yul\":3340:3609   */\n  pop\n    /* \"#utility.yul\":3289:3609   */\n  swap2\n  swap1\n  pop\n  jump\t// out\n    /* \"#utility.yul\":3615:3896   */\ntag_64:\n    /* \"#utility.yul\":3698:3725   */\n  tag_87\n    /* \"#utility.yul\":3720:3724   */\n  dup3\n    /* \"#utility.yul\":3698:3725   */\n  tag_71\n  jump\t// in\ntag_87:\n    /* \"#utility.yul\":3690:3696   */\n  dup2\n    /* \"#utility.yul\":3686:3726   */\n  add\n    /* \"#utility.yul\":3828:3834   */\n  dup2\n    /* \"#utility.yul\":3816:3826   */\n  dup2\n    /* \"#utility.yul\":3813:3835   */\n  lt\n    /* \"#utility.yul\":3792:3810   */\n  0xffffffffffffffff\n    /* \"#utility.yul\":3780:3790   */\n  dup3\n    /* \"#utility.yul\":3777:3811   */\n  gt\n    /* \"#utility.yul\":3774:3836   */\n  or\n    /* \"#utility.yul\":3771:3859   */\n  iszero\n  tag_88\n  jumpi\n    /* \"#utility.yul\":3839:3857   */\n  tag_89\n  tag_69\n  jump\t// in\ntag_89:\n    /* \"#utility.yul\":3771:3859   */\ntag_88:\n    /* \"#utility.yul\":3879:3889   */\n  dup1\n    /* \"#utility.yul\":3875:3877   */\n  0x40\n    /* \"#utility.yul\":3868:3890   */\n  mstore\n    /* \"#utility.yul\":3658:3896   */\n  pop\n    /* \"#utility.yul\":3615:3896   */\n  pop\n  pop\n  jump\t// out\n    /* \"#utility.yul\":3902:4082   */\ntag_85:\n    /* \"#utility.yul\":3950:4027   */\n  0x4e487b7100000000000000000000000000000000000000000000000000000000\n    /* \"#utility.yul\":3947:3948   */\n  0x00\n    /* \"#utility.yul\":3940:4028   */\n  mstore\n    /* \"#utility.yul\":4047:4051   */\n  0x22\n    /* \"#utility.yul\":4044:4045   */\n  0x04\n    /* \"#utility.yul\":4037:4052   */\n  mstore\n    /* \"#utility.yul\":4071:4075   */\n  0x24\n    /* \"#utility.yul\":4068:4069   */\n  0x00\n    /* \"#utility.yul\":4061:4076   */\n  revert\n    /* \"#utility.yul\":4088:4268   */\ntag_69:\n    /* \"#utility.yul\":4136:4213   */\n  0x4e487b7100000000000000000000000000000000000000000000000000000000\n    /* \"#utility.yul\":4133:4134   */\n  0x00\n    /* \"#utility.yul\":4126:4214   */\n  mstore\n    /* \"#utility.yul\":4233:4237   */\n  0x41\n    /* \"#utility.yul\":4230:4231   */\n  0x04\n    /* \"#utility.yul\":4223:4238   */\n  mstore\n    /* \"#utility.yul\":4257:4261   */\n  0x24\n    /* \"#utility.yul\":4254:4255   */\n  0x00\n    /* \"#utility.yul\":4247:4262   */\n  revert\n    /* \"#utility.yul\":4274:4391   */\ntag_37:\n    /* \"#utility.yul\":4383:4384   */\n  0x00\n    /* \"#utility.yul\":4380:4381   */\n  dup1\n    /* \"#utility.yul\":4373:4385   */\n  revert\n    /* \"#utility.yul\":4397:4514   */\ntag_30:\n    /* \"#utility.yul\":4506:4507   */\n  0x00\n    /* \"#utility.yul\":4503:4504   */\n  dup1\n    /* \"#utility.yul\":4496:4508   */\n  revert\n    /* \"#utility.yul\":4520:4637   */\ntag_53:\n    /* \"#utility.yul\":4629:4630   */\n  0x00\n    /* \"#utility.yul\":4626:4627   */\n  dup1\n    /* \"#utility.yul\":4619:4631   */\n  revert\n    /* \"#utility.yul\":4643:4760   */\ntag_50:\n    /* \"#utility.yul\":4752:4753   */\n  0x00\n    /* \"#utility.yul\":4749:4750   */\n  dup1\n    /* \"#utility.yul\":4742:4754   */\n  revert\n    /* \"#utility.yul\":4766:4868   */\ntag_71:\n    /* \"#utility.yul\":4807:4813   */\n  0x00\n    /* \"#utility.yul\":4858:4860   */\n  0x1f\n    /* \"#utility.yul\":4854:4861   */\n  not\n    /* \"#utility.yul\":4849:4851   */\n  0x1f\n    /* \"#utility.yul\":4842:4847   */\n  dup4\n    /* \"#utility.yul\":4838:4852   */\n  add\n    /* \"#utility.yul\":4834:4862   */\n  and\n    /* \"#utility.yul\":4824:4862   */\n  swap1\n  pop\n    /* \"#utility.yul\":4766:4868   */\n  swap2\n  swap1\n  pop\n  jump\t// out\n    /* \"#utility.yul\":4874:4996   */\ntag_42:\n    /* \"#utility.yul\":4947:4971   */\n  tag_98\n    /* \"#utility.yul\":4965:4970   */\n  dup2\n    /* \"#utility.yul\":4947:4971   */\n  tag_72\n  jump\t// in\ntag_98:\n    /* \"#utility.yul\":4940:4945   */\n  dup2\n    /* \"#utility.yul\":4937:4972   */\n  eq\n    /* \"#utility.yul\":4927:4990   */\n  tag_99\n  jumpi\n    /* \"#utility.yul\":4986:4987   */\n  0x00\n    /* \"#utility.yul\":4983:4984   */\n  dup1\n    /* \"#utility.yul\":4976:4988   */\n  revert\n    /* \"#utility.yul\":4927:4990   */\ntag_99:\n    /* \"#utility.yul\":4874:4996   */\n  pop\n  jump\t// out\n    /* \"#utility.yul\":5002:5120   */\ntag_46:\n    /* \"#utility.yul\":5073:5095   */\n  tag_101\n    /* \"#utility.yul\":5089:5094   */\n  dup2\n    /* \"#utility.yul\":5073:5095   */\n  tag_74\n  jump\t// in\ntag_101:\n    /* \"#utility.yul\":5066:5071   */\n  dup2\n    /* \"#utility.yul\":5063:5096   */\n  eq\n    /* \"#utility.yul\":5053:5114   */\n  tag_102\n  jumpi\n    /* \"#utility.yul\":5110:5111   */\n  0x00\n    /* \"#utility.yul\":5107:5108   */\n  dup1\n    /* \"#utility.yul\":5100:5112   */\n  revert\n    /* \"#utility.yul\":5053:5114   */\ntag_102:\n    /* \"#utility.yul\":5002:5120   */\n  pop\n  jump\t// out\n    /* \"contracts/Erc20.sol\":384:1665  contract CGCToken is IERC20 {\r... */\ntag_9:\n  dataSize(sub_0)\n  dup1\n  dataOffset(sub_0)\n  0x00\n  codecopy\n  0x00\n  return\nstop\n\nsub_0: assembly {\n        /* \"contracts/Erc20.sol\":384:1665  contract CGCToken is IERC20 {\r... */\n      mstore(0x40, 0x80)\n      callvalue\n      dup1\n      iszero\n      tag_1\n      jumpi\n      0x00\n      dup1\n      revert\n    tag_1:\n      pop\n      jumpi(tag_2, lt(calldatasize, 0x04))\n      shr(0xe0, calldataload(0x00))\n      dup1\n      0x70a08231\n      gt\n      tag_10\n      jumpi\n      dup1\n      0x70a08231\n      eq\n      tag_6\n      jumpi\n      dup1\n      0x95d89b41\n      eq\n      tag_7\n      jumpi\n      dup1\n      0xa0712d68\n      eq\n      tag_8\n      jumpi\n      dup1\n      0xa9059cbb\n      eq\n      tag_9\n      jumpi\n      jump(tag_2)\n    tag_10:\n      dup1\n      0x06fdde03\n      eq\n      tag_3\n      jumpi\n      dup1\n      0x18160ddd\n      eq\n      tag_4\n      jumpi\n      dup1\n      0x313ce567\n      eq\n      tag_5\n      jumpi\n    tag_2:\n      0x00\n      dup1\n      revert\n        /* \"contracts/Erc20.sol\":418:436  string public name */\n    tag_3:\n      tag_11\n      tag_12\n      jump\t// in\n    tag_11:\n      mload(0x40)\n      tag_13\n      swap2\n      swap1\n      tag_14\n      jump\t// in\n    tag_13:\n      mload(0x40)\n      dup1\n      swap2\n      sub\n      swap1\n      return\n        /* \"contracts/Erc20.sol\":1022:1114  function totalSupply() public override view returns (uint256) {\r... */\n    tag_4:\n      tag_15\n      tag_16\n      jump\t// in\n    tag_15:\n      mload(0x40)\n      tag_17\n      swap2\n      swap1\n      tag_18\n      jump\t// in\n    tag_17:\n      mload(0x40)\n      dup1\n      swap2\n      sub\n      swap1\n      return\n        /* \"contracts/Erc20.sol\":462:483  uint8 public decimals */\n    tag_5:\n      tag_19\n      tag_20\n      jump\t// in\n    tag_19:\n      mload(0x40)\n      tag_21\n      swap2\n      swap1\n      tag_22\n      jump\t// in\n    tag_21:\n      mload(0x40)\n      dup1\n      swap2\n      sub\n      swap1\n      return\n        /* \"contracts/Erc20.sol\":1118:1221  function balanceOf(address tokenOwner) public override view returns (bool) {\r... */\n    tag_6:\n      tag_23\n      0x04\n      dup1\n      calldatasize\n      sub\n      dup2\n      add\n      swap1\n      tag_24\n      swap2\n      swap1\n      tag_25\n      jump\t// in\n    tag_24:\n      tag_26\n      jump\t// in\n    tag_23:\n      mload(0x40)\n      tag_27\n      swap2\n      swap1\n      tag_28\n      jump\t// in\n    tag_27:\n      mload(0x40)\n      dup1\n      swap2\n      sub\n      swap1\n      return\n        /* \"contracts/Erc20.sol\":439:459  string public symbol */\n    tag_7:\n      tag_29\n      tag_30\n      jump\t// in\n    tag_29:\n      mload(0x40)\n      tag_31\n      swap2\n      swap1\n      tag_14\n      jump\t// in\n    tag_31:\n      mload(0x40)\n      dup1\n      swap2\n      sub\n      swap1\n      return\n        /* \"contracts/Erc20.sol\":1517:1662  function mint(uint256 _qty) public returns(uint256) { \r... */\n    tag_8:\n      tag_32\n      0x04\n      dup1\n      calldatasize\n      sub\n      dup2\n      add\n      swap1\n      tag_33\n      swap2\n      swap1\n      tag_34\n      jump\t// in\n    tag_33:\n      tag_35\n      jump\t// in\n    tag_32:\n      mload(0x40)\n      tag_36\n      swap2\n      swap1\n      tag_18\n      jump\t// in\n    tag_36:\n      mload(0x40)\n      dup1\n      swap2\n      sub\n      swap1\n      return\n        /* \"contracts/Erc20.sol\":1225:1513  function transfer(address receiver, uint256 numtokens) public override returns (bool) {\r... */\n    tag_9:\n      tag_37\n      0x04\n      dup1\n      calldatasize\n      sub\n      dup2\n      add\n      swap1\n      tag_38\n      swap2\n      swap1\n      tag_39\n      jump\t// in\n    tag_38:\n      tag_40\n      jump\t// in\n    tag_37:\n      mload(0x40)\n      tag_41\n      swap2\n      swap1\n      tag_28\n      jump\t// in\n    tag_41:\n      mload(0x40)\n      dup1\n      swap2\n      sub\n      swap1\n      return\n        /* \"contracts/Erc20.sol\":418:436  string public name */\n    tag_12:\n      0x00\n      dup1\n      sload\n      tag_42\n      swap1\n      tag_43\n      jump\t// in\n    tag_42:\n      dup1\n      0x1f\n      add\n      0x20\n      dup1\n      swap2\n      div\n      mul\n      0x20\n      add\n      mload(0x40)\n      swap1\n      dup2\n      add\n      0x40\n      mstore\n      dup1\n      swap3\n      swap2\n      swap1\n      dup2\n      dup2\n      mstore\n      0x20\n      add\n      dup3\n      dup1\n      sload\n      tag_44\n      swap1\n      tag_43\n      jump\t// in\n    tag_44:\n      dup1\n      iszero\n      tag_45\n      jumpi\n      dup1\n      0x1f\n      lt\n      tag_46\n      jumpi\n      0x0100\n      dup1\n      dup4\n      sload\n      div\n      mul\n      dup4\n      mstore\n      swap2\n      0x20\n      add\n      swap2\n      jump(tag_45)\n    tag_46:\n      dup3\n      add\n      swap2\n      swap1\n      0x00\n      mstore\n      keccak256(0x00, 0x20)\n      swap1\n    tag_47:\n      dup2\n      sload\n      dup2\n      mstore\n      swap1\n      0x01\n      add\n      swap1\n      0x20\n      add\n      dup1\n      dup4\n      gt\n      tag_47\n      jumpi\n      dup3\n      swap1\n      sub\n      0x1f\n      and\n      dup3\n      add\n      swap2\n    tag_45:\n      pop\n      pop\n      pop\n      pop\n      pop\n      dup2\n      jump\t// out\n        /* \"contracts/Erc20.sol\":1022:1114  function totalSupply() public override view returns (uint256) {\r... */\n    tag_16:\n        /* \"contracts/Erc20.sol\":1075:1082  uint256 */\n      0x00\n        /* \"contracts/Erc20.sol\":1098:1110  _totalSupply */\n      sload(0x05)\n        /* \"contracts/Erc20.sol\":1091:1110  return _totalSupply */\n      swap1\n      pop\n        /* \"contracts/Erc20.sol\":1022:1114  function totalSupply() public override view returns (uint256) {\r... */\n      swap1\n      jump\t// out\n        /* \"contracts/Erc20.sol\":462:483  uint8 public decimals */\n    tag_20:\n      0x02\n      0x00\n      swap1\n      sload\n      swap1\n      0x0100\n      exp\n      swap1\n      div\n      0xff\n      and\n      dup2\n      jump\t// out\n        /* \"contracts/Erc20.sol\":1118:1221  function balanceOf(address tokenOwner) public override view returns (bool) {\r... */\n    tag_26:\n        /* \"contracts/Erc20.sol\":1187:1191  bool */\n      0x00\n        /* \"contracts/Erc20.sol\":1213:1217  true */\n      0x01\n        /* \"contracts/Erc20.sol\":1206:1217  return true */\n      swap1\n      pop\n        /* \"contracts/Erc20.sol\":1118:1221  function balanceOf(address tokenOwner) public override view returns (bool) {\r... */\n      swap2\n      swap1\n      pop\n      jump\t// out\n        /* \"contracts/Erc20.sol\":439:459  string public symbol */\n    tag_30:\n      0x01\n      dup1\n      sload\n      tag_50\n      swap1\n      tag_43\n      jump\t// in\n    tag_50:\n      dup1\n      0x1f\n      add\n      0x20\n      dup1\n      swap2\n      div\n      mul\n      0x20\n      add\n      mload(0x40)\n      swap1\n      dup2\n      add\n      0x40\n      mstore\n      dup1\n      swap3\n      swap2\n      swap1\n      dup2\n      dup2\n      mstore\n      0x20\n      add\n      dup3\n      dup1\n      sload\n      tag_51\n      swap1\n      tag_43\n      jump\t// in\n    tag_51:\n      dup1\n      iszero\n      tag_52\n      jumpi\n      dup1\n      0x1f\n      lt\n      tag_53\n      jumpi\n      0x0100\n      dup1\n      dup4\n      sload\n      div\n      mul\n      dup4\n      mstore\n      swap2\n      0x20\n      add\n      swap2\n      jump(tag_52)\n    tag_53:\n      dup3\n      add\n      swap2\n      swap1\n      0x00\n      mstore\n      keccak256(0x00, 0x20)\n      swap1\n    tag_54:\n      dup2\n      sload\n      dup2\n      mstore\n      swap1\n      0x01\n      add\n      swap1\n      0x20\n      add\n      dup1\n      dup4\n      gt\n      tag_54\n      jumpi\n      dup3\n      swap1\n      sub\n      0x1f\n      and\n      dup3\n      add\n      swap2\n    tag_52:\n      pop\n      pop\n      pop\n      pop\n      pop\n      dup2\n      jump\t// out\n        /* \"contracts/Erc20.sol\":1517:1662  function mint(uint256 _qty) public returns(uint256) { \r... */\n    tag_35:\n        /* \"contracts/Erc20.sol\":1560:1567  uint256 */\n      0x00\n        /* \"contracts/Erc20.sol\":1593:1597  _qty */\n      dup2\n        /* \"contracts/Erc20.sol\":1577:1589  _totalSupply */\n      0x05\n      0x00\n        /* \"contracts/Erc20.sol\":1577:1597  _totalSupply += _qty */\n      dup3\n      dup3\n      sload\n      tag_56\n      swap2\n      swap1\n      tag_57\n      jump\t// in\n    tag_56:\n      swap3\n      pop\n      pop\n      dup2\n      swap1\n      sstore\n      pop\n        /* \"contracts/Erc20.sol\":1628:1632  _qty */\n      dup2\n        /* \"contracts/Erc20.sol\":1604:1612  balances */\n      0x03\n        /* \"contracts/Erc20.sol\":1604:1624  balances[msg.sender] */\n      0x00\n        /* \"contracts/Erc20.sol\":1613:1623  msg.sender */\n      caller\n        /* \"contracts/Erc20.sol\":1604:1624  balances[msg.sender] */\n      0xffffffffffffffffffffffffffffffffffffffff\n      and\n      0xffffffffffffffffffffffffffffffffffffffff\n      and\n      dup2\n      mstore\n      0x20\n      add\n      swap1\n      dup2\n      mstore\n      0x20\n      add\n      0x00\n      keccak256\n      0x00\n        /* \"contracts/Erc20.sol\":1604:1632  balances[msg.sender] += _qty */\n      dup3\n      dup3\n      sload\n      tag_58\n      swap2\n      swap1\n      tag_57\n      jump\t// in\n    tag_58:\n      swap3\n      pop\n      pop\n      dup2\n      swap1\n      sstore\n      pop\n        /* \"contracts/Erc20.sol\":1646:1658  _totalSupply */\n      sload(0x05)\n        /* \"contracts/Erc20.sol\":1639:1658  return _totalSupply */\n      swap1\n      pop\n        /* \"contracts/Erc20.sol\":1517:1662  function mint(uint256 _qty) public returns(uint256) { \r... */\n      swap2\n      swap1\n      pop\n      jump\t// out\n        /* \"contracts/Erc20.sol\":1225:1513  function transfer(address receiver, uint256 numtokens) public override returns (bool) {\r... */\n    tag_40:\n        /* \"contracts/Erc20.sol\":1305:1309  bool */\n      0x00\n        /* \"contracts/Erc20.sol\":1339:1347  balances */\n      0x03\n        /* \"contracts/Erc20.sol\":1339:1359  balances[msg.sender] */\n      0x00\n        /* \"contracts/Erc20.sol\":1348:1358  msg.sender */\n      caller\n        /* \"contracts/Erc20.sol\":1339:1359  balances[msg.sender] */\n      0xffffffffffffffffffffffffffffffffffffffff\n      and\n      0xffffffffffffffffffffffffffffffffffffffff\n      and\n      dup2\n      mstore\n      0x20\n      add\n      swap1\n      dup2\n      mstore\n      0x20\n      add\n      0x00\n      keccak256\n      sload\n        /* \"contracts/Erc20.sol\":1326:1335  numtokens */\n      dup3\n        /* \"contracts/Erc20.sol\":1326:1359  numtokens <= balances[msg.sender] */\n      gt\n      iszero\n        /* \"contracts/Erc20.sol\":1318:1360  require(numtokens <= balances[msg.sender]) */\n      tag_60\n      jumpi\n      0x00\n      dup1\n      revert\n    tag_60:\n        /* \"contracts/Erc20.sol\":1391:1400  numtokens */\n      dup2\n        /* \"contracts/Erc20.sol\":1367:1375  balances */\n      0x03\n        /* \"contracts/Erc20.sol\":1367:1387  balances[msg.sender] */\n      0x00\n        /* \"contracts/Erc20.sol\":1376:1386  msg.sender */\n      caller\n        /* \"contracts/Erc20.sol\":1367:1387  balances[msg.sender] */\n      0xffffffffffffffffffffffffffffffffffffffff\n      and\n      0xffffffffffffffffffffffffffffffffffffffff\n      and\n      dup2\n      mstore\n      0x20\n      add\n      swap1\n      dup2\n      mstore\n      0x20\n      add\n      0x00\n      keccak256\n      0x00\n        /* \"contracts/Erc20.sol\":1367:1400  balances[msg.sender] -= numtokens */\n      dup3\n      dup3\n      sload\n      tag_61\n      swap2\n      swap1\n      tag_62\n      jump\t// in\n    tag_61:\n      swap3\n      pop\n      pop\n      dup2\n      swap1\n      sstore\n      pop\n        /* \"contracts/Erc20.sol\":1429:1438  numtokens */\n      dup2\n        /* \"contracts/Erc20.sol\":1407:1415  balances */\n      0x03\n        /* \"contracts/Erc20.sol\":1407:1425  balances[receiver] */\n      0x00\n        /* \"contracts/Erc20.sol\":1416:1424  receiver */\n      dup6\n        /* \"contracts/Erc20.sol\":1407:1425  balances[receiver] */\n      0xffffffffffffffffffffffffffffffffffffffff\n      and\n      0xffffffffffffffffffffffffffffffffffffffff\n      and\n      dup2\n      mstore\n      0x20\n      add\n      swap1\n      dup2\n      mstore\n      0x20\n      add\n      0x00\n      keccak256\n      0x00\n        /* \"contracts/Erc20.sol\":1407:1438  balances[receiver] += numtokens */\n      dup3\n      dup3\n      sload\n      tag_63\n      swap2\n      swap1\n      tag_57\n      jump\t// in\n    tag_63:\n      swap3\n      pop\n      pop\n      dup2\n      swap1\n      sstore\n      pop\n        /* \"contracts/Erc20.sol\":1471:1479  receiver */\n      dup3\n        /* \"contracts/Erc20.sol\":1450:1491  Transfer(msg.sender, receiver, numtokens) */\n      0xffffffffffffffffffffffffffffffffffffffff\n      and\n        /* \"contracts/Erc20.sol\":1459:1469  msg.sender */\n      caller\n        /* \"contracts/Erc20.sol\":1450:1491  Transfer(msg.sender, receiver, numtokens) */\n      0xffffffffffffffffffffffffffffffffffffffff\n      and\n      0xddf252ad1be2c89b69c2b068fc378daa952ba7f163c4a11628f55a4df523b3ef\n        /* \"contracts/Erc20.sol\":1481:1490  numtokens */\n      dup5\n        /* \"contracts/Erc20.sol\":1450:1491  Transfer(msg.sender, receiver, numtokens) */\n      mload(0x40)\n      tag_64\n      swap2\n      swap1\n      tag_18\n      jump\t// in\n    tag_64:\n      mload(0x40)\n      dup1\n      swap2\n      sub\n      swap1\n      log3\n        /* \"contracts/Erc20.sol\":1505:1509  true */\n      0x01\n        /* \"contracts/Erc20.sol\":1498:1509  return true */\n      swap1\n      pop\n        /* \"contracts/Erc20.sol\":1225:1513  function transfer(address receiver, uint256 numtokens) public override returns (bool) {\r... */\n      swap3\n      swap2\n      pop\n      pop\n      jump\t// out\n        /* \"#utility.yul\":7:146   */\n    tag_66:\n        /* \"#utility.yul\":53:58   */\n      0x00\n        /* \"#utility.yul\":91:97   */\n      dup2\n        /* \"#utility.yul\":78:98   */\n      calldataload\n        /* \"#utility.yul\":69:98   */\n      swap1\n      pop\n        /* \"#utility.yul\":107:140   */\n      tag_68\n        /* \"#utility.yul\":134:139   */\n      dup2\n        /* \"#utility.yul\":107:140   */\n      tag_69\n      jump\t// in\n    tag_68:\n        /* \"#utility.yul\":7:146   */\n      swap3\n      swap2\n      pop\n      pop\n      jump\t// out\n        /* \"#utility.yul\":152:291   */\n    tag_70:\n        /* \"#utility.yul\":198:203   */\n      0x00\n        /* \"#utility.yul\":236:242   */\n      dup2\n        /* \"#utility.yul\":223:243   */\n      calldataload\n        /* \"#utility.yul\":214:243   */\n      swap1\n      pop\n        /* \"#utility.yul\":252:285   */\n      tag_72\n        /* \"#utility.yul\":279:284   */\n      dup2\n        /* \"#utility.yul\":252:285   */\n      tag_73\n      jump\t// in\n    tag_72:\n        /* \"#utility.yul\":152:291   */\n      swap3\n      swap2\n      pop\n      pop\n      jump\t// out\n        /* \"#utility.yul\":297:626   */\n    tag_25:\n        /* \"#utility.yul\":356:362   */\n      0x00\n        /* \"#utility.yul\":405:407   */\n      0x20\n        /* \"#utility.yul\":393:402   */\n      dup3\n        /* \"#utility.yul\":384:391   */\n      dup5\n        /* \"#utility.yul\":380:403   */\n      sub\n        /* \"#utility.yul\":376:408   */\n      slt\n        /* \"#utility.yul\":373:492   */\n      iszero\n      tag_75\n      jumpi\n        /* \"#utility.yul\":411:490   */\n      tag_76\n      tag_77\n      jump\t// in\n    tag_76:\n        /* \"#utility.yul\":373:492   */\n    tag_75:\n        /* \"#utility.yul\":531:532   */\n      0x00\n        /* \"#utility.yul\":556:609   */\n      tag_78\n        /* \"#utility.yul\":601:608   */\n      dup5\n        /* \"#utility.yul\":592:598   */\n      dup3\n        /* \"#utility.yul\":581:590   */\n      dup6\n        /* \"#utility.yul\":577:599   */\n      add\n        /* \"#utility.yul\":556:609   */\n      tag_66\n      jump\t// in\n    tag_78:\n        /* \"#utility.yul\":546:609   */\n      swap2\n      pop\n        /* \"#utility.yul\":502:619   */\n      pop\n        /* \"#utility.yul\":297:626   */\n      swap3\n      swap2\n      pop\n      pop\n      jump\t// out\n        /* \"#utility.yul\":632:1106   */\n    tag_39:\n        /* \"#utility.yul\":700:706   */\n      0x00\n        /* \"#utility.yul\":708:714   */\n      dup1\n        /* \"#utility.yul\":757:759   */\n      0x40\n        /* \"#utility.yul\":745:754   */\n      dup4\n        /* \"#utility.yul\":736:743   */\n      dup6\n        /* \"#utility.yul\":732:755   */\n      sub\n        /* \"#utility.yul\":728:760   */\n      slt\n        /* \"#utility.yul\":725:844   */\n      iszero\n      tag_80\n      jumpi\n        /* \"#utility.yul\":763:842   */\n      tag_81\n      tag_77\n      jump\t// in\n    tag_81:\n        /* \"#utility.yul\":725:844   */\n    tag_80:\n        /* \"#utility.yul\":883:884   */\n      0x00\n        /* \"#utility.yul\":908:961   */\n      tag_82\n        /* \"#utility.yul\":953:960   */\n      dup6\n        /* \"#utility.yul\":944:950   */\n      dup3\n        /* \"#utility.yul\":933:942   */\n      dup7\n        /* \"#utility.yul\":929:951   */\n      add\n        /* \"#utility.yul\":908:961   */\n      tag_66\n      jump\t// in\n    tag_82:\n        /* \"#utility.yul\":898:961   */\n      swap3\n      pop\n        /* \"#utility.yul\":854:971   */\n      pop\n        /* \"#utility.yul\":1010:1012   */\n      0x20\n        /* \"#utility.yul\":1036:1089   */\n      tag_83\n        /* \"#utility.yul\":1081:1088   */\n      dup6\n        /* \"#utility.yul\":1072:1078   */\n      dup3\n        /* \"#utility.yul\":1061:1070   */\n      dup7\n        /* \"#utility.yul\":1057:1079   */\n      add\n        /* \"#utility.yul\":1036:1089   */\n      tag_70\n      jump\t// in\n    tag_83:\n        /* \"#utility.yul\":1026:1089   */\n      swap2\n      pop\n        /* \"#utility.yul\":981:1099   */\n      pop\n        /* \"#utility.yul\":632:1106   */\n      swap3\n      pop\n      swap3\n      swap1\n      pop\n      jump\t// out\n        /* \"#utility.yul\":1112:1441   */\n    tag_34:\n        /* \"#utility.yul\":1171:1177   */\n      0x00\n        /* \"#utility.yul\":1220:1222   */\n      0x20\n        /* \"#utility.yul\":1208:1217   */\n      dup3\n        /* \"#utility.yul\":1199:1206   */\n      dup5\n        /* \"#utility.yul\":1195:1218   */\n      sub\n        /* \"#utility.yul\":1191:1223   */\n      slt\n        /* \"#utility.yul\":1188:1307   */\n      iszero\n      tag_85\n      jumpi\n        /* \"#utility.yul\":1226:1305   */\n      tag_86\n      tag_77\n      jump\t// in\n    tag_86:\n        /* \"#utility.yul\":1188:1307   */\n    tag_85:\n        /* \"#utility.yul\":1346:1347   */\n      0x00\n        /* \"#utility.yul\":1371:1424   */\n      tag_87\n        /* \"#utility.yul\":1416:1423   */\n      dup5\n        /* \"#utility.yul\":1407:1413   */\n      dup3\n        /* \"#utility.yul\":1396:1405   */\n      dup6\n        /* \"#utility.yul\":1392:1414   */\n      add\n        /* \"#utility.yul\":1371:1424   */\n      tag_70\n      jump\t// in\n    tag_87:\n        /* \"#utility.yul\":1361:1424   */\n      swap2\n      pop\n        /* \"#utility.yul\":1317:1434   */\n      pop\n        /* \"#utility.yul\":1112:1441   */\n      swap3\n      swap2\n      pop\n      pop\n      jump\t// out\n        /* \"#utility.yul\":1447:1556   */\n    tag_88:\n        /* \"#utility.yul\":1528:1549   */\n      tag_90\n        /* \"#utility.yul\":1543:1548   */\n      dup2\n        /* \"#utility.yul\":1528:1549   */\n      tag_91\n      jump\t// in\n    tag_90:\n        /* \"#utility.yul\":1523:1526   */\n      dup3\n        /* \"#utility.yul\":1516:1550   */\n      mstore\n        /* \"#utility.yul\":1447:1556   */\n      pop\n      pop\n      jump\t// out\n        /* \"#utility.yul\":1562:1926   */\n    tag_92:\n        /* \"#utility.yul\":1650:1653   */\n      0x00\n        /* \"#utility.yul\":1678:1717   */\n      tag_94\n        /* \"#utility.yul\":1711:1716   */\n      dup3\n        /* \"#utility.yul\":1678:1717   */\n      tag_95\n      jump\t// in\n    tag_94:\n        /* \"#utility.yul\":1733:1804   */\n      tag_96\n        /* \"#utility.yul\":1797:1803   */\n      dup2\n        /* \"#utility.yul\":1792:1795   */\n      dup6\n        /* \"#utility.yul\":1733:1804   */\n      tag_97\n      jump\t// in\n    tag_96:\n        /* \"#utility.yul\":1726:1804   */\n      swap4\n      pop\n        /* \"#utility.yul\":1813:1865   */\n      tag_98\n        /* \"#utility.yul\":1858:1864   */\n      dup2\n        /* \"#utility.yul\":1853:1856   */\n      dup6\n        /* \"#utility.yul\":1846:1850   */\n      0x20\n        /* \"#utility.yul\":1839:1844   */\n      dup7\n        /* \"#utility.yul\":1835:1851   */\n      add\n        /* \"#utility.yul\":1813:1865   */\n      tag_99\n      jump\t// in\n    tag_98:\n        /* \"#utility.yul\":1890:1919   */\n      tag_100\n        /* \"#utility.yul\":1912:1918   */\n      dup2\n        /* \"#utility.yul\":1890:1919   */\n      tag_101\n      jump\t// in\n    tag_100:\n        /* \"#utility.yul\":1885:1888   */\n      dup5\n        /* \"#utility.yul\":1881:1920   */\n      add\n        /* \"#utility.yul\":1874:1920   */\n      swap2\n      pop\n        /* \"#utility.yul\":1654:1926   */\n      pop\n        /* \"#utility.yul\":1562:1926   */\n      swap3\n      swap2\n      pop\n      pop\n      jump\t// out\n        /* \"#utility.yul\":1932:2050   */\n    tag_102:\n        /* \"#utility.yul\":2019:2043   */\n      tag_104\n        /* \"#utility.yul\":2037:2042   */\n      dup2\n        /* \"#utility.yul\":2019:2043   */\n      tag_105\n      jump\t// in\n    tag_104:\n        /* \"#utility.yul\":2014:2017   */\n      dup3\n        /* \"#utility.yul\":2007:2044   */\n      mstore\n        /* \"#utility.yul\":1932:2050   */\n      pop\n      pop\n      jump\t// out\n        /* \"#utility.yul\":2056:2168   */\n    tag_106:\n        /* \"#utility.yul\":2139:2161   */\n      tag_108\n        /* \"#utility.yul\":2155:2160   */\n      dup2\n        /* \"#utility.yul\":2139:2161   */\n      tag_109\n      jump\t// in\n    tag_108:\n        /* \"#utility.yul\":2134:2137   */\n      dup3\n        /* \"#utility.yul\":2127:2162   */\n      mstore\n        /* \"#utility.yul\":2056:2168   */\n      pop\n      pop\n      jump\t// out\n        /* \"#utility.yul\":2174:2384   */\n    tag_28:\n        /* \"#utility.yul\":2261:2265   */\n      0x00\n        /* \"#utility.yul\":2299:2301   */\n      0x20\n        /* \"#utility.yul\":2288:2297   */\n      dup3\n        /* \"#utility.yul\":2284:2302   */\n      add\n        /* \"#utility.yul\":2276:2302   */\n      swap1\n      pop\n        /* \"#utility.yul\":2312:2377   */\n      tag_111\n        /* \"#utility.yul\":2374:2375   */\n      0x00\n        /* \"#utility.yul\":2363:2372   */\n      dup4\n        /* \"#utility.yul\":2359:2376   */\n      add\n        /* \"#utility.yul\":2350:2356   */\n      dup5\n        /* \"#utility.yul\":2312:2377   */\n      tag_88\n      jump\t// in\n    tag_111:\n        /* \"#utility.yul\":2174:2384   */\n      swap3\n      swap2\n      pop\n      pop\n      jump\t// out\n        /* \"#utility.yul\":2390:2703   */\n    tag_14:\n        /* \"#utility.yul\":2503:2507   */\n      0x00\n        /* \"#utility.yul\":2541:2543   */\n      0x20\n        /* \"#utility.yul\":2530:2539   */\n      dup3\n        /* \"#utility.yul\":2526:2544   */\n      add\n        /* \"#utility.yul\":2518:2544   */\n      swap1\n      pop\n        /* \"#utility.yul\":2590:2599   */\n      dup2\n        /* \"#utility.yul\":2584:2588   */\n      dup2\n        /* \"#utility.yul\":2580:2600   */\n      sub\n        /* \"#utility.yul\":2576:2577   */\n      0x00\n        /* \"#utility.yul\":2565:2574   */\n      dup4\n        /* \"#utility.yul\":2561:2578   */\n      add\n        /* \"#utility.yul\":2554:2601   */\n      mstore\n        /* \"#utility.yul\":2618:2696   */\n      tag_113\n        /* \"#utility.yul\":2691:2695   */\n      dup2\n        /* \"#utility.yul\":2682:2688   */\n      dup5\n        /* \"#utility.yul\":2618:2696   */\n      tag_92\n      jump\t// in\n    tag_113:\n        /* \"#utility.yul\":2610:2696   */\n      swap1\n      pop\n        /* \"#utility.yul\":2390:2703   */\n      swap3\n      swap2\n      pop\n      pop\n      jump\t// out\n        /* \"#utility.yul\":2709:2931   */\n    tag_18:\n        /* \"#utility.yul\":2802:2806   */\n      0x00\n        /* \"#utility.yul\":2840:2842   */\n      0x20\n        /* \"#utility.yul\":2829:2838   */\n      dup3\n        /* \"#utility.yul\":2825:2843   */\n      add\n        /* \"#utility.yul\":2817:2843   */\n      swap1\n      pop\n        /* \"#utility.yul\":2853:2924   */\n      tag_115\n        /* \"#utility.yul\":2921:2922   */\n      0x00\n        /* \"#utility.yul\":2910:2919   */\n      dup4\n        /* \"#utility.yul\":2906:2923   */\n      add\n        /* \"#utility.yul\":2897:2903   */\n      dup5\n        /* \"#utility.yul\":2853:2924   */\n      tag_102\n      jump\t// in\n    tag_115:\n        /* \"#utility.yul\":2709:2931   */\n      swap3\n      swap2\n      pop\n      pop\n      jump\t// out\n        /* \"#utility.yul\":2937:3151   */\n    tag_22:\n        /* \"#utility.yul\":3026:3030   */\n      0x00\n        /* \"#utility.yul\":3064:3066   */\n      0x20\n        /* \"#utility.yul\":3053:3062   */\n      dup3\n        /* \"#utility.yul\":3049:3067   */\n      add\n        /* \"#utility.yul\":3041:3067   */\n      swap1\n      pop\n        /* \"#utility.yul\":3077:3144   */\n      tag_117\n        /* \"#utility.yul\":3141:3142   */\n      0x00\n        /* \"#utility.yul\":3130:3139   */\n      dup4\n        /* \"#utility.yul\":3126:3143   */\n      add\n        /* \"#utility.yul\":3117:3123   */\n      dup5\n        /* \"#utility.yul\":3077:3144   */\n      tag_106\n      jump\t// in\n    tag_117:\n        /* \"#utility.yul\":2937:3151   */\n      swap3\n      swap2\n      pop\n      pop\n      jump\t// out\n        /* \"#utility.yul\":3238:3337   */\n    tag_95:\n        /* \"#utility.yul\":3290:3296   */\n      0x00\n        /* \"#utility.yul\":3324:3329   */\n      dup2\n        /* \"#utility.yul\":3318:3330   */\n      mload\n        /* \"#utility.yul\":3308:3330   */\n      swap1\n      pop\n        /* \"#utility.yul\":3238:3337   */\n      swap2\n      swap1\n      pop\n      jump\t// out\n        /* \"#utility.yul\":3343:3512   */\n    tag_97:\n        /* \"#utility.yul\":3427:3438   */\n      0x00\n        /* \"#utility.yul\":3461:3467   */\n      dup3\n        /* \"#utility.yul\":3456:3459   */\n      dup3\n        /* \"#utility.yul\":3449:3468   */\n      mstore\n        /* \"#utility.yul\":3501:3505   */\n      0x20\n        /* \"#utility.yul\":3496:3499   */\n      dup3\n        /* \"#utility.yul\":3492:3506   */\n      add\n        /* \"#utility.yul\":3477:3506   */\n      swap1\n      pop\n        /* \"#utility.yul\":3343:3512   */\n      swap3\n      swap2\n      pop\n      pop\n      jump\t// out\n        /* \"#utility.yul\":3518:3823   */\n    tag_57:\n        /* \"#utility.yul\":3558:3561   */\n      0x00\n        /* \"#utility.yul\":3577:3597   */\n      tag_123\n        /* \"#utility.yul\":3595:3596   */\n      dup3\n        /* \"#utility.yul\":3577:3597   */\n      tag_105\n      jump\t// in\n    tag_123:\n        /* \"#utility.yul\":3572:3597   */\n      swap2\n      pop\n        /* \"#utility.yul\":3611:3631   */\n      tag_124\n        /* \"#utility.yul\":3629:3630   */\n      dup4\n        /* \"#utility.yul\":3611:3631   */\n      tag_105\n      jump\t// in\n    tag_124:\n        /* \"#utility.yul\":3606:3631   */\n      swap3\n      pop\n        /* \"#utility.yul\":3765:3766   */\n      dup3\n        /* \"#utility.yul\":3697:3763   */\n      0xffffffffffffffffffffffffffffffffffffffffffffffffffffffffffffffff\n        /* \"#utility.yul\":3693:3767   */\n      sub\n        /* \"#utility.yul\":3690:3691   */\n      dup3\n        /* \"#utility.yul\":3687:3768   */\n      gt\n        /* \"#utility.yul\":3684:3791   */\n      iszero\n      tag_125\n      jumpi\n        /* \"#utility.yul\":3771:3789   */\n      tag_126\n      tag_127\n      jump\t// in\n    tag_126:\n        /* \"#utility.yul\":3684:3791   */\n    tag_125:\n        /* \"#utility.yul\":3815:3816   */\n      dup3\n        /* \"#utility.yul\":3812:3813   */\n      dup3\n        /* \"#utility.yul\":3808:3817   */\n      add\n        /* \"#utility.yul\":3801:3817   */\n      swap1\n      pop\n        /* \"#utility.yul\":3518:3823   */\n      swap3\n      swap2\n      pop\n      pop\n      jump\t// out\n        /* \"#utility.yul\":3829:4020   */\n    tag_62:\n        /* \"#utility.yul\":3869:3873   */\n      0x00\n        /* \"#utility.yul\":3889:3909   */\n      tag_129\n        /* \"#utility.yul\":3907:3908   */\n      dup3\n        /* \"#utility.yul\":3889:3909   */\n      tag_105\n      jump\t// in\n    tag_129:\n        /* \"#utility.yul\":3884:3909   */\n      swap2\n      pop\n        /* \"#utility.yul\":3923:3943   */\n      tag_130\n        /* \"#utility.yul\":3941:3942   */\n      dup4\n        /* \"#utility.yul\":3923:3943   */\n      tag_105\n      jump\t// in\n    tag_130:\n        /* \"#utility.yul\":3918:3943   */\n      swap3\n      pop\n        /* \"#utility.yul\":3962:3963   */\n      dup3\n        /* \"#utility.yul\":3959:3960   */\n      dup3\n        /* \"#utility.yul\":3956:3964   */\n      lt\n        /* \"#utility.yul\":3953:3987   */\n      iszero\n      tag_131\n      jumpi\n        /* \"#utility.yul\":3967:3985   */\n      tag_132\n      tag_127\n      jump\t// in\n    tag_132:\n        /* \"#utility.yul\":3953:3987   */\n    tag_131:\n        /* \"#utility.yul\":4012:4013   */\n      dup3\n        /* \"#utility.yul\":4009:4010   */\n      dup3\n        /* \"#utility.yul\":4005:4014   */\n      sub\n        /* \"#utility.yul\":3997:4014   */\n      swap1\n      pop\n        /* \"#utility.yul\":3829:4020   */\n      swap3\n      swap2\n      pop\n      pop\n      jump\t// out\n        /* \"#utility.yul\":4026:4122   */\n    tag_133:\n        /* \"#utility.yul\":4063:4070   */\n      0x00\n        /* \"#utility.yul\":4092:4116   */\n      tag_135\n        /* \"#utility.yul\":4110:4115   */\n      dup3\n        /* \"#utility.yul\":4092:4116   */\n      tag_136\n      jump\t// in\n    tag_135:\n        /* \"#utility.yul\":4081:4116   */\n      swap1\n      pop\n        /* \"#utility.yul\":4026:4122   */\n      swap2\n      swap1\n      pop\n      jump\t// out\n        /* \"#utility.yul\":4128:4218   */\n    tag_91:\n        /* \"#utility.yul\":4162:4169   */\n      0x00\n        /* \"#utility.yul\":4205:4210   */\n      dup2\n        /* \"#utility.yul\":4198:4211   */\n      iszero\n        /* \"#utility.yul\":4191:4212   */\n      iszero\n        /* \"#utility.yul\":4180:4212   */\n      swap1\n      pop\n        /* \"#utility.yul\":4128:4218   */\n      swap2\n      swap1\n      pop\n      jump\t// out\n        /* \"#utility.yul\":4224:4350   */\n    tag_136:\n        /* \"#utility.yul\":4261:4268   */\n      0x00\n        /* \"#utility.yul\":4301:4343   */\n      0xffffffffffffffffffffffffffffffffffffffff\n        /* \"#utility.yul\":4294:4299   */\n      dup3\n        /* \"#utility.yul\":4290:4344   */\n      and\n        /* \"#utility.yul\":4279:4344   */\n      swap1\n      pop\n        /* \"#utility.yul\":4224:4350   */\n      swap2\n      swap1\n      pop\n      jump\t// out\n        /* \"#utility.yul\":4356:4433   */\n    tag_105:\n        /* \"#utility.yul\":4393:4400   */\n      0x00\n        /* \"#utility.yul\":4422:4427   */\n      dup2\n        /* \"#utility.yul\":4411:4427   */\n      swap1\n      pop\n        /* \"#utility.yul\":4356:4433   */\n      swap2\n      swap1\n      pop\n      jump\t// out\n        /* \"#utility.yul\":4439:4525   */\n    tag_109:\n        /* \"#utility.yul\":4474:4481   */\n      0x00\n        /* \"#utility.yul\":4514:4518   */\n      0xff\n        /* \"#utility.yul\":4507:4512   */\n      dup3\n        /* \"#utility.yul\":4503:4519   */\n      and\n        /* \"#utility.yul\":4492:4519   */\n      swap1\n      pop\n        /* \"#utility.yul\":4439:4525   */\n      swap2\n      swap1\n      pop\n      jump\t// out\n        /* \"#utility.yul\":4531:4838   */\n    tag_99:\n        /* \"#utility.yul\":4599:4600   */\n      0x00\n        /* \"#utility.yul\":4609:4722   */\n    tag_142:\n        /* \"#utility.yul\":4623:4629   */\n      dup4\n        /* \"#utility.yul\":4620:4621   */\n      dup2\n        /* \"#utility.yul\":4617:4630   */\n      lt\n        /* \"#utility.yul\":4609:4722   */\n      iszero\n      tag_144\n      jumpi\n        /* \"#utility.yul\":4708:4709   */\n      dup1\n        /* \"#utility.yul\":4703:4706   */\n      dup3\n        /* \"#utility.yul\":4699:4710   */\n      add\n        /* \"#utility.yul\":4693:4711   */\n      mload\n        /* \"#utility.yul\":4689:4690   */\n      dup2\n        /* \"#utility.yul\":4684:4687   */\n      dup5\n        /* \"#utility.yul\":4680:4691   */\n      add\n        /* \"#utility.yul\":4673:4712   */\n      mstore\n        /* \"#utility.yul\":4645:4647   */\n      0x20\n        /* \"#utility.yul\":4642:4643   */\n      dup2\n        /* \"#utility.yul\":4638:4648   */\n      add\n        /* \"#utility.yul\":4633:4648   */\n      swap1\n      pop\n        /* \"#utility.yul\":4609:4722   */\n      jump(tag_142)\n    tag_144:\n        /* \"#utility.yul\":4740:4746   */\n      dup4\n        /* \"#utility.yul\":4737:4738   */\n      dup2\n        /* \"#utility.yul\":4734:4747   */\n      gt\n        /* \"#utility.yul\":4731:4832   */\n      iszero\n      tag_145\n      jumpi\n        /* \"#utility.yul\":4820:4821   */\n      0x00\n        /* \"#utility.yul\":4811:4817   */\n      dup5\n        /* \"#utility.yul\":4806:4809   */\n      dup5\n        /* \"#utility.yul\":4802:4818   */\n      add\n        /* \"#utility.yul\":4795:4822   */\n      mstore\n        /* \"#utility.yul\":4731:4832   */\n    tag_145:\n        /* \"#utility.yul\":4580:4838   */\n      pop\n        /* \"#utility.yul\":4531:4838   */\n      pop\n      pop\n      pop\n      jump\t// out\n        /* \"#utility.yul\":4844:5164   */\n    tag_43:\n        /* \"#utility.yul\":4888:4894   */\n      0x00\n        /* \"#utility.yul\":4925:4926   */\n      0x02\n        /* \"#utility.yul\":4919:4923   */\n      dup3\n        /* \"#utility.yul\":4915:4927   */\n      div\n        /* \"#utility.yul\":4905:4927   */\n      swap1\n      pop\n        /* \"#utility.yul\":4972:4973   */\n      0x01\n        /* \"#utility.yul\":4966:4970   */\n      dup3\n        /* \"#utility.yul\":4962:4974   */\n      and\n        /* \"#utility.yul\":4993:5011   */\n      dup1\n        /* \"#utility.yul\":4983:5064   */\n      tag_147\n      jumpi\n        /* \"#utility.yul\":5049:5053   */\n      0x7f\n        /* \"#utility.yul\":5041:5047   */\n      dup3\n        /* \"#utility.yul\":5037:5054   */\n      and\n        /* \"#utility.yul\":5027:5054   */\n      swap2\n      pop\n        /* \"#utility.yul\":4983:5064   */\n    tag_147:\n        /* \"#utility.yul\":5111:5113   */\n      0x20\n        /* \"#utility.yul\":5103:5109   */\n      dup3\n        /* \"#utility.yul\":5100:5114   */\n      lt\n        /* \"#utility.yul\":5080:5098   */\n      dup2\n        /* \"#utility.yul\":5077:5115   */\n      eq\n        /* \"#utility.yul\":5074:5158   */\n      iszero\n      tag_148\n      jumpi\n        /* \"#utility.yul\":5130:5148   */\n      tag_149\n      tag_150\n      jump\t// in\n    tag_149:\n        /* \"#utility.yul\":5074:5158   */\n    tag_148:\n        /* \"#utility.yul\":4895:5164   */\n      pop\n        /* \"#utility.yul\":4844:5164   */\n      swap2\n      swap1\n      pop\n      jump\t// out\n        /* \"#utility.yul\":5170:5350   */\n    tag_127:\n        /* \"#utility.yul\":5218:5295   */\n      0x4e487b7100000000000000000000000000000000000000000000000000000000\n        /* \"#utility.yul\":5215:5216   */\n      0x00\n        /* \"#utility.yul\":5208:5296   */\n      mstore\n        /* \"#utility.yul\":5315:5319   */\n      0x11\n        /* \"#utility.yul\":5312:5313   */\n      0x04\n        /* \"#utility.yul\":5305:5320   */\n      mstore\n        /* \"#utility.yul\":5339:5343   */\n      0x24\n        /* \"#utility.yul\":5336:5337   */\n      0x00\n        /* \"#utility.yul\":5329:5344   */\n      revert\n        /* \"#utility.yul\":5356:5536   */\n    tag_150:\n        /* \"#utility.yul\":5404:5481   */\n      0x4e487b7100000000000000000000000000000000000000000000000000000000\n        /* \"#utility.yul\":5401:5402   */\n      0x00\n        /* \"#utility.yul\":5394:5482   */\n      mstore\n        /* \"#utility.yul\":5501:5505   */\n      0x22\n        /* \"#utility.yul\":5498:5499   */\n      0x04\n        /* \"#utility.yul\":5491:5506   */\n      mstore\n        /* \"#utility.yul\":5525:5529   */\n      0x24\n        /* \"#utility.yul\":5522:5523   */\n      0x00\n        /* \"#utility.yul\":5515:5530   */\n      revert\n        /* \"#utility.yul\":5665:5782   */\n    tag_77:\n        /* \"#utility.yul\":5774:5775   */\n      0x00\n        /* \"#utility.yul\":5771:5772   */\n      dup1\n        /* \"#utility.yul\":5764:5776   */\n      revert\n        /* \"#utility.yul\":5788:5890   */\n    tag_101:\n        /* \"#utility.yul\":5829:5835   */\n      0x00\n        /* \"#utility.yul\":5880:5882   */\n      0x1f\n        /* \"#utility.yul\":5876:5883   */\n      not\n        /* \"#utility.yul\":5871:5873   */\n      0x1f\n        /* \"#utility.yul\":5864:5869   */\n      dup4\n        /* \"#utility.yul\":5860:5874   */\n      add\n        /* \"#utility.yul\":5856:5884   */\n      and\n        /* \"#utility.yul\":5846:5884   */\n      swap1\n      pop\n        /* \"#utility.yul\":5788:5890   */\n      swap2\n      swap1\n      pop\n      jump\t// out\n        /* \"#utility.yul\":5896:6018   */\n    tag_69:\n        /* \"#utility.yul\":5969:5993   */\n      tag_158\n        /* \"#utility.yul\":5987:5992   */\n      dup2\n        /* \"#utility.yul\":5969:5993   */\n      tag_133\n      jump\t// in\n    tag_158:\n        /* \"#utility.yul\":5962:5967   */\n      dup2\n        /* \"#utility.yul\":5959:5994   */\n      eq\n        /* \"#utility.yul\":5949:6012   */\n      tag_159\n      jumpi\n        /* \"#utility.yul\":6008:6009   */\n      0x00\n        /* \"#utility.yul\":6005:6006   */\n      dup1\n        /* \"#utility.yul\":5998:6010   */\n      revert\n        /* \"#utility.yul\":5949:6012   */\n    tag_159:\n        /* \"#utility.yul\":5896:6018   */\n      pop\n      jump\t// out\n        /* \"#utility.yul\":6024:6146   */\n    tag_73:\n        /* \"#utility.yul\":6097:6121   */\n      tag_161\n        /* \"#utility.yul\":6115:6120   */\n      dup2\n        /* \"#utility.yul\":6097:6121   */\n      tag_105\n      jump\t// in\n    tag_161:\n        /* \"#utility.yul\":6090:6095   */\n      dup2\n        /* \"#utility.yul\":6087:6122   */\n      eq\n        /* \"#utility.yul\":6077:6140   */\n      tag_162\n      jumpi\n        /* \"#utility.yul\":6136:6137   */\n      0x00\n        /* \"#utility.yul\":6133:6134   */\n      dup1\n        /* \"#utility.yul\":6126:6138   */\n      revert\n        /* \"#utility.yul\":6077:6140   */\n    tag_162:\n        /* \"#utility.yul\":6024:6146   */\n      pop\n      jump\t// out\n\n    auxdata: 0xa26469706673582212208dea7285d1e966b1aee639c4539b51e597b0d5a517d882bad5a55ddbdfcb4ec164736f6c63430008070033\n}\n",
				"bytecode": {
					"linkReferences": {},
					"object": "60806040523480156200001157600080fd5b5060405162000d4d38038062000d4d833981810160405281019062000037919062000237565b80600581905550600554600360003373ffffffffffffffffffffffffffffffffffffffff1673ffffffffffffffffffffffffffffffffffffffff1681526020019081526020016000208190555083600090805190602001906200009c929190620000db565b508260019080519060200190620000b5929190620000db565b5081600260006101000a81548160ff021916908360ff16021790555050505050620004b6565b828054620000e99062000393565b90600052602060002090601f0160209004810192826200010d576000855562000159565b82601f106200012857805160ff191683800117855562000159565b8280016001018555821562000159579182015b82811115620001585782518255916020019190600101906200013b565b5b5090506200016891906200016c565b5090565b5b80821115620001875760008160009055506001016200016d565b5090565b6000620001a26200019c8462000310565b620002e7565b905082815260208101848484011115620001c157620001c062000462565b5b620001ce8482856200035d565b509392505050565b600082601f830112620001ee57620001ed6200045d565b5b8151620002008482602086016200018b565b91505092915050565b6000815190506200021a8162000482565b92915050565b60008151905062000231816200049c565b92915050565b600080600080608085870312156200025457620002536200046c565b5b600085015167ffffffffffffffff81111562000275576200027462000467565b5b6200028387828801620001d6565b945050602085015167ffffffffffffffff811115620002a757620002a662000467565b5b620002b587828801620001d6565b9350506040620002c88782880162000220565b9250506060620002db8782880162000209565b91505092959194509250565b6000620002f362000306565b9050620003018282620003c9565b919050565b6000604051905090565b600067ffffffffffffffff8211156200032e576200032d6200042e565b5b620003398262000471565b9050602081019050919050565b6000819050919050565b600060ff82169050919050565b60005b838110156200037d57808201518184015260208101905062000360565b838111156200038d576000848401525b50505050565b60006002820490506001821680620003ac57607f821691505b60208210811415620003c357620003c2620003ff565b5b50919050565b620003d48262000471565b810181811067ffffffffffffffff82111715620003f657620003f56200042e565b5b80604052505050565b7f4e487b7100000000000000000000000000000000000000000000000000000000600052602260045260246000fd5b7f4e487b7100000000000000000000000000000000000000000000000000000000600052604160045260246000fd5b600080fd5b600080fd5b600080fd5b600080fd5b6000601f19601f8301169050919050565b6200048d8162000346565b81146200049957600080fd5b50565b620004a78162000350565b8114620004b357600080fd5b50565b61088780620004c66000396000f3fe608060405234801561001057600080fd5b506004361061007d5760003560e01c806370a082311161005b57806370a08231146100dc57806395d89b411461010c578063a0712d681461012a578063a9059cbb1461015a5761007d565b806306fdde031461008257806318160ddd146100a0578063313ce567146100be575b600080fd5b61008a61018a565b60405161009791906105f7565b60405180910390f35b6100a8610218565b6040516100b59190610619565b60405180910390f35b6100c6610222565b6040516100d39190610634565b60405180910390f35b6100f660048036038101906100f191906104dc565b610235565b60405161010391906105dc565b60405180910390f35b610114610240565b60405161012191906105f7565b60405180910390f35b610144600480360381019061013f9190610549565b6102ce565b6040516101519190610619565b60405180910390f35b610174600480360381019061016f9190610509565b610349565b60405161018191906105dc565b60405180910390f35b600080546101979061077d565b80601f01602080910402602001604051908101604052809291908181526020018280546101c39061077d565b80156102105780601f106101e557610100808354040283529160200191610210565b820191906000526020600020905b8154815290600101906020018083116101f357829003601f168201915b505050505081565b6000600554905090565b600260009054906101000a900460ff1681565b600060019050919050565b6001805461024d9061077d565b80601f01602080910402602001604051908101604052809291908181526020018280546102799061077d565b80156102c65780601f1061029b576101008083540402835291602001916102c6565b820191906000526020600020905b8154815290600101906020018083116102a957829003601f168201915b505050505081565b600081600560008282546102e2919061066b565b9250508190555081600360003373ffffffffffffffffffffffffffffffffffffffff1673ffffffffffffffffffffffffffffffffffffffff1681526020019081526020016000206000828254610338919061066b565b925050819055506005549050919050565b6000600360003373ffffffffffffffffffffffffffffffffffffffff1673ffffffffffffffffffffffffffffffffffffffff1681526020019081526020016000205482111561039757600080fd5b81600360003373ffffffffffffffffffffffffffffffffffffffff1673ffffffffffffffffffffffffffffffffffffffff16815260200190815260200160002060008282546103e691906106c1565b9250508190555081600360008573ffffffffffffffffffffffffffffffffffffffff1673ffffffffffffffffffffffffffffffffffffffff168152602001908152602001600020600082825461043c919061066b565b925050819055508273ffffffffffffffffffffffffffffffffffffffff163373ffffffffffffffffffffffffffffffffffffffff167fddf252ad1be2c89b69c2b068fc378daa952ba7f163c4a11628f55a4df523b3ef846040516104a09190610619565b60405180910390a36001905092915050565b6000813590506104c181610823565b92915050565b6000813590506104d68161083a565b92915050565b6000602082840312156104f2576104f161080d565b5b6000610500848285016104b2565b91505092915050565b600080604083850312156105205761051f61080d565b5b600061052e858286016104b2565b925050602061053f858286016104c7565b9150509250929050565b60006020828403121561055f5761055e61080d565b5b600061056d848285016104c7565b91505092915050565b61057f81610707565b82525050565b60006105908261064f565b61059a818561065a565b93506105aa81856020860161074a565b6105b381610812565b840191505092915050565b6105c781610733565b82525050565b6105d68161073d565b82525050565b60006020820190506105f16000830184610576565b92915050565b600060208201905081810360008301526106118184610585565b905092915050565b600060208201905061062e60008301846105be565b92915050565b600060208201905061064960008301846105cd565b92915050565b600081519050919050565b600082825260208201905092915050565b600061067682610733565b915061068183610733565b9250827fffffffffffffffffffffffffffffffffffffffffffffffffffffffffffffffff038211156106b6576106b56107af565b5b828201905092915050565b60006106cc82610733565b91506106d783610733565b9250828210156106ea576106e96107af565b5b828203905092915050565b600061070082610713565b9050919050565b60008115159050919050565b600073ffffffffffffffffffffffffffffffffffffffff82169050919050565b6000819050919050565b600060ff82169050919050565b60005b8381101561076857808201518184015260208101905061074d565b83811115610777576000848401525b50505050565b6000600282049050600182168061079557607f821691505b602082108114156107a9576107a86107de565b5b50919050565b7f4e487b7100000000000000000000000000000000000000000000000000000000600052601160045260246000fd5b7f4e487b7100000000000000000000000000000000000000000000000000000000600052602260045260246000fd5b600080fd5b6000601f19601f8301169050919050565b61082c816106f5565b811461083757600080fd5b50565b61084381610733565b811461084e57600080fd5b5056fea26469706673582212208dea7285d1e966b1aee639c4539b51e597b0d5a517d882bad5a55ddbdfcb4ec164736f6c63430008070033",
					"opcodes": "PUSH1 0x80 PUSH1 0x40 MSTORE CALLVALUE DUP1 ISZERO PUSH3 0x11 JUMPI PUSH1 0x0 DUP1 REVERT JUMPDEST POP PUSH1 0x40 MLOAD PUSH3 0xD4D CODESIZE SUB DUP1 PUSH3 0xD4D DUP4 CODECOPY DUP2 DUP2 ADD PUSH1 0x40 MSTORE DUP2 ADD SWAP1 PUSH3 0x37 SWAP2 SWAP1 PUSH3 0x237 JUMP JUMPDEST DUP1 PUSH1 0x5 DUP2 SWAP1 SSTORE POP PUSH1 0x5 SLOAD PUSH1 0x3 PUSH1 0x0 CALLER PUSH20 0xFFFFFFFFFFFFFFFFFFFFFFFFFFFFFFFFFFFFFFFF AND PUSH20 0xFFFFFFFFFFFFFFFFFFFFFFFFFFFFFFFFFFFFFFFF AND DUP2 MSTORE PUSH1 0x20 ADD SWAP1 DUP2 MSTORE PUSH1 0x20 ADD PUSH1 0x0 KECCAK256 DUP2 SWAP1 SSTORE POP DUP4 PUSH1 0x0 SWAP1 DUP1 MLOAD SWAP1 PUSH1 0x20 ADD SWAP1 PUSH3 0x9C SWAP3 SWAP2 SWAP1 PUSH3 0xDB JUMP JUMPDEST POP DUP3 PUSH1 0x1 SWAP1 DUP1 MLOAD SWAP1 PUSH1 0x20 ADD SWAP1 PUSH3 0xB5 SWAP3 SWAP2 SWAP1 PUSH3 0xDB JUMP JUMPDEST POP DUP2 PUSH1 0x2 PUSH1 0x0 PUSH2 0x100 EXP DUP2 SLOAD DUP2 PUSH1 0xFF MUL NOT AND SWAP1 DUP4 PUSH1 0xFF AND MUL OR SWAP1 SSTORE POP POP POP POP POP PUSH3 0x4B6 JUMP JUMPDEST DUP3 DUP1 SLOAD PUSH3 0xE9 SWAP1 PUSH3 0x393 JUMP JUMPDEST SWAP1 PUSH1 0x0 MSTORE PUSH1 0x20 PUSH1 0x0 KECCAK256 SWAP1 PUSH1 0x1F ADD PUSH1 0x20 SWAP1 DIV DUP2 ADD SWAP3 DUP3 PUSH3 0x10D JUMPI PUSH1 0x0 DUP6 SSTORE PUSH3 0x159 JUMP JUMPDEST DUP3 PUSH1 0x1F LT PUSH3 0x128 JUMPI DUP1 MLOAD PUSH1 0xFF NOT AND DUP4 DUP1 ADD OR DUP6 SSTORE PUSH3 0x159 JUMP JUMPDEST DUP3 DUP1 ADD PUSH1 0x1 ADD DUP6 SSTORE DUP3 ISZERO PUSH3 0x159 JUMPI SWAP2 DUP3 ADD JUMPDEST DUP3 DUP2 GT ISZERO PUSH3 0x158 JUMPI DUP3 MLOAD DUP3 SSTORE SWAP2 PUSH1 0x20 ADD SWAP2 SWAP1 PUSH1 0x1 ADD SWAP1 PUSH3 0x13B JUMP JUMPDEST JUMPDEST POP SWAP1 POP PUSH3 0x168 SWAP2 SWAP1 PUSH3 0x16C JUMP JUMPDEST POP SWAP1 JUMP JUMPDEST JUMPDEST DUP1 DUP3 GT ISZERO PUSH3 0x187 JUMPI PUSH1 0x0 DUP2 PUSH1 0x0 SWAP1 SSTORE POP PUSH1 0x1 ADD PUSH3 0x16D JUMP JUMPDEST POP SWAP1 JUMP JUMPDEST PUSH1 0x0 PUSH3 0x1A2 PUSH3 0x19C DUP5 PUSH3 0x310 JUMP JUMPDEST PUSH3 0x2E7 JUMP JUMPDEST SWAP1 POP DUP3 DUP2 MSTORE PUSH1 0x20 DUP2 ADD DUP5 DUP5 DUP5 ADD GT ISZERO PUSH3 0x1C1 JUMPI PUSH3 0x1C0 PUSH3 0x462 JUMP JUMPDEST JUMPDEST PUSH3 0x1CE DUP5 DUP3 DUP6 PUSH3 0x35D JUMP JUMPDEST POP SWAP4 SWAP3 POP POP POP JUMP JUMPDEST PUSH1 0x0 DUP3 PUSH1 0x1F DUP4 ADD SLT PUSH3 0x1EE JUMPI PUSH3 0x1ED PUSH3 0x45D JUMP JUMPDEST JUMPDEST DUP2 MLOAD PUSH3 0x200 DUP5 DUP3 PUSH1 0x20 DUP7 ADD PUSH3 0x18B JUMP JUMPDEST SWAP2 POP POP SWAP3 SWAP2 POP POP JUMP JUMPDEST PUSH1 0x0 DUP2 MLOAD SWAP1 POP PUSH3 0x21A DUP2 PUSH3 0x482 JUMP JUMPDEST SWAP3 SWAP2 POP POP JUMP JUMPDEST PUSH1 0x0 DUP2 MLOAD SWAP1 POP PUSH3 0x231 DUP2 PUSH3 0x49C JUMP JUMPDEST SWAP3 SWAP2 POP POP JUMP JUMPDEST PUSH1 0x0 DUP1 PUSH1 0x0 DUP1 PUSH1 0x80 DUP6 DUP8 SUB SLT ISZERO PUSH3 0x254 JUMPI PUSH3 0x253 PUSH3 0x46C JUMP JUMPDEST JUMPDEST PUSH1 0x0 DUP6 ADD MLOAD PUSH8 0xFFFFFFFFFFFFFFFF DUP2 GT ISZERO PUSH3 0x275 JUMPI PUSH3 0x274 PUSH3 0x467 JUMP JUMPDEST JUMPDEST PUSH3 0x283 DUP8 DUP3 DUP9 ADD PUSH3 0x1D6 JUMP JUMPDEST SWAP5 POP POP PUSH1 0x20 DUP6 ADD MLOAD PUSH8 0xFFFFFFFFFFFFFFFF DUP2 GT ISZERO PUSH3 0x2A7 JUMPI PUSH3 0x2A6 PUSH3 0x467 JUMP JUMPDEST JUMPDEST PUSH3 0x2B5 DUP8 DUP3 DUP9 ADD PUSH3 0x1D6 JUMP JUMPDEST SWAP4 POP POP PUSH1 0x40 PUSH3 0x2C8 DUP8 DUP3 DUP9 ADD PUSH3 0x220 JUMP JUMPDEST SWAP3 POP POP PUSH1 0x60 PUSH3 0x2DB DUP8 DUP3 DUP9 ADD PUSH3 0x209 JUMP JUMPDEST SWAP2 POP POP SWAP3 SWAP6 SWAP2 SWAP5 POP SWAP3 POP JUMP JUMPDEST PUSH1 0x0 PUSH3 0x2F3 PUSH3 0x306 JUMP JUMPDEST SWAP1 POP PUSH3 0x301 DUP3 DUP3 PUSH3 0x3C9 JUMP JUMPDEST SWAP2 SWAP1 POP JUMP JUMPDEST PUSH1 0x0 PUSH1 0x40 MLOAD SWAP1 POP SWAP1 JUMP JUMPDEST PUSH1 0x0 PUSH8 0xFFFFFFFFFFFFFFFF DUP3 GT ISZERO PUSH3 0x32E JUMPI PUSH3 0x32D PUSH3 0x42E JUMP JUMPDEST JUMPDEST PUSH3 0x339 DUP3 PUSH3 0x471 JUMP JUMPDEST SWAP1 POP PUSH1 0x20 DUP2 ADD SWAP1 POP SWAP2 SWAP1 POP JUMP JUMPDEST PUSH1 0x0 DUP2 SWAP1 POP SWAP2 SWAP1 POP JUMP JUMPDEST PUSH1 0x0 PUSH1 0xFF DUP3 AND SWAP1 POP SWAP2 SWAP1 POP JUMP JUMPDEST PUSH1 0x0 JUMPDEST DUP4 DUP2 LT ISZERO PUSH3 0x37D JUMPI DUP1 DUP3 ADD MLOAD DUP2 DUP5 ADD MSTORE PUSH1 0x20 DUP2 ADD SWAP1 POP PUSH3 0x360 JUMP JUMPDEST DUP4 DUP2 GT ISZERO PUSH3 0x38D JUMPI PUSH1 0x0 DUP5 DUP5 ADD MSTORE JUMPDEST POP POP POP POP JUMP JUMPDEST PUSH1 0x0 PUSH1 0x2 DUP3 DIV SWAP1 POP PUSH1 0x1 DUP3 AND DUP1 PUSH3 0x3AC JUMPI PUSH1 0x7F DUP3 AND SWAP2 POP JUMPDEST PUSH1 0x20 DUP3 LT DUP2 EQ ISZERO PUSH3 0x3C3 JUMPI PUSH3 0x3C2 PUSH3 0x3FF JUMP JUMPDEST JUMPDEST POP SWAP2 SWAP1 POP JUMP JUMPDEST PUSH3 0x3D4 DUP3 PUSH3 0x471 JUMP JUMPDEST DUP2 ADD DUP2 DUP2 LT PUSH8 0xFFFFFFFFFFFFFFFF DUP3 GT OR ISZERO PUSH3 0x3F6 JUMPI PUSH3 0x3F5 PUSH3 0x42E JUMP JUMPDEST JUMPDEST DUP1 PUSH1 0x40 MSTORE POP POP POP JUMP JUMPDEST PUSH32 0x4E487B7100000000000000000000000000000000000000000000000000000000 PUSH1 0x0 MSTORE PUSH1 0x22 PUSH1 0x4 MSTORE PUSH1 0x24 PUSH1 0x0 REVERT JUMPDEST PUSH32 0x4E487B7100000000000000000000000000000000000000000000000000000000 PUSH1 0x0 MSTORE PUSH1 0x41 PUSH1 0x4 MSTORE PUSH1 0x24 PUSH1 0x0 REVERT JUMPDEST PUSH1 0x0 DUP1 REVERT JUMPDEST PUSH1 0x0 DUP1 REVERT JUMPDEST PUSH1 0x0 DUP1 REVERT JUMPDEST PUSH1 0x0 DUP1 REVERT JUMPDEST PUSH1 0x0 PUSH1 0x1F NOT PUSH1 0x1F DUP4 ADD AND SWAP1 POP SWAP2 SWAP1 POP JUMP JUMPDEST PUSH3 0x48D DUP2 PUSH3 0x346 JUMP JUMPDEST DUP2 EQ PUSH3 0x499 JUMPI PUSH1 0x0 DUP1 REVERT JUMPDEST POP JUMP JUMPDEST PUSH3 0x4A7 DUP2 PUSH3 0x350 JUMP JUMPDEST DUP2 EQ PUSH3 0x4B3 JUMPI PUSH1 0x0 DUP1 REVERT JUMPDEST POP JUMP JUMPDEST PUSH2 0x887 DUP1 PUSH3 0x4C6 PUSH1 0x0 CODECOPY PUSH1 0x0 RETURN INVALID PUSH1 0x80 PUSH1 0x40 MSTORE CALLVALUE DUP1 ISZERO PUSH2 0x10 JUMPI PUSH1 0x0 DUP1 REVERT JUMPDEST POP PUSH1 0x4 CALLDATASIZE LT PUSH2 0x7D JUMPI PUSH1 0x0 CALLDATALOAD PUSH1 0xE0 SHR DUP1 PUSH4 0x70A08231 GT PUSH2 0x5B JUMPI DUP1 PUSH4 0x70A08231 EQ PUSH2 0xDC JUMPI DUP1 PUSH4 0x95D89B41 EQ PUSH2 0x10C JUMPI DUP1 PUSH4 0xA0712D68 EQ PUSH2 0x12A JUMPI DUP1 PUSH4 0xA9059CBB EQ PUSH2 0x15A JUMPI PUSH2 0x7D JUMP JUMPDEST DUP1 PUSH4 0x6FDDE03 EQ PUSH2 0x82 JUMPI DUP1 PUSH4 0x18160DDD EQ PUSH2 0xA0 JUMPI DUP1 PUSH4 0x313CE567 EQ PUSH2 0xBE JUMPI JUMPDEST PUSH1 0x0 DUP1 REVERT JUMPDEST PUSH2 0x8A PUSH2 0x18A JUMP JUMPDEST PUSH1 0x40 MLOAD PUSH2 0x97 SWAP2 SWAP1 PUSH2 0x5F7 JUMP JUMPDEST PUSH1 0x40 MLOAD DUP1 SWAP2 SUB SWAP1 RETURN JUMPDEST PUSH2 0xA8 PUSH2 0x218 JUMP JUMPDEST PUSH1 0x40 MLOAD PUSH2 0xB5 SWAP2 SWAP1 PUSH2 0x619 JUMP JUMPDEST PUSH1 0x40 MLOAD DUP1 SWAP2 SUB SWAP1 RETURN JUMPDEST PUSH2 0xC6 PUSH2 0x222 JUMP JUMPDEST PUSH1 0x40 MLOAD PUSH2 0xD3 SWAP2 SWAP1 PUSH2 0x634 JUMP JUMPDEST PUSH1 0x40 MLOAD DUP1 SWAP2 SUB SWAP1 RETURN JUMPDEST PUSH2 0xF6 PUSH1 0x4 DUP1 CALLDATASIZE SUB DUP2 ADD SWAP1 PUSH2 0xF1 SWAP2 SWAP1 PUSH2 0x4DC JUMP JUMPDEST PUSH2 0x235 JUMP JUMPDEST PUSH1 0x40 MLOAD PUSH2 0x103 SWAP2 SWAP1 PUSH2 0x5DC JUMP JUMPDEST PUSH1 0x40 MLOAD DUP1 SWAP2 SUB SWAP1 RETURN JUMPDEST PUSH2 0x114 PUSH2 0x240 JUMP JUMPDEST PUSH1 0x40 MLOAD PUSH2 0x121 SWAP2 SWAP1 PUSH2 0x5F7 JUMP JUMPDEST PUSH1 0x40 MLOAD DUP1 SWAP2 SUB SWAP1 RETURN JUMPDEST PUSH2 0x144 PUSH1 0x4 DUP1 CALLDATASIZE SUB DUP2 ADD SWAP1 PUSH2 0x13F SWAP2 SWAP1 PUSH2 0x549 JUMP JUMPDEST PUSH2 0x2CE JUMP JUMPDEST PUSH1 0x40 MLOAD PUSH2 0x151 SWAP2 SWAP1 PUSH2 0x619 JUMP JUMPDEST PUSH1 0x40 MLOAD DUP1 SWAP2 SUB SWAP1 RETURN JUMPDEST PUSH2 0x174 PUSH1 0x4 DUP1 CALLDATASIZE SUB DUP2 ADD SWAP1 PUSH2 0x16F SWAP2 SWAP1 PUSH2 0x509 JUMP JUMPDEST PUSH2 0x349 JUMP JUMPDEST PUSH1 0x40 MLOAD PUSH2 0x181 SWAP2 SWAP1 PUSH2 0x5DC JUMP JUMPDEST PUSH1 0x40 MLOAD DUP1 SWAP2 SUB SWAP1 RETURN JUMPDEST PUSH1 0x0 DUP1 SLOAD PUSH2 0x197 SWAP1 PUSH2 0x77D JUMP JUMPDEST DUP1 PUSH1 0x1F ADD PUSH1 0x20 DUP1 SWAP2 DIV MUL PUSH1 0x20 ADD PUSH1 0x40 MLOAD SWAP1 DUP2 ADD PUSH1 0x40 MSTORE DUP1 SWAP3 SWAP2 SWAP1 DUP2 DUP2 MSTORE PUSH1 0x20 ADD DUP3 DUP1 SLOAD PUSH2 0x1C3 SWAP1 PUSH2 0x77D JUMP JUMPDEST DUP1 ISZERO PUSH2 0x210 JUMPI DUP1 PUSH1 0x1F LT PUSH2 0x1E5 JUMPI PUSH2 0x100 DUP1 DUP4 SLOAD DIV MUL DUP4 MSTORE SWAP2 PUSH1 0x20 ADD SWAP2 PUSH2 0x210 JUMP JUMPDEST DUP3 ADD SWAP2 SWAP1 PUSH1 0x0 MSTORE PUSH1 0x20 PUSH1 0x0 KECCAK256 SWAP1 JUMPDEST DUP2 SLOAD DUP2 MSTORE SWAP1 PUSH1 0x1 ADD SWAP1 PUSH1 0x20 ADD DUP1 DUP4 GT PUSH2 0x1F3 JUMPI DUP3 SWAP1 SUB PUSH1 0x1F AND DUP3 ADD SWAP2 JUMPDEST POP POP POP POP POP DUP2 JUMP JUMPDEST PUSH1 0x0 PUSH1 0x5 SLOAD SWAP1 POP SWAP1 JUMP JUMPDEST PUSH1 0x2 PUSH1 0x0 SWAP1 SLOAD SWAP1 PUSH2 0x100 EXP SWAP1 DIV PUSH1 0xFF AND DUP2 JUMP JUMPDEST PUSH1 0x0 PUSH1 0x1 SWAP1 POP SWAP2 SWAP1 POP JUMP JUMPDEST PUSH1 0x1 DUP1 SLOAD PUSH2 0x24D SWAP1 PUSH2 0x77D JUMP JUMPDEST DUP1 PUSH1 0x1F ADD PUSH1 0x20 DUP1 SWAP2 DIV MUL PUSH1 0x20 ADD PUSH1 0x40 MLOAD SWAP1 DUP2 ADD PUSH1 0x40 MSTORE DUP1 SWAP3 SWAP2 SWAP1 DUP2 DUP2 MSTORE PUSH1 0x20 ADD DUP3 DUP1 SLOAD PUSH2 0x279 SWAP1 PUSH2 0x77D JUMP JUMPDEST DUP1 ISZERO PUSH2 0x2C6 JUMPI DUP1 PUSH1 0x1F LT PUSH2 0x29B JUMPI PUSH2 0x100 DUP1 DUP4 SLOAD DIV MUL DUP4 MSTORE SWAP2 PUSH1 0x20 ADD SWAP2 PUSH2 0x2C6 JUMP JUMPDEST DUP3 ADD SWAP2 SWAP1 PUSH1 0x0 MSTORE PUSH1 0x20 PUSH1 0x0 KECCAK256 SWAP1 JUMPDEST DUP2 SLOAD DUP2 MSTORE SWAP1 PUSH1 0x1 ADD SWAP1 PUSH1 0x20 ADD DUP1 DUP4 GT PUSH2 0x2A9 JUMPI DUP3 SWAP1 SUB PUSH1 0x1F AND DUP3 ADD SWAP2 JUMPDEST POP POP POP POP POP DUP2 JUMP JUMPDEST PUSH1 0x0 DUP2 PUSH1 0x5 PUSH1 0x0 DUP3 DUP3 SLOAD PUSH2 0x2E2 SWAP2 SWAP1 PUSH2 0x66B JUMP JUMPDEST SWAP3 POP POP DUP2 SWAP1 SSTORE POP DUP2 PUSH1 0x3 PUSH1 0x0 CALLER PUSH20 0xFFFFFFFFFFFFFFFFFFFFFFFFFFFFFFFFFFFFFFFF AND PUSH20 0xFFFFFFFFFFFFFFFFFFFFFFFFFFFFFFFFFFFFFFFF AND DUP2 MSTORE PUSH1 0x20 ADD SWAP1 DUP2 MSTORE PUSH1 0x20 ADD PUSH1 0x0 KECCAK256 PUSH1 0x0 DUP3 DUP3 SLOAD PUSH2 0x338 SWAP2 SWAP1 PUSH2 0x66B JUMP JUMPDEST SWAP3 POP POP DUP2 SWAP1 SSTORE POP PUSH1 0x5 SLOAD SWAP1 POP SWAP2 SWAP1 POP JUMP JUMPDEST PUSH1 0x0 PUSH1 0x3 PUSH1 0x0 CALLER PUSH20 0xFFFFFFFFFFFFFFFFFFFFFFFFFFFFFFFFFFFFFFFF AND PUSH20 0xFFFFFFFFFFFFFFFFFFFFFFFFFFFFFFFFFFFFFFFF AND DUP2 MSTORE PUSH1 0x20 ADD SWAP1 DUP2 MSTORE PUSH1 0x20 ADD PUSH1 0x0 KECCAK256 SLOAD DUP3 GT ISZERO PUSH2 0x397 JUMPI PUSH1 0x0 DUP1 REVERT JUMPDEST DUP2 PUSH1 0x3 PUSH1 0x0 CALLER PUSH20 0xFFFFFFFFFFFFFFFFFFFFFFFFFFFFFFFFFFFFFFFF AND PUSH20 0xFFFFFFFFFFFFFFFFFFFFFFFFFFFFFFFFFFFFFFFF AND DUP2 MSTORE PUSH1 0x20 ADD SWAP1 DUP2 MSTORE PUSH1 0x20 ADD PUSH1 0x0 KECCAK256 PUSH1 0x0 DUP3 DUP3 SLOAD PUSH2 0x3E6 SWAP2 SWAP1 PUSH2 0x6C1 JUMP JUMPDEST SWAP3 POP POP DUP2 SWAP1 SSTORE POP DUP2 PUSH1 0x3 PUSH1 0x0 DUP6 PUSH20 0xFFFFFFFFFFFFFFFFFFFFFFFFFFFFFFFFFFFFFFFF AND PUSH20 0xFFFFFFFFFFFFFFFFFFFFFFFFFFFFFFFFFFFFFFFF AND DUP2 MSTORE PUSH1 0x20 ADD SWAP1 DUP2 MSTORE PUSH1 0x20 ADD PUSH1 0x0 KECCAK256 PUSH1 0x0 DUP3 DUP3 SLOAD PUSH2 0x43C SWAP2 SWAP1 PUSH2 0x66B JUMP JUMPDEST SWAP3 POP POP DUP2 SWAP1 SSTORE POP DUP3 PUSH20 0xFFFFFFFFFFFFFFFFFFFFFFFFFFFFFFFFFFFFFFFF AND CALLER PUSH20 0xFFFFFFFFFFFFFFFFFFFFFFFFFFFFFFFFFFFFFFFF AND PUSH32 0xDDF252AD1BE2C89B69C2B068FC378DAA952BA7F163C4A11628F55A4DF523B3EF DUP5 PUSH1 0x40 MLOAD PUSH2 0x4A0 SWAP2 SWAP1 PUSH2 0x619 JUMP JUMPDEST PUSH1 0x40 MLOAD DUP1 SWAP2 SUB SWAP1 LOG3 PUSH1 0x1 SWAP1 POP SWAP3 SWAP2 POP POP JUMP JUMPDEST PUSH1 0x0 DUP2 CALLDATALOAD SWAP1 POP PUSH2 0x4C1 DUP2 PUSH2 0x823 JUMP JUMPDEST SWAP3 SWAP2 POP POP JUMP JUMPDEST PUSH1 0x0 DUP2 CALLDATALOAD SWAP1 POP PUSH2 0x4D6 DUP2 PUSH2 0x83A JUMP JUMPDEST SWAP3 SWAP2 POP POP JUMP JUMPDEST PUSH1 0x0 PUSH1 0x20 DUP3 DUP5 SUB SLT ISZERO PUSH2 0x4F2 JUMPI PUSH2 0x4F1 PUSH2 0x80D JUMP JUMPDEST JUMPDEST PUSH1 0x0 PUSH2 0x500 DUP5 DUP3 DUP6 ADD PUSH2 0x4B2 JUMP JUMPDEST SWAP2 POP POP SWAP3 SWAP2 POP POP JUMP JUMPDEST PUSH1 0x0 DUP1 PUSH1 0x40 DUP4 DUP6 SUB SLT ISZERO PUSH2 0x520 JUMPI PUSH2 0x51F PUSH2 0x80D JUMP JUMPDEST JUMPDEST PUSH1 0x0 PUSH2 0x52E DUP6 DUP3 DUP7 ADD PUSH2 0x4B2 JUMP JUMPDEST SWAP3 POP POP PUSH1 0x20 PUSH2 0x53F DUP6 DUP3 DUP7 ADD PUSH2 0x4C7 JUMP JUMPDEST SWAP2 POP POP SWAP3 POP SWAP3 SWAP1 POP JUMP JUMPDEST PUSH1 0x0 PUSH1 0x20 DUP3 DUP5 SUB SLT ISZERO PUSH2 0x55F JUMPI PUSH2 0x55E PUSH2 0x80D JUMP JUMPDEST JUMPDEST PUSH1 0x0 PUSH2 0x56D DUP5 DUP3 DUP6 ADD PUSH2 0x4C7 JUMP JUMPDEST SWAP2 POP POP SWAP3 SWAP2 POP POP JUMP JUMPDEST PUSH2 0x57F DUP2 PUSH2 0x707 JUMP JUMPDEST DUP3 MSTORE POP POP JUMP JUMPDEST PUSH1 0x0 PUSH2 0x590 DUP3 PUSH2 0x64F JUMP JUMPDEST PUSH2 0x59A DUP2 DUP6 PUSH2 0x65A JUMP JUMPDEST SWAP4 POP PUSH2 0x5AA DUP2 DUP6 PUSH1 0x20 DUP7 ADD PUSH2 0x74A JUMP JUMPDEST PUSH2 0x5B3 DUP2 PUSH2 0x812 JUMP JUMPDEST DUP5 ADD SWAP2 POP POP SWAP3 SWAP2 POP POP JUMP JUMPDEST PUSH2 0x5C7 DUP2 PUSH2 0x733 JUMP JUMPDEST DUP3 MSTORE POP POP JUMP JUMPDEST PUSH2 0x5D6 DUP2 PUSH2 0x73D JUMP JUMPDEST DUP3 MSTORE POP POP JUMP JUMPDEST PUSH1 0x0 PUSH1 0x20 DUP3 ADD SWAP1 POP PUSH2 0x5F1 PUSH1 0x0 DUP4 ADD DUP5 PUSH2 0x576 JUMP JUMPDEST SWAP3 SWAP2 POP POP JUMP JUMPDEST PUSH1 0x0 PUSH1 0x20 DUP3 ADD SWAP1 POP DUP2 DUP2 SUB PUSH1 0x0 DUP4 ADD MSTORE PUSH2 0x611 DUP2 DUP5 PUSH2 0x585 JUMP JUMPDEST SWAP1 POP SWAP3 SWAP2 POP POP JUMP JUMPDEST PUSH1 0x0 PUSH1 0x20 DUP3 ADD SWAP1 POP PUSH2 0x62E PUSH1 0x0 DUP4 ADD DUP5 PUSH2 0x5BE JUMP JUMPDEST SWAP3 SWAP2 POP POP JUMP JUMPDEST PUSH1 0x0 PUSH1 0x20 DUP3 ADD SWAP1 POP PUSH2 0x649 PUSH1 0x0 DUP4 ADD DUP5 PUSH2 0x5CD JUMP JUMPDEST SWAP3 SWAP2 POP POP JUMP JUMPDEST PUSH1 0x0 DUP2 MLOAD SWAP1 POP SWAP2 SWAP1 POP JUMP JUMPDEST PUSH1 0x0 DUP3 DUP3 MSTORE PUSH1 0x20 DUP3 ADD SWAP1 POP SWAP3 SWAP2 POP POP JUMP JUMPDEST PUSH1 0x0 PUSH2 0x676 DUP3 PUSH2 0x733 JUMP JUMPDEST SWAP2 POP PUSH2 0x681 DUP4 PUSH2 0x733 JUMP JUMPDEST SWAP3 POP DUP3 PUSH32 0xFFFFFFFFFFFFFFFFFFFFFFFFFFFFFFFFFFFFFFFFFFFFFFFFFFFFFFFFFFFFFFFF SUB DUP3 GT ISZERO PUSH2 0x6B6 JUMPI PUSH2 0x6B5 PUSH2 0x7AF JUMP JUMPDEST JUMPDEST DUP3 DUP3 ADD SWAP1 POP SWAP3 SWAP2 POP POP JUMP JUMPDEST PUSH1 0x0 PUSH2 0x6CC DUP3 PUSH2 0x733 JUMP JUMPDEST SWAP2 POP PUSH2 0x6D7 DUP4 PUSH2 0x733 JUMP JUMPDEST SWAP3 POP DUP3 DUP3 LT ISZERO PUSH2 0x6EA JUMPI PUSH2 0x6E9 PUSH2 0x7AF JUMP JUMPDEST JUMPDEST DUP3 DUP3 SUB SWAP1 POP SWAP3 SWAP2 POP POP JUMP JUMPDEST PUSH1 0x0 PUSH2 0x700 DUP3 PUSH2 0x713 JUMP JUMPDEST SWAP1 POP SWAP2 SWAP1 POP JUMP JUMPDEST PUSH1 0x0 DUP2 ISZERO ISZERO SWAP1 POP SWAP2 SWAP1 POP JUMP JUMPDEST PUSH1 0x0 PUSH20 0xFFFFFFFFFFFFFFFFFFFFFFFFFFFFFFFFFFFFFFFF DUP3 AND SWAP1 POP SWAP2 SWAP1 POP JUMP JUMPDEST PUSH1 0x0 DUP2 SWAP1 POP SWAP2 SWAP1 POP JUMP JUMPDEST PUSH1 0x0 PUSH1 0xFF DUP3 AND SWAP1 POP SWAP2 SWAP1 POP JUMP JUMPDEST PUSH1 0x0 JUMPDEST DUP4 DUP2 LT ISZERO PUSH2 0x768 JUMPI DUP1 DUP3 ADD MLOAD DUP2 DUP5 ADD MSTORE PUSH1 0x20 DUP2 ADD SWAP1 POP PUSH2 0x74D JUMP JUMPDEST DUP4 DUP2 GT ISZERO PUSH2 0x777 JUMPI PUSH1 0x0 DUP5 DUP5 ADD MSTORE JUMPDEST POP POP POP POP JUMP JUMPDEST PUSH1 0x0 PUSH1 0x2 DUP3 DIV SWAP1 POP PUSH1 0x1 DUP3 AND DUP1 PUSH2 0x795 JUMPI PUSH1 0x7F DUP3 AND SWAP2 POP JUMPDEST PUSH1 0x20 DUP3 LT DUP2 EQ ISZERO PUSH2 0x7A9 JUMPI PUSH2 0x7A8 PUSH2 0x7DE JUMP JUMPDEST JUMPDEST POP SWAP2 SWAP1 POP JUMP JUMPDEST PUSH32 0x4E487B7100000000000000000000000000000000000000000000000000000000 PUSH1 0x0 MSTORE PUSH1 0x11 PUSH1 0x4 MSTORE PUSH1 0x24 PUSH1 0x0 REVERT JUMPDEST PUSH32 0x4E487B7100000000000000000000000000000000000000000000000000000000 PUSH1 0x0 MSTORE PUSH1 0x22 PUSH1 0x4 MSTORE PUSH1 0x24 PUSH1 0x0 REVERT JUMPDEST PUSH1 0x0 DUP1 REVERT JUMPDEST PUSH1 0x0 PUSH1 0x1F NOT PUSH1 0x1F DUP4 ADD AND SWAP1 POP SWAP2 SWAP1 POP JUMP JUMPDEST PUSH2 0x82C DUP2 PUSH2 0x6F5 JUMP JUMPDEST DUP2 EQ PUSH2 0x837 JUMPI PUSH1 0x0 DUP1 REVERT JUMPDEST POP JUMP JUMPDEST PUSH2 0x843 DUP2 PUSH2 0x733 JUMP JUMPDEST DUP2 EQ PUSH2 0x84E JUMPI PUSH1 0x0 DUP1 REVERT JUMPDEST POP JUMP INVALID LOG2 PUSH5 0x6970667358 0x22 SLT KECCAK256 DUP14 0xEA PUSH19 0x85D1E966B1AEE639C4539B51E597B0D5A517D8 DUP3 0xBA 0xD5 0xA5 0x5D 0xDB 0xDF 0xCB 0x4E 0xC1 PUSH5 0x736F6C6343 STOP ADDMOD SMOD STOP CALLER "
				},
				"gasEstimates": {
					"creation": {
						"codeDepositCost": "436600",
						"executionCost": "infinite",
						"totalCost": "infinite"
					},
					"external": {
						"balanceOf(address)": "657",
						"decimals()": "2516",
						"mint(uint256)": "infinite",
						"name()": "infinite",
						"symbol()": "infinite",
						"totalSupply()": "2460",
						"transfer(address,uint256)": "infinite"
					}
				},
				"methodIdentifiers": {
					"balanceOf(address)": "70a08231",
					"decimals()": "313ce567",
					"mint(uint256)": "a0712d68",
					"name()": "06fdde03",
					"symbol()": "95d89b41",
					"totalSupply()": "18160ddd",
					"transfer(address,uint256)": "a9059cbb"
				}
			},
			"storageLayout": {
				"storage": [
					{
						"astId": 35,
						"contract": "contracts/Erc20.sol:CGCToken",
						"label": "name",
						"offset": 0,
						"slot": "0",
						"type": "t_string_storage"
					},
					{
						"astId": 37,
						"contract": "contracts/Erc20.sol:CGCToken",
						"label": "symbol",
						"offset": 0,
						"slot": "1",
						"type": "t_string_storage"
					},
					{
						"astId": 39,
						"contract": "contracts/Erc20.sol:CGCToken",
						"label": "decimals",
						"offset": 0,
						"slot": "2",
						"type": "t_uint8"
					},
					{
						"astId": 51,
						"contract": "contracts/Erc20.sol:CGCToken",
						"label": "balances",
						"offset": 0,
						"slot": "3",
						"type": "t_mapping(t_address,t_uint256)"
					},
					{
						"astId": 57,
						"contract": "contracts/Erc20.sol:CGCToken",
						"label": "allowed",
						"offset": 0,
						"slot": "4",
						"type": "t_mapping(t_address,t_mapping(t_address,t_uint256))"
					},
					{
						"astId": 59,
						"contract": "contracts/Erc20.sol:CGCToken",
						"label": "_totalSupply",
						"offset": 0,
						"slot": "5",
						"type": "t_uint256"
					}
				],
				"types": {
					"t_address": {
						"encoding": "inplace",
						"label": "address",
						"numberOfBytes": "20"
					},
					"t_mapping(t_address,t_mapping(t_address,t_uint256))": {
						"encoding": "mapping",
						"key": "t_address",
						"label": "mapping(address => mapping(address => uint256))",
						"numberOfBytes": "32",
						"value": "t_mapping(t_address,t_uint256)"
					},
					"t_mapping(t_address,t_uint256)": {
						"encoding": "mapping",
						"key": "t_address",
						"label": "mapping(address => uint256)",
						"numberOfBytes": "32",
						"value": "t_uint256"
					},
					"t_string_storage": {
						"encoding": "bytes",
						"label": "string",
						"numberOfBytes": "32"
					},
					"t_uint256": {
						"encoding": "inplace",
						"label": "uint256",
						"numberOfBytes": "32"
					},
					"t_uint8": {
						"encoding": "inplace",
						"label": "uint8",
						"numberOfBytes": "1"
					}
				}
			},
			"userdoc": {
				"kind": "user",
				"methods": {},
				"version": 1
			}
		}
	}
}