{
	"contracts/Bitcoin.sol": {
		"MyBitcoin": {
			"abi": [
				{
					"inputs": [],
					"stateMutability": "nonpayable",
					"type": "constructor"
				},
				{
					"inputs": [
						{
							"internalType": "address",
							"name": "spender",
							"type": "address"
						},
						{
							"internalType": "uint256",
							"name": "amount",
							"type": "uint256"
						},
						{
							"internalType": "uint256",
							"name": "numTokens",
							"type": "uint256"
						}
					],
					"name": "Approval",
					"outputs": [
						{
							"internalType": "bool",
							"name": "",
							"type": "bool"
						}
					],
					"stateMutability": "nonpayable",
					"type": "function"
				},
				{
					"inputs": [
						{
							"internalType": "address",
							"name": "",
							"type": "address"
						},
						{
							"internalType": "address",
							"name": "",
							"type": "address"
						}
					],
					"name": "_allowance",
					"outputs": [
						{
							"internalType": "uint256",
							"name": "",
							"type": "uint256"
						}
					],
					"stateMutability": "view",
					"type": "function"
				},
				{
					"inputs": [
						{
							"internalType": "address",
							"name": "",
							"type": "address"
						},
						{
							"internalType": "address",
							"name": "",
							"type": "address"
						}
					],
					"name": "_approval",
					"outputs": [
						{
							"internalType": "uint256",
							"name": "",
							"type": "uint256"
						}
					],
					"stateMutability": "view",
					"type": "function"
				},
				{
					"inputs": [
						{
							"internalType": "address",
							"name": "",
							"type": "address"
						}
					],
					"name": "balances",
					"outputs": [
						{
							"internalType": "uint256",
							"name": "",
							"type": "uint256"
						}
					],
					"stateMutability": "view",
					"type": "function"
				},
				{
					"inputs": [
						{
							"internalType": "address",
							"name": "receiver",
							"type": "address"
						},
						{
							"internalType": "uint256",
							"name": "amount",
							"type": "uint256"
						}
					],
					"name": "burn",
					"outputs": [],
					"stateMutability": "nonpayable",
					"type": "function"
				},
				{
					"inputs": [],
					"name": "decimals",
					"outputs": [
						{
							"internalType": "uint8",
							"name": "",
							"type": "uint8"
						}
					],
					"stateMutability": "view",
					"type": "function"
				},
				{
					"inputs": [
						{
							"internalType": "address",
							"name": "receiver",
							"type": "address"
						},
						{
							"internalType": "uint256",
							"name": "amount",
							"type": "uint256"
						}
					],
					"name": "mint",
					"outputs": [],
					"stateMutability": "nonpayable",
					"type": "function"
				},
				{
					"inputs": [
						{
							"internalType": "address",
							"name": "receiver",
							"type": "address"
						},
						{
							"internalType": "uint256",
							"name": "amount",
							"type": "uint256"
						}
					],
					"name": "transfer",
					"outputs": [],
					"stateMutability": "nonpayable",
					"type": "function"
				},
				{
					"inputs": [
						{
							"internalType": "address",
							"name": "current_sender",
							"type": "address"
						},
						{
							"internalType": "address",
							"name": "receiver",
							"type": "address"
						},
						{
							"internalType": "uint256",
							"name": "amount",
							"type": "uint256"
						}
					],
					"name": "transferFrom",
					"outputs": [],
					"stateMutability": "nonpayable",
					"type": "function"
				},
				{
					"inputs": [],
					"name": "wakar",
					"outputs": [
						{
							"internalType": "address",
							"name": "",
							"type": "address"
						}
					],
					"stateMutability": "view",
					"type": "function"
				}
			],
			"devdoc": {
				"kind": "dev",
				"methods": {},
				"version": 1
			},
			"evm": {
				"assembly": "    /* \"contracts/Bitcoin.sol\":72:1249  contract MyBitcoin {\r... */\n  mstore(0x40, 0x80)\n    /* \"contracts/Bitcoin.sol\":353:402  constructor() {\r... */\n  callvalue\n  dup1\n  iszero\n  tag_1\n  jumpi\n  0x00\n  dup1\n  revert\ntag_1:\n  pop\n    /* \"contracts/Bitcoin.sol\":381:391  msg.sender */\n  caller\n    /* \"contracts/Bitcoin.sol\":374:379  wakar */\n  0x00\n  dup1\n    /* \"contracts/Bitcoin.sol\":374:391  wakar =msg.sender */\n  0x0100\n  exp\n  dup2\n  sload\n  dup2\n  0xffffffffffffffffffffffffffffffffffffffff\n  mul\n  not\n  and\n  swap1\n  dup4\n  0xffffffffffffffffffffffffffffffffffffffff\n  and\n  mul\n  or\n  swap1\n  sstore\n  pop\n    /* \"contracts/Bitcoin.sol\":72:1249  contract MyBitcoin {\r... */\n  dataSize(sub_0)\n  dup1\n  dataOffset(sub_0)\n  0x00\n  codecopy\n  0x00\n  return\nstop\n\nsub_0: assembly {\n        /* \"contracts/Bitcoin.sol\":72:1249  contract MyBitcoin {\r... */\n      mstore(0x40, 0x80)\n      callvalue\n      dup1\n      iszero\n      tag_1\n      jumpi\n      0x00\n      dup1\n      revert\n    tag_1:\n      pop\n      jumpi(tag_2, lt(calldatasize, 0x04))\n      shr(0xe0, calldataload(0x00))\n      dup1\n      0x40c10f19\n      gt\n      tag_13\n      jumpi\n      dup1\n      0x40c10f19\n      eq\n      tag_8\n      jumpi\n      dup1\n      0x56d287bf\n      eq\n      tag_9\n      jumpi\n      dup1\n      0x9dc29fac\n      eq\n      tag_10\n      jumpi\n      dup1\n      0xa9059cbb\n      eq\n      tag_11\n      jumpi\n      dup1\n      0xdd336c12\n      eq\n      tag_12\n      jumpi\n      jump(tag_2)\n    tag_13:\n      dup1\n      0x13f27ae3\n      eq\n      tag_3\n      jumpi\n      dup1\n      0x23b872dd\n      eq\n      tag_4\n      jumpi\n      dup1\n      0x27e235e3\n      eq\n      tag_5\n      jumpi\n      dup1\n      0x2f5f1b6d\n      eq\n      tag_6\n      jumpi\n      dup1\n      0x313ce567\n      eq\n      tag_7\n      jumpi\n    tag_2:\n      0x00\n      dup1\n      revert\n        /* \"contracts/Bitcoin.sol\":98:118  address public wakar */\n    tag_3:\n      tag_14\n      tag_15\n      jump\t// in\n    tag_14:\n      mload(0x40)\n      tag_16\n      swap2\n      swap1\n      tag_17\n      jump\t// in\n    tag_16:\n      mload(0x40)\n      dup1\n      swap2\n      sub\n      swap1\n      return\n        /* \"contracts/Bitcoin.sol\":899:1094  function transferFrom(address current_sender, address receiver, uint amount) public {\r... */\n    tag_4:\n      tag_18\n      0x04\n      dup1\n      calldatasize\n      sub\n      dup2\n      add\n      swap1\n      tag_19\n      swap2\n      swap1\n      tag_20\n      jump\t// in\n    tag_19:\n      tag_21\n      jump\t// in\n    tag_18:\n      stop\n        /* \"contracts/Bitcoin.sol\":125:165  mapping (address =>uint) public balances */\n    tag_5:\n      tag_22\n      0x04\n      dup1\n      calldatasize\n      sub\n      dup2\n      add\n      swap1\n      tag_23\n      swap2\n      swap1\n      tag_24\n      jump\t// in\n    tag_23:\n      tag_25\n      jump\t// in\n    tag_22:\n      mload(0x40)\n      tag_26\n      swap2\n      swap1\n      tag_27\n      jump\t// in\n    tag_26:\n      mload(0x40)\n      dup1\n      swap2\n      sub\n      swap1\n      return\n        /* \"contracts/Bitcoin.sol\":218:279  mapping(address => mapping(address => uint)) public _approval */\n    tag_6:\n      tag_28\n      0x04\n      dup1\n      calldatasize\n      sub\n      dup2\n      add\n      swap1\n      tag_29\n      swap2\n      swap1\n      tag_30\n      jump\t// in\n    tag_29:\n      tag_31\n      jump\t// in\n    tag_28:\n      mload(0x40)\n      tag_32\n      swap2\n      swap1\n      tag_27\n      jump\t// in\n    tag_32:\n      mload(0x40)\n      dup1\n      swap2\n      sub\n      swap1\n      return\n        /* \"contracts/Bitcoin.sol\":172:207  uint8 public constant decimals = 12 */\n    tag_7:\n      tag_33\n      tag_34\n      jump\t// in\n    tag_33:\n      mload(0x40)\n      tag_35\n      swap2\n      swap1\n      tag_36\n      jump\t// in\n    tag_35:\n      mload(0x40)\n      dup1\n      swap2\n      sub\n      swap1\n      return\n        /* \"contracts/Bitcoin.sol\":407:560  function mint(address receiver,uint amount) public {\r... */\n    tag_8:\n      tag_37\n      0x04\n      dup1\n      calldatasize\n      sub\n      dup2\n      add\n      swap1\n      tag_38\n      swap2\n      swap1\n      tag_39\n      jump\t// in\n    tag_38:\n      tag_40\n      jump\t// in\n    tag_37:\n      stop\n        /* \"contracts/Bitcoin.sol\":1096:1246  function Approval(address spender,uint amount,uint numTokens) public  returns (bool) {\r... */\n    tag_9:\n      tag_41\n      0x04\n      dup1\n      calldatasize\n      sub\n      dup2\n      add\n      swap1\n      tag_42\n      swap2\n      swap1\n      tag_43\n      jump\t// in\n    tag_42:\n      tag_44\n      jump\t// in\n    tag_41:\n      mload(0x40)\n      tag_45\n      swap2\n      swap1\n      tag_46\n      jump\t// in\n    tag_45:\n      mload(0x40)\n      dup1\n      swap2\n      sub\n      swap1\n      return\n        /* \"contracts/Bitcoin.sol\":564:717  function burn(address receiver,uint amount) public {\r... */\n    tag_10:\n      tag_47\n      0x04\n      dup1\n      calldatasize\n      sub\n      dup2\n      add\n      swap1\n      tag_48\n      swap2\n      swap1\n      tag_39\n      jump\t// in\n    tag_48:\n      tag_49\n      jump\t// in\n    tag_47:\n      stop\n        /* \"contracts/Bitcoin.sol\":721:897  function transfer(address receiver, uint amount) public {\r... */\n    tag_11:\n      tag_50\n      0x04\n      dup1\n      calldatasize\n      sub\n      dup2\n      add\n      swap1\n      tag_51\n      swap2\n      swap1\n      tag_39\n      jump\t// in\n    tag_51:\n      tag_52\n      jump\t// in\n    tag_50:\n      stop\n        /* \"contracts/Bitcoin.sol\":284:346  mapping(address => mapping(address => uint)) public _allowance */\n    tag_12:\n      tag_53\n      0x04\n      dup1\n      calldatasize\n      sub\n      dup2\n      add\n      swap1\n      tag_54\n      swap2\n      swap1\n      tag_30\n      jump\t// in\n    tag_54:\n      tag_55\n      jump\t// in\n    tag_53:\n      mload(0x40)\n      tag_56\n      swap2\n      swap1\n      tag_27\n      jump\t// in\n    tag_56:\n      mload(0x40)\n      dup1\n      swap2\n      sub\n      swap1\n      return\n        /* \"contracts/Bitcoin.sol\":98:118  address public wakar */\n    tag_15:\n      0x00\n      dup1\n      sload\n      swap1\n      0x0100\n      exp\n      swap1\n      div\n      0xffffffffffffffffffffffffffffffffffffffff\n      and\n      dup2\n      jump\t// out\n        /* \"contracts/Bitcoin.sol\":899:1094  function transferFrom(address current_sender, address receiver, uint amount) public {\r... */\n    tag_21:\n        /* \"contracts/Bitcoin.sol\":1005:1015  msg.sender */\n      caller\n        /* \"contracts/Bitcoin.sol\":990:1015  current_sender=msg.sender */\n      swap3\n      pop\n        /* \"contracts/Bitcoin.sol\":1047:1053  amount */\n      dup1\n        /* \"contracts/Bitcoin.sol\":1019:1027  balances */\n      0x01\n        /* \"contracts/Bitcoin.sol\":1019:1043  balances[current_sender] */\n      0x00\n        /* \"contracts/Bitcoin.sol\":1028:1042  current_sender */\n      dup6\n        /* \"contracts/Bitcoin.sol\":1019:1043  balances[current_sender] */\n      0xffffffffffffffffffffffffffffffffffffffff\n      and\n      0xffffffffffffffffffffffffffffffffffffffff\n      and\n      dup2\n      mstore\n      0x20\n      add\n      swap1\n      dup2\n      mstore\n      0x20\n      add\n      0x00\n      keccak256\n      0x00\n        /* \"contracts/Bitcoin.sol\":1019:1053  balances[current_sender] -= amount */\n      dup3\n      dup3\n      sload\n      tag_58\n      swap2\n      swap1\n      tag_59\n      jump\t// in\n    tag_58:\n      swap3\n      pop\n      pop\n      dup2\n      swap1\n      sstore\n      pop\n        /* \"contracts/Bitcoin.sol\":1082:1088  amount */\n      dup1\n        /* \"contracts/Bitcoin.sol\":1060:1068  balances */\n      0x01\n        /* \"contracts/Bitcoin.sol\":1060:1078  balances[receiver] */\n      0x00\n        /* \"contracts/Bitcoin.sol\":1069:1077  receiver */\n      dup5\n        /* \"contracts/Bitcoin.sol\":1060:1078  balances[receiver] */\n      0xffffffffffffffffffffffffffffffffffffffff\n      and\n      0xffffffffffffffffffffffffffffffffffffffff\n      and\n      dup2\n      mstore\n      0x20\n      add\n      swap1\n      dup2\n      mstore\n      0x20\n      add\n      0x00\n      keccak256\n      0x00\n        /* \"contracts/Bitcoin.sol\":1060:1088  balances[receiver] += amount */\n      dup3\n      dup3\n      sload\n      tag_60\n      swap2\n      swap1\n      tag_61\n      jump\t// in\n    tag_60:\n      swap3\n      pop\n      pop\n      dup2\n      swap1\n      sstore\n      pop\n        /* \"contracts/Bitcoin.sol\":899:1094  function transferFrom(address current_sender, address receiver, uint amount) public {\r... */\n      pop\n      pop\n      pop\n      jump\t// out\n        /* \"contracts/Bitcoin.sol\":125:165  mapping (address =>uint) public balances */\n    tag_25:\n      mstore(0x20, 0x01)\n      dup1\n      0x00\n      mstore\n      keccak256(0x00, 0x40)\n      0x00\n      swap2\n      pop\n      swap1\n      pop\n      sload\n      dup2\n      jump\t// out\n        /* \"contracts/Bitcoin.sol\":218:279  mapping(address => mapping(address => uint)) public _approval */\n    tag_31:\n      mstore(0x20, 0x02)\n      dup2\n      0x00\n      mstore\n      mstore(0x20, keccak256(0x00, 0x40))\n      dup1\n      0x00\n      mstore\n      keccak256(0x00, 0x40)\n      0x00\n      swap2\n      pop\n      swap2\n      pop\n      pop\n      sload\n      dup2\n      jump\t// out\n        /* \"contracts/Bitcoin.sol\":172:207  uint8 public constant decimals = 12 */\n    tag_34:\n        /* \"contracts/Bitcoin.sol\":205:207  12 */\n      0x0c\n        /* \"contracts/Bitcoin.sol\":172:207  uint8 public constant decimals = 12 */\n      dup2\n      jump\t// out\n        /* \"contracts/Bitcoin.sol\":407:560  function mint(address receiver,uint amount) public {\r... */\n    tag_40:\n        /* \"contracts/Bitcoin.sol\":490:495  wakar */\n      0x00\n      dup1\n      sload\n      swap1\n      0x0100\n      exp\n      swap1\n      div\n      0xffffffffffffffffffffffffffffffffffffffff\n      and\n        /* \"contracts/Bitcoin.sol\":476:495  msg.sender == wakar */\n      0xffffffffffffffffffffffffffffffffffffffff\n      and\n        /* \"contracts/Bitcoin.sol\":476:486  msg.sender */\n      caller\n        /* \"contracts/Bitcoin.sol\":476:495  msg.sender == wakar */\n      0xffffffffffffffffffffffffffffffffffffffff\n      and\n      eq\n        /* \"contracts/Bitcoin.sol\":468:518  require(msg.sender == wakar,\"your not the minter\") */\n      tag_63\n      jumpi\n      mload(0x40)\n      0x08c379a000000000000000000000000000000000000000000000000000000000\n      dup2\n      mstore\n      0x04\n      add\n      tag_64\n      swap1\n      tag_65\n      jump\t// in\n    tag_64:\n      mload(0x40)\n      dup1\n      swap2\n      sub\n      swap1\n      revert\n    tag_63:\n        /* \"contracts/Bitcoin.sol\":550:556  amount */\n      dup1\n        /* \"contracts/Bitcoin.sol\":528:536  balances */\n      0x01\n        /* \"contracts/Bitcoin.sol\":528:546  balances[receiver] */\n      0x00\n        /* \"contracts/Bitcoin.sol\":537:545  receiver */\n      dup5\n        /* \"contracts/Bitcoin.sol\":528:546  balances[receiver] */\n      0xffffffffffffffffffffffffffffffffffffffff\n      and\n      0xffffffffffffffffffffffffffffffffffffffff\n      and\n      dup2\n      mstore\n      0x20\n      add\n      swap1\n      dup2\n      mstore\n      0x20\n      add\n      0x00\n      keccak256\n      0x00\n        /* \"contracts/Bitcoin.sol\":528:556  balances[receiver] += amount */\n      dup3\n      dup3\n      sload\n      tag_66\n      swap2\n      swap1\n      tag_61\n      jump\t// in\n    tag_66:\n      swap3\n      pop\n      pop\n      dup2\n      swap1\n      sstore\n      pop\n        /* \"contracts/Bitcoin.sol\":407:560  function mint(address receiver,uint amount) public {\r... */\n      pop\n      pop\n      jump\t// out\n        /* \"contracts/Bitcoin.sol\":1096:1246  function Approval(address spender,uint amount,uint numTokens) public  returns (bool) {\r... */\n    tag_44:\n        /* \"contracts/Bitcoin.sol\":1175:1179  bool */\n      0x00\n        /* \"contracts/Bitcoin.sol\":1216:1225  numTokens */\n      dup2\n        /* \"contracts/Bitcoin.sol\":1184:1194  _allowance */\n      0x03\n        /* \"contracts/Bitcoin.sol\":1184:1206  _allowance[msg.sender] */\n      0x00\n        /* \"contracts/Bitcoin.sol\":1195:1205  msg.sender */\n      caller\n        /* \"contracts/Bitcoin.sol\":1184:1206  _allowance[msg.sender] */\n      0xffffffffffffffffffffffffffffffffffffffff\n      and\n      0xffffffffffffffffffffffffffffffffffffffff\n      and\n      dup2\n      mstore\n      0x20\n      add\n      swap1\n      dup2\n      mstore\n      0x20\n      add\n      0x00\n      keccak256\n        /* \"contracts/Bitcoin.sol\":1184:1215  _allowance[msg.sender][spender] */\n      0x00\n        /* \"contracts/Bitcoin.sol\":1207:1214  spender */\n      dup7\n        /* \"contracts/Bitcoin.sol\":1184:1215  _allowance[msg.sender][spender] */\n      0xffffffffffffffffffffffffffffffffffffffff\n      and\n      0xffffffffffffffffffffffffffffffffffffffff\n      and\n      dup2\n      mstore\n      0x20\n      add\n      swap1\n      dup2\n      mstore\n      0x20\n      add\n      0x00\n      keccak256\n        /* \"contracts/Bitcoin.sol\":1184:1225  _allowance[msg.sender][spender]=numTokens */\n      dup2\n      swap1\n      sstore\n      pop\n        /* \"contracts/Bitcoin.sol\":1238:1242  true */\n      0x01\n        /* \"contracts/Bitcoin.sol\":1231:1242  return true */\n      swap1\n      pop\n        /* \"contracts/Bitcoin.sol\":1096:1246  function Approval(address spender,uint amount,uint numTokens) public  returns (bool) {\r... */\n      swap4\n      swap3\n      pop\n      pop\n      pop\n      jump\t// out\n        /* \"contracts/Bitcoin.sol\":564:717  function burn(address receiver,uint amount) public {\r... */\n    tag_49:\n        /* \"contracts/Bitcoin.sol\":647:652  wakar */\n      0x00\n      dup1\n      sload\n      swap1\n      0x0100\n      exp\n      swap1\n      div\n      0xffffffffffffffffffffffffffffffffffffffff\n      and\n        /* \"contracts/Bitcoin.sol\":633:652  msg.sender == wakar */\n      0xffffffffffffffffffffffffffffffffffffffff\n      and\n        /* \"contracts/Bitcoin.sol\":633:643  msg.sender */\n      caller\n        /* \"contracts/Bitcoin.sol\":633:652  msg.sender == wakar */\n      0xffffffffffffffffffffffffffffffffffffffff\n      and\n      eq\n        /* \"contracts/Bitcoin.sol\":625:675  require(msg.sender == wakar,\"your not the minter\") */\n      tag_69\n      jumpi\n      mload(0x40)\n      0x08c379a000000000000000000000000000000000000000000000000000000000\n      dup2\n      mstore\n      0x04\n      add\n      tag_70\n      swap1\n      tag_65\n      jump\t// in\n    tag_70:\n      mload(0x40)\n      dup1\n      swap2\n      sub\n      swap1\n      revert\n    tag_69:\n        /* \"contracts/Bitcoin.sol\":707:713  amount */\n      dup1\n        /* \"contracts/Bitcoin.sol\":685:693  balances */\n      0x01\n        /* \"contracts/Bitcoin.sol\":685:703  balances[receiver] */\n      0x00\n        /* \"contracts/Bitcoin.sol\":694:702  receiver */\n      dup5\n        /* \"contracts/Bitcoin.sol\":685:703  balances[receiver] */\n      0xffffffffffffffffffffffffffffffffffffffff\n      and\n      0xffffffffffffffffffffffffffffffffffffffff\n      and\n      dup2\n      mstore\n      0x20\n      add\n      swap1\n      dup2\n      mstore\n      0x20\n      add\n      0x00\n      keccak256\n      0x00\n        /* \"contracts/Bitcoin.sol\":685:713  balances[receiver] -= amount */\n      dup3\n      dup3\n      sload\n      tag_71\n      swap2\n      swap1\n      tag_59\n      jump\t// in\n    tag_71:\n      swap3\n      pop\n      pop\n      dup2\n      swap1\n      sstore\n      pop\n        /* \"contracts/Bitcoin.sol\":564:717  function burn(address receiver,uint amount) public {\r... */\n      pop\n      pop\n      jump\t// out\n        /* \"contracts/Bitcoin.sol\":721:897  function transfer(address receiver, uint amount) public {\r... */\n    tag_52:\n        /* \"contracts/Bitcoin.sol\":814:820  amount */\n      dup1\n        /* \"contracts/Bitcoin.sol\":792:800  balances */\n      0x01\n        /* \"contracts/Bitcoin.sol\":792:812  balances[msg.sender] */\n      0x00\n        /* \"contracts/Bitcoin.sol\":801:811  msg.sender */\n      caller\n        /* \"contracts/Bitcoin.sol\":792:812  balances[msg.sender] */\n      0xffffffffffffffffffffffffffffffffffffffff\n      and\n      0xffffffffffffffffffffffffffffffffffffffff\n      and\n      dup2\n      mstore\n      0x20\n      add\n      swap1\n      dup2\n      mstore\n      0x20\n      add\n      0x00\n      keccak256\n      sload\n        /* \"contracts/Bitcoin.sol\":792:820  balances[msg.sender]>=amount */\n      lt\n      iszero\n        /* \"contracts/Bitcoin.sol\":784:821  require(balances[msg.sender]>=amount) */\n      tag_73\n      jumpi\n      0x00\n      dup1\n      revert\n    tag_73:\n        /* \"contracts/Bitcoin.sol\":852:858  amount */\n      dup1\n        /* \"contracts/Bitcoin.sol\":828:836  balances */\n      0x01\n        /* \"contracts/Bitcoin.sol\":828:848  balances[msg.sender] */\n      0x00\n        /* \"contracts/Bitcoin.sol\":837:847  msg.sender */\n      caller\n        /* \"contracts/Bitcoin.sol\":828:848  balances[msg.sender] */\n      0xffffffffffffffffffffffffffffffffffffffff\n      and\n      0xffffffffffffffffffffffffffffffffffffffff\n      and\n      dup2\n      mstore\n      0x20\n      add\n      swap1\n      dup2\n      mstore\n      0x20\n      add\n      0x00\n      keccak256\n      0x00\n        /* \"contracts/Bitcoin.sol\":828:858  balances[msg.sender] -= amount */\n      dup3\n      dup3\n      sload\n      tag_74\n      swap2\n      swap1\n      tag_59\n      jump\t// in\n    tag_74:\n      swap3\n      pop\n      pop\n      dup2\n      swap1\n      sstore\n      pop\n        /* \"contracts/Bitcoin.sol\":887:893  amount */\n      dup1\n        /* \"contracts/Bitcoin.sol\":865:873  balances */\n      0x01\n        /* \"contracts/Bitcoin.sol\":865:883  balances[receiver] */\n      0x00\n        /* \"contracts/Bitcoin.sol\":874:882  receiver */\n      dup5\n        /* \"contracts/Bitcoin.sol\":865:883  balances[receiver] */\n      0xffffffffffffffffffffffffffffffffffffffff\n      and\n      0xffffffffffffffffffffffffffffffffffffffff\n      and\n      dup2\n      mstore\n      0x20\n      add\n      swap1\n      dup2\n      mstore\n      0x20\n      add\n      0x00\n      keccak256\n      0x00\n        /* \"contracts/Bitcoin.sol\":865:893  balances[receiver] += amount */\n      dup3\n      dup3\n      sload\n      tag_75\n      swap2\n      swap1\n      tag_61\n      jump\t// in\n    tag_75:\n      swap3\n      pop\n      pop\n      dup2\n      swap1\n      sstore\n      pop\n        /* \"contracts/Bitcoin.sol\":721:897  function transfer(address receiver, uint amount) public {\r... */\n      pop\n      pop\n      jump\t// out\n        /* \"contracts/Bitcoin.sol\":284:346  mapping(address => mapping(address => uint)) public _allowance */\n    tag_55:\n      mstore(0x20, 0x03)\n      dup2\n      0x00\n      mstore\n      mstore(0x20, keccak256(0x00, 0x40))\n      dup1\n      0x00\n      mstore\n      keccak256(0x00, 0x40)\n      0x00\n      swap2\n      pop\n      swap2\n      pop\n      pop\n      sload\n      dup2\n      jump\t// out\n        /* \"#utility.yul\":7:146   */\n    tag_77:\n        /* \"#utility.yul\":53:58   */\n      0x00\n        /* \"#utility.yul\":91:97   */\n      dup2\n        /* \"#utility.yul\":78:98   */\n      calldataload\n        /* \"#utility.yul\":69:98   */\n      swap1\n      pop\n        /* \"#utility.yul\":107:140   */\n      tag_79\n        /* \"#utility.yul\":134:139   */\n      dup2\n        /* \"#utility.yul\":107:140   */\n      tag_80\n      jump\t// in\n    tag_79:\n        /* \"#utility.yul\":7:146   */\n      swap3\n      swap2\n      pop\n      pop\n      jump\t// out\n        /* \"#utility.yul\":152:291   */\n    tag_81:\n        /* \"#utility.yul\":198:203   */\n      0x00\n        /* \"#utility.yul\":236:242   */\n      dup2\n        /* \"#utility.yul\":223:243   */\n      calldataload\n        /* \"#utility.yul\":214:243   */\n      swap1\n      pop\n        /* \"#utility.yul\":252:285   */\n      tag_83\n        /* \"#utility.yul\":279:284   */\n      dup2\n        /* \"#utility.yul\":252:285   */\n      tag_84\n      jump\t// in\n    tag_83:\n        /* \"#utility.yul\":152:291   */\n      swap3\n      swap2\n      pop\n      pop\n      jump\t// out\n        /* \"#utility.yul\":297:626   */\n    tag_24:\n        /* \"#utility.yul\":356:362   */\n      0x00\n        /* \"#utility.yul\":405:407   */\n      0x20\n        /* \"#utility.yul\":393:402   */\n      dup3\n        /* \"#utility.yul\":384:391   */\n      dup5\n        /* \"#utility.yul\":380:403   */\n      sub\n        /* \"#utility.yul\":376:408   */\n      slt\n        /* \"#utility.yul\":373:492   */\n      iszero\n      tag_86\n      jumpi\n        /* \"#utility.yul\":411:490   */\n      tag_87\n      tag_88\n      jump\t// in\n    tag_87:\n        /* \"#utility.yul\":373:492   */\n    tag_86:\n        /* \"#utility.yul\":531:532   */\n      0x00\n        /* \"#utility.yul\":556:609   */\n      tag_89\n        /* \"#utility.yul\":601:608   */\n      dup5\n        /* \"#utility.yul\":592:598   */\n      dup3\n        /* \"#utility.yul\":581:590   */\n      dup6\n        /* \"#utility.yul\":577:599   */\n      add\n        /* \"#utility.yul\":556:609   */\n      tag_77\n      jump\t// in\n    tag_89:\n        /* \"#utility.yul\":546:609   */\n      swap2\n      pop\n        /* \"#utility.yul\":502:619   */\n      pop\n        /* \"#utility.yul\":297:626   */\n      swap3\n      swap2\n      pop\n      pop\n      jump\t// out\n        /* \"#utility.yul\":632:1106   */\n    tag_30:\n        /* \"#utility.yul\":700:706   */\n      0x00\n        /* \"#utility.yul\":708:714   */\n      dup1\n        /* \"#utility.yul\":757:759   */\n      0x40\n        /* \"#utility.yul\":745:754   */\n      dup4\n        /* \"#utility.yul\":736:743   */\n      dup6\n        /* \"#utility.yul\":732:755   */\n      sub\n        /* \"#utility.yul\":728:760   */\n      slt\n        /* \"#utility.yul\":725:844   */\n      iszero\n      tag_91\n      jumpi\n        /* \"#utility.yul\":763:842   */\n      tag_92\n      tag_88\n      jump\t// in\n    tag_92:\n        /* \"#utility.yul\":725:844   */\n    tag_91:\n        /* \"#utility.yul\":883:884   */\n      0x00\n        /* \"#utility.yul\":908:961   */\n      tag_93\n        /* \"#utility.yul\":953:960   */\n      dup6\n        /* \"#utility.yul\":944:950   */\n      dup3\n        /* \"#utility.yul\":933:942   */\n      dup7\n        /* \"#utility.yul\":929:951   */\n      add\n        /* \"#utility.yul\":908:961   */\n      tag_77\n      jump\t// in\n    tag_93:\n        /* \"#utility.yul\":898:961   */\n      swap3\n      pop\n        /* \"#utility.yul\":854:971   */\n      pop\n        /* \"#utility.yul\":1010:1012   */\n      0x20\n        /* \"#utility.yul\":1036:1089   */\n      tag_94\n        /* \"#utility.yul\":1081:1088   */\n      dup6\n        /* \"#utility.yul\":1072:1078   */\n      dup3\n        /* \"#utility.yul\":1061:1070   */\n      dup7\n        /* \"#utility.yul\":1057:1079   */\n      add\n        /* \"#utility.yul\":1036:1089   */\n      tag_77\n      jump\t// in\n    tag_94:\n        /* \"#utility.yul\":1026:1089   */\n      swap2\n      pop\n        /* \"#utility.yul\":981:1099   */\n      pop\n        /* \"#utility.yul\":632:1106   */\n      swap3\n      pop\n      swap3\n      swap1\n      pop\n      jump\t// out\n        /* \"#utility.yul\":1112:1731   */\n    tag_20:\n        /* \"#utility.yul\":1189:1195   */\n      0x00\n        /* \"#utility.yul\":1197:1203   */\n      dup1\n        /* \"#utility.yul\":1205:1211   */\n      0x00\n        /* \"#utility.yul\":1254:1256   */\n      0x60\n        /* \"#utility.yul\":1242:1251   */\n      dup5\n        /* \"#utility.yul\":1233:1240   */\n      dup7\n        /* \"#utility.yul\":1229:1252   */\n      sub\n        /* \"#utility.yul\":1225:1257   */\n      slt\n        /* \"#utility.yul\":1222:1341   */\n      iszero\n      tag_96\n      jumpi\n        /* \"#utility.yul\":1260:1339   */\n      tag_97\n      tag_88\n      jump\t// in\n    tag_97:\n        /* \"#utility.yul\":1222:1341   */\n    tag_96:\n        /* \"#utility.yul\":1380:1381   */\n      0x00\n        /* \"#utility.yul\":1405:1458   */\n      tag_98\n        /* \"#utility.yul\":1450:1457   */\n      dup7\n        /* \"#utility.yul\":1441:1447   */\n      dup3\n        /* \"#utility.yul\":1430:1439   */\n      dup8\n        /* \"#utility.yul\":1426:1448   */\n      add\n        /* \"#utility.yul\":1405:1458   */\n      tag_77\n      jump\t// in\n    tag_98:\n        /* \"#utility.yul\":1395:1458   */\n      swap4\n      pop\n        /* \"#utility.yul\":1351:1468   */\n      pop\n        /* \"#utility.yul\":1507:1509   */\n      0x20\n        /* \"#utility.yul\":1533:1586   */\n      tag_99\n        /* \"#utility.yul\":1578:1585   */\n      dup7\n        /* \"#utility.yul\":1569:1575   */\n      dup3\n        /* \"#utility.yul\":1558:1567   */\n      dup8\n        /* \"#utility.yul\":1554:1576   */\n      add\n        /* \"#utility.yul\":1533:1586   */\n      tag_77\n      jump\t// in\n    tag_99:\n        /* \"#utility.yul\":1523:1586   */\n      swap3\n      pop\n        /* \"#utility.yul\":1478:1596   */\n      pop\n        /* \"#utility.yul\":1635:1637   */\n      0x40\n        /* \"#utility.yul\":1661:1714   */\n      tag_100\n        /* \"#utility.yul\":1706:1713   */\n      dup7\n        /* \"#utility.yul\":1697:1703   */\n      dup3\n        /* \"#utility.yul\":1686:1695   */\n      dup8\n        /* \"#utility.yul\":1682:1704   */\n      add\n        /* \"#utility.yul\":1661:1714   */\n      tag_81\n      jump\t// in\n    tag_100:\n        /* \"#utility.yul\":1651:1714   */\n      swap2\n      pop\n        /* \"#utility.yul\":1606:1724   */\n      pop\n        /* \"#utility.yul\":1112:1731   */\n      swap3\n      pop\n      swap3\n      pop\n      swap3\n      jump\t// out\n        /* \"#utility.yul\":1737:2211   */\n    tag_39:\n        /* \"#utility.yul\":1805:1811   */\n      0x00\n        /* \"#utility.yul\":1813:1819   */\n      dup1\n        /* \"#utility.yul\":1862:1864   */\n      0x40\n        /* \"#utility.yul\":1850:1859   */\n      dup4\n        /* \"#utility.yul\":1841:1848   */\n      dup6\n        /* \"#utility.yul\":1837:1860   */\n      sub\n        /* \"#utility.yul\":1833:1865   */\n      slt\n        /* \"#utility.yul\":1830:1949   */\n      iszero\n      tag_102\n      jumpi\n        /* \"#utility.yul\":1868:1947   */\n      tag_103\n      tag_88\n      jump\t// in\n    tag_103:\n        /* \"#utility.yul\":1830:1949   */\n    tag_102:\n        /* \"#utility.yul\":1988:1989   */\n      0x00\n        /* \"#utility.yul\":2013:2066   */\n      tag_104\n        /* \"#utility.yul\":2058:2065   */\n      dup6\n        /* \"#utility.yul\":2049:2055   */\n      dup3\n        /* \"#utility.yul\":2038:2047   */\n      dup7\n        /* \"#utility.yul\":2034:2056   */\n      add\n        /* \"#utility.yul\":2013:2066   */\n      tag_77\n      jump\t// in\n    tag_104:\n        /* \"#utility.yul\":2003:2066   */\n      swap3\n      pop\n        /* \"#utility.yul\":1959:2076   */\n      pop\n        /* \"#utility.yul\":2115:2117   */\n      0x20\n        /* \"#utility.yul\":2141:2194   */\n      tag_105\n        /* \"#utility.yul\":2186:2193   */\n      dup6\n        /* \"#utility.yul\":2177:2183   */\n      dup3\n        /* \"#utility.yul\":2166:2175   */\n      dup7\n        /* \"#utility.yul\":2162:2184   */\n      add\n        /* \"#utility.yul\":2141:2194   */\n      tag_81\n      jump\t// in\n    tag_105:\n        /* \"#utility.yul\":2131:2194   */\n      swap2\n      pop\n        /* \"#utility.yul\":2086:2204   */\n      pop\n        /* \"#utility.yul\":1737:2211   */\n      swap3\n      pop\n      swap3\n      swap1\n      pop\n      jump\t// out\n        /* \"#utility.yul\":2217:2836   */\n    tag_43:\n        /* \"#utility.yul\":2294:2300   */\n      0x00\n        /* \"#utility.yul\":2302:2308   */\n      dup1\n        /* \"#utility.yul\":2310:2316   */\n      0x00\n        /* \"#utility.yul\":2359:2361   */\n      0x60\n        /* \"#utility.yul\":2347:2356   */\n      dup5\n        /* \"#utility.yul\":2338:2345   */\n      dup7\n        /* \"#utility.yul\":2334:2357   */\n      sub\n        /* \"#utility.yul\":2330:2362   */\n      slt\n        /* \"#utility.yul\":2327:2446   */\n      iszero\n      tag_107\n      jumpi\n        /* \"#utility.yul\":2365:2444   */\n      tag_108\n      tag_88\n      jump\t// in\n    tag_108:\n        /* \"#utility.yul\":2327:2446   */\n    tag_107:\n        /* \"#utility.yul\":2485:2486   */\n      0x00\n        /* \"#utility.yul\":2510:2563   */\n      tag_109\n        /* \"#utility.yul\":2555:2562   */\n      dup7\n        /* \"#utility.yul\":2546:2552   */\n      dup3\n        /* \"#utility.yul\":2535:2544   */\n      dup8\n        /* \"#utility.yul\":2531:2553   */\n      add\n        /* \"#utility.yul\":2510:2563   */\n      tag_77\n      jump\t// in\n    tag_109:\n        /* \"#utility.yul\":2500:2563   */\n      swap4\n      pop\n        /* \"#utility.yul\":2456:2573   */\n      pop\n        /* \"#utility.yul\":2612:2614   */\n      0x20\n        /* \"#utility.yul\":2638:2691   */\n      tag_110\n        /* \"#utility.yul\":2683:2690   */\n      dup7\n        /* \"#utility.yul\":2674:2680   */\n      dup3\n        /* \"#utility.yul\":2663:2672   */\n      dup8\n        /* \"#utility.yul\":2659:2681   */\n      add\n        /* \"#utility.yul\":2638:2691   */\n      tag_81\n      jump\t// in\n    tag_110:\n        /* \"#utility.yul\":2628:2691   */\n      swap3\n      pop\n        /* \"#utility.yul\":2583:2701   */\n      pop\n        /* \"#utility.yul\":2740:2742   */\n      0x40\n        /* \"#utility.yul\":2766:2819   */\n      tag_111\n        /* \"#utility.yul\":2811:2818   */\n      dup7\n        /* \"#utility.yul\":2802:2808   */\n      dup3\n        /* \"#utility.yul\":2791:2800   */\n      dup8\n        /* \"#utility.yul\":2787:2809   */\n      add\n        /* \"#utility.yul\":2766:2819   */\n      tag_81\n      jump\t// in\n    tag_111:\n        /* \"#utility.yul\":2756:2819   */\n      swap2\n      pop\n        /* \"#utility.yul\":2711:2829   */\n      pop\n        /* \"#utility.yul\":2217:2836   */\n      swap3\n      pop\n      swap3\n      pop\n      swap3\n      jump\t// out\n        /* \"#utility.yul\":2842:2960   */\n    tag_112:\n        /* \"#utility.yul\":2929:2953   */\n      tag_114\n        /* \"#utility.yul\":2947:2952   */\n      dup2\n        /* \"#utility.yul\":2929:2953   */\n      tag_115\n      jump\t// in\n    tag_114:\n        /* \"#utility.yul\":2924:2927   */\n      dup3\n        /* \"#utility.yul\":2917:2954   */\n      mstore\n        /* \"#utility.yul\":2842:2960   */\n      pop\n      pop\n      jump\t// out\n        /* \"#utility.yul\":2966:3075   */\n    tag_116:\n        /* \"#utility.yul\":3047:3068   */\n      tag_118\n        /* \"#utility.yul\":3062:3067   */\n      dup2\n        /* \"#utility.yul\":3047:3068   */\n      tag_119\n      jump\t// in\n    tag_118:\n        /* \"#utility.yul\":3042:3045   */\n      dup3\n        /* \"#utility.yul\":3035:3069   */\n      mstore\n        /* \"#utility.yul\":2966:3075   */\n      pop\n      pop\n      jump\t// out\n        /* \"#utility.yul\":3081:3447   */\n    tag_120:\n        /* \"#utility.yul\":3223:3226   */\n      0x00\n        /* \"#utility.yul\":3244:3311   */\n      tag_122\n        /* \"#utility.yul\":3308:3310   */\n      0x13\n        /* \"#utility.yul\":3303:3306   */\n      dup4\n        /* \"#utility.yul\":3244:3311   */\n      tag_123\n      jump\t// in\n    tag_122:\n        /* \"#utility.yul\":3237:3311   */\n      swap2\n      pop\n        /* \"#utility.yul\":3320:3413   */\n      tag_124\n        /* \"#utility.yul\":3409:3412   */\n      dup3\n        /* \"#utility.yul\":3320:3413   */\n      tag_125\n      jump\t// in\n    tag_124:\n        /* \"#utility.yul\":3438:3440   */\n      0x20\n        /* \"#utility.yul\":3433:3436   */\n      dup3\n        /* \"#utility.yul\":3429:3441   */\n      add\n        /* \"#utility.yul\":3422:3441   */\n      swap1\n      pop\n        /* \"#utility.yul\":3081:3447   */\n      swap2\n      swap1\n      pop\n      jump\t// out\n        /* \"#utility.yul\":3453:3571   */\n    tag_126:\n        /* \"#utility.yul\":3540:3564   */\n      tag_128\n        /* \"#utility.yul\":3558:3563   */\n      dup2\n        /* \"#utility.yul\":3540:3564   */\n      tag_129\n      jump\t// in\n    tag_128:\n        /* \"#utility.yul\":3535:3538   */\n      dup3\n        /* \"#utility.yul\":3528:3565   */\n      mstore\n        /* \"#utility.yul\":3453:3571   */\n      pop\n      pop\n      jump\t// out\n        /* \"#utility.yul\":3577:3689   */\n    tag_130:\n        /* \"#utility.yul\":3660:3682   */\n      tag_132\n        /* \"#utility.yul\":3676:3681   */\n      dup2\n        /* \"#utility.yul\":3660:3682   */\n      tag_133\n      jump\t// in\n    tag_132:\n        /* \"#utility.yul\":3655:3658   */\n      dup3\n        /* \"#utility.yul\":3648:3683   */\n      mstore\n        /* \"#utility.yul\":3577:3689   */\n      pop\n      pop\n      jump\t// out\n        /* \"#utility.yul\":3695:3917   */\n    tag_17:\n        /* \"#utility.yul\":3788:3792   */\n      0x00\n        /* \"#utility.yul\":3826:3828   */\n      0x20\n        /* \"#utility.yul\":3815:3824   */\n      dup3\n        /* \"#utility.yul\":3811:3829   */\n      add\n        /* \"#utility.yul\":3803:3829   */\n      swap1\n      pop\n        /* \"#utility.yul\":3839:3910   */\n      tag_135\n        /* \"#utility.yul\":3907:3908   */\n      0x00\n        /* \"#utility.yul\":3896:3905   */\n      dup4\n        /* \"#utility.yul\":3892:3909   */\n      add\n        /* \"#utility.yul\":3883:3889   */\n      dup5\n        /* \"#utility.yul\":3839:3910   */\n      tag_112\n      jump\t// in\n    tag_135:\n        /* \"#utility.yul\":3695:3917   */\n      swap3\n      swap2\n      pop\n      pop\n      jump\t// out\n        /* \"#utility.yul\":3923:4133   */\n    tag_46:\n        /* \"#utility.yul\":4010:4014   */\n      0x00\n        /* \"#utility.yul\":4048:4050   */\n      0x20\n        /* \"#utility.yul\":4037:4046   */\n      dup3\n        /* \"#utility.yul\":4033:4051   */\n      add\n        /* \"#utility.yul\":4025:4051   */\n      swap1\n      pop\n        /* \"#utility.yul\":4061:4126   */\n      tag_137\n        /* \"#utility.yul\":4123:4124   */\n      0x00\n        /* \"#utility.yul\":4112:4121   */\n      dup4\n        /* \"#utility.yul\":4108:4125   */\n      add\n        /* \"#utility.yul\":4099:4105   */\n      dup5\n        /* \"#utility.yul\":4061:4126   */\n      tag_116\n      jump\t// in\n    tag_137:\n        /* \"#utility.yul\":3923:4133   */\n      swap3\n      swap2\n      pop\n      pop\n      jump\t// out\n        /* \"#utility.yul\":4139:4558   */\n    tag_65:\n        /* \"#utility.yul\":4305:4309   */\n      0x00\n        /* \"#utility.yul\":4343:4345   */\n      0x20\n        /* \"#utility.yul\":4332:4341   */\n      dup3\n        /* \"#utility.yul\":4328:4346   */\n      add\n        /* \"#utility.yul\":4320:4346   */\n      swap1\n      pop\n        /* \"#utility.yul\":4392:4401   */\n      dup2\n        /* \"#utility.yul\":4386:4390   */\n      dup2\n        /* \"#utility.yul\":4382:4402   */\n      sub\n        /* \"#utility.yul\":4378:4379   */\n      0x00\n        /* \"#utility.yul\":4367:4376   */\n      dup4\n        /* \"#utility.yul\":4363:4380   */\n      add\n        /* \"#utility.yul\":4356:4403   */\n      mstore\n        /* \"#utility.yul\":4420:4551   */\n      tag_139\n        /* \"#utility.yul\":4546:4550   */\n      dup2\n        /* \"#utility.yul\":4420:4551   */\n      tag_120\n      jump\t// in\n    tag_139:\n        /* \"#utility.yul\":4412:4551   */\n      swap1\n      pop\n        /* \"#utility.yul\":4139:4558   */\n      swap2\n      swap1\n      pop\n      jump\t// out\n        /* \"#utility.yul\":4564:4786   */\n    tag_27:\n        /* \"#utility.yul\":4657:4661   */\n      0x00\n        /* \"#utility.yul\":4695:4697   */\n      0x20\n        /* \"#utility.yul\":4684:4693   */\n      dup3\n        /* \"#utility.yul\":4680:4698   */\n      add\n        /* \"#utility.yul\":4672:4698   */\n      swap1\n      pop\n        /* \"#utility.yul\":4708:4779   */\n      tag_141\n        /* \"#utility.yul\":4776:4777   */\n      0x00\n        /* \"#utility.yul\":4765:4774   */\n      dup4\n        /* \"#utility.yul\":4761:4778   */\n      add\n        /* \"#utility.yul\":4752:4758   */\n      dup5\n        /* \"#utility.yul\":4708:4779   */\n      tag_126\n      jump\t// in\n    tag_141:\n        /* \"#utility.yul\":4564:4786   */\n      swap3\n      swap2\n      pop\n      pop\n      jump\t// out\n        /* \"#utility.yul\":4792:5006   */\n    tag_36:\n        /* \"#utility.yul\":4881:4885   */\n      0x00\n        /* \"#utility.yul\":4919:4921   */\n      0x20\n        /* \"#utility.yul\":4908:4917   */\n      dup3\n        /* \"#utility.yul\":4904:4922   */\n      add\n        /* \"#utility.yul\":4896:4922   */\n      swap1\n      pop\n        /* \"#utility.yul\":4932:4999   */\n      tag_143\n        /* \"#utility.yul\":4996:4997   */\n      0x00\n        /* \"#utility.yul\":4985:4994   */\n      dup4\n        /* \"#utility.yul\":4981:4998   */\n      add\n        /* \"#utility.yul\":4972:4978   */\n      dup5\n        /* \"#utility.yul\":4932:4999   */\n      tag_130\n      jump\t// in\n    tag_143:\n        /* \"#utility.yul\":4792:5006   */\n      swap3\n      swap2\n      pop\n      pop\n      jump\t// out\n        /* \"#utility.yul\":5093:5262   */\n    tag_123:\n        /* \"#utility.yul\":5177:5188   */\n      0x00\n        /* \"#utility.yul\":5211:5217   */\n      dup3\n        /* \"#utility.yul\":5206:5209   */\n      dup3\n        /* \"#utility.yul\":5199:5218   */\n      mstore\n        /* \"#utility.yul\":5251:5255   */\n      0x20\n        /* \"#utility.yul\":5246:5249   */\n      dup3\n        /* \"#utility.yul\":5242:5256   */\n      add\n        /* \"#utility.yul\":5227:5256   */\n      swap1\n      pop\n        /* \"#utility.yul\":5093:5262   */\n      swap3\n      swap2\n      pop\n      pop\n      jump\t// out\n        /* \"#utility.yul\":5268:5573   */\n    tag_61:\n        /* \"#utility.yul\":5308:5311   */\n      0x00\n        /* \"#utility.yul\":5327:5347   */\n      tag_148\n        /* \"#utility.yul\":5345:5346   */\n      dup3\n        /* \"#utility.yul\":5327:5347   */\n      tag_129\n      jump\t// in\n    tag_148:\n        /* \"#utility.yul\":5322:5347   */\n      swap2\n      pop\n        /* \"#utility.yul\":5361:5381   */\n      tag_149\n        /* \"#utility.yul\":5379:5380   */\n      dup4\n        /* \"#utility.yul\":5361:5381   */\n      tag_129\n      jump\t// in\n    tag_149:\n        /* \"#utility.yul\":5356:5381   */\n      swap3\n      pop\n        /* \"#utility.yul\":5515:5516   */\n      dup3\n        /* \"#utility.yul\":5447:5513   */\n      0xffffffffffffffffffffffffffffffffffffffffffffffffffffffffffffffff\n        /* \"#utility.yul\":5443:5517   */\n      sub\n        /* \"#utility.yul\":5440:5441   */\n      dup3\n        /* \"#utility.yul\":5437:5518   */\n      gt\n        /* \"#utility.yul\":5434:5541   */\n      iszero\n      tag_150\n      jumpi\n        /* \"#utility.yul\":5521:5539   */\n      tag_151\n      tag_152\n      jump\t// in\n    tag_151:\n        /* \"#utility.yul\":5434:5541   */\n    tag_150:\n        /* \"#utility.yul\":5565:5566   */\n      dup3\n        /* \"#utility.yul\":5562:5563   */\n      dup3\n        /* \"#utility.yul\":5558:5567   */\n      add\n        /* \"#utility.yul\":5551:5567   */\n      swap1\n      pop\n        /* \"#utility.yul\":5268:5573   */\n      swap3\n      swap2\n      pop\n      pop\n      jump\t// out\n        /* \"#utility.yul\":5579:5770   */\n    tag_59:\n        /* \"#utility.yul\":5619:5623   */\n      0x00\n        /* \"#utility.yul\":5639:5659   */\n      tag_154\n        /* \"#utility.yul\":5657:5658   */\n      dup3\n        /* \"#utility.yul\":5639:5659   */\n      tag_129\n      jump\t// in\n    tag_154:\n        /* \"#utility.yul\":5634:5659   */\n      swap2\n      pop\n        /* \"#utility.yul\":5673:5693   */\n      tag_155\n        /* \"#utility.yul\":5691:5692   */\n      dup4\n        /* \"#utility.yul\":5673:5693   */\n      tag_129\n      jump\t// in\n    tag_155:\n        /* \"#utility.yul\":5668:5693   */\n      swap3\n      pop\n        /* \"#utility.yul\":5712:5713   */\n      dup3\n        /* \"#utility.yul\":5709:5710   */\n      dup3\n        /* \"#utility.yul\":5706:5714   */\n      lt\n        /* \"#utility.yul\":5703:5737   */\n      iszero\n      tag_156\n      jumpi\n        /* \"#utility.yul\":5717:5735   */\n      tag_157\n      tag_152\n      jump\t// in\n    tag_157:\n        /* \"#utility.yul\":5703:5737   */\n    tag_156:\n        /* \"#utility.yul\":5762:5763   */\n      dup3\n        /* \"#utility.yul\":5759:5760   */\n      dup3\n        /* \"#utility.yul\":5755:5764   */\n      sub\n        /* \"#utility.yul\":5747:5764   */\n      swap1\n      pop\n        /* \"#utility.yul\":5579:5770   */\n      swap3\n      swap2\n      pop\n      pop\n      jump\t// out\n        /* \"#utility.yul\":5776:5872   */\n    tag_115:\n        /* \"#utility.yul\":5813:5820   */\n      0x00\n        /* \"#utility.yul\":5842:5866   */\n      tag_159\n        /* \"#utility.yul\":5860:5865   */\n      dup3\n        /* \"#utility.yul\":5842:5866   */\n      tag_160\n      jump\t// in\n    tag_159:\n        /* \"#utility.yul\":5831:5866   */\n      swap1\n      pop\n        /* \"#utility.yul\":5776:5872   */\n      swap2\n      swap1\n      pop\n      jump\t// out\n        /* \"#utility.yul\":5878:5968   */\n    tag_119:\n        /* \"#utility.yul\":5912:5919   */\n      0x00\n        /* \"#utility.yul\":5955:5960   */\n      dup2\n        /* \"#utility.yul\":5948:5961   */\n      iszero\n        /* \"#utility.yul\":5941:5962   */\n      iszero\n        /* \"#utility.yul\":5930:5962   */\n      swap1\n      pop\n        /* \"#utility.yul\":5878:5968   */\n      swap2\n      swap1\n      pop\n      jump\t// out\n        /* \"#utility.yul\":5974:6100   */\n    tag_160:\n        /* \"#utility.yul\":6011:6018   */\n      0x00\n        /* \"#utility.yul\":6051:6093   */\n      0xffffffffffffffffffffffffffffffffffffffff\n        /* \"#utility.yul\":6044:6049   */\n      dup3\n        /* \"#utility.yul\":6040:6094   */\n      and\n        /* \"#utility.yul\":6029:6094   */\n      swap1\n      pop\n        /* \"#utility.yul\":5974:6100   */\n      swap2\n      swap1\n      pop\n      jump\t// out\n        /* \"#utility.yul\":6106:6183   */\n    tag_129:\n        /* \"#utility.yul\":6143:6150   */\n      0x00\n        /* \"#utility.yul\":6172:6177   */\n      dup2\n        /* \"#utility.yul\":6161:6177   */\n      swap1\n      pop\n        /* \"#utility.yul\":6106:6183   */\n      swap2\n      swap1\n      pop\n      jump\t// out\n        /* \"#utility.yul\":6189:6275   */\n    tag_133:\n        /* \"#utility.yul\":6224:6231   */\n      0x00\n        /* \"#utility.yul\":6264:6268   */\n      0xff\n        /* \"#utility.yul\":6257:6262   */\n      dup3\n        /* \"#utility.yul\":6253:6269   */\n      and\n        /* \"#utility.yul\":6242:6269   */\n      swap1\n      pop\n        /* \"#utility.yul\":6189:6275   */\n      swap2\n      swap1\n      pop\n      jump\t// out\n        /* \"#utility.yul\":6281:6461   */\n    tag_152:\n        /* \"#utility.yul\":6329:6406   */\n      0x4e487b7100000000000000000000000000000000000000000000000000000000\n        /* \"#utility.yul\":6326:6327   */\n      0x00\n        /* \"#utility.yul\":6319:6407   */\n      mstore\n        /* \"#utility.yul\":6426:6430   */\n      0x11\n        /* \"#utility.yul\":6423:6424   */\n      0x04\n        /* \"#utility.yul\":6416:6431   */\n      mstore\n        /* \"#utility.yul\":6450:6454   */\n      0x24\n        /* \"#utility.yul\":6447:6448   */\n      0x00\n        /* \"#utility.yul\":6440:6455   */\n      revert\n        /* \"#utility.yul\":6590:6707   */\n    tag_88:\n        /* \"#utility.yul\":6699:6700   */\n      0x00\n        /* \"#utility.yul\":6696:6697   */\n      dup1\n        /* \"#utility.yul\":6689:6701   */\n      revert\n        /* \"#utility.yul\":6713:6882   */\n    tag_125:\n        /* \"#utility.yul\":6853:6874   */\n      0x796f7572206e6f7420746865206d696e74657200000000000000000000000000\n        /* \"#utility.yul\":6849:6850   */\n      0x00\n        /* \"#utility.yul\":6841:6847   */\n      dup3\n        /* \"#utility.yul\":6837:6851   */\n      add\n        /* \"#utility.yul\":6830:6875   */\n      mstore\n        /* \"#utility.yul\":6713:6882   */\n      pop\n      jump\t// out\n        /* \"#utility.yul\":6888:7010   */\n    tag_80:\n        /* \"#utility.yul\":6961:6985   */\n      tag_171\n        /* \"#utility.yul\":6979:6984   */\n      dup2\n        /* \"#utility.yul\":6961:6985   */\n      tag_115\n      jump\t// in\n    tag_171:\n        /* \"#utility.yul\":6954:6959   */\n      dup2\n        /* \"#utility.yul\":6951:6986   */\n      eq\n        /* \"#utility.yul\":6941:7004   */\n      tag_172\n      jumpi\n        /* \"#utility.yul\":7000:7001   */\n      0x00\n        /* \"#utility.yul\":6997:6998   */\n      dup1\n        /* \"#utility.yul\":6990:7002   */\n      revert\n        /* \"#utility.yul\":6941:7004   */\n    tag_172:\n        /* \"#utility.yul\":6888:7010   */\n      pop\n      jump\t// out\n        /* \"#utility.yul\":7016:7138   */\n    tag_84:\n        /* \"#utility.yul\":7089:7113   */\n      tag_174\n        /* \"#utility.yul\":7107:7112   */\n      dup2\n        /* \"#utility.yul\":7089:7113   */\n      tag_129\n      jump\t// in\n    tag_174:\n        /* \"#utility.yul\":7082:7087   */\n      dup2\n        /* \"#utility.yul\":7079:7114   */\n      eq\n        /* \"#utility.yul\":7069:7132   */\n      tag_175\n      jumpi\n        /* \"#utility.yul\":7128:7129   */\n      0x00\n        /* \"#utility.yul\":7125:7126   */\n      dup1\n        /* \"#utility.yul\":7118:7130   */\n      revert\n        /* \"#utility.yul\":7069:7132   */\n    tag_175:\n        /* \"#utility.yul\":7016:7138   */\n      pop\n      jump\t// out\n\n    auxdata: 0xa2646970667358221220b885ba55ee848b3be414ab2bca9d43011ea3b3f5115eb2ce625ac8fe40edb7fb64736f6c63430008070033\n}\n",
				"bytecode": {
					"linkReferences": {},
					"object": "608060405234801561001057600080fd5b50336000806101000a81548173ffffffffffffffffffffffffffffffffffffffff021916908373ffffffffffffffffffffffffffffffffffffffff160217905550610ac1806100606000396000f3fe608060405234801561001057600080fd5b506004361061009e5760003560e01c806340c10f191161006657806340c10f191461015b57806356d287bf146101775780639dc29fac146101a7578063a9059cbb146101c3578063dd336c12146101df5761009e565b806313f27ae3146100a357806323b872dd146100c157806327e235e3146100dd5780632f5f1b6d1461010d578063313ce5671461013d575b600080fd5b6100ab61020f565b6040516100b89190610884565b60405180910390f35b6100db60048036038101906100d6919061073f565b610233565b005b6100f760048036038101906100f291906106d2565b6102e7565b60405161010491906108da565b60405180910390f35b610127600480360381019061012291906106ff565b6102ff565b60405161013491906108da565b60405180910390f35b610145610324565b60405161015291906108f5565b60405180910390f35b61017560048036038101906101709190610792565b610329565b005b610191600480360381019061018c91906107d2565b610411565b60405161019e919061089f565b60405180910390f35b6101c160048036038101906101bc9190610792565b61049f565b005b6101dd60048036038101906101d89190610792565b610587565b005b6101f960048036038101906101f491906106ff565b610683565b60405161020691906108da565b60405180910390f35b60008054906101000a900473ffffffffffffffffffffffffffffffffffffffff1681565b33925080600160008573ffffffffffffffffffffffffffffffffffffffff1673ffffffffffffffffffffffffffffffffffffffff16815260200190815260200160002060008282546102859190610977565b9250508190555080600160008473ffffffffffffffffffffffffffffffffffffffff1673ffffffffffffffffffffffffffffffffffffffff16815260200190815260200160002060008282546102db9190610921565b92505081905550505050565b60016020528060005260406000206000915090505481565b6002602052816000526040600020602052806000526040600020600091509150505481565b600c81565b60008054906101000a900473ffffffffffffffffffffffffffffffffffffffff1673ffffffffffffffffffffffffffffffffffffffff163373ffffffffffffffffffffffffffffffffffffffff16146103b7576040517f08c379a00000000000000000000000000000000000000000000000000000000081526004016103ae906108ba565b60405180910390fd5b80600160008473ffffffffffffffffffffffffffffffffffffffff1673ffffffffffffffffffffffffffffffffffffffff16815260200190815260200160002060008282546104069190610921565b925050819055505050565b600081600360003373ffffffffffffffffffffffffffffffffffffffff1673ffffffffffffffffffffffffffffffffffffffff16815260200190815260200160002060008673ffffffffffffffffffffffffffffffffffffffff1673ffffffffffffffffffffffffffffffffffffffff16815260200190815260200160002081905550600190509392505050565b60008054906101000a900473ffffffffffffffffffffffffffffffffffffffff1673ffffffffffffffffffffffffffffffffffffffff163373ffffffffffffffffffffffffffffffffffffffff161461052d576040517f08c379a0000000000000000000000000000000000000000000000000000000008152600401610524906108ba565b60405180910390fd5b80600160008473ffffffffffffffffffffffffffffffffffffffff1673ffffffffffffffffffffffffffffffffffffffff168152602001908152602001600020600082825461057c9190610977565b925050819055505050565b80600160003373ffffffffffffffffffffffffffffffffffffffff1673ffffffffffffffffffffffffffffffffffffffff1681526020019081526020016000205410156105d357600080fd5b80600160003373ffffffffffffffffffffffffffffffffffffffff1673ffffffffffffffffffffffffffffffffffffffff16815260200190815260200160002060008282546106229190610977565b9250508190555080600160008473ffffffffffffffffffffffffffffffffffffffff1673ffffffffffffffffffffffffffffffffffffffff16815260200190815260200160002060008282546106789190610921565b925050819055505050565b6003602052816000526040600020602052806000526040600020600091509150505481565b6000813590506106b781610a5d565b92915050565b6000813590506106cc81610a74565b92915050565b6000602082840312156106e8576106e7610a2f565b5b60006106f6848285016106a8565b91505092915050565b6000806040838503121561071657610715610a2f565b5b6000610724858286016106a8565b9250506020610735858286016106a8565b9150509250929050565b60008060006060848603121561075857610757610a2f565b5b6000610766868287016106a8565b9350506020610777868287016106a8565b9250506040610788868287016106bd565b9150509250925092565b600080604083850312156107a9576107a8610a2f565b5b60006107b7858286016106a8565b92505060206107c8858286016106bd565b9150509250929050565b6000806000606084860312156107eb576107ea610a2f565b5b60006107f9868287016106a8565b935050602061080a868287016106bd565b925050604061081b868287016106bd565b9150509250925092565b61082e816109ab565b82525050565b61083d816109bd565b82525050565b6000610850601383610910565b915061085b82610a34565b602082019050919050565b61086f816109e9565b82525050565b61087e816109f3565b82525050565b60006020820190506108996000830184610825565b92915050565b60006020820190506108b46000830184610834565b92915050565b600060208201905081810360008301526108d381610843565b9050919050565b60006020820190506108ef6000830184610866565b92915050565b600060208201905061090a6000830184610875565b92915050565b600082825260208201905092915050565b600061092c826109e9565b9150610937836109e9565b9250827fffffffffffffffffffffffffffffffffffffffffffffffffffffffffffffffff0382111561096c5761096b610a00565b5b828201905092915050565b6000610982826109e9565b915061098d836109e9565b9250828210156109a05761099f610a00565b5b828203905092915050565b60006109b6826109c9565b9050919050565b60008115159050919050565b600073ffffffffffffffffffffffffffffffffffffffff82169050919050565b6000819050919050565b600060ff82169050919050565b7f4e487b7100000000000000000000000000000000000000000000000000000000600052601160045260246000fd5b600080fd5b7f796f7572206e6f7420746865206d696e74657200000000000000000000000000600082015250565b610a66816109ab565b8114610a7157600080fd5b50565b610a7d816109e9565b8114610a8857600080fd5b5056fea2646970667358221220b885ba55ee848b3be414ab2bca9d43011ea3b3f5115eb2ce625ac8fe40edb7fb64736f6c63430008070033",
					"opcodes": "PUSH1 0x80 PUSH1 0x40 MSTORE CALLVALUE DUP1 ISZERO PUSH2 0x10 JUMPI PUSH1 0x0 DUP1 REVERT JUMPDEST POP CALLER PUSH1 0x0 DUP1 PUSH2 0x100 EXP DUP2 SLOAD DUP2 PUSH20 0xFFFFFFFFFFFFFFFFFFFFFFFFFFFFFFFFFFFFFFFF MUL NOT AND SWAP1 DUP4 PUSH20 0xFFFFFFFFFFFFFFFFFFFFFFFFFFFFFFFFFFFFFFFF AND MUL OR SWAP1 SSTORE POP PUSH2 0xAC1 DUP1 PUSH2 0x60 PUSH1 0x0 CODECOPY PUSH1 0x0 RETURN INVALID PUSH1 0x80 PUSH1 0x40 MSTORE CALLVALUE DUP1 ISZERO PUSH2 0x10 JUMPI PUSH1 0x0 DUP1 REVERT JUMPDEST POP PUSH1 0x4 CALLDATASIZE LT PUSH2 0x9E JUMPI PUSH1 0x0 CALLDATALOAD PUSH1 0xE0 SHR DUP1 PUSH4 0x40C10F19 GT PUSH2 0x66 JUMPI DUP1 PUSH4 0x40C10F19 EQ PUSH2 0x15B JUMPI DUP1 PUSH4 0x56D287BF EQ PUSH2 0x177 JUMPI DUP1 PUSH4 0x9DC29FAC EQ PUSH2 0x1A7 JUMPI DUP1 PUSH4 0xA9059CBB EQ PUSH2 0x1C3 JUMPI DUP1 PUSH4 0xDD336C12 EQ PUSH2 0x1DF JUMPI PUSH2 0x9E JUMP JUMPDEST DUP1 PUSH4 0x13F27AE3 EQ PUSH2 0xA3 JUMPI DUP1 PUSH4 0x23B872DD EQ PUSH2 0xC1 JUMPI DUP1 PUSH4 0x27E235E3 EQ PUSH2 0xDD JUMPI DUP1 PUSH4 0x2F5F1B6D EQ PUSH2 0x10D JUMPI DUP1 PUSH4 0x313CE567 EQ PUSH2 0x13D JUMPI JUMPDEST PUSH1 0x0 DUP1 REVERT JUMPDEST PUSH2 0xAB PUSH2 0x20F JUMP JUMPDEST PUSH1 0x40 MLOAD PUSH2 0xB8 SWAP2 SWAP1 PUSH2 0x884 JUMP JUMPDEST PUSH1 0x40 MLOAD DUP1 SWAP2 SUB SWAP1 RETURN JUMPDEST PUSH2 0xDB PUSH1 0x4 DUP1 CALLDATASIZE SUB DUP2 ADD SWAP1 PUSH2 0xD6 SWAP2 SWAP1 PUSH2 0x73F JUMP JUMPDEST PUSH2 0x233 JUMP JUMPDEST STOP JUMPDEST PUSH2 0xF7 PUSH1 0x4 DUP1 CALLDATASIZE SUB DUP2 ADD SWAP1 PUSH2 0xF2 SWAP2 SWAP1 PUSH2 0x6D2 JUMP JUMPDEST PUSH2 0x2E7 JUMP JUMPDEST PUSH1 0x40 MLOAD PUSH2 0x104 SWAP2 SWAP1 PUSH2 0x8DA JUMP JUMPDEST PUSH1 0x40 MLOAD DUP1 SWAP2 SUB SWAP1 RETURN JUMPDEST PUSH2 0x127 PUSH1 0x4 DUP1 CALLDATASIZE SUB DUP2 ADD SWAP1 PUSH2 0x122 SWAP2 SWAP1 PUSH2 0x6FF JUMP JUMPDEST PUSH2 0x2FF JUMP JUMPDEST PUSH1 0x40 MLOAD PUSH2 0x134 SWAP2 SWAP1 PUSH2 0x8DA JUMP JUMPDEST PUSH1 0x40 MLOAD DUP1 SWAP2 SUB SWAP1 RETURN JUMPDEST PUSH2 0x145 PUSH2 0x324 JUMP JUMPDEST PUSH1 0x40 MLOAD PUSH2 0x152 SWAP2 SWAP1 PUSH2 0x8F5 JUMP JUMPDEST PUSH1 0x40 MLOAD DUP1 SWAP2 SUB SWAP1 RETURN JUMPDEST PUSH2 0x175 PUSH1 0x4 DUP1 CALLDATASIZE SUB DUP2 ADD SWAP1 PUSH2 0x170 SWAP2 SWAP1 PUSH2 0x792 JUMP JUMPDEST PUSH2 0x329 JUMP JUMPDEST STOP JUMPDEST PUSH2 0x191 PUSH1 0x4 DUP1 CALLDATASIZE SUB DUP2 ADD SWAP1 PUSH2 0x18C SWAP2 SWAP1 PUSH2 0x7D2 JUMP JUMPDEST PUSH2 0x411 JUMP JUMPDEST PUSH1 0x40 MLOAD PUSH2 0x19E SWAP2 SWAP1 PUSH2 0x89F JUMP JUMPDEST PUSH1 0x40 MLOAD DUP1 SWAP2 SUB SWAP1 RETURN JUMPDEST PUSH2 0x1C1 PUSH1 0x4 DUP1 CALLDATASIZE SUB DUP2 ADD SWAP1 PUSH2 0x1BC SWAP2 SWAP1 PUSH2 0x792 JUMP JUMPDEST PUSH2 0x49F JUMP JUMPDEST STOP JUMPDEST PUSH2 0x1DD PUSH1 0x4 DUP1 CALLDATASIZE SUB DUP2 ADD SWAP1 PUSH2 0x1D8 SWAP2 SWAP1 PUSH2 0x792 JUMP JUMPDEST PUSH2 0x587 JUMP JUMPDEST STOP JUMPDEST PUSH2 0x1F9 PUSH1 0x4 DUP1 CALLDATASIZE SUB DUP2 ADD SWAP1 PUSH2 0x1F4 SWAP2 SWAP1 PUSH2 0x6FF JUMP JUMPDEST PUSH2 0x683 JUMP JUMPDEST PUSH1 0x40 MLOAD PUSH2 0x206 SWAP2 SWAP1 PUSH2 0x8DA JUMP JUMPDEST PUSH1 0x40 MLOAD DUP1 SWAP2 SUB SWAP1 RETURN JUMPDEST PUSH1 0x0 DUP1 SLOAD SWAP1 PUSH2 0x100 EXP SWAP1 DIV PUSH20 0xFFFFFFFFFFFFFFFFFFFFFFFFFFFFFFFFFFFFFFFF AND DUP2 JUMP JUMPDEST CALLER SWAP3 POP DUP1 PUSH1 0x1 PUSH1 0x0 DUP6 PUSH20 0xFFFFFFFFFFFFFFFFFFFFFFFFFFFFFFFFFFFFFFFF AND PUSH20 0xFFFFFFFFFFFFFFFFFFFFFFFFFFFFFFFFFFFFFFFF AND DUP2 MSTORE PUSH1 0x20 ADD SWAP1 DUP2 MSTORE PUSH1 0x20 ADD PUSH1 0x0 KECCAK256 PUSH1 0x0 DUP3 DUP3 SLOAD PUSH2 0x285 SWAP2 SWAP1 PUSH2 0x977 JUMP JUMPDEST SWAP3 POP POP DUP2 SWAP1 SSTORE POP DUP1 PUSH1 0x1 PUSH1 0x0 DUP5 PUSH20 0xFFFFFFFFFFFFFFFFFFFFFFFFFFFFFFFFFFFFFFFF AND PUSH20 0xFFFFFFFFFFFFFFFFFFFFFFFFFFFFFFFFFFFFFFFF AND DUP2 MSTORE PUSH1 0x20 ADD SWAP1 DUP2 MSTORE PUSH1 0x20 ADD PUSH1 0x0 KECCAK256 PUSH1 0x0 DUP3 DUP3 SLOAD PUSH2 0x2DB SWAP2 SWAP1 PUSH2 0x921 JUMP JUMPDEST SWAP3 POP POP DUP2 SWAP1 SSTORE POP POP POP POP JUMP JUMPDEST PUSH1 0x1 PUSH1 0x20 MSTORE DUP1 PUSH1 0x0 MSTORE PUSH1 0x40 PUSH1 0x0 KECCAK256 PUSH1 0x0 SWAP2 POP SWAP1 POP SLOAD DUP2 JUMP JUMPDEST PUSH1 0x2 PUSH1 0x20 MSTORE DUP2 PUSH1 0x0 MSTORE PUSH1 0x40 PUSH1 0x0 KECCAK256 PUSH1 0x20 MSTORE DUP1 PUSH1 0x0 MSTORE PUSH1 0x40 PUSH1 0x0 KECCAK256 PUSH1 0x0 SWAP2 POP SWAP2 POP POP SLOAD DUP2 JUMP JUMPDEST PUSH1 0xC DUP2 JUMP JUMPDEST PUSH1 0x0 DUP1 SLOAD SWAP1 PUSH2 0x100 EXP SWAP1 DIV PUSH20 0xFFFFFFFFFFFFFFFFFFFFFFFFFFFFFFFFFFFFFFFF AND PUSH20 0xFFFFFFFFFFFFFFFFFFFFFFFFFFFFFFFFFFFFFFFF AND CALLER PUSH20 0xFFFFFFFFFFFFFFFFFFFFFFFFFFFFFFFFFFFFFFFF AND EQ PUSH2 0x3B7 JUMPI PUSH1 0x40 MLOAD PUSH32 0x8C379A000000000000000000000000000000000000000000000000000000000 DUP2 MSTORE PUSH1 0x4 ADD PUSH2 0x3AE SWAP1 PUSH2 0x8BA JUMP JUMPDEST PUSH1 0x40 MLOAD DUP1 SWAP2 SUB SWAP1 REVERT JUMPDEST DUP1 PUSH1 0x1 PUSH1 0x0 DUP5 PUSH20 0xFFFFFFFFFFFFFFFFFFFFFFFFFFFFFFFFFFFFFFFF AND PUSH20 0xFFFFFFFFFFFFFFFFFFFFFFFFFFFFFFFFFFFFFFFF AND DUP2 MSTORE PUSH1 0x20 ADD SWAP1 DUP2 MSTORE PUSH1 0x20 ADD PUSH1 0x0 KECCAK256 PUSH1 0x0 DUP3 DUP3 SLOAD PUSH2 0x406 SWAP2 SWAP1 PUSH2 0x921 JUMP JUMPDEST SWAP3 POP POP DUP2 SWAP1 SSTORE POP POP POP JUMP JUMPDEST PUSH1 0x0 DUP2 PUSH1 0x3 PUSH1 0x0 CALLER PUSH20 0xFFFFFFFFFFFFFFFFFFFFFFFFFFFFFFFFFFFFFFFF AND PUSH20 0xFFFFFFFFFFFFFFFFFFFFFFFFFFFFFFFFFFFFFFFF AND DUP2 MSTORE PUSH1 0x20 ADD SWAP1 DUP2 MSTORE PUSH1 0x20 ADD PUSH1 0x0 KECCAK256 PUSH1 0x0 DUP7 PUSH20 0xFFFFFFFFFFFFFFFFFFFFFFFFFFFFFFFFFFFFFFFF AND PUSH20 0xFFFFFFFFFFFFFFFFFFFFFFFFFFFFFFFFFFFFFFFF AND DUP2 MSTORE PUSH1 0x20 ADD SWAP1 DUP2 MSTORE PUSH1 0x20 ADD PUSH1 0x0 KECCAK256 DUP2 SWAP1 SSTORE POP PUSH1 0x1 SWAP1 POP SWAP4 SWAP3 POP POP POP JUMP JUMPDEST PUSH1 0x0 DUP1 SLOAD SWAP1 PUSH2 0x100 EXP SWAP1 DIV PUSH20 0xFFFFFFFFFFFFFFFFFFFFFFFFFFFFFFFFFFFFFFFF AND PUSH20 0xFFFFFFFFFFFFFFFFFFFFFFFFFFFFFFFFFFFFFFFF AND CALLER PUSH20 0xFFFFFFFFFFFFFFFFFFFFFFFFFFFFFFFFFFFFFFFF AND EQ PUSH2 0x52D JUMPI PUSH1 0x40 MLOAD PUSH32 0x8C379A000000000000000000000000000000000000000000000000000000000 DUP2 MSTORE PUSH1 0x4 ADD PUSH2 0x524 SWAP1 PUSH2 0x8BA JUMP JUMPDEST PUSH1 0x40 MLOAD DUP1 SWAP2 SUB SWAP1 REVERT JUMPDEST DUP1 PUSH1 0x1 PUSH1 0x0 DUP5 PUSH20 0xFFFFFFFFFFFFFFFFFFFFFFFFFFFFFFFFFFFFFFFF AND PUSH20 0xFFFFFFFFFFFFFFFFFFFFFFFFFFFFFFFFFFFFFFFF AND DUP2 MSTORE PUSH1 0x20 ADD SWAP1 DUP2 MSTORE PUSH1 0x20 ADD PUSH1 0x0 KECCAK256 PUSH1 0x0 DUP3 DUP3 SLOAD PUSH2 0x57C SWAP2 SWAP1 PUSH2 0x977 JUMP JUMPDEST SWAP3 POP POP DUP2 SWAP1 SSTORE POP POP POP JUMP JUMPDEST DUP1 PUSH1 0x1 PUSH1 0x0 CALLER PUSH20 0xFFFFFFFFFFFFFFFFFFFFFFFFFFFFFFFFFFFFFFFF AND PUSH20 0xFFFFFFFFFFFFFFFFFFFFFFFFFFFFFFFFFFFFFFFF AND DUP2 MSTORE PUSH1 0x20 ADD SWAP1 DUP2 MSTORE PUSH1 0x20 ADD PUSH1 0x0 KECCAK256 SLOAD LT ISZERO PUSH2 0x5D3 JUMPI PUSH1 0x0 DUP1 REVERT JUMPDEST DUP1 PUSH1 0x1 PUSH1 0x0 CALLER PUSH20 0xFFFFFFFFFFFFFFFFFFFFFFFFFFFFFFFFFFFFFFFF AND PUSH20 0xFFFFFFFFFFFFFFFFFFFFFFFFFFFFFFFFFFFFFFFF AND DUP2 MSTORE PUSH1 0x20 ADD SWAP1 DUP2 MSTORE PUSH1 0x20 ADD PUSH1 0x0 KECCAK256 PUSH1 0x0 DUP3 DUP3 SLOAD PUSH2 0x622 SWAP2 SWAP1 PUSH2 0x977 JUMP JUMPDEST SWAP3 POP POP DUP2 SWAP1 SSTORE POP DUP1 PUSH1 0x1 PUSH1 0x0 DUP5 PUSH20 0xFFFFFFFFFFFFFFFFFFFFFFFFFFFFFFFFFFFFFFFF AND PUSH20 0xFFFFFFFFFFFFFFFFFFFFFFFFFFFFFFFFFFFFFFFF AND DUP2 MSTORE PUSH1 0x20 ADD SWAP1 DUP2 MSTORE PUSH1 0x20 ADD PUSH1 0x0 KECCAK256 PUSH1 0x0 DUP3 DUP3 SLOAD PUSH2 0x678 SWAP2 SWAP1 PUSH2 0x921 JUMP JUMPDEST SWAP3 POP POP DUP2 SWAP1 SSTORE POP POP POP JUMP JUMPDEST PUSH1 0x3 PUSH1 0x20 MSTORE DUP2 PUSH1 0x0 MSTORE PUSH1 0x40 PUSH1 0x0 KECCAK256 PUSH1 0x20 MSTORE DUP1 PUSH1 0x0 MSTORE PUSH1 0x40 PUSH1 0x0 KECCAK256 PUSH1 0x0 SWAP2 POP SWAP2 POP POP SLOAD DUP2 JUMP JUMPDEST PUSH1 0x0 DUP2 CALLDATALOAD SWAP1 POP PUSH2 0x6B7 DUP2 PUSH2 0xA5D JUMP JUMPDEST SWAP3 SWAP2 POP POP JUMP JUMPDEST PUSH1 0x0 DUP2 CALLDATALOAD SWAP1 POP PUSH2 0x6CC DUP2 PUSH2 0xA74 JUMP JUMPDEST SWAP3 SWAP2 POP POP JUMP JUMPDEST PUSH1 0x0 PUSH1 0x20 DUP3 DUP5 SUB SLT ISZERO PUSH2 0x6E8 JUMPI PUSH2 0x6E7 PUSH2 0xA2F JUMP JUMPDEST JUMPDEST PUSH1 0x0 PUSH2 0x6F6 DUP5 DUP3 DUP6 ADD PUSH2 0x6A8 JUMP JUMPDEST SWAP2 POP POP SWAP3 SWAP2 POP POP JUMP JUMPDEST PUSH1 0x0 DUP1 PUSH1 0x40 DUP4 DUP6 SUB SLT ISZERO PUSH2 0x716 JUMPI PUSH2 0x715 PUSH2 0xA2F JUMP JUMPDEST JUMPDEST PUSH1 0x0 PUSH2 0x724 DUP6 DUP3 DUP7 ADD PUSH2 0x6A8 JUMP JUMPDEST SWAP3 POP POP PUSH1 0x20 PUSH2 0x735 DUP6 DUP3 DUP7 ADD PUSH2 0x6A8 JUMP JUMPDEST SWAP2 POP POP SWAP3 POP SWAP3 SWAP1 POP JUMP JUMPDEST PUSH1 0x0 DUP1 PUSH1 0x0 PUSH1 0x60 DUP5 DUP7 SUB SLT ISZERO PUSH2 0x758 JUMPI PUSH2 0x757 PUSH2 0xA2F JUMP JUMPDEST JUMPDEST PUSH1 0x0 PUSH2 0x766 DUP7 DUP3 DUP8 ADD PUSH2 0x6A8 JUMP JUMPDEST SWAP4 POP POP PUSH1 0x20 PUSH2 0x777 DUP7 DUP3 DUP8 ADD PUSH2 0x6A8 JUMP JUMPDEST SWAP3 POP POP PUSH1 0x40 PUSH2 0x788 DUP7 DUP3 DUP8 ADD PUSH2 0x6BD JUMP JUMPDEST SWAP2 POP POP SWAP3 POP SWAP3 POP SWAP3 JUMP JUMPDEST PUSH1 0x0 DUP1 PUSH1 0x40 DUP4 DUP6 SUB SLT ISZERO PUSH2 0x7A9 JUMPI PUSH2 0x7A8 PUSH2 0xA2F JUMP JUMPDEST JUMPDEST PUSH1 0x0 PUSH2 0x7B7 DUP6 DUP3 DUP7 ADD PUSH2 0x6A8 JUMP JUMPDEST SWAP3 POP POP PUSH1 0x20 PUSH2 0x7C8 DUP6 DUP3 DUP7 ADD PUSH2 0x6BD JUMP JUMPDEST SWAP2 POP POP SWAP3 POP SWAP3 SWAP1 POP JUMP JUMPDEST PUSH1 0x0 DUP1 PUSH1 0x0 PUSH1 0x60 DUP5 DUP7 SUB SLT ISZERO PUSH2 0x7EB JUMPI PUSH2 0x7EA PUSH2 0xA2F JUMP JUMPDEST JUMPDEST PUSH1 0x0 PUSH2 0x7F9 DUP7 DUP3 DUP8 ADD PUSH2 0x6A8 JUMP JUMPDEST SWAP4 POP POP PUSH1 0x20 PUSH2 0x80A DUP7 DUP3 DUP8 ADD PUSH2 0x6BD JUMP JUMPDEST SWAP3 POP POP PUSH1 0x40 PUSH2 0x81B DUP7 DUP3 DUP8 ADD PUSH2 0x6BD JUMP JUMPDEST SWAP2 POP POP SWAP3 POP SWAP3 POP SWAP3 JUMP JUMPDEST PUSH2 0x82E DUP2 PUSH2 0x9AB JUMP JUMPDEST DUP3 MSTORE POP POP JUMP JUMPDEST PUSH2 0x83D DUP2 PUSH2 0x9BD JUMP JUMPDEST DUP3 MSTORE POP POP JUMP JUMPDEST PUSH1 0x0 PUSH2 0x850 PUSH1 0x13 DUP4 PUSH2 0x910 JUMP JUMPDEST SWAP2 POP PUSH2 0x85B DUP3 PUSH2 0xA34 JUMP JUMPDEST PUSH1 0x20 DUP3 ADD SWAP1 POP SWAP2 SWAP1 POP JUMP JUMPDEST PUSH2 0x86F DUP2 PUSH2 0x9E9 JUMP JUMPDEST DUP3 MSTORE POP POP JUMP JUMPDEST PUSH2 0x87E DUP2 PUSH2 0x9F3 JUMP JUMPDEST DUP3 MSTORE POP POP JUMP JUMPDEST PUSH1 0x0 PUSH1 0x20 DUP3 ADD SWAP1 POP PUSH2 0x899 PUSH1 0x0 DUP4 ADD DUP5 PUSH2 0x825 JUMP JUMPDEST SWAP3 SWAP2 POP POP JUMP JUMPDEST PUSH1 0x0 PUSH1 0x20 DUP3 ADD SWAP1 POP PUSH2 0x8B4 PUSH1 0x0 DUP4 ADD DUP5 PUSH2 0x834 JUMP JUMPDEST SWAP3 SWAP2 POP POP JUMP JUMPDEST PUSH1 0x0 PUSH1 0x20 DUP3 ADD SWAP1 POP DUP2 DUP2 SUB PUSH1 0x0 DUP4 ADD MSTORE PUSH2 0x8D3 DUP2 PUSH2 0x843 JUMP JUMPDEST SWAP1 POP SWAP2 SWAP1 POP JUMP JUMPDEST PUSH1 0x0 PUSH1 0x20 DUP3 ADD SWAP1 POP PUSH2 0x8EF PUSH1 0x0 DUP4 ADD DUP5 PUSH2 0x866 JUMP JUMPDEST SWAP3 SWAP2 POP POP JUMP JUMPDEST PUSH1 0x0 PUSH1 0x20 DUP3 ADD SWAP1 POP PUSH2 0x90A PUSH1 0x0 DUP4 ADD DUP5 PUSH2 0x875 JUMP JUMPDEST SWAP3 SWAP2 POP POP JUMP JUMPDEST PUSH1 0x0 DUP3 DUP3 MSTORE PUSH1 0x20 DUP3 ADD SWAP1 POP SWAP3 SWAP2 POP POP JUMP JUMPDEST PUSH1 0x0 PUSH2 0x92C DUP3 PUSH2 0x9E9 JUMP JUMPDEST SWAP2 POP PUSH2 0x937 DUP4 PUSH2 0x9E9 JUMP JUMPDEST SWAP3 POP DUP3 PUSH32 0xFFFFFFFFFFFFFFFFFFFFFFFFFFFFFFFFFFFFFFFFFFFFFFFFFFFFFFFFFFFFFFFF SUB DUP3 GT ISZERO PUSH2 0x96C JUMPI PUSH2 0x96B PUSH2 0xA00 JUMP JUMPDEST JUMPDEST DUP3 DUP3 ADD SWAP1 POP SWAP3 SWAP2 POP POP JUMP JUMPDEST PUSH1 0x0 PUSH2 0x982 DUP3 PUSH2 0x9E9 JUMP JUMPDEST SWAP2 POP PUSH2 0x98D DUP4 PUSH2 0x9E9 JUMP JUMPDEST SWAP3 POP DUP3 DUP3 LT ISZERO PUSH2 0x9A0 JUMPI PUSH2 0x99F PUSH2 0xA00 JUMP JUMPDEST JUMPDEST DUP3 DUP3 SUB SWAP1 POP SWAP3 SWAP2 POP POP JUMP JUMPDEST PUSH1 0x0 PUSH2 0x9B6 DUP3 PUSH2 0x9C9 JUMP JUMPDEST SWAP1 POP SWAP2 SWAP1 POP JUMP JUMPDEST PUSH1 0x0 DUP2 ISZERO ISZERO SWAP1 POP SWAP2 SWAP1 POP JUMP JUMPDEST PUSH1 0x0 PUSH20 0xFFFFFFFFFFFFFFFFFFFFFFFFFFFFFFFFFFFFFFFF DUP3 AND SWAP1 POP SWAP2 SWAP1 POP JUMP JUMPDEST PUSH1 0x0 DUP2 SWAP1 POP SWAP2 SWAP1 POP JUMP JUMPDEST PUSH1 0x0 PUSH1 0xFF DUP3 AND SWAP1 POP SWAP2 SWAP1 POP JUMP JUMPDEST PUSH32 0x4E487B7100000000000000000000000000000000000000000000000000000000 PUSH1 0x0 MSTORE PUSH1 0x11 PUSH1 0x4 MSTORE PUSH1 0x24 PUSH1 0x0 REVERT JUMPDEST PUSH1 0x0 DUP1 REVERT JUMPDEST PUSH32 0x796F7572206E6F7420746865206D696E74657200000000000000000000000000 PUSH1 0x0 DUP3 ADD MSTORE POP JUMP JUMPDEST PUSH2 0xA66 DUP2 PUSH2 0x9AB JUMP JUMPDEST DUP2 EQ PUSH2 0xA71 JUMPI PUSH1 0x0 DUP1 REVERT JUMPDEST POP JUMP JUMPDEST PUSH2 0xA7D DUP2 PUSH2 0x9E9 JUMP JUMPDEST DUP2 EQ PUSH2 0xA88 JUMPI PUSH1 0x0 DUP1 REVERT JUMPDEST POP JUMP INVALID LOG2 PUSH5 0x6970667358 0x22 SLT KECCAK256 0xB8 DUP6 0xBA SSTORE 0xEE DUP5 DUP12 EXTCODESIZE 0xE4 EQ 0xAB 0x2B 0xCA SWAP14 NUMBER ADD 0x1E LOG3 0xB3 CREATE2 GT 0x5E 0xB2 0xCE PUSH3 0x5AC8FE BLOCKHASH 0xED 0xB7 0xFB PUSH5 0x736F6C6343 STOP ADDMOD SMOD STOP CALLER "
				},
				"gasEstimates": {
					"creation": {
						"codeDepositCost": "550600",
						"executionCost": "24853",
						"totalCost": "575453"
					},
					"external": {
						"Approval(address,uint256,uint256)": "infinite",
						"_allowance(address,address)": "infinite",
						"_approval(address,address)": "infinite",
						"balances(address)": "2859",
						"burn(address,uint256)": "infinite",
						"decimals()": "424",
						"mint(address,uint256)": "infinite",
						"transfer(address,uint256)": "infinite",
						"transferFrom(address,address,uint256)": "infinite",
						"wakar()": "2512"
					}
				},
				"methodIdentifiers": {
					"Approval(address,uint256,uint256)": "56d287bf",
					"_allowance(address,address)": "dd336c12",
					"_approval(address,address)": "2f5f1b6d",
					"balances(address)": "27e235e3",
					"burn(address,uint256)": "9dc29fac",
					"decimals()": "313ce567",
					"mint(address,uint256)": "40c10f19",
					"transfer(address,uint256)": "a9059cbb",
					"transferFrom(address,address,uint256)": "23b872dd",
					"wakar()": "13f27ae3"
				}
			},
			"userdoc": {
				"kind": "user",
				"methods": {},
				"version": 1
			}
		}
	}
}