{
	"contracts/erc20.sol": {
		"MyToken": {
			"abi": [
				{
					"inputs": [],
					"stateMutability": "nonpayable",
					"type": "constructor"
				},
				{
					"inputs": [
						{
							"internalType": "address",
							"name": "",
							"type": "address"
						},
						{
							"internalType": "address",
							"name": "",
							"type": "address"
						}
					],
					"name": "_allo",
					"outputs": [
						{
							"internalType": "uint256",
							"name": "",
							"type": "uint256"
						}
					],
					"stateMutability": "view",
					"type": "function"
				},
				{
					"inputs": [
						{
							"internalType": "address",
							"name": "",
							"type": "address"
						},
						{
							"internalType": "address",
							"name": "",
							"type": "address"
						}
					],
					"name": "_allowances",
					"outputs": [
						{
							"internalType": "uint256",
							"name": "",
							"type": "uint256"
						}
					],
					"stateMutability": "view",
					"type": "function"
				},
				{
					"inputs": [
						{
							"internalType": "address",
							"name": "",
							"type": "address"
						}
					],
					"name": "balances",
					"outputs": [
						{
							"internalType": "uint256",
							"name": "",
							"type": "uint256"
						}
					],
					"stateMutability": "view",
					"type": "function"
				},
				{
					"inputs": [
						{
							"internalType": "address",
							"name": "receiver",
							"type": "address"
						},
						{
							"internalType": "uint256",
							"name": "amount",
							"type": "uint256"
						}
					],
					"name": "burn",
					"outputs": [],
					"stateMutability": "nonpayable",
					"type": "function"
				},
				{
					"inputs": [
						{
							"internalType": "address",
							"name": "receiver",
							"type": "address"
						},
						{
							"internalType": "uint256",
							"name": "amount",
							"type": "uint256"
						}
					],
					"name": "mint",
					"outputs": [],
					"stateMutability": "nonpayable",
					"type": "function"
				},
				{
					"inputs": [],
					"name": "minter",
					"outputs": [
						{
							"internalType": "address",
							"name": "",
							"type": "address"
						}
					],
					"stateMutability": "view",
					"type": "function"
				},
				{
					"inputs": [
						{
							"internalType": "address",
							"name": "receiver",
							"type": "address"
						},
						{
							"internalType": "uint256",
							"name": "amount",
							"type": "uint256"
						}
					],
					"name": "transfer",
					"outputs": [],
					"stateMutability": "nonpayable",
					"type": "function"
				}
			],
			"devdoc": {
				"kind": "dev",
				"methods": {},
				"version": 1
			},
			"evm": {
				"assembly": "    /* \"contracts/erc20.sol\":72:890  contract MyToken {\r... */\n  mstore(0x40, 0x80)\n    /* \"contracts/erc20.sol\":315:388  constructor() {\r... */\n  callvalue\n  dup1\n  iszero\n  tag_1\n  jumpi\n  0x00\n  dup1\n  revert\ntag_1:\n  pop\n    /* \"contracts/erc20.sol\":344:354  msg.sender */\n  caller\n    /* \"contracts/erc20.sol\":336:342  minter */\n  0x00\n  dup1\n    /* \"contracts/erc20.sol\":336:354  minter =msg.sender */\n  0x0100\n  exp\n  dup2\n  sload\n  dup2\n  0xffffffffffffffffffffffffffffffffffffffff\n  mul\n  not\n  and\n  swap1\n  dup4\n  0xffffffffffffffffffffffffffffffffffffffff\n  and\n  mul\n  or\n  swap1\n  sstore\n  pop\n    /* \"contracts/erc20.sol\":72:890  contract MyToken {\r... */\n  dataSize(sub_0)\n  dup1\n  dataOffset(sub_0)\n  0x00\n  codecopy\n  0x00\n  return\nstop\n\nsub_0: assembly {\n        /* \"contracts/erc20.sol\":72:890  contract MyToken {\r... */\n      mstore(0x40, 0x80)\n      callvalue\n      dup1\n      iszero\n      tag_1\n      jumpi\n      0x00\n      dup1\n      revert\n    tag_1:\n      pop\n      jumpi(tag_2, lt(calldatasize, 0x04))\n      shr(0xe0, calldataload(0x00))\n      dup1\n      0x40c10f19\n      gt\n      tag_10\n      jumpi\n      dup1\n      0x40c10f19\n      eq\n      tag_6\n      jumpi\n      dup1\n      0x70a16fcf\n      eq\n      tag_7\n      jumpi\n      dup1\n      0x9dc29fac\n      eq\n      tag_8\n      jumpi\n      dup1\n      0xa9059cbb\n      eq\n      tag_9\n      jumpi\n      jump(tag_2)\n    tag_10:\n      dup1\n      0x024c2ddd\n      eq\n      tag_3\n      jumpi\n      dup1\n      0x07546172\n      eq\n      tag_4\n      jumpi\n      dup1\n      0x27e235e3\n      eq\n      tag_5\n      jumpi\n    tag_2:\n      0x00\n      dup1\n      revert\n        /* \"contracts/erc20.sol\":181:244  mapping(address => mapping(address => uint)) public _allowances */\n    tag_3:\n      tag_11\n      0x04\n      dup1\n      calldatasize\n      sub\n      dup2\n      add\n      swap1\n      tag_12\n      swap2\n      swap1\n      tag_13\n      jump\t// in\n    tag_12:\n      tag_14\n      jump\t// in\n    tag_11:\n      mload(0x40)\n      tag_15\n      swap2\n      swap1\n      tag_16\n      jump\t// in\n    tag_15:\n      mload(0x40)\n      dup1\n      swap2\n      sub\n      swap1\n      return\n        /* \"contracts/erc20.sol\":96:117  address public minter */\n    tag_4:\n      tag_17\n      tag_18\n      jump\t// in\n    tag_17:\n      mload(0x40)\n      tag_19\n      swap2\n      swap1\n      tag_20\n      jump\t// in\n    tag_19:\n      mload(0x40)\n      dup1\n      swap2\n      sub\n      swap1\n      return\n        /* \"contracts/erc20.sol\":124:164  mapping (address =>uint) public balances */\n    tag_5:\n      tag_21\n      0x04\n      dup1\n      calldatasize\n      sub\n      dup2\n      add\n      swap1\n      tag_22\n      swap2\n      swap1\n      tag_23\n      jump\t// in\n    tag_22:\n      tag_24\n      jump\t// in\n    tag_21:\n      mload(0x40)\n      tag_25\n      swap2\n      swap1\n      tag_16\n      jump\t// in\n    tag_25:\n      mload(0x40)\n      dup1\n      swap2\n      sub\n      swap1\n      return\n        /* \"contracts/erc20.sol\":393:547  function mint(address receiver,uint amount) public {\r... */\n    tag_6:\n      tag_26\n      0x04\n      dup1\n      calldatasize\n      sub\n      dup2\n      add\n      swap1\n      tag_27\n      swap2\n      swap1\n      tag_28\n      jump\t// in\n    tag_27:\n      tag_29\n      jump\t// in\n    tag_26:\n      stop\n        /* \"contracts/erc20.sol\":251:308  mapping(address => mapping(address => uint)) public _allo */\n    tag_7:\n      tag_30\n      0x04\n      dup1\n      calldatasize\n      sub\n      dup2\n      add\n      swap1\n      tag_31\n      swap2\n      swap1\n      tag_13\n      jump\t// in\n    tag_31:\n      tag_32\n      jump\t// in\n    tag_30:\n      mload(0x40)\n      tag_33\n      swap2\n      swap1\n      tag_16\n      jump\t// in\n    tag_33:\n      mload(0x40)\n      dup1\n      swap2\n      sub\n      swap1\n      return\n        /* \"contracts/erc20.sol\":551:705  function burn(address receiver,uint amount) public {\r... */\n    tag_8:\n      tag_34\n      0x04\n      dup1\n      calldatasize\n      sub\n      dup2\n      add\n      swap1\n      tag_35\n      swap2\n      swap1\n      tag_28\n      jump\t// in\n    tag_35:\n      tag_36\n      jump\t// in\n    tag_34:\n      stop\n        /* \"contracts/erc20.sol\":709:887  function transfer(address receiver, uint amount) public {\r... */\n    tag_9:\n      tag_37\n      0x04\n      dup1\n      calldatasize\n      sub\n      dup2\n      add\n      swap1\n      tag_38\n      swap2\n      swap1\n      tag_28\n      jump\t// in\n    tag_38:\n      tag_39\n      jump\t// in\n    tag_37:\n      stop\n        /* \"contracts/erc20.sol\":181:244  mapping(address => mapping(address => uint)) public _allowances */\n    tag_14:\n      mstore(0x20, 0x02)\n      dup2\n      0x00\n      mstore\n      mstore(0x20, keccak256(0x00, 0x40))\n      dup1\n      0x00\n      mstore\n      keccak256(0x00, 0x40)\n      0x00\n      swap2\n      pop\n      swap2\n      pop\n      pop\n      sload\n      dup2\n      jump\t// out\n        /* \"contracts/erc20.sol\":96:117  address public minter */\n    tag_18:\n      0x00\n      dup1\n      sload\n      swap1\n      0x0100\n      exp\n      swap1\n      div\n      0xffffffffffffffffffffffffffffffffffffffff\n      and\n      dup2\n      jump\t// out\n        /* \"contracts/erc20.sol\":124:164  mapping (address =>uint) public balances */\n    tag_24:\n      mstore(0x20, 0x01)\n      dup1\n      0x00\n      mstore\n      keccak256(0x00, 0x40)\n      0x00\n      swap2\n      pop\n      swap1\n      pop\n      sload\n      dup2\n      jump\t// out\n        /* \"contracts/erc20.sol\":393:547  function mint(address receiver,uint amount) public {\r... */\n    tag_29:\n        /* \"contracts/erc20.sol\":476:482  minter */\n      0x00\n      dup1\n      sload\n      swap1\n      0x0100\n      exp\n      swap1\n      div\n      0xffffffffffffffffffffffffffffffffffffffff\n      and\n        /* \"contracts/erc20.sol\":462:482  msg.sender == minter */\n      0xffffffffffffffffffffffffffffffffffffffff\n      and\n        /* \"contracts/erc20.sol\":462:472  msg.sender */\n      caller\n        /* \"contracts/erc20.sol\":462:482  msg.sender == minter */\n      0xffffffffffffffffffffffffffffffffffffffff\n      and\n      eq\n        /* \"contracts/erc20.sol\":454:505  require(msg.sender == minter,\"your not the minter\") */\n      tag_41\n      jumpi\n      mload(0x40)\n      0x08c379a000000000000000000000000000000000000000000000000000000000\n      dup2\n      mstore\n      0x04\n      add\n      tag_42\n      swap1\n      tag_43\n      jump\t// in\n    tag_42:\n      mload(0x40)\n      dup1\n      swap2\n      sub\n      swap1\n      revert\n    tag_41:\n        /* \"contracts/erc20.sol\":537:543  amount */\n      dup1\n        /* \"contracts/erc20.sol\":515:523  balances */\n      0x01\n        /* \"contracts/erc20.sol\":515:533  balances[receiver] */\n      0x00\n        /* \"contracts/erc20.sol\":524:532  receiver */\n      dup5\n        /* \"contracts/erc20.sol\":515:533  balances[receiver] */\n      0xffffffffffffffffffffffffffffffffffffffff\n      and\n      0xffffffffffffffffffffffffffffffffffffffff\n      and\n      dup2\n      mstore\n      0x20\n      add\n      swap1\n      dup2\n      mstore\n      0x20\n      add\n      0x00\n      keccak256\n      0x00\n        /* \"contracts/erc20.sol\":515:543  balances[receiver] += amount */\n      dup3\n      dup3\n      sload\n      tag_44\n      swap2\n      swap1\n      tag_45\n      jump\t// in\n    tag_44:\n      swap3\n      pop\n      pop\n      dup2\n      swap1\n      sstore\n      pop\n        /* \"contracts/erc20.sol\":393:547  function mint(address receiver,uint amount) public {\r... */\n      pop\n      pop\n      jump\t// out\n        /* \"contracts/erc20.sol\":251:308  mapping(address => mapping(address => uint)) public _allo */\n    tag_32:\n      mstore(0x20, 0x03)\n      dup2\n      0x00\n      mstore\n      mstore(0x20, keccak256(0x00, 0x40))\n      dup1\n      0x00\n      mstore\n      keccak256(0x00, 0x40)\n      0x00\n      swap2\n      pop\n      swap2\n      pop\n      pop\n      sload\n      dup2\n      jump\t// out\n        /* \"contracts/erc20.sol\":551:705  function burn(address receiver,uint amount) public {\r... */\n    tag_36:\n        /* \"contracts/erc20.sol\":634:640  minter */\n      0x00\n      dup1\n      sload\n      swap1\n      0x0100\n      exp\n      swap1\n      div\n      0xffffffffffffffffffffffffffffffffffffffff\n      and\n        /* \"contracts/erc20.sol\":620:640  msg.sender == minter */\n      0xffffffffffffffffffffffffffffffffffffffff\n      and\n        /* \"contracts/erc20.sol\":620:630  msg.sender */\n      caller\n        /* \"contracts/erc20.sol\":620:640  msg.sender == minter */\n      0xffffffffffffffffffffffffffffffffffffffff\n      and\n      eq\n        /* \"contracts/erc20.sol\":612:663  require(msg.sender == minter,\"your not the minter\") */\n      tag_47\n      jumpi\n      mload(0x40)\n      0x08c379a000000000000000000000000000000000000000000000000000000000\n      dup2\n      mstore\n      0x04\n      add\n      tag_48\n      swap1\n      tag_43\n      jump\t// in\n    tag_48:\n      mload(0x40)\n      dup1\n      swap2\n      sub\n      swap1\n      revert\n    tag_47:\n        /* \"contracts/erc20.sol\":695:701  amount */\n      dup1\n        /* \"contracts/erc20.sol\":673:681  balances */\n      0x01\n        /* \"contracts/erc20.sol\":673:691  balances[receiver] */\n      0x00\n        /* \"contracts/erc20.sol\":682:690  receiver */\n      dup5\n        /* \"contracts/erc20.sol\":673:691  balances[receiver] */\n      0xffffffffffffffffffffffffffffffffffffffff\n      and\n      0xffffffffffffffffffffffffffffffffffffffff\n      and\n      dup2\n      mstore\n      0x20\n      add\n      swap1\n      dup2\n      mstore\n      0x20\n      add\n      0x00\n      keccak256\n      0x00\n        /* \"contracts/erc20.sol\":673:701  balances[receiver] -= amount */\n      dup3\n      dup3\n      sload\n      tag_49\n      swap2\n      swap1\n      tag_50\n      jump\t// in\n    tag_49:\n      swap3\n      pop\n      pop\n      dup2\n      swap1\n      sstore\n      pop\n        /* \"contracts/erc20.sol\":551:705  function burn(address receiver,uint amount) public {\r... */\n      pop\n      pop\n      jump\t// out\n        /* \"contracts/erc20.sol\":709:887  function transfer(address receiver, uint amount) public {\r... */\n    tag_39:\n        /* \"contracts/erc20.sol\":802:808  amount */\n      dup1\n        /* \"contracts/erc20.sol\":780:788  balances */\n      0x01\n        /* \"contracts/erc20.sol\":780:800  balances[msg.sender] */\n      0x00\n        /* \"contracts/erc20.sol\":789:799  msg.sender */\n      caller\n        /* \"contracts/erc20.sol\":780:800  balances[msg.sender] */\n      0xffffffffffffffffffffffffffffffffffffffff\n      and\n      0xffffffffffffffffffffffffffffffffffffffff\n      and\n      dup2\n      mstore\n      0x20\n      add\n      swap1\n      dup2\n      mstore\n      0x20\n      add\n      0x00\n      keccak256\n      sload\n        /* \"contracts/erc20.sol\":780:808  balances[msg.sender]>=amount */\n      lt\n      iszero\n        /* \"contracts/erc20.sol\":772:809  require(balances[msg.sender]>=amount) */\n      tag_52\n      jumpi\n      0x00\n      dup1\n      revert\n    tag_52:\n        /* \"contracts/erc20.sol\":840:846  amount */\n      dup1\n        /* \"contracts/erc20.sol\":816:824  balances */\n      0x01\n        /* \"contracts/erc20.sol\":816:836  balances[msg.sender] */\n      0x00\n        /* \"contracts/erc20.sol\":825:835  msg.sender */\n      caller\n        /* \"contracts/erc20.sol\":816:836  balances[msg.sender] */\n      0xffffffffffffffffffffffffffffffffffffffff\n      and\n      0xffffffffffffffffffffffffffffffffffffffff\n      and\n      dup2\n      mstore\n      0x20\n      add\n      swap1\n      dup2\n      mstore\n      0x20\n      add\n      0x00\n      keccak256\n      0x00\n        /* \"contracts/erc20.sol\":816:846  balances[msg.sender] -= amount */\n      dup3\n      dup3\n      sload\n      tag_53\n      swap2\n      swap1\n      tag_50\n      jump\t// in\n    tag_53:\n      swap3\n      pop\n      pop\n      dup2\n      swap1\n      sstore\n      pop\n        /* \"contracts/erc20.sol\":875:881  amount */\n      dup1\n        /* \"contracts/erc20.sol\":853:861  balances */\n      0x01\n        /* \"contracts/erc20.sol\":853:871  balances[receiver] */\n      0x00\n        /* \"contracts/erc20.sol\":862:870  receiver */\n      dup5\n        /* \"contracts/erc20.sol\":853:871  balances[receiver] */\n      0xffffffffffffffffffffffffffffffffffffffff\n      and\n      0xffffffffffffffffffffffffffffffffffffffff\n      and\n      dup2\n      mstore\n      0x20\n      add\n      swap1\n      dup2\n      mstore\n      0x20\n      add\n      0x00\n      keccak256\n      0x00\n        /* \"contracts/erc20.sol\":853:881  balances[receiver] += amount */\n      dup3\n      dup3\n      sload\n      tag_54\n      swap2\n      swap1\n      tag_45\n      jump\t// in\n    tag_54:\n      swap3\n      pop\n      pop\n      dup2\n      swap1\n      sstore\n      pop\n        /* \"contracts/erc20.sol\":709:887  function transfer(address receiver, uint amount) public {\r... */\n      pop\n      pop\n      jump\t// out\n        /* \"#utility.yul\":7:146   */\n    tag_56:\n        /* \"#utility.yul\":53:58   */\n      0x00\n        /* \"#utility.yul\":91:97   */\n      dup2\n        /* \"#utility.yul\":78:98   */\n      calldataload\n        /* \"#utility.yul\":69:98   */\n      swap1\n      pop\n        /* \"#utility.yul\":107:140   */\n      tag_58\n        /* \"#utility.yul\":134:139   */\n      dup2\n        /* \"#utility.yul\":107:140   */\n      tag_59\n      jump\t// in\n    tag_58:\n        /* \"#utility.yul\":7:146   */\n      swap3\n      swap2\n      pop\n      pop\n      jump\t// out\n        /* \"#utility.yul\":152:291   */\n    tag_60:\n        /* \"#utility.yul\":198:203   */\n      0x00\n        /* \"#utility.yul\":236:242   */\n      dup2\n        /* \"#utility.yul\":223:243   */\n      calldataload\n        /* \"#utility.yul\":214:243   */\n      swap1\n      pop\n        /* \"#utility.yul\":252:285   */\n      tag_62\n        /* \"#utility.yul\":279:284   */\n      dup2\n        /* \"#utility.yul\":252:285   */\n      tag_63\n      jump\t// in\n    tag_62:\n        /* \"#utility.yul\":152:291   */\n      swap3\n      swap2\n      pop\n      pop\n      jump\t// out\n        /* \"#utility.yul\":297:626   */\n    tag_23:\n        /* \"#utility.yul\":356:362   */\n      0x00\n        /* \"#utility.yul\":405:407   */\n      0x20\n        /* \"#utility.yul\":393:402   */\n      dup3\n        /* \"#utility.yul\":384:391   */\n      dup5\n        /* \"#utility.yul\":380:403   */\n      sub\n        /* \"#utility.yul\":376:408   */\n      slt\n        /* \"#utility.yul\":373:492   */\n      iszero\n      tag_65\n      jumpi\n        /* \"#utility.yul\":411:490   */\n      tag_66\n      tag_67\n      jump\t// in\n    tag_66:\n        /* \"#utility.yul\":373:492   */\n    tag_65:\n        /* \"#utility.yul\":531:532   */\n      0x00\n        /* \"#utility.yul\":556:609   */\n      tag_68\n        /* \"#utility.yul\":601:608   */\n      dup5\n        /* \"#utility.yul\":592:598   */\n      dup3\n        /* \"#utility.yul\":581:590   */\n      dup6\n        /* \"#utility.yul\":577:599   */\n      add\n        /* \"#utility.yul\":556:609   */\n      tag_56\n      jump\t// in\n    tag_68:\n        /* \"#utility.yul\":546:609   */\n      swap2\n      pop\n        /* \"#utility.yul\":502:619   */\n      pop\n        /* \"#utility.yul\":297:626   */\n      swap3\n      swap2\n      pop\n      pop\n      jump\t// out\n        /* \"#utility.yul\":632:1106   */\n    tag_13:\n        /* \"#utility.yul\":700:706   */\n      0x00\n        /* \"#utility.yul\":708:714   */\n      dup1\n        /* \"#utility.yul\":757:759   */\n      0x40\n        /* \"#utility.yul\":745:754   */\n      dup4\n        /* \"#utility.yul\":736:743   */\n      dup6\n        /* \"#utility.yul\":732:755   */\n      sub\n        /* \"#utility.yul\":728:760   */\n      slt\n        /* \"#utility.yul\":725:844   */\n      iszero\n      tag_70\n      jumpi\n        /* \"#utility.yul\":763:842   */\n      tag_71\n      tag_67\n      jump\t// in\n    tag_71:\n        /* \"#utility.yul\":725:844   */\n    tag_70:\n        /* \"#utility.yul\":883:884   */\n      0x00\n        /* \"#utility.yul\":908:961   */\n      tag_72\n        /* \"#utility.yul\":953:960   */\n      dup6\n        /* \"#utility.yul\":944:950   */\n      dup3\n        /* \"#utility.yul\":933:942   */\n      dup7\n        /* \"#utility.yul\":929:951   */\n      add\n        /* \"#utility.yul\":908:961   */\n      tag_56\n      jump\t// in\n    tag_72:\n        /* \"#utility.yul\":898:961   */\n      swap3\n      pop\n        /* \"#utility.yul\":854:971   */\n      pop\n        /* \"#utility.yul\":1010:1012   */\n      0x20\n        /* \"#utility.yul\":1036:1089   */\n      tag_73\n        /* \"#utility.yul\":1081:1088   */\n      dup6\n        /* \"#utility.yul\":1072:1078   */\n      dup3\n        /* \"#utility.yul\":1061:1070   */\n      dup7\n        /* \"#utility.yul\":1057:1079   */\n      add\n        /* \"#utility.yul\":1036:1089   */\n      tag_56\n      jump\t// in\n    tag_73:\n        /* \"#utility.yul\":1026:1089   */\n      swap2\n      pop\n        /* \"#utility.yul\":981:1099   */\n      pop\n        /* \"#utility.yul\":632:1106   */\n      swap3\n      pop\n      swap3\n      swap1\n      pop\n      jump\t// out\n        /* \"#utility.yul\":1112:1586   */\n    tag_28:\n        /* \"#utility.yul\":1180:1186   */\n      0x00\n        /* \"#utility.yul\":1188:1194   */\n      dup1\n        /* \"#utility.yul\":1237:1239   */\n      0x40\n        /* \"#utility.yul\":1225:1234   */\n      dup4\n        /* \"#utility.yul\":1216:1223   */\n      dup6\n        /* \"#utility.yul\":1212:1235   */\n      sub\n        /* \"#utility.yul\":1208:1240   */\n      slt\n        /* \"#utility.yul\":1205:1324   */\n      iszero\n      tag_75\n      jumpi\n        /* \"#utility.yul\":1243:1322   */\n      tag_76\n      tag_67\n      jump\t// in\n    tag_76:\n        /* \"#utility.yul\":1205:1324   */\n    tag_75:\n        /* \"#utility.yul\":1363:1364   */\n      0x00\n        /* \"#utility.yul\":1388:1441   */\n      tag_77\n        /* \"#utility.yul\":1433:1440   */\n      dup6\n        /* \"#utility.yul\":1424:1430   */\n      dup3\n        /* \"#utility.yul\":1413:1422   */\n      dup7\n        /* \"#utility.yul\":1409:1431   */\n      add\n        /* \"#utility.yul\":1388:1441   */\n      tag_56\n      jump\t// in\n    tag_77:\n        /* \"#utility.yul\":1378:1441   */\n      swap3\n      pop\n        /* \"#utility.yul\":1334:1451   */\n      pop\n        /* \"#utility.yul\":1490:1492   */\n      0x20\n        /* \"#utility.yul\":1516:1569   */\n      tag_78\n        /* \"#utility.yul\":1561:1568   */\n      dup6\n        /* \"#utility.yul\":1552:1558   */\n      dup3\n        /* \"#utility.yul\":1541:1550   */\n      dup7\n        /* \"#utility.yul\":1537:1559   */\n      add\n        /* \"#utility.yul\":1516:1569   */\n      tag_60\n      jump\t// in\n    tag_78:\n        /* \"#utility.yul\":1506:1569   */\n      swap2\n      pop\n        /* \"#utility.yul\":1461:1579   */\n      pop\n        /* \"#utility.yul\":1112:1586   */\n      swap3\n      pop\n      swap3\n      swap1\n      pop\n      jump\t// out\n        /* \"#utility.yul\":1592:1710   */\n    tag_79:\n        /* \"#utility.yul\":1679:1703   */\n      tag_81\n        /* \"#utility.yul\":1697:1702   */\n      dup2\n        /* \"#utility.yul\":1679:1703   */\n      tag_82\n      jump\t// in\n    tag_81:\n        /* \"#utility.yul\":1674:1677   */\n      dup3\n        /* \"#utility.yul\":1667:1704   */\n      mstore\n        /* \"#utility.yul\":1592:1710   */\n      pop\n      pop\n      jump\t// out\n        /* \"#utility.yul\":1716:2082   */\n    tag_83:\n        /* \"#utility.yul\":1858:1861   */\n      0x00\n        /* \"#utility.yul\":1879:1946   */\n      tag_85\n        /* \"#utility.yul\":1943:1945   */\n      0x13\n        /* \"#utility.yul\":1938:1941   */\n      dup4\n        /* \"#utility.yul\":1879:1946   */\n      tag_86\n      jump\t// in\n    tag_85:\n        /* \"#utility.yul\":1872:1946   */\n      swap2\n      pop\n        /* \"#utility.yul\":1955:2048   */\n      tag_87\n        /* \"#utility.yul\":2044:2047   */\n      dup3\n        /* \"#utility.yul\":1955:2048   */\n      tag_88\n      jump\t// in\n    tag_87:\n        /* \"#utility.yul\":2073:2075   */\n      0x20\n        /* \"#utility.yul\":2068:2071   */\n      dup3\n        /* \"#utility.yul\":2064:2076   */\n      add\n        /* \"#utility.yul\":2057:2076   */\n      swap1\n      pop\n        /* \"#utility.yul\":1716:2082   */\n      swap2\n      swap1\n      pop\n      jump\t// out\n        /* \"#utility.yul\":2088:2206   */\n    tag_89:\n        /* \"#utility.yul\":2175:2199   */\n      tag_91\n        /* \"#utility.yul\":2193:2198   */\n      dup2\n        /* \"#utility.yul\":2175:2199   */\n      tag_92\n      jump\t// in\n    tag_91:\n        /* \"#utility.yul\":2170:2173   */\n      dup3\n        /* \"#utility.yul\":2163:2200   */\n      mstore\n        /* \"#utility.yul\":2088:2206   */\n      pop\n      pop\n      jump\t// out\n        /* \"#utility.yul\":2212:2434   */\n    tag_20:\n        /* \"#utility.yul\":2305:2309   */\n      0x00\n        /* \"#utility.yul\":2343:2345   */\n      0x20\n        /* \"#utility.yul\":2332:2341   */\n      dup3\n        /* \"#utility.yul\":2328:2346   */\n      add\n        /* \"#utility.yul\":2320:2346   */\n      swap1\n      pop\n        /* \"#utility.yul\":2356:2427   */\n      tag_94\n        /* \"#utility.yul\":2424:2425   */\n      0x00\n        /* \"#utility.yul\":2413:2422   */\n      dup4\n        /* \"#utility.yul\":2409:2426   */\n      add\n        /* \"#utility.yul\":2400:2406   */\n      dup5\n        /* \"#utility.yul\":2356:2427   */\n      tag_79\n      jump\t// in\n    tag_94:\n        /* \"#utility.yul\":2212:2434   */\n      swap3\n      swap2\n      pop\n      pop\n      jump\t// out\n        /* \"#utility.yul\":2440:2859   */\n    tag_43:\n        /* \"#utility.yul\":2606:2610   */\n      0x00\n        /* \"#utility.yul\":2644:2646   */\n      0x20\n        /* \"#utility.yul\":2633:2642   */\n      dup3\n        /* \"#utility.yul\":2629:2647   */\n      add\n        /* \"#utility.yul\":2621:2647   */\n      swap1\n      pop\n        /* \"#utility.yul\":2693:2702   */\n      dup2\n        /* \"#utility.yul\":2687:2691   */\n      dup2\n        /* \"#utility.yul\":2683:2703   */\n      sub\n        /* \"#utility.yul\":2679:2680   */\n      0x00\n        /* \"#utility.yul\":2668:2677   */\n      dup4\n        /* \"#utility.yul\":2664:2681   */\n      add\n        /* \"#utility.yul\":2657:2704   */\n      mstore\n        /* \"#utility.yul\":2721:2852   */\n      tag_96\n        /* \"#utility.yul\":2847:2851   */\n      dup2\n        /* \"#utility.yul\":2721:2852   */\n      tag_83\n      jump\t// in\n    tag_96:\n        /* \"#utility.yul\":2713:2852   */\n      swap1\n      pop\n        /* \"#utility.yul\":2440:2859   */\n      swap2\n      swap1\n      pop\n      jump\t// out\n        /* \"#utility.yul\":2865:3087   */\n    tag_16:\n        /* \"#utility.yul\":2958:2962   */\n      0x00\n        /* \"#utility.yul\":2996:2998   */\n      0x20\n        /* \"#utility.yul\":2985:2994   */\n      dup3\n        /* \"#utility.yul\":2981:2999   */\n      add\n        /* \"#utility.yul\":2973:2999   */\n      swap1\n      pop\n        /* \"#utility.yul\":3009:3080   */\n      tag_98\n        /* \"#utility.yul\":3077:3078   */\n      0x00\n        /* \"#utility.yul\":3066:3075   */\n      dup4\n        /* \"#utility.yul\":3062:3079   */\n      add\n        /* \"#utility.yul\":3053:3059   */\n      dup5\n        /* \"#utility.yul\":3009:3080   */\n      tag_89\n      jump\t// in\n    tag_98:\n        /* \"#utility.yul\":2865:3087   */\n      swap3\n      swap2\n      pop\n      pop\n      jump\t// out\n        /* \"#utility.yul\":3174:3343   */\n    tag_86:\n        /* \"#utility.yul\":3258:3269   */\n      0x00\n        /* \"#utility.yul\":3292:3298   */\n      dup3\n        /* \"#utility.yul\":3287:3290   */\n      dup3\n        /* \"#utility.yul\":3280:3299   */\n      mstore\n        /* \"#utility.yul\":3332:3336   */\n      0x20\n        /* \"#utility.yul\":3327:3330   */\n      dup3\n        /* \"#utility.yul\":3323:3337   */\n      add\n        /* \"#utility.yul\":3308:3337   */\n      swap1\n      pop\n        /* \"#utility.yul\":3174:3343   */\n      swap3\n      swap2\n      pop\n      pop\n      jump\t// out\n        /* \"#utility.yul\":3349:3654   */\n    tag_45:\n        /* \"#utility.yul\":3389:3392   */\n      0x00\n        /* \"#utility.yul\":3408:3428   */\n      tag_103\n        /* \"#utility.yul\":3426:3427   */\n      dup3\n        /* \"#utility.yul\":3408:3428   */\n      tag_92\n      jump\t// in\n    tag_103:\n        /* \"#utility.yul\":3403:3428   */\n      swap2\n      pop\n        /* \"#utility.yul\":3442:3462   */\n      tag_104\n        /* \"#utility.yul\":3460:3461   */\n      dup4\n        /* \"#utility.yul\":3442:3462   */\n      tag_92\n      jump\t// in\n    tag_104:\n        /* \"#utility.yul\":3437:3462   */\n      swap3\n      pop\n        /* \"#utility.yul\":3596:3597   */\n      dup3\n        /* \"#utility.yul\":3528:3594   */\n      0xffffffffffffffffffffffffffffffffffffffffffffffffffffffffffffffff\n        /* \"#utility.yul\":3524:3598   */\n      sub\n        /* \"#utility.yul\":3521:3522   */\n      dup3\n        /* \"#utility.yul\":3518:3599   */\n      gt\n        /* \"#utility.yul\":3515:3622   */\n      iszero\n      tag_105\n      jumpi\n        /* \"#utility.yul\":3602:3620   */\n      tag_106\n      tag_107\n      jump\t// in\n    tag_106:\n        /* \"#utility.yul\":3515:3622   */\n    tag_105:\n        /* \"#utility.yul\":3646:3647   */\n      dup3\n        /* \"#utility.yul\":3643:3644   */\n      dup3\n        /* \"#utility.yul\":3639:3648   */\n      add\n        /* \"#utility.yul\":3632:3648   */\n      swap1\n      pop\n        /* \"#utility.yul\":3349:3654   */\n      swap3\n      swap2\n      pop\n      pop\n      jump\t// out\n        /* \"#utility.yul\":3660:3851   */\n    tag_50:\n        /* \"#utility.yul\":3700:3704   */\n      0x00\n        /* \"#utility.yul\":3720:3740   */\n      tag_109\n        /* \"#utility.yul\":3738:3739   */\n      dup3\n        /* \"#utility.yul\":3720:3740   */\n      tag_92\n      jump\t// in\n    tag_109:\n        /* \"#utility.yul\":3715:3740   */\n      swap2\n      pop\n        /* \"#utility.yul\":3754:3774   */\n      tag_110\n        /* \"#utility.yul\":3772:3773   */\n      dup4\n        /* \"#utility.yul\":3754:3774   */\n      tag_92\n      jump\t// in\n    tag_110:\n        /* \"#utility.yul\":3749:3774   */\n      swap3\n      pop\n        /* \"#utility.yul\":3793:3794   */\n      dup3\n        /* \"#utility.yul\":3790:3791   */\n      dup3\n        /* \"#utility.yul\":3787:3795   */\n      lt\n        /* \"#utility.yul\":3784:3818   */\n      iszero\n      tag_111\n      jumpi\n        /* \"#utility.yul\":3798:3816   */\n      tag_112\n      tag_107\n      jump\t// in\n    tag_112:\n        /* \"#utility.yul\":3784:3818   */\n    tag_111:\n        /* \"#utility.yul\":3843:3844   */\n      dup3\n        /* \"#utility.yul\":3840:3841   */\n      dup3\n        /* \"#utility.yul\":3836:3845   */\n      sub\n        /* \"#utility.yul\":3828:3845   */\n      swap1\n      pop\n        /* \"#utility.yul\":3660:3851   */\n      swap3\n      swap2\n      pop\n      pop\n      jump\t// out\n        /* \"#utility.yul\":3857:3953   */\n    tag_82:\n        /* \"#utility.yul\":3894:3901   */\n      0x00\n        /* \"#utility.yul\":3923:3947   */\n      tag_114\n        /* \"#utility.yul\":3941:3946   */\n      dup3\n        /* \"#utility.yul\":3923:3947   */\n      tag_115\n      jump\t// in\n    tag_114:\n        /* \"#utility.yul\":3912:3947   */\n      swap1\n      pop\n        /* \"#utility.yul\":3857:3953   */\n      swap2\n      swap1\n      pop\n      jump\t// out\n        /* \"#utility.yul\":3959:4085   */\n    tag_115:\n        /* \"#utility.yul\":3996:4003   */\n      0x00\n        /* \"#utility.yul\":4036:4078   */\n      0xffffffffffffffffffffffffffffffffffffffff\n        /* \"#utility.yul\":4029:4034   */\n      dup3\n        /* \"#utility.yul\":4025:4079   */\n      and\n        /* \"#utility.yul\":4014:4079   */\n      swap1\n      pop\n        /* \"#utility.yul\":3959:4085   */\n      swap2\n      swap1\n      pop\n      jump\t// out\n        /* \"#utility.yul\":4091:4168   */\n    tag_92:\n        /* \"#utility.yul\":4128:4135   */\n      0x00\n        /* \"#utility.yul\":4157:4162   */\n      dup2\n        /* \"#utility.yul\":4146:4162   */\n      swap1\n      pop\n        /* \"#utility.yul\":4091:4168   */\n      swap2\n      swap1\n      pop\n      jump\t// out\n        /* \"#utility.yul\":4174:4354   */\n    tag_107:\n        /* \"#utility.yul\":4222:4299   */\n      0x4e487b7100000000000000000000000000000000000000000000000000000000\n        /* \"#utility.yul\":4219:4220   */\n      0x00\n        /* \"#utility.yul\":4212:4300   */\n      mstore\n        /* \"#utility.yul\":4319:4323   */\n      0x11\n        /* \"#utility.yul\":4316:4317   */\n      0x04\n        /* \"#utility.yul\":4309:4324   */\n      mstore\n        /* \"#utility.yul\":4343:4347   */\n      0x24\n        /* \"#utility.yul\":4340:4341   */\n      0x00\n        /* \"#utility.yul\":4333:4348   */\n      revert\n        /* \"#utility.yul\":4483:4600   */\n    tag_67:\n        /* \"#utility.yul\":4592:4593   */\n      0x00\n        /* \"#utility.yul\":4589:4590   */\n      dup1\n        /* \"#utility.yul\":4582:4594   */\n      revert\n        /* \"#utility.yul\":4606:4775   */\n    tag_88:\n        /* \"#utility.yul\":4746:4767   */\n      0x796f7572206e6f7420746865206d696e74657200000000000000000000000000\n        /* \"#utility.yul\":4742:4743   */\n      0x00\n        /* \"#utility.yul\":4734:4740   */\n      dup3\n        /* \"#utility.yul\":4730:4744   */\n      add\n        /* \"#utility.yul\":4723:4768   */\n      mstore\n        /* \"#utility.yul\":4606:4775   */\n      pop\n      jump\t// out\n        /* \"#utility.yul\":4781:4903   */\n    tag_59:\n        /* \"#utility.yul\":4854:4878   */\n      tag_124\n        /* \"#utility.yul\":4872:4877   */\n      dup2\n        /* \"#utility.yul\":4854:4878   */\n      tag_82\n      jump\t// in\n    tag_124:\n        /* \"#utility.yul\":4847:4852   */\n      dup2\n        /* \"#utility.yul\":4844:4879   */\n      eq\n        /* \"#utility.yul\":4834:4897   */\n      tag_125\n      jumpi\n        /* \"#utility.yul\":4893:4894   */\n      0x00\n        /* \"#utility.yul\":4890:4891   */\n      dup1\n        /* \"#utility.yul\":4883:4895   */\n      revert\n        /* \"#utility.yul\":4834:4897   */\n    tag_125:\n        /* \"#utility.yul\":4781:4903   */\n      pop\n      jump\t// out\n        /* \"#utility.yul\":4909:5031   */\n    tag_63:\n        /* \"#utility.yul\":4982:5006   */\n      tag_127\n        /* \"#utility.yul\":5000:5005   */\n      dup2\n        /* \"#utility.yul\":4982:5006   */\n      tag_92\n      jump\t// in\n    tag_127:\n        /* \"#utility.yul\":4975:4980   */\n      dup2\n        /* \"#utility.yul\":4972:5007   */\n      eq\n        /* \"#utility.yul\":4962:5025   */\n      tag_128\n      jumpi\n        /* \"#utility.yul\":5021:5022   */\n      0x00\n        /* \"#utility.yul\":5018:5019   */\n      dup1\n        /* \"#utility.yul\":5011:5023   */\n      revert\n        /* \"#utility.yul\":4962:5025   */\n    tag_128:\n        /* \"#utility.yul\":4909:5031   */\n      pop\n      jump\t// out\n\n    auxdata: 0xa2646970667358221220f4ff40e791fd1deabe1c14a28b1a573019d9bc956e65b38a288c091c2ecdf09364736f6c63430008070033\n}\n",
				"bytecode": {
					"linkReferences": {},
					"object": "608060405234801561001057600080fd5b50336000806101000a81548173ffffffffffffffffffffffffffffffffffffffff021916908373ffffffffffffffffffffffffffffffffffffffff1602179055506107dc806100606000396000f3fe608060405234801561001057600080fd5b506004361061007d5760003560e01c806340c10f191161005b57806340c10f191461010057806370a16fcf1461011c5780639dc29fac1461014c578063a9059cbb146101685761007d565b8063024c2ddd1461008257806307546172146100b257806327e235e3146100d0575b600080fd5b61009c6004803603810190610097919061052d565b610184565b6040516100a99190610629565b60405180910390f35b6100ba6101a9565b6040516100c791906105ee565b60405180910390f35b6100ea60048036038101906100e59190610500565b6101cd565b6040516100f79190610629565b60405180910390f35b61011a6004803603810190610115919061056d565b6101e5565b005b6101366004803603810190610131919061052d565b6102cd565b6040516101439190610629565b60405180910390f35b6101666004803603810190610161919061056d565b6102f2565b005b610182600480360381019061017d919061056d565b6103da565b005b6002602052816000526040600020602052806000526040600020600091509150505481565b60008054906101000a900473ffffffffffffffffffffffffffffffffffffffff1681565b60016020528060005260406000206000915090505481565b60008054906101000a900473ffffffffffffffffffffffffffffffffffffffff1673ffffffffffffffffffffffffffffffffffffffff163373ffffffffffffffffffffffffffffffffffffffff1614610273576040517f08c379a000000000000000000000000000000000000000000000000000000000815260040161026a90610609565b60405180910390fd5b80600160008473ffffffffffffffffffffffffffffffffffffffff1673ffffffffffffffffffffffffffffffffffffffff16815260200190815260200160002060008282546102c29190610655565b925050819055505050565b6003602052816000526040600020602052806000526040600020600091509150505481565b60008054906101000a900473ffffffffffffffffffffffffffffffffffffffff1673ffffffffffffffffffffffffffffffffffffffff163373ffffffffffffffffffffffffffffffffffffffff1614610380576040517f08c379a000000000000000000000000000000000000000000000000000000000815260040161037790610609565b60405180910390fd5b80600160008473ffffffffffffffffffffffffffffffffffffffff1673ffffffffffffffffffffffffffffffffffffffff16815260200190815260200160002060008282546103cf91906106ab565b925050819055505050565b80600160003373ffffffffffffffffffffffffffffffffffffffff1673ffffffffffffffffffffffffffffffffffffffff16815260200190815260200160002054101561042657600080fd5b80600160003373ffffffffffffffffffffffffffffffffffffffff1673ffffffffffffffffffffffffffffffffffffffff168152602001908152602001600020600082825461047591906106ab565b9250508190555080600160008473ffffffffffffffffffffffffffffffffffffffff1673ffffffffffffffffffffffffffffffffffffffff16815260200190815260200160002060008282546104cb9190610655565b925050819055505050565b6000813590506104e581610778565b92915050565b6000813590506104fa8161078f565b92915050565b6000602082840312156105165761051561074a565b5b6000610524848285016104d6565b91505092915050565b600080604083850312156105445761054361074a565b5b6000610552858286016104d6565b9250506020610563858286016104d6565b9150509250929050565b600080604083850312156105845761058361074a565b5b6000610592858286016104d6565b92505060206105a3858286016104eb565b9150509250929050565b6105b6816106df565b82525050565b60006105c9601383610644565b91506105d48261074f565b602082019050919050565b6105e881610711565b82525050565b600060208201905061060360008301846105ad565b92915050565b60006020820190508181036000830152610622816105bc565b9050919050565b600060208201905061063e60008301846105df565b92915050565b600082825260208201905092915050565b600061066082610711565b915061066b83610711565b9250827fffffffffffffffffffffffffffffffffffffffffffffffffffffffffffffffff038211156106a05761069f61071b565b5b828201905092915050565b60006106b682610711565b91506106c183610711565b9250828210156106d4576106d361071b565b5b828203905092915050565b60006106ea826106f1565b9050919050565b600073ffffffffffffffffffffffffffffffffffffffff82169050919050565b6000819050919050565b7f4e487b7100000000000000000000000000000000000000000000000000000000600052601160045260246000fd5b600080fd5b7f796f7572206e6f7420746865206d696e74657200000000000000000000000000600082015250565b610781816106df565b811461078c57600080fd5b50565b61079881610711565b81146107a357600080fd5b5056fea2646970667358221220f4ff40e791fd1deabe1c14a28b1a573019d9bc956e65b38a288c091c2ecdf09364736f6c63430008070033",
					"opcodes": "PUSH1 0x80 PUSH1 0x40 MSTORE CALLVALUE DUP1 ISZERO PUSH2 0x10 JUMPI PUSH1 0x0 DUP1 REVERT JUMPDEST POP CALLER PUSH1 0x0 DUP1 PUSH2 0x100 EXP DUP2 SLOAD DUP2 PUSH20 0xFFFFFFFFFFFFFFFFFFFFFFFFFFFFFFFFFFFFFFFF MUL NOT AND SWAP1 DUP4 PUSH20 0xFFFFFFFFFFFFFFFFFFFFFFFFFFFFFFFFFFFFFFFF AND MUL OR SWAP1 SSTORE POP PUSH2 0x7DC DUP1 PUSH2 0x60 PUSH1 0x0 CODECOPY PUSH1 0x0 RETURN INVALID PUSH1 0x80 PUSH1 0x40 MSTORE CALLVALUE DUP1 ISZERO PUSH2 0x10 JUMPI PUSH1 0x0 DUP1 REVERT JUMPDEST POP PUSH1 0x4 CALLDATASIZE LT PUSH2 0x7D JUMPI PUSH1 0x0 CALLDATALOAD PUSH1 0xE0 SHR DUP1 PUSH4 0x40C10F19 GT PUSH2 0x5B JUMPI DUP1 PUSH4 0x40C10F19 EQ PUSH2 0x100 JUMPI DUP1 PUSH4 0x70A16FCF EQ PUSH2 0x11C JUMPI DUP1 PUSH4 0x9DC29FAC EQ PUSH2 0x14C JUMPI DUP1 PUSH4 0xA9059CBB EQ PUSH2 0x168 JUMPI PUSH2 0x7D JUMP JUMPDEST DUP1 PUSH4 0x24C2DDD EQ PUSH2 0x82 JUMPI DUP1 PUSH4 0x7546172 EQ PUSH2 0xB2 JUMPI DUP1 PUSH4 0x27E235E3 EQ PUSH2 0xD0 JUMPI JUMPDEST PUSH1 0x0 DUP1 REVERT JUMPDEST PUSH2 0x9C PUSH1 0x4 DUP1 CALLDATASIZE SUB DUP2 ADD SWAP1 PUSH2 0x97 SWAP2 SWAP1 PUSH2 0x52D JUMP JUMPDEST PUSH2 0x184 JUMP JUMPDEST PUSH1 0x40 MLOAD PUSH2 0xA9 SWAP2 SWAP1 PUSH2 0x629 JUMP JUMPDEST PUSH1 0x40 MLOAD DUP1 SWAP2 SUB SWAP1 RETURN JUMPDEST PUSH2 0xBA PUSH2 0x1A9 JUMP JUMPDEST PUSH1 0x40 MLOAD PUSH2 0xC7 SWAP2 SWAP1 PUSH2 0x5EE JUMP JUMPDEST PUSH1 0x40 MLOAD DUP1 SWAP2 SUB SWAP1 RETURN JUMPDEST PUSH2 0xEA PUSH1 0x4 DUP1 CALLDATASIZE SUB DUP2 ADD SWAP1 PUSH2 0xE5 SWAP2 SWAP1 PUSH2 0x500 JUMP JUMPDEST PUSH2 0x1CD JUMP JUMPDEST PUSH1 0x40 MLOAD PUSH2 0xF7 SWAP2 SWAP1 PUSH2 0x629 JUMP JUMPDEST PUSH1 0x40 MLOAD DUP1 SWAP2 SUB SWAP1 RETURN JUMPDEST PUSH2 0x11A PUSH1 0x4 DUP1 CALLDATASIZE SUB DUP2 ADD SWAP1 PUSH2 0x115 SWAP2 SWAP1 PUSH2 0x56D JUMP JUMPDEST PUSH2 0x1E5 JUMP JUMPDEST STOP JUMPDEST PUSH2 0x136 PUSH1 0x4 DUP1 CALLDATASIZE SUB DUP2 ADD SWAP1 PUSH2 0x131 SWAP2 SWAP1 PUSH2 0x52D JUMP JUMPDEST PUSH2 0x2CD JUMP JUMPDEST PUSH1 0x40 MLOAD PUSH2 0x143 SWAP2 SWAP1 PUSH2 0x629 JUMP JUMPDEST PUSH1 0x40 MLOAD DUP1 SWAP2 SUB SWAP1 RETURN JUMPDEST PUSH2 0x166 PUSH1 0x4 DUP1 CALLDATASIZE SUB DUP2 ADD SWAP1 PUSH2 0x161 SWAP2 SWAP1 PUSH2 0x56D JUMP JUMPDEST PUSH2 0x2F2 JUMP JUMPDEST STOP JUMPDEST PUSH2 0x182 PUSH1 0x4 DUP1 CALLDATASIZE SUB DUP2 ADD SWAP1 PUSH2 0x17D SWAP2 SWAP1 PUSH2 0x56D JUMP JUMPDEST PUSH2 0x3DA JUMP JUMPDEST STOP JUMPDEST PUSH1 0x2 PUSH1 0x20 MSTORE DUP2 PUSH1 0x0 MSTORE PUSH1 0x40 PUSH1 0x0 KECCAK256 PUSH1 0x20 MSTORE DUP1 PUSH1 0x0 MSTORE PUSH1 0x40 PUSH1 0x0 KECCAK256 PUSH1 0x0 SWAP2 POP SWAP2 POP POP SLOAD DUP2 JUMP JUMPDEST PUSH1 0x0 DUP1 SLOAD SWAP1 PUSH2 0x100 EXP SWAP1 DIV PUSH20 0xFFFFFFFFFFFFFFFFFFFFFFFFFFFFFFFFFFFFFFFF AND DUP2 JUMP JUMPDEST PUSH1 0x1 PUSH1 0x20 MSTORE DUP1 PUSH1 0x0 MSTORE PUSH1 0x40 PUSH1 0x0 KECCAK256 PUSH1 0x0 SWAP2 POP SWAP1 POP SLOAD DUP2 JUMP JUMPDEST PUSH1 0x0 DUP1 SLOAD SWAP1 PUSH2 0x100 EXP SWAP1 DIV PUSH20 0xFFFFFFFFFFFFFFFFFFFFFFFFFFFFFFFFFFFFFFFF AND PUSH20 0xFFFFFFFFFFFFFFFFFFFFFFFFFFFFFFFFFFFFFFFF AND CALLER PUSH20 0xFFFFFFFFFFFFFFFFFFFFFFFFFFFFFFFFFFFFFFFF AND EQ PUSH2 0x273 JUMPI PUSH1 0x40 MLOAD PUSH32 0x8C379A000000000000000000000000000000000000000000000000000000000 DUP2 MSTORE PUSH1 0x4 ADD PUSH2 0x26A SWAP1 PUSH2 0x609 JUMP JUMPDEST PUSH1 0x40 MLOAD DUP1 SWAP2 SUB SWAP1 REVERT JUMPDEST DUP1 PUSH1 0x1 PUSH1 0x0 DUP5 PUSH20 0xFFFFFFFFFFFFFFFFFFFFFFFFFFFFFFFFFFFFFFFF AND PUSH20 0xFFFFFFFFFFFFFFFFFFFFFFFFFFFFFFFFFFFFFFFF AND DUP2 MSTORE PUSH1 0x20 ADD SWAP1 DUP2 MSTORE PUSH1 0x20 ADD PUSH1 0x0 KECCAK256 PUSH1 0x0 DUP3 DUP3 SLOAD PUSH2 0x2C2 SWAP2 SWAP1 PUSH2 0x655 JUMP JUMPDEST SWAP3 POP POP DUP2 SWAP1 SSTORE POP POP POP JUMP JUMPDEST PUSH1 0x3 PUSH1 0x20 MSTORE DUP2 PUSH1 0x0 MSTORE PUSH1 0x40 PUSH1 0x0 KECCAK256 PUSH1 0x20 MSTORE DUP1 PUSH1 0x0 MSTORE PUSH1 0x40 PUSH1 0x0 KECCAK256 PUSH1 0x0 SWAP2 POP SWAP2 POP POP SLOAD DUP2 JUMP JUMPDEST PUSH1 0x0 DUP1 SLOAD SWAP1 PUSH2 0x100 EXP SWAP1 DIV PUSH20 0xFFFFFFFFFFFFFFFFFFFFFFFFFFFFFFFFFFFFFFFF AND PUSH20 0xFFFFFFFFFFFFFFFFFFFFFFFFFFFFFFFFFFFFFFFF AND CALLER PUSH20 0xFFFFFFFFFFFFFFFFFFFFFFFFFFFFFFFFFFFFFFFF AND EQ PUSH2 0x380 JUMPI PUSH1 0x40 MLOAD PUSH32 0x8C379A000000000000000000000000000000000000000000000000000000000 DUP2 MSTORE PUSH1 0x4 ADD PUSH2 0x377 SWAP1 PUSH2 0x609 JUMP JUMPDEST PUSH1 0x40 MLOAD DUP1 SWAP2 SUB SWAP1 REVERT JUMPDEST DUP1 PUSH1 0x1 PUSH1 0x0 DUP5 PUSH20 0xFFFFFFFFFFFFFFFFFFFFFFFFFFFFFFFFFFFFFFFF AND PUSH20 0xFFFFFFFFFFFFFFFFFFFFFFFFFFFFFFFFFFFFFFFF AND DUP2 MSTORE PUSH1 0x20 ADD SWAP1 DUP2 MSTORE PUSH1 0x20 ADD PUSH1 0x0 KECCAK256 PUSH1 0x0 DUP3 DUP3 SLOAD PUSH2 0x3CF SWAP2 SWAP1 PUSH2 0x6AB JUMP JUMPDEST SWAP3 POP POP DUP2 SWAP1 SSTORE POP POP POP JUMP JUMPDEST DUP1 PUSH1 0x1 PUSH1 0x0 CALLER PUSH20 0xFFFFFFFFFFFFFFFFFFFFFFFFFFFFFFFFFFFFFFFF AND PUSH20 0xFFFFFFFFFFFFFFFFFFFFFFFFFFFFFFFFFFFFFFFF AND DUP2 MSTORE PUSH1 0x20 ADD SWAP1 DUP2 MSTORE PUSH1 0x20 ADD PUSH1 0x0 KECCAK256 SLOAD LT ISZERO PUSH2 0x426 JUMPI PUSH1 0x0 DUP1 REVERT JUMPDEST DUP1 PUSH1 0x1 PUSH1 0x0 CALLER PUSH20 0xFFFFFFFFFFFFFFFFFFFFFFFFFFFFFFFFFFFFFFFF AND PUSH20 0xFFFFFFFFFFFFFFFFFFFFFFFFFFFFFFFFFFFFFFFF AND DUP2 MSTORE PUSH1 0x20 ADD SWAP1 DUP2 MSTORE PUSH1 0x20 ADD PUSH1 0x0 KECCAK256 PUSH1 0x0 DUP3 DUP3 SLOAD PUSH2 0x475 SWAP2 SWAP1 PUSH2 0x6AB JUMP JUMPDEST SWAP3 POP POP DUP2 SWAP1 SSTORE POP DUP1 PUSH1 0x1 PUSH1 0x0 DUP5 PUSH20 0xFFFFFFFFFFFFFFFFFFFFFFFFFFFFFFFFFFFFFFFF AND PUSH20 0xFFFFFFFFFFFFFFFFFFFFFFFFFFFFFFFFFFFFFFFF AND DUP2 MSTORE PUSH1 0x20 ADD SWAP1 DUP2 MSTORE PUSH1 0x20 ADD PUSH1 0x0 KECCAK256 PUSH1 0x0 DUP3 DUP3 SLOAD PUSH2 0x4CB SWAP2 SWAP1 PUSH2 0x655 JUMP JUMPDEST SWAP3 POP POP DUP2 SWAP1 SSTORE POP POP POP JUMP JUMPDEST PUSH1 0x0 DUP2 CALLDATALOAD SWAP1 POP PUSH2 0x4E5 DUP2 PUSH2 0x778 JUMP JUMPDEST SWAP3 SWAP2 POP POP JUMP JUMPDEST PUSH1 0x0 DUP2 CALLDATALOAD SWAP1 POP PUSH2 0x4FA DUP2 PUSH2 0x78F JUMP JUMPDEST SWAP3 SWAP2 POP POP JUMP JUMPDEST PUSH1 0x0 PUSH1 0x20 DUP3 DUP5 SUB SLT ISZERO PUSH2 0x516 JUMPI PUSH2 0x515 PUSH2 0x74A JUMP JUMPDEST JUMPDEST PUSH1 0x0 PUSH2 0x524 DUP5 DUP3 DUP6 ADD PUSH2 0x4D6 JUMP JUMPDEST SWAP2 POP POP SWAP3 SWAP2 POP POP JUMP JUMPDEST PUSH1 0x0 DUP1 PUSH1 0x40 DUP4 DUP6 SUB SLT ISZERO PUSH2 0x544 JUMPI PUSH2 0x543 PUSH2 0x74A JUMP JUMPDEST JUMPDEST PUSH1 0x0 PUSH2 0x552 DUP6 DUP3 DUP7 ADD PUSH2 0x4D6 JUMP JUMPDEST SWAP3 POP POP PUSH1 0x20 PUSH2 0x563 DUP6 DUP3 DUP7 ADD PUSH2 0x4D6 JUMP JUMPDEST SWAP2 POP POP SWAP3 POP SWAP3 SWAP1 POP JUMP JUMPDEST PUSH1 0x0 DUP1 PUSH1 0x40 DUP4 DUP6 SUB SLT ISZERO PUSH2 0x584 JUMPI PUSH2 0x583 PUSH2 0x74A JUMP JUMPDEST JUMPDEST PUSH1 0x0 PUSH2 0x592 DUP6 DUP3 DUP7 ADD PUSH2 0x4D6 JUMP JUMPDEST SWAP3 POP POP PUSH1 0x20 PUSH2 0x5A3 DUP6 DUP3 DUP7 ADD PUSH2 0x4EB JUMP JUMPDEST SWAP2 POP POP SWAP3 POP SWAP3 SWAP1 POP JUMP JUMPDEST PUSH2 0x5B6 DUP2 PUSH2 0x6DF JUMP JUMPDEST DUP3 MSTORE POP POP JUMP JUMPDEST PUSH1 0x0 PUSH2 0x5C9 PUSH1 0x13 DUP4 PUSH2 0x644 JUMP JUMPDEST SWAP2 POP PUSH2 0x5D4 DUP3 PUSH2 0x74F JUMP JUMPDEST PUSH1 0x20 DUP3 ADD SWAP1 POP SWAP2 SWAP1 POP JUMP JUMPDEST PUSH2 0x5E8 DUP2 PUSH2 0x711 JUMP JUMPDEST DUP3 MSTORE POP POP JUMP JUMPDEST PUSH1 0x0 PUSH1 0x20 DUP3 ADD SWAP1 POP PUSH2 0x603 PUSH1 0x0 DUP4 ADD DUP5 PUSH2 0x5AD JUMP JUMPDEST SWAP3 SWAP2 POP POP JUMP JUMPDEST PUSH1 0x0 PUSH1 0x20 DUP3 ADD SWAP1 POP DUP2 DUP2 SUB PUSH1 0x0 DUP4 ADD MSTORE PUSH2 0x622 DUP2 PUSH2 0x5BC JUMP JUMPDEST SWAP1 POP SWAP2 SWAP1 POP JUMP JUMPDEST PUSH1 0x0 PUSH1 0x20 DUP3 ADD SWAP1 POP PUSH2 0x63E PUSH1 0x0 DUP4 ADD DUP5 PUSH2 0x5DF JUMP JUMPDEST SWAP3 SWAP2 POP POP JUMP JUMPDEST PUSH1 0x0 DUP3 DUP3 MSTORE PUSH1 0x20 DUP3 ADD SWAP1 POP SWAP3 SWAP2 POP POP JUMP JUMPDEST PUSH1 0x0 PUSH2 0x660 DUP3 PUSH2 0x711 JUMP JUMPDEST SWAP2 POP PUSH2 0x66B DUP4 PUSH2 0x711 JUMP JUMPDEST SWAP3 POP DUP3 PUSH32 0xFFFFFFFFFFFFFFFFFFFFFFFFFFFFFFFFFFFFFFFFFFFFFFFFFFFFFFFFFFFFFFFF SUB DUP3 GT ISZERO PUSH2 0x6A0 JUMPI PUSH2 0x69F PUSH2 0x71B JUMP JUMPDEST JUMPDEST DUP3 DUP3 ADD SWAP1 POP SWAP3 SWAP2 POP POP JUMP JUMPDEST PUSH1 0x0 PUSH2 0x6B6 DUP3 PUSH2 0x711 JUMP JUMPDEST SWAP2 POP PUSH2 0x6C1 DUP4 PUSH2 0x711 JUMP JUMPDEST SWAP3 POP DUP3 DUP3 LT ISZERO PUSH2 0x6D4 JUMPI PUSH2 0x6D3 PUSH2 0x71B JUMP JUMPDEST JUMPDEST DUP3 DUP3 SUB SWAP1 POP SWAP3 SWAP2 POP POP JUMP JUMPDEST PUSH1 0x0 PUSH2 0x6EA DUP3 PUSH2 0x6F1 JUMP JUMPDEST SWAP1 POP SWAP2 SWAP1 POP JUMP JUMPDEST PUSH1 0x0 PUSH20 0xFFFFFFFFFFFFFFFFFFFFFFFFFFFFFFFFFFFFFFFF DUP3 AND SWAP1 POP SWAP2 SWAP1 POP JUMP JUMPDEST PUSH1 0x0 DUP2 SWAP1 POP SWAP2 SWAP1 POP JUMP JUMPDEST PUSH32 0x4E487B7100000000000000000000000000000000000000000000000000000000 PUSH1 0x0 MSTORE PUSH1 0x11 PUSH1 0x4 MSTORE PUSH1 0x24 PUSH1 0x0 REVERT JUMPDEST PUSH1 0x0 DUP1 REVERT JUMPDEST PUSH32 0x796F7572206E6F7420746865206D696E74657200000000000000000000000000 PUSH1 0x0 DUP3 ADD MSTORE POP JUMP JUMPDEST PUSH2 0x781 DUP2 PUSH2 0x6DF JUMP JUMPDEST DUP2 EQ PUSH2 0x78C JUMPI PUSH1 0x0 DUP1 REVERT JUMPDEST POP JUMP JUMPDEST PUSH2 0x798 DUP2 PUSH2 0x711 JUMP JUMPDEST DUP2 EQ PUSH2 0x7A3 JUMPI PUSH1 0x0 DUP1 REVERT JUMPDEST POP JUMP INVALID LOG2 PUSH5 0x6970667358 0x22 SLT KECCAK256 DELEGATECALL SELFDESTRUCT BLOCKHASH 0xE7 SWAP2 REVERT SAR 0xEA 0xBE SHR EQ LOG2 DUP12 BYTE JUMPI ADDRESS NOT 0xD9 0xBC SWAP6 PUSH15 0x65B38A288C091C2ECDF09364736F6C PUSH4 0x43000807 STOP CALLER "
				},
				"gasEstimates": {
					"creation": {
						"codeDepositCost": "402400",
						"executionCost": "24702",
						"totalCost": "427102"
					},
					"external": {
						"_allo(address,address)": "infinite",
						"_allowances(address,address)": "infinite",
						"balances(address)": "2859",
						"burn(address,uint256)": "infinite",
						"mint(address,uint256)": "infinite",
						"minter()": "2534",
						"transfer(address,uint256)": "infinite"
					}
				},
				"methodIdentifiers": {
					"_allo(address,address)": "70a16fcf",
					"_allowances(address,address)": "024c2ddd",
					"balances(address)": "27e235e3",
					"burn(address,uint256)": "9dc29fac",
					"mint(address,uint256)": "40c10f19",
					"minter()": "07546172",
					"transfer(address,uint256)": "a9059cbb"
				}
			},
			"userdoc": {
				"kind": "user",
				"methods": {},
				"version": 1
			}
		}
	}
}