{
	"contracts/Erc20.sol": {
		"CGCToken": {
			"abi": [
				{
					"inputs": [
						{
							"internalType": "string",
							"name": "_name",
							"type": "string"
						},
						{
							"internalType": "string",
							"name": "_symbol",
							"type": "string"
						},
						{
							"internalType": "uint8",
							"name": "_decimal",
							"type": "uint8"
						},
						{
							"internalType": "uint256",
							"name": "_tSupply",
							"type": "uint256"
						}
					],
					"stateMutability": "nonpayable",
					"type": "constructor"
				},
				{
					"anonymous": false,
					"inputs": [
						{
							"indexed": true,
							"internalType": "address",
							"name": "tokenOwner",
							"type": "address"
						},
						{
							"indexed": true,
							"internalType": "address",
							"name": "spender",
							"type": "address"
						},
						{
							"indexed": false,
							"internalType": "uint256",
							"name": "tokens",
							"type": "uint256"
						}
					],
					"name": "Approval",
					"type": "event"
				},
				{
					"anonymous": false,
					"inputs": [
						{
							"indexed": true,
							"internalType": "address",
							"name": "from",
							"type": "address"
						},
						{
							"indexed": true,
							"internalType": "address",
							"name": "to",
							"type": "address"
						},
						{
							"indexed": false,
							"internalType": "uint256",
							"name": "value",
							"type": "uint256"
						}
					],
					"name": "Transfer",
					"type": "event"
				},
				{
					"inputs": [
						{
							"internalType": "address",
							"name": "_owner",
							"type": "address"
						},
						{
							"internalType": "address",
							"name": "_spender",
							"type": "address"
						}
					],
					"name": "allowance",
					"outputs": [
						{
							"internalType": "uint256",
							"name": "remaining",
							"type": "uint256"
						}
					],
					"stateMutability": "view",
					"type": "function"
				},
				{
					"inputs": [
						{
							"internalType": "address",
							"name": "_spender",
							"type": "address"
						},
						{
							"internalType": "uint256",
							"name": "_value",
							"type": "uint256"
						}
					],
					"name": "approve",
					"outputs": [
						{
							"internalType": "bool",
							"name": "success",
							"type": "bool"
						}
					],
					"stateMutability": "nonpayable",
					"type": "function"
				},
				{
					"inputs": [
						{
							"internalType": "address",
							"name": "tokenOwner",
							"type": "address"
						}
					],
					"name": "balanceOf",
					"outputs": [
						{
							"internalType": "uint256",
							"name": "",
							"type": "uint256"
						}
					],
					"stateMutability": "view",
					"type": "function"
				},
				{
					"inputs": [
						{
							"internalType": "uint256",
							"name": "_qty",
							"type": "uint256"
						}
					],
					"name": "burn",
					"outputs": [
						{
							"internalType": "uint256",
							"name": "",
							"type": "uint256"
						}
					],
					"stateMutability": "nonpayable",
					"type": "function"
				},
				{
					"inputs": [],
					"name": "decimals",
					"outputs": [
						{
							"internalType": "uint8",
							"name": "",
							"type": "uint8"
						}
					],
					"stateMutability": "view",
					"type": "function"
				},
				{
					"inputs": [
						{
							"internalType": "uint256",
							"name": "_qty",
							"type": "uint256"
						}
					],
					"name": "mint",
					"outputs": [
						{
							"internalType": "uint256",
							"name": "",
							"type": "uint256"
						}
					],
					"stateMutability": "nonpayable",
					"type": "function"
				},
				{
					"inputs": [],
					"name": "name",
					"outputs": [
						{
							"internalType": "string",
							"name": "",
							"type": "string"
						}
					],
					"stateMutability": "view",
					"type": "function"
				},
				{
					"inputs": [],
					"name": "symbol",
					"outputs": [
						{
							"internalType": "string",
							"name": "",
							"type": "string"
						}
					],
					"stateMutability": "view",
					"type": "function"
				},
				{
					"inputs": [],
					"name": "totalSupply",
					"outputs": [
						{
							"internalType": "uint256",
							"name": "",
							"type": "uint256"
						}
					],
					"stateMutability": "view",
					"type": "function"
				},
				{
					"inputs": [
						{
							"internalType": "address",
							"name": "receiver",
							"type": "address"
						},
						{
							"internalType": "uint256",
							"name": "numtokens",
							"type": "uint256"
						}
					],
					"name": "transfer",
					"outputs": [
						{
							"internalType": "bool",
							"name": "",
							"type": "bool"
						}
					],
					"stateMutability": "nonpayable",
					"type": "function"
				}
			],
			"devdoc": {
				"kind": "dev",
				"methods": {},
				"version": 1
			},
			"evm": {
				"assembly": "    /* \"contracts/Erc20.sol\":387:2175  contract CGCToken is IERC20 {\r... */\n  mstore(0x40, 0x80)\n    /* \"contracts/Erc20.sol\":774:1012  constructor(string memory _name, string memory _symbol, uint8 _decimal, uint256 _tSupply) {\r... */\n  callvalue\n  dup1\n  iszero\n  tag_1\n  jumpi\n  0x00\n  dup1\n  revert\ntag_1:\n  pop\n  mload(0x40)\n  sub(codesize, bytecodeSize)\n  dup1\n  bytecodeSize\n  dup4\n  codecopy\n  dup2\n  dup2\n  add\n  0x40\n  mstore\n  dup2\n  add\n  swap1\n  tag_2\n  swap2\n  swap1\n  tag_3\n  jump\t// in\ntag_2:\n    /* \"contracts/Erc20.sol\":888:896  _tSupply */\n  dup1\n    /* \"contracts/Erc20.sol\":873:885  _totalSupply */\n  0x05\n    /* \"contracts/Erc20.sol\":873:896  _totalSupply = _tSupply */\n  dup2\n  swap1\n  sstore\n  pop\n    /* \"contracts/Erc20.sol\":926:938  _totalSupply */\n  sload(0x05)\n    /* \"contracts/Erc20.sol\":903:911  balances */\n  0x03\n    /* \"contracts/Erc20.sol\":903:923  balances[msg.sender] */\n  0x00\n    /* \"contracts/Erc20.sol\":912:922  msg.sender */\n  caller\n    /* \"contracts/Erc20.sol\":903:923  balances[msg.sender] */\n  0xffffffffffffffffffffffffffffffffffffffff\n  and\n  0xffffffffffffffffffffffffffffffffffffffff\n  and\n  dup2\n  mstore\n  0x20\n  add\n  swap1\n  dup2\n  mstore\n  0x20\n  add\n  0x00\n  keccak256\n    /* \"contracts/Erc20.sol\":903:938  balances[msg.sender] = _totalSupply */\n  dup2\n  swap1\n  sstore\n  pop\n    /* \"contracts/Erc20.sol\":952:957  _name */\n  dup4\n    /* \"contracts/Erc20.sol\":945:949  name */\n  0x00\n    /* \"contracts/Erc20.sol\":945:957  name = _name */\n  swap1\n  dup1\n  mload\n  swap1\n  0x20\n  add\n  swap1\n  tag_6\n  swap3\n  swap2\n  swap1\n  tag_7\n  jump\t// in\ntag_6:\n  pop\n    /* \"contracts/Erc20.sol\":973:980  _symbol */\n  dup3\n    /* \"contracts/Erc20.sol\":964:970  symbol */\n  0x01\n    /* \"contracts/Erc20.sol\":964:980  symbol = _symbol */\n  swap1\n  dup1\n  mload\n  swap1\n  0x20\n  add\n  swap1\n  tag_8\n  swap3\n  swap2\n  swap1\n  tag_7\n  jump\t// in\ntag_8:\n  pop\n    /* \"contracts/Erc20.sol\":998:1006  _decimal */\n  dup2\n    /* \"contracts/Erc20.sol\":987:995  decimals */\n  0x02\n  0x00\n    /* \"contracts/Erc20.sol\":987:1006  decimals = _decimal */\n  0x0100\n  exp\n  dup2\n  sload\n  dup2\n  0xff\n  mul\n  not\n  and\n  swap1\n  dup4\n  0xff\n  and\n  mul\n  or\n  swap1\n  sstore\n  pop\n    /* \"contracts/Erc20.sol\":774:1012  constructor(string memory _name, string memory _symbol, uint8 _decimal, uint256 _tSupply) {\r... */\n  pop\n  pop\n  pop\n  pop\n    /* \"contracts/Erc20.sol\":387:2175  contract CGCToken is IERC20 {\r... */\n  jump(tag_9)\ntag_7:\n  dup3\n  dup1\n  sload\n  tag_10\n  swap1\n  tag_11\n  jump\t// in\ntag_10:\n  swap1\n  0x00\n  mstore\n  keccak256(0x00, 0x20)\n  swap1\n  0x1f\n  add\n  0x20\n  swap1\n  div\n  dup2\n  add\n  swap3\n  dup3\n  tag_13\n  jumpi\n  0x00\n  dup6\n  sstore\n  jump(tag_12)\ntag_13:\n  dup3\n  0x1f\n  lt\n  tag_14\n  jumpi\n  dup1\n  mload\n  not(0xff)\n  and\n  dup4\n  dup1\n  add\n  or\n  dup6\n  sstore\n  jump(tag_12)\ntag_14:\n  dup3\n  dup1\n  add\n  0x01\n  add\n  dup6\n  sstore\n  dup3\n  iszero\n  tag_12\n  jumpi\n  swap2\n  dup3\n  add\ntag_15:\n  dup3\n  dup2\n  gt\n  iszero\n  tag_16\n  jumpi\n  dup3\n  mload\n  dup3\n  sstore\n  swap2\n  0x20\n  add\n  swap2\n  swap1\n  0x01\n  add\n  swap1\n  jump(tag_15)\ntag_16:\ntag_12:\n  pop\n  swap1\n  pop\n  tag_17\n  swap2\n  swap1\n  tag_18\n  jump\t// in\ntag_17:\n  pop\n  swap1\n  jump\t// out\ntag_18:\ntag_19:\n  dup1\n  dup3\n  gt\n  iszero\n  tag_20\n  jumpi\n  0x00\n  dup2\n  0x00\n  swap1\n  sstore\n  pop\n  0x01\n  add\n  jump(tag_19)\ntag_20:\n  pop\n  swap1\n  jump\t// out\n    /* \"#utility.yul\":7:428   */\ntag_22:\n    /* \"#utility.yul\":96:101   */\n  0x00\n    /* \"#utility.yul\":121:187   */\n  tag_24\n    /* \"#utility.yul\":137:186   */\n  tag_25\n    /* \"#utility.yul\":179:185   */\n  dup5\n    /* \"#utility.yul\":137:186   */\n  tag_26\n  jump\t// in\ntag_25:\n    /* \"#utility.yul\":121:187   */\n  tag_27\n  jump\t// in\ntag_24:\n    /* \"#utility.yul\":112:187   */\n  swap1\n  pop\n    /* \"#utility.yul\":210:216   */\n  dup3\n    /* \"#utility.yul\":203:208   */\n  dup2\n    /* \"#utility.yul\":196:217   */\n  mstore\n    /* \"#utility.yul\":248:252   */\n  0x20\n    /* \"#utility.yul\":241:246   */\n  dup2\n    /* \"#utility.yul\":237:253   */\n  add\n    /* \"#utility.yul\":286:289   */\n  dup5\n    /* \"#utility.yul\":277:283   */\n  dup5\n    /* \"#utility.yul\":272:275   */\n  dup5\n    /* \"#utility.yul\":268:284   */\n  add\n    /* \"#utility.yul\":265:290   */\n  gt\n    /* \"#utility.yul\":262:374   */\n  iszero\n  tag_28\n  jumpi\n    /* \"#utility.yul\":293:372   */\n  tag_29\n  tag_30\n  jump\t// in\ntag_29:\n    /* \"#utility.yul\":262:374   */\ntag_28:\n    /* \"#utility.yul\":383:422   */\n  tag_31\n    /* \"#utility.yul\":415:421   */\n  dup5\n    /* \"#utility.yul\":410:413   */\n  dup3\n    /* \"#utility.yul\":405:408   */\n  dup6\n    /* \"#utility.yul\":383:422   */\n  tag_32\n  jump\t// in\ntag_31:\n    /* \"#utility.yul\":102:428   */\n  pop\n    /* \"#utility.yul\":7:428   */\n  swap4\n  swap3\n  pop\n  pop\n  pop\n  jump\t// out\n    /* \"#utility.yul\":448:803   */\ntag_33:\n    /* \"#utility.yul\":515:520   */\n  0x00\n    /* \"#utility.yul\":564:567   */\n  dup3\n    /* \"#utility.yul\":557:561   */\n  0x1f\n    /* \"#utility.yul\":549:555   */\n  dup4\n    /* \"#utility.yul\":545:562   */\n  add\n    /* \"#utility.yul\":541:568   */\n  slt\n    /* \"#utility.yul\":531:653   */\n  tag_35\n  jumpi\n    /* \"#utility.yul\":572:651   */\n  tag_36\n  tag_37\n  jump\t// in\ntag_36:\n    /* \"#utility.yul\":531:653   */\ntag_35:\n    /* \"#utility.yul\":682:688   */\n  dup2\n    /* \"#utility.yul\":676:689   */\n  mload\n    /* \"#utility.yul\":707:797   */\n  tag_38\n    /* \"#utility.yul\":793:796   */\n  dup5\n    /* \"#utility.yul\":785:791   */\n  dup3\n    /* \"#utility.yul\":778:782   */\n  0x20\n    /* \"#utility.yul\":770:776   */\n  dup7\n    /* \"#utility.yul\":766:783   */\n  add\n    /* \"#utility.yul\":707:797   */\n  tag_22\n  jump\t// in\ntag_38:\n    /* \"#utility.yul\":698:797   */\n  swap2\n  pop\n    /* \"#utility.yul\":521:803   */\n  pop\n    /* \"#utility.yul\":448:803   */\n  swap3\n  swap2\n  pop\n  pop\n  jump\t// out\n    /* \"#utility.yul\":809:952   */\ntag_39:\n    /* \"#utility.yul\":866:871   */\n  0x00\n    /* \"#utility.yul\":897:903   */\n  dup2\n    /* \"#utility.yul\":891:904   */\n  mload\n    /* \"#utility.yul\":882:904   */\n  swap1\n  pop\n    /* \"#utility.yul\":913:946   */\n  tag_41\n    /* \"#utility.yul\":940:945   */\n  dup2\n    /* \"#utility.yul\":913:946   */\n  tag_42\n  jump\t// in\ntag_41:\n    /* \"#utility.yul\":809:952   */\n  swap3\n  swap2\n  pop\n  pop\n  jump\t// out\n    /* \"#utility.yul\":958:1097   */\ntag_43:\n    /* \"#utility.yul\":1013:1018   */\n  0x00\n    /* \"#utility.yul\":1044:1050   */\n  dup2\n    /* \"#utility.yul\":1038:1051   */\n  mload\n    /* \"#utility.yul\":1029:1051   */\n  swap1\n  pop\n    /* \"#utility.yul\":1060:1091   */\n  tag_45\n    /* \"#utility.yul\":1085:1090   */\n  dup2\n    /* \"#utility.yul\":1060:1091   */\n  tag_46\n  jump\t// in\ntag_45:\n    /* \"#utility.yul\":958:1097   */\n  swap3\n  swap2\n  pop\n  pop\n  jump\t// out\n    /* \"#utility.yul\":1103:2265   */\ntag_3:\n    /* \"#utility.yul\":1218:1224   */\n  0x00\n    /* \"#utility.yul\":1226:1232   */\n  dup1\n    /* \"#utility.yul\":1234:1240   */\n  0x00\n    /* \"#utility.yul\":1242:1248   */\n  dup1\n    /* \"#utility.yul\":1291:1294   */\n  0x80\n    /* \"#utility.yul\":1279:1288   */\n  dup6\n    /* \"#utility.yul\":1270:1277   */\n  dup8\n    /* \"#utility.yul\":1266:1289   */\n  sub\n    /* \"#utility.yul\":1262:1295   */\n  slt\n    /* \"#utility.yul\":1259:1379   */\n  iszero\n  tag_48\n  jumpi\n    /* \"#utility.yul\":1298:1377   */\n  tag_49\n  tag_50\n  jump\t// in\ntag_49:\n    /* \"#utility.yul\":1259:1379   */\ntag_48:\n    /* \"#utility.yul\":1439:1440   */\n  0x00\n    /* \"#utility.yul\":1428:1437   */\n  dup6\n    /* \"#utility.yul\":1424:1441   */\n  add\n    /* \"#utility.yul\":1418:1442   */\n  mload\n    /* \"#utility.yul\":1469:1487   */\n  0xffffffffffffffff\n    /* \"#utility.yul\":1461:1467   */\n  dup2\n    /* \"#utility.yul\":1458:1488   */\n  gt\n    /* \"#utility.yul\":1455:1572   */\n  iszero\n  tag_51\n  jumpi\n    /* \"#utility.yul\":1491:1570   */\n  tag_52\n  tag_53\n  jump\t// in\ntag_52:\n    /* \"#utility.yul\":1455:1572   */\ntag_51:\n    /* \"#utility.yul\":1596:1670   */\n  tag_54\n    /* \"#utility.yul\":1662:1669   */\n  dup8\n    /* \"#utility.yul\":1653:1659   */\n  dup3\n    /* \"#utility.yul\":1642:1651   */\n  dup9\n    /* \"#utility.yul\":1638:1660   */\n  add\n    /* \"#utility.yul\":1596:1670   */\n  tag_33\n  jump\t// in\ntag_54:\n    /* \"#utility.yul\":1586:1670   */\n  swap5\n  pop\n    /* \"#utility.yul\":1389:1680   */\n  pop\n    /* \"#utility.yul\":1740:1742   */\n  0x20\n    /* \"#utility.yul\":1729:1738   */\n  dup6\n    /* \"#utility.yul\":1725:1743   */\n  add\n    /* \"#utility.yul\":1719:1744   */\n  mload\n    /* \"#utility.yul\":1771:1789   */\n  0xffffffffffffffff\n    /* \"#utility.yul\":1763:1769   */\n  dup2\n    /* \"#utility.yul\":1760:1790   */\n  gt\n    /* \"#utility.yul\":1757:1874   */\n  iszero\n  tag_55\n  jumpi\n    /* \"#utility.yul\":1793:1872   */\n  tag_56\n  tag_53\n  jump\t// in\ntag_56:\n    /* \"#utility.yul\":1757:1874   */\ntag_55:\n    /* \"#utility.yul\":1898:1972   */\n  tag_57\n    /* \"#utility.yul\":1964:1971   */\n  dup8\n    /* \"#utility.yul\":1955:1961   */\n  dup3\n    /* \"#utility.yul\":1944:1953   */\n  dup9\n    /* \"#utility.yul\":1940:1962   */\n  add\n    /* \"#utility.yul\":1898:1972   */\n  tag_33\n  jump\t// in\ntag_57:\n    /* \"#utility.yul\":1888:1972   */\n  swap4\n  pop\n    /* \"#utility.yul\":1690:1982   */\n  pop\n    /* \"#utility.yul\":2021:2023   */\n  0x40\n    /* \"#utility.yul\":2047:2109   */\n  tag_58\n    /* \"#utility.yul\":2101:2108   */\n  dup8\n    /* \"#utility.yul\":2092:2098   */\n  dup3\n    /* \"#utility.yul\":2081:2090   */\n  dup9\n    /* \"#utility.yul\":2077:2099   */\n  add\n    /* \"#utility.yul\":2047:2109   */\n  tag_43\n  jump\t// in\ntag_58:\n    /* \"#utility.yul\":2037:2109   */\n  swap3\n  pop\n    /* \"#utility.yul\":1992:2119   */\n  pop\n    /* \"#utility.yul\":2158:2160   */\n  0x60\n    /* \"#utility.yul\":2184:2248   */\n  tag_59\n    /* \"#utility.yul\":2240:2247   */\n  dup8\n    /* \"#utility.yul\":2231:2237   */\n  dup3\n    /* \"#utility.yul\":2220:2229   */\n  dup9\n    /* \"#utility.yul\":2216:2238   */\n  add\n    /* \"#utility.yul\":2184:2248   */\n  tag_39\n  jump\t// in\ntag_59:\n    /* \"#utility.yul\":2174:2248   */\n  swap2\n  pop\n    /* \"#utility.yul\":2129:2258   */\n  pop\n    /* \"#utility.yul\":1103:2265   */\n  swap3\n  swap6\n  swap2\n  swap5\n  pop\n  swap3\n  pop\n  jump\t// out\n    /* \"#utility.yul\":2271:2400   */\ntag_27:\n    /* \"#utility.yul\":2305:2311   */\n  0x00\n    /* \"#utility.yul\":2332:2352   */\n  tag_61\n  tag_62\n  jump\t// in\ntag_61:\n    /* \"#utility.yul\":2322:2352   */\n  swap1\n  pop\n    /* \"#utility.yul\":2361:2394   */\n  tag_63\n    /* \"#utility.yul\":2389:2393   */\n  dup3\n    /* \"#utility.yul\":2381:2387   */\n  dup3\n    /* \"#utility.yul\":2361:2394   */\n  tag_64\n  jump\t// in\ntag_63:\n    /* \"#utility.yul\":2271:2400   */\n  swap2\n  swap1\n  pop\n  jump\t// out\n    /* \"#utility.yul\":2406:2481   */\ntag_62:\n    /* \"#utility.yul\":2439:2445   */\n  0x00\n    /* \"#utility.yul\":2472:2474   */\n  0x40\n    /* \"#utility.yul\":2466:2475   */\n  mload\n    /* \"#utility.yul\":2456:2475   */\n  swap1\n  pop\n    /* \"#utility.yul\":2406:2481   */\n  swap1\n  jump\t// out\n    /* \"#utility.yul\":2487:2795   */\ntag_26:\n    /* \"#utility.yul\":2549:2553   */\n  0x00\n    /* \"#utility.yul\":2639:2657   */\n  0xffffffffffffffff\n    /* \"#utility.yul\":2631:2637   */\n  dup3\n    /* \"#utility.yul\":2628:2658   */\n  gt\n    /* \"#utility.yul\":2625:2681   */\n  iszero\n  tag_67\n  jumpi\n    /* \"#utility.yul\":2661:2679   */\n  tag_68\n  tag_69\n  jump\t// in\ntag_68:\n    /* \"#utility.yul\":2625:2681   */\ntag_67:\n    /* \"#utility.yul\":2699:2728   */\n  tag_70\n    /* \"#utility.yul\":2721:2727   */\n  dup3\n    /* \"#utility.yul\":2699:2728   */\n  tag_71\n  jump\t// in\ntag_70:\n    /* \"#utility.yul\":2691:2728   */\n  swap1\n  pop\n    /* \"#utility.yul\":2783:2787   */\n  0x20\n    /* \"#utility.yul\":2777:2781   */\n  dup2\n    /* \"#utility.yul\":2773:2788   */\n  add\n    /* \"#utility.yul\":2765:2788   */\n  swap1\n  pop\n    /* \"#utility.yul\":2487:2795   */\n  swap2\n  swap1\n  pop\n  jump\t// out\n    /* \"#utility.yul\":2801:2878   */\ntag_72:\n    /* \"#utility.yul\":2838:2845   */\n  0x00\n    /* \"#utility.yul\":2867:2872   */\n  dup2\n    /* \"#utility.yul\":2856:2872   */\n  swap1\n  pop\n    /* \"#utility.yul\":2801:2878   */\n  swap2\n  swap1\n  pop\n  jump\t// out\n    /* \"#utility.yul\":2884:2970   */\ntag_74:\n    /* \"#utility.yul\":2919:2926   */\n  0x00\n    /* \"#utility.yul\":2959:2963   */\n  0xff\n    /* \"#utility.yul\":2952:2957   */\n  dup3\n    /* \"#utility.yul\":2948:2964   */\n  and\n    /* \"#utility.yul\":2937:2964   */\n  swap1\n  pop\n    /* \"#utility.yul\":2884:2970   */\n  swap2\n  swap1\n  pop\n  jump\t// out\n    /* \"#utility.yul\":2976:3283   */\ntag_32:\n    /* \"#utility.yul\":3044:3045   */\n  0x00\n    /* \"#utility.yul\":3054:3167   */\ntag_77:\n    /* \"#utility.yul\":3068:3074   */\n  dup4\n    /* \"#utility.yul\":3065:3066   */\n  dup2\n    /* \"#utility.yul\":3062:3075   */\n  lt\n    /* \"#utility.yul\":3054:3167   */\n  iszero\n  tag_79\n  jumpi\n    /* \"#utility.yul\":3153:3154   */\n  dup1\n    /* \"#utility.yul\":3148:3151   */\n  dup3\n    /* \"#utility.yul\":3144:3155   */\n  add\n    /* \"#utility.yul\":3138:3156   */\n  mload\n    /* \"#utility.yul\":3134:3135   */\n  dup2\n    /* \"#utility.yul\":3129:3132   */\n  dup5\n    /* \"#utility.yul\":3125:3136   */\n  add\n    /* \"#utility.yul\":3118:3157   */\n  mstore\n    /* \"#utility.yul\":3090:3092   */\n  0x20\n    /* \"#utility.yul\":3087:3088   */\n  dup2\n    /* \"#utility.yul\":3083:3093   */\n  add\n    /* \"#utility.yul\":3078:3093   */\n  swap1\n  pop\n    /* \"#utility.yul\":3054:3167   */\n  jump(tag_77)\ntag_79:\n    /* \"#utility.yul\":3185:3191   */\n  dup4\n    /* \"#utility.yul\":3182:3183   */\n  dup2\n    /* \"#utility.yul\":3179:3192   */\n  gt\n    /* \"#utility.yul\":3176:3277   */\n  iszero\n  tag_80\n  jumpi\n    /* \"#utility.yul\":3265:3266   */\n  0x00\n    /* \"#utility.yul\":3256:3262   */\n  dup5\n    /* \"#utility.yul\":3251:3254   */\n  dup5\n    /* \"#utility.yul\":3247:3263   */\n  add\n    /* \"#utility.yul\":3240:3267   */\n  mstore\n    /* \"#utility.yul\":3176:3277   */\ntag_80:\n    /* \"#utility.yul\":3025:3283   */\n  pop\n    /* \"#utility.yul\":2976:3283   */\n  pop\n  pop\n  pop\n  jump\t// out\n    /* \"#utility.yul\":3289:3609   */\ntag_11:\n    /* \"#utility.yul\":3333:3339   */\n  0x00\n    /* \"#utility.yul\":3370:3371   */\n  0x02\n    /* \"#utility.yul\":3364:3368   */\n  dup3\n    /* \"#utility.yul\":3360:3372   */\n  div\n    /* \"#utility.yul\":3350:3372   */\n  swap1\n  pop\n    /* \"#utility.yul\":3417:3418   */\n  0x01\n    /* \"#utility.yul\":3411:3415   */\n  dup3\n    /* \"#utility.yul\":3407:3419   */\n  and\n    /* \"#utility.yul\":3438:3456   */\n  dup1\n    /* \"#utility.yul\":3428:3509   */\n  tag_82\n  jumpi\n    /* \"#utility.yul\":3494:3498   */\n  0x7f\n    /* \"#utility.yul\":3486:3492   */\n  dup3\n    /* \"#utility.yul\":3482:3499   */\n  and\n    /* \"#utility.yul\":3472:3499   */\n  swap2\n  pop\n    /* \"#utility.yul\":3428:3509   */\ntag_82:\n    /* \"#utility.yul\":3556:3558   */\n  0x20\n    /* \"#utility.yul\":3548:3554   */\n  dup3\n    /* \"#utility.yul\":3545:3559   */\n  lt\n    /* \"#utility.yul\":3525:3543   */\n  dup2\n    /* \"#utility.yul\":3522:3560   */\n  eq\n    /* \"#utility.yul\":3519:3603   */\n  iszero\n  tag_83\n  jumpi\n    /* \"#utility.yul\":3575:3593   */\n  tag_84\n  tag_85\n  jump\t// in\ntag_84:\n    /* \"#utility.yul\":3519:3603   */\ntag_83:\n    /* \"#utility.yul\":3340:3609   */\n  pop\n    /* \"#utility.yul\":3289:3609   */\n  swap2\n  swap1\n  pop\n  jump\t// out\n    /* \"#utility.yul\":3615:3896   */\ntag_64:\n    /* \"#utility.yul\":3698:3725   */\n  tag_87\n    /* \"#utility.yul\":3720:3724   */\n  dup3\n    /* \"#utility.yul\":3698:3725   */\n  tag_71\n  jump\t// in\ntag_87:\n    /* \"#utility.yul\":3690:3696   */\n  dup2\n    /* \"#utility.yul\":3686:3726   */\n  add\n    /* \"#utility.yul\":3828:3834   */\n  dup2\n    /* \"#utility.yul\":3816:3826   */\n  dup2\n    /* \"#utility.yul\":3813:3835   */\n  lt\n    /* \"#utility.yul\":3792:3810   */\n  0xffffffffffffffff\n    /* \"#utility.yul\":3780:3790   */\n  dup3\n    /* \"#utility.yul\":3777:3811   */\n  gt\n    /* \"#utility.yul\":3774:3836   */\n  or\n    /* \"#utility.yul\":3771:3859   */\n  iszero\n  tag_88\n  jumpi\n    /* \"#utility.yul\":3839:3857   */\n  tag_89\n  tag_69\n  jump\t// in\ntag_89:\n    /* \"#utility.yul\":3771:3859   */\ntag_88:\n    /* \"#utility.yul\":3879:3889   */\n  dup1\n    /* \"#utility.yul\":3875:3877   */\n  0x40\n    /* \"#utility.yul\":3868:3890   */\n  mstore\n    /* \"#utility.yul\":3658:3896   */\n  pop\n    /* \"#utility.yul\":3615:3896   */\n  pop\n  pop\n  jump\t// out\n    /* \"#utility.yul\":3902:4082   */\ntag_85:\n    /* \"#utility.yul\":3950:4027   */\n  0x4e487b7100000000000000000000000000000000000000000000000000000000\n    /* \"#utility.yul\":3947:3948   */\n  0x00\n    /* \"#utility.yul\":3940:4028   */\n  mstore\n    /* \"#utility.yul\":4047:4051   */\n  0x22\n    /* \"#utility.yul\":4044:4045   */\n  0x04\n    /* \"#utility.yul\":4037:4052   */\n  mstore\n    /* \"#utility.yul\":4071:4075   */\n  0x24\n    /* \"#utility.yul\":4068:4069   */\n  0x00\n    /* \"#utility.yul\":4061:4076   */\n  revert\n    /* \"#utility.yul\":4088:4268   */\ntag_69:\n    /* \"#utility.yul\":4136:4213   */\n  0x4e487b7100000000000000000000000000000000000000000000000000000000\n    /* \"#utility.yul\":4133:4134   */\n  0x00\n    /* \"#utility.yul\":4126:4214   */\n  mstore\n    /* \"#utility.yul\":4233:4237   */\n  0x41\n    /* \"#utility.yul\":4230:4231   */\n  0x04\n    /* \"#utility.yul\":4223:4238   */\n  mstore\n    /* \"#utility.yul\":4257:4261   */\n  0x24\n    /* \"#utility.yul\":4254:4255   */\n  0x00\n    /* \"#utility.yul\":4247:4262   */\n  revert\n    /* \"#utility.yul\":4274:4391   */\ntag_37:\n    /* \"#utility.yul\":4383:4384   */\n  0x00\n    /* \"#utility.yul\":4380:4381   */\n  dup1\n    /* \"#utility.yul\":4373:4385   */\n  revert\n    /* \"#utility.yul\":4397:4514   */\ntag_30:\n    /* \"#utility.yul\":4506:4507   */\n  0x00\n    /* \"#utility.yul\":4503:4504   */\n  dup1\n    /* \"#utility.yul\":4496:4508   */\n  revert\n    /* \"#utility.yul\":4520:4637   */\ntag_53:\n    /* \"#utility.yul\":4629:4630   */\n  0x00\n    /* \"#utility.yul\":4626:4627   */\n  dup1\n    /* \"#utility.yul\":4619:4631   */\n  revert\n    /* \"#utility.yul\":4643:4760   */\ntag_50:\n    /* \"#utility.yul\":4752:4753   */\n  0x00\n    /* \"#utility.yul\":4749:4750   */\n  dup1\n    /* \"#utility.yul\":4742:4754   */\n  revert\n    /* \"#utility.yul\":4766:4868   */\ntag_71:\n    /* \"#utility.yul\":4807:4813   */\n  0x00\n    /* \"#utility.yul\":4858:4860   */\n  0x1f\n    /* \"#utility.yul\":4854:4861   */\n  not\n    /* \"#utility.yul\":4849:4851   */\n  0x1f\n    /* \"#utility.yul\":4842:4847   */\n  dup4\n    /* \"#utility.yul\":4838:4852   */\n  add\n    /* \"#utility.yul\":4834:4862   */\n  and\n    /* \"#utility.yul\":4824:4862   */\n  swap1\n  pop\n    /* \"#utility.yul\":4766:4868   */\n  swap2\n  swap1\n  pop\n  jump\t// out\n    /* \"#utility.yul\":4874:4996   */\ntag_42:\n    /* \"#utility.yul\":4947:4971   */\n  tag_98\n    /* \"#utility.yul\":4965:4970   */\n  dup2\n    /* \"#utility.yul\":4947:4971   */\n  tag_72\n  jump\t// in\ntag_98:\n    /* \"#utility.yul\":4940:4945   */\n  dup2\n    /* \"#utility.yul\":4937:4972   */\n  eq\n    /* \"#utility.yul\":4927:4990   */\n  tag_99\n  jumpi\n    /* \"#utility.yul\":4986:4987   */\n  0x00\n    /* \"#utility.yul\":4983:4984   */\n  dup1\n    /* \"#utility.yul\":4976:4988   */\n  revert\n    /* \"#utility.yul\":4927:4990   */\ntag_99:\n    /* \"#utility.yul\":4874:4996   */\n  pop\n  jump\t// out\n    /* \"#utility.yul\":5002:5120   */\ntag_46:\n    /* \"#utility.yul\":5073:5095   */\n  tag_101\n    /* \"#utility.yul\":5089:5094   */\n  dup2\n    /* \"#utility.yul\":5073:5095   */\n  tag_74\n  jump\t// in\ntag_101:\n    /* \"#utility.yul\":5066:5071   */\n  dup2\n    /* \"#utility.yul\":5063:5096   */\n  eq\n    /* \"#utility.yul\":5053:5114   */\n  tag_102\n  jumpi\n    /* \"#utility.yul\":5110:5111   */\n  0x00\n    /* \"#utility.yul\":5107:5108   */\n  dup1\n    /* \"#utility.yul\":5100:5112   */\n  revert\n    /* \"#utility.yul\":5053:5114   */\ntag_102:\n    /* \"#utility.yul\":5002:5120   */\n  pop\n  jump\t// out\n    /* \"contracts/Erc20.sol\":387:2175  contract CGCToken is IERC20 {\r... */\ntag_9:\n  dataSize(sub_0)\n  dup1\n  dataOffset(sub_0)\n  0x00\n  codecopy\n  0x00\n  return\nstop\n\nsub_0: assembly {\n        /* \"contracts/Erc20.sol\":387:2175  contract CGCToken is IERC20 {\r... */\n      mstore(0x40, 0x80)\n      callvalue\n      dup1\n      iszero\n      tag_1\n      jumpi\n      0x00\n      dup1\n      revert\n    tag_1:\n      pop\n      jumpi(tag_2, lt(calldatasize, 0x04))\n      shr(0xe0, calldataload(0x00))\n      dup1\n      0x70a08231\n      gt\n      tag_13\n      jumpi\n      dup1\n      0x70a08231\n      eq\n      tag_8\n      jumpi\n      dup1\n      0x95d89b41\n      eq\n      tag_9\n      jumpi\n      dup1\n      0xa0712d68\n      eq\n      tag_10\n      jumpi\n      dup1\n      0xa9059cbb\n      eq\n      tag_11\n      jumpi\n      dup1\n      0xdd62ed3e\n      eq\n      tag_12\n      jumpi\n      jump(tag_2)\n    tag_13:\n      dup1\n      0x06fdde03\n      eq\n      tag_3\n      jumpi\n      dup1\n      0x095ea7b3\n      eq\n      tag_4\n      jumpi\n      dup1\n      0x18160ddd\n      eq\n      tag_5\n      jumpi\n      dup1\n      0x313ce567\n      eq\n      tag_6\n      jumpi\n      dup1\n      0x42966c68\n      eq\n      tag_7\n      jumpi\n    tag_2:\n      0x00\n      dup1\n      revert\n        /* \"contracts/Erc20.sol\":421:439  string public name */\n    tag_3:\n      tag_14\n      tag_15\n      jump\t// in\n    tag_14:\n      mload(0x40)\n      tag_16\n      swap2\n      swap1\n      tag_17\n      jump\t// in\n    tag_16:\n      mload(0x40)\n      dup1\n      swap2\n      sub\n      swap1\n      return\n        /* \"contracts/Erc20.sol\":1974:2172  function approve(address _spender, uint256 _value) public returns (bool success) {\r... */\n    tag_4:\n      tag_18\n      0x04\n      dup1\n      calldatasize\n      sub\n      dup2\n      add\n      swap1\n      tag_19\n      swap2\n      swap1\n      tag_20\n      jump\t// in\n    tag_19:\n      tag_21\n      jump\t// in\n    tag_18:\n      mload(0x40)\n      tag_22\n      swap2\n      swap1\n      tag_23\n      jump\t// in\n    tag_22:\n      mload(0x40)\n      dup1\n      swap2\n      sub\n      swap1\n      return\n        /* \"contracts/Erc20.sol\":1018:1110  function totalSupply() public override view returns (uint256) {\r... */\n    tag_5:\n      tag_24\n      tag_25\n      jump\t// in\n    tag_24:\n      mload(0x40)\n      tag_26\n      swap2\n      swap1\n      tag_27\n      jump\t// in\n    tag_26:\n      mload(0x40)\n      dup1\n      swap2\n      sub\n      swap1\n      return\n        /* \"contracts/Erc20.sol\":465:486  uint8 public decimals */\n    tag_6:\n      tag_28\n      tag_29\n      jump\t// in\n    tag_28:\n      mload(0x40)\n      tag_30\n      swap2\n      swap1\n      tag_31\n      jump\t// in\n    tag_30:\n      mload(0x40)\n      dup1\n      swap2\n      sub\n      swap1\n      return\n        /* \"contracts/Erc20.sol\":1685:1830  function burn(uint256 _qty) public returns(uint256) { \r... */\n    tag_7:\n      tag_32\n      0x04\n      dup1\n      calldatasize\n      sub\n      dup2\n      add\n      swap1\n      tag_33\n      swap2\n      swap1\n      tag_34\n      jump\t// in\n    tag_33:\n      tag_35\n      jump\t// in\n    tag_32:\n      mload(0x40)\n      tag_36\n      swap2\n      swap1\n      tag_27\n      jump\t// in\n    tag_36:\n      mload(0x40)\n      dup1\n      swap2\n      sub\n      swap1\n      return\n        /* \"contracts/Erc20.sol\":1114:1240  function balanceOf(address tokenOwner) public override view returns (uint256) {  \r... */\n    tag_8:\n      tag_37\n      0x04\n      dup1\n      calldatasize\n      sub\n      dup2\n      add\n      swap1\n      tag_38\n      swap2\n      swap1\n      tag_39\n      jump\t// in\n    tag_38:\n      tag_40\n      jump\t// in\n    tag_37:\n      mload(0x40)\n      tag_41\n      swap2\n      swap1\n      tag_27\n      jump\t// in\n    tag_41:\n      mload(0x40)\n      dup1\n      swap2\n      sub\n      swap1\n      return\n        /* \"contracts/Erc20.sol\":442:462  string public symbol */\n    tag_9:\n      tag_42\n      tag_43\n      jump\t// in\n    tag_42:\n      mload(0x40)\n      tag_44\n      swap2\n      swap1\n      tag_17\n      jump\t// in\n    tag_44:\n      mload(0x40)\n      dup1\n      swap2\n      sub\n      swap1\n      return\n        /* \"contracts/Erc20.sol\":1536:1681  function mint(uint256 _qty) public returns(uint256) { \r... */\n    tag_10:\n      tag_45\n      0x04\n      dup1\n      calldatasize\n      sub\n      dup2\n      add\n      swap1\n      tag_46\n      swap2\n      swap1\n      tag_34\n      jump\t// in\n    tag_46:\n      tag_47\n      jump\t// in\n    tag_45:\n      mload(0x40)\n      tag_48\n      swap2\n      swap1\n      tag_27\n      jump\t// in\n    tag_48:\n      mload(0x40)\n      dup1\n      swap2\n      sub\n      swap1\n      return\n        /* \"contracts/Erc20.sol\":1244:1532  function transfer(address receiver, uint256 numtokens) public override returns (bool) {\r... */\n    tag_11:\n      tag_49\n      0x04\n      dup1\n      calldatasize\n      sub\n      dup2\n      add\n      swap1\n      tag_50\n      swap2\n      swap1\n      tag_20\n      jump\t// in\n    tag_50:\n      tag_51\n      jump\t// in\n    tag_49:\n      mload(0x40)\n      tag_52\n      swap2\n      swap1\n      tag_23\n      jump\t// in\n    tag_52:\n      mload(0x40)\n      dup1\n      swap2\n      sub\n      swap1\n      return\n        /* \"contracts/Erc20.sol\":1834:1970  function allowance(address _owner, address _spender) public view returns (uint256 remaining) {\r... */\n    tag_12:\n      tag_53\n      0x04\n      dup1\n      calldatasize\n      sub\n      dup2\n      add\n      swap1\n      tag_54\n      swap2\n      swap1\n      tag_55\n      jump\t// in\n    tag_54:\n      tag_56\n      jump\t// in\n    tag_53:\n      mload(0x40)\n      tag_57\n      swap2\n      swap1\n      tag_27\n      jump\t// in\n    tag_57:\n      mload(0x40)\n      dup1\n      swap2\n      sub\n      swap1\n      return\n        /* \"contracts/Erc20.sol\":421:439  string public name */\n    tag_15:\n      0x00\n      dup1\n      sload\n      tag_58\n      swap1\n      tag_59\n      jump\t// in\n    tag_58:\n      dup1\n      0x1f\n      add\n      0x20\n      dup1\n      swap2\n      div\n      mul\n      0x20\n      add\n      mload(0x40)\n      swap1\n      dup2\n      add\n      0x40\n      mstore\n      dup1\n      swap3\n      swap2\n      swap1\n      dup2\n      dup2\n      mstore\n      0x20\n      add\n      dup3\n      dup1\n      sload\n      tag_60\n      swap1\n      tag_59\n      jump\t// in\n    tag_60:\n      dup1\n      iszero\n      tag_61\n      jumpi\n      dup1\n      0x1f\n      lt\n      tag_62\n      jumpi\n      0x0100\n      dup1\n      dup4\n      sload\n      div\n      mul\n      dup4\n      mstore\n      swap2\n      0x20\n      add\n      swap2\n      jump(tag_61)\n    tag_62:\n      dup3\n      add\n      swap2\n      swap1\n      0x00\n      mstore\n      keccak256(0x00, 0x20)\n      swap1\n    tag_63:\n      dup2\n      sload\n      dup2\n      mstore\n      swap1\n      0x01\n      add\n      swap1\n      0x20\n      add\n      dup1\n      dup4\n      gt\n      tag_63\n      jumpi\n      dup3\n      swap1\n      sub\n      0x1f\n      and\n      dup3\n      add\n      swap2\n    tag_61:\n      pop\n      pop\n      pop\n      pop\n      pop\n      dup2\n      jump\t// out\n        /* \"contracts/Erc20.sol\":1974:2172  function approve(address _spender, uint256 _value) public returns (bool success) {\r... */\n    tag_21:\n        /* \"contracts/Erc20.sol\":2041:2053  bool success */\n      0x00\n        /* \"contracts/Erc20.sol\":2094:2100  _value */\n      dup2\n        /* \"contracts/Erc20.sol\":2062:2069  allowed */\n      0x04\n        /* \"contracts/Erc20.sol\":2062:2081  allowed[msg.sender] */\n      0x00\n        /* \"contracts/Erc20.sol\":2070:2080  msg.sender */\n      caller\n        /* \"contracts/Erc20.sol\":2062:2081  allowed[msg.sender] */\n      0xffffffffffffffffffffffffffffffffffffffff\n      and\n      0xffffffffffffffffffffffffffffffffffffffff\n      and\n      dup2\n      mstore\n      0x20\n      add\n      swap1\n      dup2\n      mstore\n      0x20\n      add\n      0x00\n      keccak256\n        /* \"contracts/Erc20.sol\":2062:2091  allowed[msg.sender][_spender] */\n      0x00\n        /* \"contracts/Erc20.sol\":2082:2090  _spender */\n      dup6\n        /* \"contracts/Erc20.sol\":2062:2091  allowed[msg.sender][_spender] */\n      0xffffffffffffffffffffffffffffffffffffffff\n      and\n      0xffffffffffffffffffffffffffffffffffffffff\n      and\n      dup2\n      mstore\n      0x20\n      add\n      swap1\n      dup2\n      mstore\n      0x20\n      add\n      0x00\n      keccak256\n        /* \"contracts/Erc20.sol\":2062:2100  allowed[msg.sender][_spender] = _value */\n      dup2\n      swap1\n      sstore\n      pop\n        /* \"contracts/Erc20.sol\":2133:2141  _spender */\n      dup3\n        /* \"contracts/Erc20.sol\":2112:2150  Approval(msg.sender, _spender, _value) */\n      0xffffffffffffffffffffffffffffffffffffffff\n      and\n        /* \"contracts/Erc20.sol\":2121:2131  msg.sender */\n      caller\n        /* \"contracts/Erc20.sol\":2112:2150  Approval(msg.sender, _spender, _value) */\n      0xffffffffffffffffffffffffffffffffffffffff\n      and\n      0x8c5be1e5ebec7d5bd14f71427d1e84f3dd0314c0f7b2291e5b200ac8c7c3b925\n        /* \"contracts/Erc20.sol\":2143:2149  _value */\n      dup5\n        /* \"contracts/Erc20.sol\":2112:2150  Approval(msg.sender, _spender, _value) */\n      mload(0x40)\n      tag_65\n      swap2\n      swap1\n      tag_27\n      jump\t// in\n    tag_65:\n      mload(0x40)\n      dup1\n      swap2\n      sub\n      swap1\n      log3\n        /* \"contracts/Erc20.sol\":2164:2168  true */\n      0x01\n        /* \"contracts/Erc20.sol\":2157:2168  return true */\n      swap1\n      pop\n        /* \"contracts/Erc20.sol\":1974:2172  function approve(address _spender, uint256 _value) public returns (bool success) {\r... */\n      swap3\n      swap2\n      pop\n      pop\n      jump\t// out\n        /* \"contracts/Erc20.sol\":1018:1110  function totalSupply() public override view returns (uint256) {\r... */\n    tag_25:\n        /* \"contracts/Erc20.sol\":1071:1078  uint256 */\n      0x00\n        /* \"contracts/Erc20.sol\":1094:1106  _totalSupply */\n      sload(0x05)\n        /* \"contracts/Erc20.sol\":1087:1106  return _totalSupply */\n      swap1\n      pop\n        /* \"contracts/Erc20.sol\":1018:1110  function totalSupply() public override view returns (uint256) {\r... */\n      swap1\n      jump\t// out\n        /* \"contracts/Erc20.sol\":465:486  uint8 public decimals */\n    tag_29:\n      0x02\n      0x00\n      swap1\n      sload\n      swap1\n      0x0100\n      exp\n      swap1\n      div\n      0xff\n      and\n      dup2\n      jump\t// out\n        /* \"contracts/Erc20.sol\":1685:1830  function burn(uint256 _qty) public returns(uint256) { \r... */\n    tag_35:\n        /* \"contracts/Erc20.sol\":1728:1735  uint256 */\n      0x00\n        /* \"contracts/Erc20.sol\":1761:1765  _qty */\n      dup2\n        /* \"contracts/Erc20.sol\":1745:1757  _totalSupply */\n      0x05\n      0x00\n        /* \"contracts/Erc20.sol\":1745:1765  _totalSupply -= _qty */\n      dup3\n      dup3\n      sload\n      tag_68\n      swap2\n      swap1\n      tag_69\n      jump\t// in\n    tag_68:\n      swap3\n      pop\n      pop\n      dup2\n      swap1\n      sstore\n      pop\n        /* \"contracts/Erc20.sol\":1796:1800  _qty */\n      dup2\n        /* \"contracts/Erc20.sol\":1772:1780  balances */\n      0x03\n        /* \"contracts/Erc20.sol\":1772:1792  balances[msg.sender] */\n      0x00\n        /* \"contracts/Erc20.sol\":1781:1791  msg.sender */\n      caller\n        /* \"contracts/Erc20.sol\":1772:1792  balances[msg.sender] */\n      0xffffffffffffffffffffffffffffffffffffffff\n      and\n      0xffffffffffffffffffffffffffffffffffffffff\n      and\n      dup2\n      mstore\n      0x20\n      add\n      swap1\n      dup2\n      mstore\n      0x20\n      add\n      0x00\n      keccak256\n      0x00\n        /* \"contracts/Erc20.sol\":1772:1800  balances[msg.sender] -= _qty */\n      dup3\n      dup3\n      sload\n      tag_70\n      swap2\n      swap1\n      tag_69\n      jump\t// in\n    tag_70:\n      swap3\n      pop\n      pop\n      dup2\n      swap1\n      sstore\n      pop\n        /* \"contracts/Erc20.sol\":1814:1826  _totalSupply */\n      sload(0x05)\n        /* \"contracts/Erc20.sol\":1807:1826  return _totalSupply */\n      swap1\n      pop\n        /* \"contracts/Erc20.sol\":1685:1830  function burn(uint256 _qty) public returns(uint256) { \r... */\n      swap2\n      swap1\n      pop\n      jump\t// out\n        /* \"contracts/Erc20.sol\":1114:1240  function balanceOf(address tokenOwner) public override view returns (uint256) {  \r... */\n    tag_40:\n        /* \"contracts/Erc20.sol\":1183:1190  uint256 */\n      0x00\n        /* \"contracts/Erc20.sol\":1210:1218  balances */\n      0x03\n        /* \"contracts/Erc20.sol\":1210:1230  balances[tokenOwner] */\n      0x00\n        /* \"contracts/Erc20.sol\":1219:1229  tokenOwner */\n      dup4\n        /* \"contracts/Erc20.sol\":1210:1230  balances[tokenOwner] */\n      0xffffffffffffffffffffffffffffffffffffffff\n      and\n      0xffffffffffffffffffffffffffffffffffffffff\n      and\n      dup2\n      mstore\n      0x20\n      add\n      swap1\n      dup2\n      mstore\n      0x20\n      add\n      0x00\n      keccak256\n      sload\n        /* \"contracts/Erc20.sol\":1203:1230  return balances[tokenOwner] */\n      swap1\n      pop\n        /* \"contracts/Erc20.sol\":1114:1240  function balanceOf(address tokenOwner) public override view returns (uint256) {  \r... */\n      swap2\n      swap1\n      pop\n      jump\t// out\n        /* \"contracts/Erc20.sol\":442:462  string public symbol */\n    tag_43:\n      0x01\n      dup1\n      sload\n      tag_72\n      swap1\n      tag_59\n      jump\t// in\n    tag_72:\n      dup1\n      0x1f\n      add\n      0x20\n      dup1\n      swap2\n      div\n      mul\n      0x20\n      add\n      mload(0x40)\n      swap1\n      dup2\n      add\n      0x40\n      mstore\n      dup1\n      swap3\n      swap2\n      swap1\n      dup2\n      dup2\n      mstore\n      0x20\n      add\n      dup3\n      dup1\n      sload\n      tag_73\n      swap1\n      tag_59\n      jump\t// in\n    tag_73:\n      dup1\n      iszero\n      tag_74\n      jumpi\n      dup1\n      0x1f\n      lt\n      tag_75\n      jumpi\n      0x0100\n      dup1\n      dup4\n      sload\n      div\n      mul\n      dup4\n      mstore\n      swap2\n      0x20\n      add\n      swap2\n      jump(tag_74)\n    tag_75:\n      dup3\n      add\n      swap2\n      swap1\n      0x00\n      mstore\n      keccak256(0x00, 0x20)\n      swap1\n    tag_76:\n      dup2\n      sload\n      dup2\n      mstore\n      swap1\n      0x01\n      add\n      swap1\n      0x20\n      add\n      dup1\n      dup4\n      gt\n      tag_76\n      jumpi\n      dup3\n      swap1\n      sub\n      0x1f\n      and\n      dup3\n      add\n      swap2\n    tag_74:\n      pop\n      pop\n      pop\n      pop\n      pop\n      dup2\n      jump\t// out\n        /* \"contracts/Erc20.sol\":1536:1681  function mint(uint256 _qty) public returns(uint256) { \r... */\n    tag_47:\n        /* \"contracts/Erc20.sol\":1579:1586  uint256 */\n      0x00\n        /* \"contracts/Erc20.sol\":1612:1616  _qty */\n      dup2\n        /* \"contracts/Erc20.sol\":1596:1608  _totalSupply */\n      0x05\n      0x00\n        /* \"contracts/Erc20.sol\":1596:1616  _totalSupply += _qty */\n      dup3\n      dup3\n      sload\n      tag_78\n      swap2\n      swap1\n      tag_79\n      jump\t// in\n    tag_78:\n      swap3\n      pop\n      pop\n      dup2\n      swap1\n      sstore\n      pop\n        /* \"contracts/Erc20.sol\":1647:1651  _qty */\n      dup2\n        /* \"contracts/Erc20.sol\":1623:1631  balances */\n      0x03\n        /* \"contracts/Erc20.sol\":1623:1643  balances[msg.sender] */\n      0x00\n        /* \"contracts/Erc20.sol\":1632:1642  msg.sender */\n      caller\n        /* \"contracts/Erc20.sol\":1623:1643  balances[msg.sender] */\n      0xffffffffffffffffffffffffffffffffffffffff\n      and\n      0xffffffffffffffffffffffffffffffffffffffff\n      and\n      dup2\n      mstore\n      0x20\n      add\n      swap1\n      dup2\n      mstore\n      0x20\n      add\n      0x00\n      keccak256\n      0x00\n        /* \"contracts/Erc20.sol\":1623:1651  balances[msg.sender] += _qty */\n      dup3\n      dup3\n      sload\n      tag_80\n      swap2\n      swap1\n      tag_79\n      jump\t// in\n    tag_80:\n      swap3\n      pop\n      pop\n      dup2\n      swap1\n      sstore\n      pop\n        /* \"contracts/Erc20.sol\":1665:1677  _totalSupply */\n      sload(0x05)\n        /* \"contracts/Erc20.sol\":1658:1677  return _totalSupply */\n      swap1\n      pop\n        /* \"contracts/Erc20.sol\":1536:1681  function mint(uint256 _qty) public returns(uint256) { \r... */\n      swap2\n      swap1\n      pop\n      jump\t// out\n        /* \"contracts/Erc20.sol\":1244:1532  function transfer(address receiver, uint256 numtokens) public override returns (bool) {\r... */\n    tag_51:\n        /* \"contracts/Erc20.sol\":1324:1328  bool */\n      0x00\n        /* \"contracts/Erc20.sol\":1358:1366  balances */\n      0x03\n        /* \"contracts/Erc20.sol\":1358:1378  balances[msg.sender] */\n      0x00\n        /* \"contracts/Erc20.sol\":1367:1377  msg.sender */\n      caller\n        /* \"contracts/Erc20.sol\":1358:1378  balances[msg.sender] */\n      0xffffffffffffffffffffffffffffffffffffffff\n      and\n      0xffffffffffffffffffffffffffffffffffffffff\n      and\n      dup2\n      mstore\n      0x20\n      add\n      swap1\n      dup2\n      mstore\n      0x20\n      add\n      0x00\n      keccak256\n      sload\n        /* \"contracts/Erc20.sol\":1345:1354  numtokens */\n      dup3\n        /* \"contracts/Erc20.sol\":1345:1378  numtokens <= balances[msg.sender] */\n      gt\n      iszero\n        /* \"contracts/Erc20.sol\":1337:1379  require(numtokens <= balances[msg.sender]) */\n      tag_82\n      jumpi\n      0x00\n      dup1\n      revert\n    tag_82:\n        /* \"contracts/Erc20.sol\":1410:1419  numtokens */\n      dup2\n        /* \"contracts/Erc20.sol\":1386:1394  balances */\n      0x03\n        /* \"contracts/Erc20.sol\":1386:1406  balances[msg.sender] */\n      0x00\n        /* \"contracts/Erc20.sol\":1395:1405  msg.sender */\n      caller\n        /* \"contracts/Erc20.sol\":1386:1406  balances[msg.sender] */\n      0xffffffffffffffffffffffffffffffffffffffff\n      and\n      0xffffffffffffffffffffffffffffffffffffffff\n      and\n      dup2\n      mstore\n      0x20\n      add\n      swap1\n      dup2\n      mstore\n      0x20\n      add\n      0x00\n      keccak256\n      0x00\n        /* \"contracts/Erc20.sol\":1386:1419  balances[msg.sender] -= numtokens */\n      dup3\n      dup3\n      sload\n      tag_83\n      swap2\n      swap1\n      tag_69\n      jump\t// in\n    tag_83:\n      swap3\n      pop\n      pop\n      dup2\n      swap1\n      sstore\n      pop\n        /* \"contracts/Erc20.sol\":1448:1457  numtokens */\n      dup2\n        /* \"contracts/Erc20.sol\":1426:1434  balances */\n      0x03\n        /* \"contracts/Erc20.sol\":1426:1444  balances[receiver] */\n      0x00\n        /* \"contracts/Erc20.sol\":1435:1443  receiver */\n      dup6\n        /* \"contracts/Erc20.sol\":1426:1444  balances[receiver] */\n      0xffffffffffffffffffffffffffffffffffffffff\n      and\n      0xffffffffffffffffffffffffffffffffffffffff\n      and\n      dup2\n      mstore\n      0x20\n      add\n      swap1\n      dup2\n      mstore\n      0x20\n      add\n      0x00\n      keccak256\n      0x00\n        /* \"contracts/Erc20.sol\":1426:1457  balances[receiver] += numtokens */\n      dup3\n      dup3\n      sload\n      tag_84\n      swap2\n      swap1\n      tag_79\n      jump\t// in\n    tag_84:\n      swap3\n      pop\n      pop\n      dup2\n      swap1\n      sstore\n      pop\n        /* \"contracts/Erc20.sol\":1490:1498  receiver */\n      dup3\n        /* \"contracts/Erc20.sol\":1469:1510  Transfer(msg.sender, receiver, numtokens) */\n      0xffffffffffffffffffffffffffffffffffffffff\n      and\n        /* \"contracts/Erc20.sol\":1478:1488  msg.sender */\n      caller\n        /* \"contracts/Erc20.sol\":1469:1510  Transfer(msg.sender, receiver, numtokens) */\n      0xffffffffffffffffffffffffffffffffffffffff\n      and\n      0xddf252ad1be2c89b69c2b068fc378daa952ba7f163c4a11628f55a4df523b3ef\n        /* \"contracts/Erc20.sol\":1500:1509  numtokens */\n      dup5\n        /* \"contracts/Erc20.sol\":1469:1510  Transfer(msg.sender, receiver, numtokens) */\n      mload(0x40)\n      tag_85\n      swap2\n      swap1\n      tag_27\n      jump\t// in\n    tag_85:\n      mload(0x40)\n      dup1\n      swap2\n      sub\n      swap1\n      log3\n        /* \"contracts/Erc20.sol\":1524:1528  true */\n      0x01\n        /* \"contracts/Erc20.sol\":1517:1528  return true */\n      swap1\n      pop\n        /* \"contracts/Erc20.sol\":1244:1532  function transfer(address receiver, uint256 numtokens) public override returns (bool) {\r... */\n      swap3\n      swap2\n      pop\n      pop\n      jump\t// out\n        /* \"contracts/Erc20.sol\":1834:1970  function allowance(address _owner, address _spender) public view returns (uint256 remaining) {\r... */\n    tag_56:\n        /* \"contracts/Erc20.sol\":1908:1925  uint256 remaining */\n      0x00\n        /* \"contracts/Erc20.sol\":1941:1948  allowed */\n      0x04\n        /* \"contracts/Erc20.sol\":1941:1956  allowed[_owner] */\n      0x00\n        /* \"contracts/Erc20.sol\":1949:1955  _owner */\n      dup5\n        /* \"contracts/Erc20.sol\":1941:1956  allowed[_owner] */\n      0xffffffffffffffffffffffffffffffffffffffff\n      and\n      0xffffffffffffffffffffffffffffffffffffffff\n      and\n      dup2\n      mstore\n      0x20\n      add\n      swap1\n      dup2\n      mstore\n      0x20\n      add\n      0x00\n      keccak256\n        /* \"contracts/Erc20.sol\":1941:1966  allowed[_owner][_spender] */\n      0x00\n        /* \"contracts/Erc20.sol\":1957:1965  _spender */\n      dup4\n        /* \"contracts/Erc20.sol\":1941:1966  allowed[_owner][_spender] */\n      0xffffffffffffffffffffffffffffffffffffffff\n      and\n      0xffffffffffffffffffffffffffffffffffffffff\n      and\n      dup2\n      mstore\n      0x20\n      add\n      swap1\n      dup2\n      mstore\n      0x20\n      add\n      0x00\n      keccak256\n      sload\n        /* \"contracts/Erc20.sol\":1934:1966  return allowed[_owner][_spender] */\n      swap1\n      pop\n        /* \"contracts/Erc20.sol\":1834:1970  function allowance(address _owner, address _spender) public view returns (uint256 remaining) {\r... */\n      swap3\n      swap2\n      pop\n      pop\n      jump\t// out\n        /* \"#utility.yul\":7:146   */\n    tag_88:\n        /* \"#utility.yul\":53:58   */\n      0x00\n        /* \"#utility.yul\":91:97   */\n      dup2\n        /* \"#utility.yul\":78:98   */\n      calldataload\n        /* \"#utility.yul\":69:98   */\n      swap1\n      pop\n        /* \"#utility.yul\":107:140   */\n      tag_90\n        /* \"#utility.yul\":134:139   */\n      dup2\n        /* \"#utility.yul\":107:140   */\n      tag_91\n      jump\t// in\n    tag_90:\n        /* \"#utility.yul\":7:146   */\n      swap3\n      swap2\n      pop\n      pop\n      jump\t// out\n        /* \"#utility.yul\":152:291   */\n    tag_92:\n        /* \"#utility.yul\":198:203   */\n      0x00\n        /* \"#utility.yul\":236:242   */\n      dup2\n        /* \"#utility.yul\":223:243   */\n      calldataload\n        /* \"#utility.yul\":214:243   */\n      swap1\n      pop\n        /* \"#utility.yul\":252:285   */\n      tag_94\n        /* \"#utility.yul\":279:284   */\n      dup2\n        /* \"#utility.yul\":252:285   */\n      tag_95\n      jump\t// in\n    tag_94:\n        /* \"#utility.yul\":152:291   */\n      swap3\n      swap2\n      pop\n      pop\n      jump\t// out\n        /* \"#utility.yul\":297:626   */\n    tag_39:\n        /* \"#utility.yul\":356:362   */\n      0x00\n        /* \"#utility.yul\":405:407   */\n      0x20\n        /* \"#utility.yul\":393:402   */\n      dup3\n        /* \"#utility.yul\":384:391   */\n      dup5\n        /* \"#utility.yul\":380:403   */\n      sub\n        /* \"#utility.yul\":376:408   */\n      slt\n        /* \"#utility.yul\":373:492   */\n      iszero\n      tag_97\n      jumpi\n        /* \"#utility.yul\":411:490   */\n      tag_98\n      tag_99\n      jump\t// in\n    tag_98:\n        /* \"#utility.yul\":373:492   */\n    tag_97:\n        /* \"#utility.yul\":531:532   */\n      0x00\n        /* \"#utility.yul\":556:609   */\n      tag_100\n        /* \"#utility.yul\":601:608   */\n      dup5\n        /* \"#utility.yul\":592:598   */\n      dup3\n        /* \"#utility.yul\":581:590   */\n      dup6\n        /* \"#utility.yul\":577:599   */\n      add\n        /* \"#utility.yul\":556:609   */\n      tag_88\n      jump\t// in\n    tag_100:\n        /* \"#utility.yul\":546:609   */\n      swap2\n      pop\n        /* \"#utility.yul\":502:619   */\n      pop\n        /* \"#utility.yul\":297:626   */\n      swap3\n      swap2\n      pop\n      pop\n      jump\t// out\n        /* \"#utility.yul\":632:1106   */\n    tag_55:\n        /* \"#utility.yul\":700:706   */\n      0x00\n        /* \"#utility.yul\":708:714   */\n      dup1\n        /* \"#utility.yul\":757:759   */\n      0x40\n        /* \"#utility.yul\":745:754   */\n      dup4\n        /* \"#utility.yul\":736:743   */\n      dup6\n        /* \"#utility.yul\":732:755   */\n      sub\n        /* \"#utility.yul\":728:760   */\n      slt\n        /* \"#utility.yul\":725:844   */\n      iszero\n      tag_102\n      jumpi\n        /* \"#utility.yul\":763:842   */\n      tag_103\n      tag_99\n      jump\t// in\n    tag_103:\n        /* \"#utility.yul\":725:844   */\n    tag_102:\n        /* \"#utility.yul\":883:884   */\n      0x00\n        /* \"#utility.yul\":908:961   */\n      tag_104\n        /* \"#utility.yul\":953:960   */\n      dup6\n        /* \"#utility.yul\":944:950   */\n      dup3\n        /* \"#utility.yul\":933:942   */\n      dup7\n        /* \"#utility.yul\":929:951   */\n      add\n        /* \"#utility.yul\":908:961   */\n      tag_88\n      jump\t// in\n    tag_104:\n        /* \"#utility.yul\":898:961   */\n      swap3\n      pop\n        /* \"#utility.yul\":854:971   */\n      pop\n        /* \"#utility.yul\":1010:1012   */\n      0x20\n        /* \"#utility.yul\":1036:1089   */\n      tag_105\n        /* \"#utility.yul\":1081:1088   */\n      dup6\n        /* \"#utility.yul\":1072:1078   */\n      dup3\n        /* \"#utility.yul\":1061:1070   */\n      dup7\n        /* \"#utility.yul\":1057:1079   */\n      add\n        /* \"#utility.yul\":1036:1089   */\n      tag_88\n      jump\t// in\n    tag_105:\n        /* \"#utility.yul\":1026:1089   */\n      swap2\n      pop\n        /* \"#utility.yul\":981:1099   */\n      pop\n        /* \"#utility.yul\":632:1106   */\n      swap3\n      pop\n      swap3\n      swap1\n      pop\n      jump\t// out\n        /* \"#utility.yul\":1112:1586   */\n    tag_20:\n        /* \"#utility.yul\":1180:1186   */\n      0x00\n        /* \"#utility.yul\":1188:1194   */\n      dup1\n        /* \"#utility.yul\":1237:1239   */\n      0x40\n        /* \"#utility.yul\":1225:1234   */\n      dup4\n        /* \"#utility.yul\":1216:1223   */\n      dup6\n        /* \"#utility.yul\":1212:1235   */\n      sub\n        /* \"#utility.yul\":1208:1240   */\n      slt\n        /* \"#utility.yul\":1205:1324   */\n      iszero\n      tag_107\n      jumpi\n        /* \"#utility.yul\":1243:1322   */\n      tag_108\n      tag_99\n      jump\t// in\n    tag_108:\n        /* \"#utility.yul\":1205:1324   */\n    tag_107:\n        /* \"#utility.yul\":1363:1364   */\n      0x00\n        /* \"#utility.yul\":1388:1441   */\n      tag_109\n        /* \"#utility.yul\":1433:1440   */\n      dup6\n        /* \"#utility.yul\":1424:1430   */\n      dup3\n        /* \"#utility.yul\":1413:1422   */\n      dup7\n        /* \"#utility.yul\":1409:1431   */\n      add\n        /* \"#utility.yul\":1388:1441   */\n      tag_88\n      jump\t// in\n    tag_109:\n        /* \"#utility.yul\":1378:1441   */\n      swap3\n      pop\n        /* \"#utility.yul\":1334:1451   */\n      pop\n        /* \"#utility.yul\":1490:1492   */\n      0x20\n        /* \"#utility.yul\":1516:1569   */\n      tag_110\n        /* \"#utility.yul\":1561:1568   */\n      dup6\n        /* \"#utility.yul\":1552:1558   */\n      dup3\n        /* \"#utility.yul\":1541:1550   */\n      dup7\n        /* \"#utility.yul\":1537:1559   */\n      add\n        /* \"#utility.yul\":1516:1569   */\n      tag_92\n      jump\t// in\n    tag_110:\n        /* \"#utility.yul\":1506:1569   */\n      swap2\n      pop\n        /* \"#utility.yul\":1461:1579   */\n      pop\n        /* \"#utility.yul\":1112:1586   */\n      swap3\n      pop\n      swap3\n      swap1\n      pop\n      jump\t// out\n        /* \"#utility.yul\":1592:1921   */\n    tag_34:\n        /* \"#utility.yul\":1651:1657   */\n      0x00\n        /* \"#utility.yul\":1700:1702   */\n      0x20\n        /* \"#utility.yul\":1688:1697   */\n      dup3\n        /* \"#utility.yul\":1679:1686   */\n      dup5\n        /* \"#utility.yul\":1675:1698   */\n      sub\n        /* \"#utility.yul\":1671:1703   */\n      slt\n        /* \"#utility.yul\":1668:1787   */\n      iszero\n      tag_112\n      jumpi\n        /* \"#utility.yul\":1706:1785   */\n      tag_113\n      tag_99\n      jump\t// in\n    tag_113:\n        /* \"#utility.yul\":1668:1787   */\n    tag_112:\n        /* \"#utility.yul\":1826:1827   */\n      0x00\n        /* \"#utility.yul\":1851:1904   */\n      tag_114\n        /* \"#utility.yul\":1896:1903   */\n      dup5\n        /* \"#utility.yul\":1887:1893   */\n      dup3\n        /* \"#utility.yul\":1876:1885   */\n      dup6\n        /* \"#utility.yul\":1872:1894   */\n      add\n        /* \"#utility.yul\":1851:1904   */\n      tag_92\n      jump\t// in\n    tag_114:\n        /* \"#utility.yul\":1841:1904   */\n      swap2\n      pop\n        /* \"#utility.yul\":1797:1914   */\n      pop\n        /* \"#utility.yul\":1592:1921   */\n      swap3\n      swap2\n      pop\n      pop\n      jump\t// out\n        /* \"#utility.yul\":1927:2036   */\n    tag_115:\n        /* \"#utility.yul\":2008:2029   */\n      tag_117\n        /* \"#utility.yul\":2023:2028   */\n      dup2\n        /* \"#utility.yul\":2008:2029   */\n      tag_118\n      jump\t// in\n    tag_117:\n        /* \"#utility.yul\":2003:2006   */\n      dup3\n        /* \"#utility.yul\":1996:2030   */\n      mstore\n        /* \"#utility.yul\":1927:2036   */\n      pop\n      pop\n      jump\t// out\n        /* \"#utility.yul\":2042:2406   */\n    tag_119:\n        /* \"#utility.yul\":2130:2133   */\n      0x00\n        /* \"#utility.yul\":2158:2197   */\n      tag_121\n        /* \"#utility.yul\":2191:2196   */\n      dup3\n        /* \"#utility.yul\":2158:2197   */\n      tag_122\n      jump\t// in\n    tag_121:\n        /* \"#utility.yul\":2213:2284   */\n      tag_123\n        /* \"#utility.yul\":2277:2283   */\n      dup2\n        /* \"#utility.yul\":2272:2275   */\n      dup6\n        /* \"#utility.yul\":2213:2284   */\n      tag_124\n      jump\t// in\n    tag_123:\n        /* \"#utility.yul\":2206:2284   */\n      swap4\n      pop\n        /* \"#utility.yul\":2293:2345   */\n      tag_125\n        /* \"#utility.yul\":2338:2344   */\n      dup2\n        /* \"#utility.yul\":2333:2336   */\n      dup6\n        /* \"#utility.yul\":2326:2330   */\n      0x20\n        /* \"#utility.yul\":2319:2324   */\n      dup7\n        /* \"#utility.yul\":2315:2331   */\n      add\n        /* \"#utility.yul\":2293:2345   */\n      tag_126\n      jump\t// in\n    tag_125:\n        /* \"#utility.yul\":2370:2399   */\n      tag_127\n        /* \"#utility.yul\":2392:2398   */\n      dup2\n        /* \"#utility.yul\":2370:2399   */\n      tag_128\n      jump\t// in\n    tag_127:\n        /* \"#utility.yul\":2365:2368   */\n      dup5\n        /* \"#utility.yul\":2361:2400   */\n      add\n        /* \"#utility.yul\":2354:2400   */\n      swap2\n      pop\n        /* \"#utility.yul\":2134:2406   */\n      pop\n        /* \"#utility.yul\":2042:2406   */\n      swap3\n      swap2\n      pop\n      pop\n      jump\t// out\n        /* \"#utility.yul\":2412:2530   */\n    tag_129:\n        /* \"#utility.yul\":2499:2523   */\n      tag_131\n        /* \"#utility.yul\":2517:2522   */\n      dup2\n        /* \"#utility.yul\":2499:2523   */\n      tag_132\n      jump\t// in\n    tag_131:\n        /* \"#utility.yul\":2494:2497   */\n      dup3\n        /* \"#utility.yul\":2487:2524   */\n      mstore\n        /* \"#utility.yul\":2412:2530   */\n      pop\n      pop\n      jump\t// out\n        /* \"#utility.yul\":2536:2648   */\n    tag_133:\n        /* \"#utility.yul\":2619:2641   */\n      tag_135\n        /* \"#utility.yul\":2635:2640   */\n      dup2\n        /* \"#utility.yul\":2619:2641   */\n      tag_136\n      jump\t// in\n    tag_135:\n        /* \"#utility.yul\":2614:2617   */\n      dup3\n        /* \"#utility.yul\":2607:2642   */\n      mstore\n        /* \"#utility.yul\":2536:2648   */\n      pop\n      pop\n      jump\t// out\n        /* \"#utility.yul\":2654:2864   */\n    tag_23:\n        /* \"#utility.yul\":2741:2745   */\n      0x00\n        /* \"#utility.yul\":2779:2781   */\n      0x20\n        /* \"#utility.yul\":2768:2777   */\n      dup3\n        /* \"#utility.yul\":2764:2782   */\n      add\n        /* \"#utility.yul\":2756:2782   */\n      swap1\n      pop\n        /* \"#utility.yul\":2792:2857   */\n      tag_138\n        /* \"#utility.yul\":2854:2855   */\n      0x00\n        /* \"#utility.yul\":2843:2852   */\n      dup4\n        /* \"#utility.yul\":2839:2856   */\n      add\n        /* \"#utility.yul\":2830:2836   */\n      dup5\n        /* \"#utility.yul\":2792:2857   */\n      tag_115\n      jump\t// in\n    tag_138:\n        /* \"#utility.yul\":2654:2864   */\n      swap3\n      swap2\n      pop\n      pop\n      jump\t// out\n        /* \"#utility.yul\":2870:3183   */\n    tag_17:\n        /* \"#utility.yul\":2983:2987   */\n      0x00\n        /* \"#utility.yul\":3021:3023   */\n      0x20\n        /* \"#utility.yul\":3010:3019   */\n      dup3\n        /* \"#utility.yul\":3006:3024   */\n      add\n        /* \"#utility.yul\":2998:3024   */\n      swap1\n      pop\n        /* \"#utility.yul\":3070:3079   */\n      dup2\n        /* \"#utility.yul\":3064:3068   */\n      dup2\n        /* \"#utility.yul\":3060:3080   */\n      sub\n        /* \"#utility.yul\":3056:3057   */\n      0x00\n        /* \"#utility.yul\":3045:3054   */\n      dup4\n        /* \"#utility.yul\":3041:3058   */\n      add\n        /* \"#utility.yul\":3034:3081   */\n      mstore\n        /* \"#utility.yul\":3098:3176   */\n      tag_140\n        /* \"#utility.yul\":3171:3175   */\n      dup2\n        /* \"#utility.yul\":3162:3168   */\n      dup5\n        /* \"#utility.yul\":3098:3176   */\n      tag_119\n      jump\t// in\n    tag_140:\n        /* \"#utility.yul\":3090:3176   */\n      swap1\n      pop\n        /* \"#utility.yul\":2870:3183   */\n      swap3\n      swap2\n      pop\n      pop\n      jump\t// out\n        /* \"#utility.yul\":3189:3411   */\n    tag_27:\n        /* \"#utility.yul\":3282:3286   */\n      0x00\n        /* \"#utility.yul\":3320:3322   */\n      0x20\n        /* \"#utility.yul\":3309:3318   */\n      dup3\n        /* \"#utility.yul\":3305:3323   */\n      add\n        /* \"#utility.yul\":3297:3323   */\n      swap1\n      pop\n        /* \"#utility.yul\":3333:3404   */\n      tag_142\n        /* \"#utility.yul\":3401:3402   */\n      0x00\n        /* \"#utility.yul\":3390:3399   */\n      dup4\n        /* \"#utility.yul\":3386:3403   */\n      add\n        /* \"#utility.yul\":3377:3383   */\n      dup5\n        /* \"#utility.yul\":3333:3404   */\n      tag_129\n      jump\t// in\n    tag_142:\n        /* \"#utility.yul\":3189:3411   */\n      swap3\n      swap2\n      pop\n      pop\n      jump\t// out\n        /* \"#utility.yul\":3417:3631   */\n    tag_31:\n        /* \"#utility.yul\":3506:3510   */\n      0x00\n        /* \"#utility.yul\":3544:3546   */\n      0x20\n        /* \"#utility.yul\":3533:3542   */\n      dup3\n        /* \"#utility.yul\":3529:3547   */\n      add\n        /* \"#utility.yul\":3521:3547   */\n      swap1\n      pop\n        /* \"#utility.yul\":3557:3624   */\n      tag_144\n        /* \"#utility.yul\":3621:3622   */\n      0x00\n        /* \"#utility.yul\":3610:3619   */\n      dup4\n        /* \"#utility.yul\":3606:3623   */\n      add\n        /* \"#utility.yul\":3597:3603   */\n      dup5\n        /* \"#utility.yul\":3557:3624   */\n      tag_133\n      jump\t// in\n    tag_144:\n        /* \"#utility.yul\":3417:3631   */\n      swap3\n      swap2\n      pop\n      pop\n      jump\t// out\n        /* \"#utility.yul\":3718:3817   */\n    tag_122:\n        /* \"#utility.yul\":3770:3776   */\n      0x00\n        /* \"#utility.yul\":3804:3809   */\n      dup2\n        /* \"#utility.yul\":3798:3810   */\n      mload\n        /* \"#utility.yul\":3788:3810   */\n      swap1\n      pop\n        /* \"#utility.yul\":3718:3817   */\n      swap2\n      swap1\n      pop\n      jump\t// out\n        /* \"#utility.yul\":3823:3992   */\n    tag_124:\n        /* \"#utility.yul\":3907:3918   */\n      0x00\n        /* \"#utility.yul\":3941:3947   */\n      dup3\n        /* \"#utility.yul\":3936:3939   */\n      dup3\n        /* \"#utility.yul\":3929:3948   */\n      mstore\n        /* \"#utility.yul\":3981:3985   */\n      0x20\n        /* \"#utility.yul\":3976:3979   */\n      dup3\n        /* \"#utility.yul\":3972:3986   */\n      add\n        /* \"#utility.yul\":3957:3986   */\n      swap1\n      pop\n        /* \"#utility.yul\":3823:3992   */\n      swap3\n      swap2\n      pop\n      pop\n      jump\t// out\n        /* \"#utility.yul\":3998:4303   */\n    tag_79:\n        /* \"#utility.yul\":4038:4041   */\n      0x00\n        /* \"#utility.yul\":4057:4077   */\n      tag_150\n        /* \"#utility.yul\":4075:4076   */\n      dup3\n        /* \"#utility.yul\":4057:4077   */\n      tag_132\n      jump\t// in\n    tag_150:\n        /* \"#utility.yul\":4052:4077   */\n      swap2\n      pop\n        /* \"#utility.yul\":4091:4111   */\n      tag_151\n        /* \"#utility.yul\":4109:4110   */\n      dup4\n        /* \"#utility.yul\":4091:4111   */\n      tag_132\n      jump\t// in\n    tag_151:\n        /* \"#utility.yul\":4086:4111   */\n      swap3\n      pop\n        /* \"#utility.yul\":4245:4246   */\n      dup3\n        /* \"#utility.yul\":4177:4243   */\n      0xffffffffffffffffffffffffffffffffffffffffffffffffffffffffffffffff\n        /* \"#utility.yul\":4173:4247   */\n      sub\n        /* \"#utility.yul\":4170:4171   */\n      dup3\n        /* \"#utility.yul\":4167:4248   */\n      gt\n        /* \"#utility.yul\":4164:4271   */\n      iszero\n      tag_152\n      jumpi\n        /* \"#utility.yul\":4251:4269   */\n      tag_153\n      tag_154\n      jump\t// in\n    tag_153:\n        /* \"#utility.yul\":4164:4271   */\n    tag_152:\n        /* \"#utility.yul\":4295:4296   */\n      dup3\n        /* \"#utility.yul\":4292:4293   */\n      dup3\n        /* \"#utility.yul\":4288:4297   */\n      add\n        /* \"#utility.yul\":4281:4297   */\n      swap1\n      pop\n        /* \"#utility.yul\":3998:4303   */\n      swap3\n      swap2\n      pop\n      pop\n      jump\t// out\n        /* \"#utility.yul\":4309:4500   */\n    tag_69:\n        /* \"#utility.yul\":4349:4353   */\n      0x00\n        /* \"#utility.yul\":4369:4389   */\n      tag_156\n        /* \"#utility.yul\":4387:4388   */\n      dup3\n        /* \"#utility.yul\":4369:4389   */\n      tag_132\n      jump\t// in\n    tag_156:\n        /* \"#utility.yul\":4364:4389   */\n      swap2\n      pop\n        /* \"#utility.yul\":4403:4423   */\n      tag_157\n        /* \"#utility.yul\":4421:4422   */\n      dup4\n        /* \"#utility.yul\":4403:4423   */\n      tag_132\n      jump\t// in\n    tag_157:\n        /* \"#utility.yul\":4398:4423   */\n      swap3\n      pop\n        /* \"#utility.yul\":4442:4443   */\n      dup3\n        /* \"#utility.yul\":4439:4440   */\n      dup3\n        /* \"#utility.yul\":4436:4444   */\n      lt\n        /* \"#utility.yul\":4433:4467   */\n      iszero\n      tag_158\n      jumpi\n        /* \"#utility.yul\":4447:4465   */\n      tag_159\n      tag_154\n      jump\t// in\n    tag_159:\n        /* \"#utility.yul\":4433:4467   */\n    tag_158:\n        /* \"#utility.yul\":4492:4493   */\n      dup3\n        /* \"#utility.yul\":4489:4490   */\n      dup3\n        /* \"#utility.yul\":4485:4494   */\n      sub\n        /* \"#utility.yul\":4477:4494   */\n      swap1\n      pop\n        /* \"#utility.yul\":4309:4500   */\n      swap3\n      swap2\n      pop\n      pop\n      jump\t// out\n        /* \"#utility.yul\":4506:4602   */\n    tag_160:\n        /* \"#utility.yul\":4543:4550   */\n      0x00\n        /* \"#utility.yul\":4572:4596   */\n      tag_162\n        /* \"#utility.yul\":4590:4595   */\n      dup3\n        /* \"#utility.yul\":4572:4596   */\n      tag_163\n      jump\t// in\n    tag_162:\n        /* \"#utility.yul\":4561:4596   */\n      swap1\n      pop\n        /* \"#utility.yul\":4506:4602   */\n      swap2\n      swap1\n      pop\n      jump\t// out\n        /* \"#utility.yul\":4608:4698   */\n    tag_118:\n        /* \"#utility.yul\":4642:4649   */\n      0x00\n        /* \"#utility.yul\":4685:4690   */\n      dup2\n        /* \"#utility.yul\":4678:4691   */\n      iszero\n        /* \"#utility.yul\":4671:4692   */\n      iszero\n        /* \"#utility.yul\":4660:4692   */\n      swap1\n      pop\n        /* \"#utility.yul\":4608:4698   */\n      swap2\n      swap1\n      pop\n      jump\t// out\n        /* \"#utility.yul\":4704:4830   */\n    tag_163:\n        /* \"#utility.yul\":4741:4748   */\n      0x00\n        /* \"#utility.yul\":4781:4823   */\n      0xffffffffffffffffffffffffffffffffffffffff\n        /* \"#utility.yul\":4774:4779   */\n      dup3\n        /* \"#utility.yul\":4770:4824   */\n      and\n        /* \"#utility.yul\":4759:4824   */\n      swap1\n      pop\n        /* \"#utility.yul\":4704:4830   */\n      swap2\n      swap1\n      pop\n      jump\t// out\n        /* \"#utility.yul\":4836:4913   */\n    tag_132:\n        /* \"#utility.yul\":4873:4880   */\n      0x00\n        /* \"#utility.yul\":4902:4907   */\n      dup2\n        /* \"#utility.yul\":4891:4907   */\n      swap1\n      pop\n        /* \"#utility.yul\":4836:4913   */\n      swap2\n      swap1\n      pop\n      jump\t// out\n        /* \"#utility.yul\":4919:5005   */\n    tag_136:\n        /* \"#utility.yul\":4954:4961   */\n      0x00\n        /* \"#utility.yul\":4994:4998   */\n      0xff\n        /* \"#utility.yul\":4987:4992   */\n      dup3\n        /* \"#utility.yul\":4983:4999   */\n      and\n        /* \"#utility.yul\":4972:4999   */\n      swap1\n      pop\n        /* \"#utility.yul\":4919:5005   */\n      swap2\n      swap1\n      pop\n      jump\t// out\n        /* \"#utility.yul\":5011:5318   */\n    tag_126:\n        /* \"#utility.yul\":5079:5080   */\n      0x00\n        /* \"#utility.yul\":5089:5202   */\n    tag_169:\n        /* \"#utility.yul\":5103:5109   */\n      dup4\n        /* \"#utility.yul\":5100:5101   */\n      dup2\n        /* \"#utility.yul\":5097:5110   */\n      lt\n        /* \"#utility.yul\":5089:5202   */\n      iszero\n      tag_171\n      jumpi\n        /* \"#utility.yul\":5188:5189   */\n      dup1\n        /* \"#utility.yul\":5183:5186   */\n      dup3\n        /* \"#utility.yul\":5179:5190   */\n      add\n        /* \"#utility.yul\":5173:5191   */\n      mload\n        /* \"#utility.yul\":5169:5170   */\n      dup2\n        /* \"#utility.yul\":5164:5167   */\n      dup5\n        /* \"#utility.yul\":5160:5171   */\n      add\n        /* \"#utility.yul\":5153:5192   */\n      mstore\n        /* \"#utility.yul\":5125:5127   */\n      0x20\n        /* \"#utility.yul\":5122:5123   */\n      dup2\n        /* \"#utility.yul\":5118:5128   */\n      add\n        /* \"#utility.yul\":5113:5128   */\n      swap1\n      pop\n        /* \"#utility.yul\":5089:5202   */\n      jump(tag_169)\n    tag_171:\n        /* \"#utility.yul\":5220:5226   */\n      dup4\n        /* \"#utility.yul\":5217:5218   */\n      dup2\n        /* \"#utility.yul\":5214:5227   */\n      gt\n        /* \"#utility.yul\":5211:5312   */\n      iszero\n      tag_172\n      jumpi\n        /* \"#utility.yul\":5300:5301   */\n      0x00\n        /* \"#utility.yul\":5291:5297   */\n      dup5\n        /* \"#utility.yul\":5286:5289   */\n      dup5\n        /* \"#utility.yul\":5282:5298   */\n      add\n        /* \"#utility.yul\":5275:5302   */\n      mstore\n        /* \"#utility.yul\":5211:5312   */\n    tag_172:\n        /* \"#utility.yul\":5060:5318   */\n      pop\n        /* \"#utility.yul\":5011:5318   */\n      pop\n      pop\n      pop\n      jump\t// out\n        /* \"#utility.yul\":5324:5644   */\n    tag_59:\n        /* \"#utility.yul\":5368:5374   */\n      0x00\n        /* \"#utility.yul\":5405:5406   */\n      0x02\n        /* \"#utility.yul\":5399:5403   */\n      dup3\n        /* \"#utility.yul\":5395:5407   */\n      div\n        /* \"#utility.yul\":5385:5407   */\n      swap1\n      pop\n        /* \"#utility.yul\":5452:5453   */\n      0x01\n        /* \"#utility.yul\":5446:5450   */\n      dup3\n        /* \"#utility.yul\":5442:5454   */\n      and\n        /* \"#utility.yul\":5473:5491   */\n      dup1\n        /* \"#utility.yul\":5463:5544   */\n      tag_174\n      jumpi\n        /* \"#utility.yul\":5529:5533   */\n      0x7f\n        /* \"#utility.yul\":5521:5527   */\n      dup3\n        /* \"#utility.yul\":5517:5534   */\n      and\n        /* \"#utility.yul\":5507:5534   */\n      swap2\n      pop\n        /* \"#utility.yul\":5463:5544   */\n    tag_174:\n        /* \"#utility.yul\":5591:5593   */\n      0x20\n        /* \"#utility.yul\":5583:5589   */\n      dup3\n        /* \"#utility.yul\":5580:5594   */\n      lt\n        /* \"#utility.yul\":5560:5578   */\n      dup2\n        /* \"#utility.yul\":5557:5595   */\n      eq\n        /* \"#utility.yul\":5554:5638   */\n      iszero\n      tag_175\n      jumpi\n        /* \"#utility.yul\":5610:5628   */\n      tag_176\n      tag_177\n      jump\t// in\n    tag_176:\n        /* \"#utility.yul\":5554:5638   */\n    tag_175:\n        /* \"#utility.yul\":5375:5644   */\n      pop\n        /* \"#utility.yul\":5324:5644   */\n      swap2\n      swap1\n      pop\n      jump\t// out\n        /* \"#utility.yul\":5650:5830   */\n    tag_154:\n        /* \"#utility.yul\":5698:5775   */\n      0x4e487b7100000000000000000000000000000000000000000000000000000000\n        /* \"#utility.yul\":5695:5696   */\n      0x00\n        /* \"#utility.yul\":5688:5776   */\n      mstore\n        /* \"#utility.yul\":5795:5799   */\n      0x11\n        /* \"#utility.yul\":5792:5793   */\n      0x04\n        /* \"#utility.yul\":5785:5800   */\n      mstore\n        /* \"#utility.yul\":5819:5823   */\n      0x24\n        /* \"#utility.yul\":5816:5817   */\n      0x00\n        /* \"#utility.yul\":5809:5824   */\n      revert\n        /* \"#utility.yul\":5836:6016   */\n    tag_177:\n        /* \"#utility.yul\":5884:5961   */\n      0x4e487b7100000000000000000000000000000000000000000000000000000000\n        /* \"#utility.yul\":5881:5882   */\n      0x00\n        /* \"#utility.yul\":5874:5962   */\n      mstore\n        /* \"#utility.yul\":5981:5985   */\n      0x22\n        /* \"#utility.yul\":5978:5979   */\n      0x04\n        /* \"#utility.yul\":5971:5986   */\n      mstore\n        /* \"#utility.yul\":6005:6009   */\n      0x24\n        /* \"#utility.yul\":6002:6003   */\n      0x00\n        /* \"#utility.yul\":5995:6010   */\n      revert\n        /* \"#utility.yul\":6145:6262   */\n    tag_99:\n        /* \"#utility.yul\":6254:6255   */\n      0x00\n        /* \"#utility.yul\":6251:6252   */\n      dup1\n        /* \"#utility.yul\":6244:6256   */\n      revert\n        /* \"#utility.yul\":6268:6370   */\n    tag_128:\n        /* \"#utility.yul\":6309:6315   */\n      0x00\n        /* \"#utility.yul\":6360:6362   */\n      0x1f\n        /* \"#utility.yul\":6356:6363   */\n      not\n        /* \"#utility.yul\":6351:6353   */\n      0x1f\n        /* \"#utility.yul\":6344:6349   */\n      dup4\n        /* \"#utility.yul\":6340:6354   */\n      add\n        /* \"#utility.yul\":6336:6364   */\n      and\n        /* \"#utility.yul\":6326:6364   */\n      swap1\n      pop\n        /* \"#utility.yul\":6268:6370   */\n      swap2\n      swap1\n      pop\n      jump\t// out\n        /* \"#utility.yul\":6376:6498   */\n    tag_91:\n        /* \"#utility.yul\":6449:6473   */\n      tag_185\n        /* \"#utility.yul\":6467:6472   */\n      dup2\n        /* \"#utility.yul\":6449:6473   */\n      tag_160\n      jump\t// in\n    tag_185:\n        /* \"#utility.yul\":6442:6447   */\n      dup2\n        /* \"#utility.yul\":6439:6474   */\n      eq\n        /* \"#utility.yul\":6429:6492   */\n      tag_186\n      jumpi\n        /* \"#utility.yul\":6488:6489   */\n      0x00\n        /* \"#utility.yul\":6485:6486   */\n      dup1\n        /* \"#utility.yul\":6478:6490   */\n      revert\n        /* \"#utility.yul\":6429:6492   */\n    tag_186:\n        /* \"#utility.yul\":6376:6498   */\n      pop\n      jump\t// out\n        /* \"#utility.yul\":6504:6626   */\n    tag_95:\n        /* \"#utility.yul\":6577:6601   */\n      tag_188\n        /* \"#utility.yul\":6595:6600   */\n      dup2\n        /* \"#utility.yul\":6577:6601   */\n      tag_132\n      jump\t// in\n    tag_188:\n        /* \"#utility.yul\":6570:6575   */\n      dup2\n        /* \"#utility.yul\":6567:6602   */\n      eq\n        /* \"#utility.yul\":6557:6620   */\n      tag_189\n      jumpi\n        /* \"#utility.yul\":6616:6617   */\n      0x00\n        /* \"#utility.yul\":6613:6614   */\n      dup1\n        /* \"#utility.yul\":6606:6618   */\n      revert\n        /* \"#utility.yul\":6557:6620   */\n    tag_189:\n        /* \"#utility.yul\":6504:6626   */\n      pop\n      jump\t// out\n\n    auxdata: 0xa2646970667358221220a06b456d726152ba2e668e6b3eef5f44d7afa9ac2b163f110cc3677c0915387964736f6c63430008070033\n}\n",
				"bytecode": {
					"linkReferences": {},
					"object": "60806040523480156200001157600080fd5b506040516200107038038062001070833981810160405281019062000037919062000237565b80600581905550600554600360003373ffffffffffffffffffffffffffffffffffffffff1673ffffffffffffffffffffffffffffffffffffffff1681526020019081526020016000208190555083600090805190602001906200009c929190620000db565b508260019080519060200190620000b5929190620000db565b5081600260006101000a81548160ff021916908360ff16021790555050505050620004b6565b828054620000e99062000393565b90600052602060002090601f0160209004810192826200010d576000855562000159565b82601f106200012857805160ff191683800117855562000159565b8280016001018555821562000159579182015b82811115620001585782518255916020019190600101906200013b565b5b5090506200016891906200016c565b5090565b5b80821115620001875760008160009055506001016200016d565b5090565b6000620001a26200019c8462000310565b620002e7565b905082815260208101848484011115620001c157620001c062000462565b5b620001ce8482856200035d565b509392505050565b600082601f830112620001ee57620001ed6200045d565b5b8151620002008482602086016200018b565b91505092915050565b6000815190506200021a8162000482565b92915050565b60008151905062000231816200049c565b92915050565b600080600080608085870312156200025457620002536200046c565b5b600085015167ffffffffffffffff81111562000275576200027462000467565b5b6200028387828801620001d6565b945050602085015167ffffffffffffffff811115620002a757620002a662000467565b5b620002b587828801620001d6565b9350506040620002c88782880162000220565b9250506060620002db8782880162000209565b91505092959194509250565b6000620002f362000306565b9050620003018282620003c9565b919050565b6000604051905090565b600067ffffffffffffffff8211156200032e576200032d6200042e565b5b620003398262000471565b9050602081019050919050565b6000819050919050565b600060ff82169050919050565b60005b838110156200037d57808201518184015260208101905062000360565b838111156200038d576000848401525b50505050565b60006002820490506001821680620003ac57607f821691505b60208210811415620003c357620003c2620003ff565b5b50919050565b620003d48262000471565b810181811067ffffffffffffffff82111715620003f657620003f56200042e565b5b80604052505050565b7f4e487b7100000000000000000000000000000000000000000000000000000000600052602260045260246000fd5b7f4e487b7100000000000000000000000000000000000000000000000000000000600052604160045260246000fd5b600080fd5b600080fd5b600080fd5b600080fd5b6000601f19601f8301169050919050565b6200048d8162000346565b81146200049957600080fd5b50565b620004a78162000350565b8114620004b357600080fd5b50565b610baa80620004c66000396000f3fe608060405234801561001057600080fd5b506004361061009e5760003560e01c806370a082311161006657806370a082311461015d57806395d89b411461018d578063a0712d68146101ab578063a9059cbb146101db578063dd62ed3e1461020b5761009e565b806306fdde03146100a3578063095ea7b3146100c157806318160ddd146100f1578063313ce5671461010f57806342966c681461012d575b600080fd5b6100ab61023b565b6040516100b8919061091a565b60405180910390f35b6100db60048036038101906100d6919061082c565b6102c9565b6040516100e891906108ff565b60405180910390f35b6100f96103bb565b604051610106919061093c565b60405180910390f35b6101176103c5565b6040516101249190610957565b60405180910390f35b6101476004803603810190610142919061086c565b6103d8565b604051610154919061093c565b60405180910390f35b610177600480360381019061017291906107bf565b610453565b604051610184919061093c565b60405180910390f35b61019561049c565b6040516101a2919061091a565b60405180910390f35b6101c560048036038101906101c0919061086c565b61052a565b6040516101d2919061093c565b60405180910390f35b6101f560048036038101906101f0919061082c565b6105a5565b60405161020291906108ff565b60405180910390f35b610225600480360381019061022091906107ec565b61070e565b604051610232919061093c565b60405180910390f35b6000805461024890610aa0565b80601f016020809104026020016040519081016040528092919081815260200182805461027490610aa0565b80156102c15780601f10610296576101008083540402835291602001916102c1565b820191906000526020600020905b8154815290600101906020018083116102a457829003601f168201915b505050505081565b600081600460003373ffffffffffffffffffffffffffffffffffffffff1673ffffffffffffffffffffffffffffffffffffffff16815260200190815260200160002060008573ffffffffffffffffffffffffffffffffffffffff1673ffffffffffffffffffffffffffffffffffffffff168152602001908152602001600020819055508273ffffffffffffffffffffffffffffffffffffffff163373ffffffffffffffffffffffffffffffffffffffff167f8c5be1e5ebec7d5bd14f71427d1e84f3dd0314c0f7b2291e5b200ac8c7c3b925846040516103a9919061093c565b60405180910390a36001905092915050565b6000600554905090565b600260009054906101000a900460ff1681565b600081600560008282546103ec91906109e4565b9250508190555081600360003373ffffffffffffffffffffffffffffffffffffffff1673ffffffffffffffffffffffffffffffffffffffff168152602001908152602001600020600082825461044291906109e4565b925050819055506005549050919050565b6000600360008373ffffffffffffffffffffffffffffffffffffffff1673ffffffffffffffffffffffffffffffffffffffff168152602001908152602001600020549050919050565b600180546104a990610aa0565b80601f01602080910402602001604051908101604052809291908181526020018280546104d590610aa0565b80156105225780601f106104f757610100808354040283529160200191610522565b820191906000526020600020905b81548152906001019060200180831161050557829003601f168201915b505050505081565b6000816005600082825461053e919061098e565b9250508190555081600360003373ffffffffffffffffffffffffffffffffffffffff1673ffffffffffffffffffffffffffffffffffffffff1681526020019081526020016000206000828254610594919061098e565b925050819055506005549050919050565b6000600360003373ffffffffffffffffffffffffffffffffffffffff1673ffffffffffffffffffffffffffffffffffffffff168152602001908152602001600020548211156105f357600080fd5b81600360003373ffffffffffffffffffffffffffffffffffffffff1673ffffffffffffffffffffffffffffffffffffffff168152602001908152602001600020600082825461064291906109e4565b9250508190555081600360008573ffffffffffffffffffffffffffffffffffffffff1673ffffffffffffffffffffffffffffffffffffffff1681526020019081526020016000206000828254610698919061098e565b925050819055508273ffffffffffffffffffffffffffffffffffffffff163373ffffffffffffffffffffffffffffffffffffffff167fddf252ad1be2c89b69c2b068fc378daa952ba7f163c4a11628f55a4df523b3ef846040516106fc919061093c565b60405180910390a36001905092915050565b6000600460008473ffffffffffffffffffffffffffffffffffffffff1673ffffffffffffffffffffffffffffffffffffffff16815260200190815260200160002060008373ffffffffffffffffffffffffffffffffffffffff1673ffffffffffffffffffffffffffffffffffffffff16815260200190815260200160002054905092915050565b6000813590506107a481610b46565b92915050565b6000813590506107b981610b5d565b92915050565b6000602082840312156107d5576107d4610b30565b5b60006107e384828501610795565b91505092915050565b6000806040838503121561080357610802610b30565b5b600061081185828601610795565b925050602061082285828601610795565b9150509250929050565b6000806040838503121561084357610842610b30565b5b600061085185828601610795565b9250506020610862858286016107aa565b9150509250929050565b60006020828403121561088257610881610b30565b5b6000610890848285016107aa565b91505092915050565b6108a281610a2a565b82525050565b60006108b382610972565b6108bd818561097d565b93506108cd818560208601610a6d565b6108d681610b35565b840191505092915050565b6108ea81610a56565b82525050565b6108f981610a60565b82525050565b60006020820190506109146000830184610899565b92915050565b6000602082019050818103600083015261093481846108a8565b905092915050565b600060208201905061095160008301846108e1565b92915050565b600060208201905061096c60008301846108f0565b92915050565b600081519050919050565b600082825260208201905092915050565b600061099982610a56565b91506109a483610a56565b9250827fffffffffffffffffffffffffffffffffffffffffffffffffffffffffffffffff038211156109d9576109d8610ad2565b5b828201905092915050565b60006109ef82610a56565b91506109fa83610a56565b925082821015610a0d57610a0c610ad2565b5b828203905092915050565b6000610a2382610a36565b9050919050565b60008115159050919050565b600073ffffffffffffffffffffffffffffffffffffffff82169050919050565b6000819050919050565b600060ff82169050919050565b60005b83811015610a8b578082015181840152602081019050610a70565b83811115610a9a576000848401525b50505050565b60006002820490506001821680610ab857607f821691505b60208210811415610acc57610acb610b01565b5b50919050565b7f4e487b7100000000000000000000000000000000000000000000000000000000600052601160045260246000fd5b7f4e487b7100000000000000000000000000000000000000000000000000000000600052602260045260246000fd5b600080fd5b6000601f19601f8301169050919050565b610b4f81610a18565b8114610b5a57600080fd5b50565b610b6681610a56565b8114610b7157600080fd5b5056fea2646970667358221220a06b456d726152ba2e668e6b3eef5f44d7afa9ac2b163f110cc3677c0915387964736f6c63430008070033",
					"opcodes": "PUSH1 0x80 PUSH1 0x40 MSTORE CALLVALUE DUP1 ISZERO PUSH3 0x11 JUMPI PUSH1 0x0 DUP1 REVERT JUMPDEST POP PUSH1 0x40 MLOAD PUSH3 0x1070 CODESIZE SUB DUP1 PUSH3 0x1070 DUP4 CODECOPY DUP2 DUP2 ADD PUSH1 0x40 MSTORE DUP2 ADD SWAP1 PUSH3 0x37 SWAP2 SWAP1 PUSH3 0x237 JUMP JUMPDEST DUP1 PUSH1 0x5 DUP2 SWAP1 SSTORE POP PUSH1 0x5 SLOAD PUSH1 0x3 PUSH1 0x0 CALLER PUSH20 0xFFFFFFFFFFFFFFFFFFFFFFFFFFFFFFFFFFFFFFFF AND PUSH20 0xFFFFFFFFFFFFFFFFFFFFFFFFFFFFFFFFFFFFFFFF AND DUP2 MSTORE PUSH1 0x20 ADD SWAP1 DUP2 MSTORE PUSH1 0x20 ADD PUSH1 0x0 KECCAK256 DUP2 SWAP1 SSTORE POP DUP4 PUSH1 0x0 SWAP1 DUP1 MLOAD SWAP1 PUSH1 0x20 ADD SWAP1 PUSH3 0x9C SWAP3 SWAP2 SWAP1 PUSH3 0xDB JUMP JUMPDEST POP DUP3 PUSH1 0x1 SWAP1 DUP1 MLOAD SWAP1 PUSH1 0x20 ADD SWAP1 PUSH3 0xB5 SWAP3 SWAP2 SWAP1 PUSH3 0xDB JUMP JUMPDEST POP DUP2 PUSH1 0x2 PUSH1 0x0 PUSH2 0x100 EXP DUP2 SLOAD DUP2 PUSH1 0xFF MUL NOT AND SWAP1 DUP4 PUSH1 0xFF AND MUL OR SWAP1 SSTORE POP POP POP POP POP PUSH3 0x4B6 JUMP JUMPDEST DUP3 DUP1 SLOAD PUSH3 0xE9 SWAP1 PUSH3 0x393 JUMP JUMPDEST SWAP1 PUSH1 0x0 MSTORE PUSH1 0x20 PUSH1 0x0 KECCAK256 SWAP1 PUSH1 0x1F ADD PUSH1 0x20 SWAP1 DIV DUP2 ADD SWAP3 DUP3 PUSH3 0x10D JUMPI PUSH1 0x0 DUP6 SSTORE PUSH3 0x159 JUMP JUMPDEST DUP3 PUSH1 0x1F LT PUSH3 0x128 JUMPI DUP1 MLOAD PUSH1 0xFF NOT AND DUP4 DUP1 ADD OR DUP6 SSTORE PUSH3 0x159 JUMP JUMPDEST DUP3 DUP1 ADD PUSH1 0x1 ADD DUP6 SSTORE DUP3 ISZERO PUSH3 0x159 JUMPI SWAP2 DUP3 ADD JUMPDEST DUP3 DUP2 GT ISZERO PUSH3 0x158 JUMPI DUP3 MLOAD DUP3 SSTORE SWAP2 PUSH1 0x20 ADD SWAP2 SWAP1 PUSH1 0x1 ADD SWAP1 PUSH3 0x13B JUMP JUMPDEST JUMPDEST POP SWAP1 POP PUSH3 0x168 SWAP2 SWAP1 PUSH3 0x16C JUMP JUMPDEST POP SWAP1 JUMP JUMPDEST JUMPDEST DUP1 DUP3 GT ISZERO PUSH3 0x187 JUMPI PUSH1 0x0 DUP2 PUSH1 0x0 SWAP1 SSTORE POP PUSH1 0x1 ADD PUSH3 0x16D JUMP JUMPDEST POP SWAP1 JUMP JUMPDEST PUSH1 0x0 PUSH3 0x1A2 PUSH3 0x19C DUP5 PUSH3 0x310 JUMP JUMPDEST PUSH3 0x2E7 JUMP JUMPDEST SWAP1 POP DUP3 DUP2 MSTORE PUSH1 0x20 DUP2 ADD DUP5 DUP5 DUP5 ADD GT ISZERO PUSH3 0x1C1 JUMPI PUSH3 0x1C0 PUSH3 0x462 JUMP JUMPDEST JUMPDEST PUSH3 0x1CE DUP5 DUP3 DUP6 PUSH3 0x35D JUMP JUMPDEST POP SWAP4 SWAP3 POP POP POP JUMP JUMPDEST PUSH1 0x0 DUP3 PUSH1 0x1F DUP4 ADD SLT PUSH3 0x1EE JUMPI PUSH3 0x1ED PUSH3 0x45D JUMP JUMPDEST JUMPDEST DUP2 MLOAD PUSH3 0x200 DUP5 DUP3 PUSH1 0x20 DUP7 ADD PUSH3 0x18B JUMP JUMPDEST SWAP2 POP POP SWAP3 SWAP2 POP POP JUMP JUMPDEST PUSH1 0x0 DUP2 MLOAD SWAP1 POP PUSH3 0x21A DUP2 PUSH3 0x482 JUMP JUMPDEST SWAP3 SWAP2 POP POP JUMP JUMPDEST PUSH1 0x0 DUP2 MLOAD SWAP1 POP PUSH3 0x231 DUP2 PUSH3 0x49C JUMP JUMPDEST SWAP3 SWAP2 POP POP JUMP JUMPDEST PUSH1 0x0 DUP1 PUSH1 0x0 DUP1 PUSH1 0x80 DUP6 DUP8 SUB SLT ISZERO PUSH3 0x254 JUMPI PUSH3 0x253 PUSH3 0x46C JUMP JUMPDEST JUMPDEST PUSH1 0x0 DUP6 ADD MLOAD PUSH8 0xFFFFFFFFFFFFFFFF DUP2 GT ISZERO PUSH3 0x275 JUMPI PUSH3 0x274 PUSH3 0x467 JUMP JUMPDEST JUMPDEST PUSH3 0x283 DUP8 DUP3 DUP9 ADD PUSH3 0x1D6 JUMP JUMPDEST SWAP5 POP POP PUSH1 0x20 DUP6 ADD MLOAD PUSH8 0xFFFFFFFFFFFFFFFF DUP2 GT ISZERO PUSH3 0x2A7 JUMPI PUSH3 0x2A6 PUSH3 0x467 JUMP JUMPDEST JUMPDEST PUSH3 0x2B5 DUP8 DUP3 DUP9 ADD PUSH3 0x1D6 JUMP JUMPDEST SWAP4 POP POP PUSH1 0x40 PUSH3 0x2C8 DUP8 DUP3 DUP9 ADD PUSH3 0x220 JUMP JUMPDEST SWAP3 POP POP PUSH1 0x60 PUSH3 0x2DB DUP8 DUP3 DUP9 ADD PUSH3 0x209 JUMP JUMPDEST SWAP2 POP POP SWAP3 SWAP6 SWAP2 SWAP5 POP SWAP3 POP JUMP JUMPDEST PUSH1 0x0 PUSH3 0x2F3 PUSH3 0x306 JUMP JUMPDEST SWAP1 POP PUSH3 0x301 DUP3 DUP3 PUSH3 0x3C9 JUMP JUMPDEST SWAP2 SWAP1 POP JUMP JUMPDEST PUSH1 0x0 PUSH1 0x40 MLOAD SWAP1 POP SWAP1 JUMP JUMPDEST PUSH1 0x0 PUSH8 0xFFFFFFFFFFFFFFFF DUP3 GT ISZERO PUSH3 0x32E JUMPI PUSH3 0x32D PUSH3 0x42E JUMP JUMPDEST JUMPDEST PUSH3 0x339 DUP3 PUSH3 0x471 JUMP JUMPDEST SWAP1 POP PUSH1 0x20 DUP2 ADD SWAP1 POP SWAP2 SWAP1 POP JUMP JUMPDEST PUSH1 0x0 DUP2 SWAP1 POP SWAP2 SWAP1 POP JUMP JUMPDEST PUSH1 0x0 PUSH1 0xFF DUP3 AND SWAP1 POP SWAP2 SWAP1 POP JUMP JUMPDEST PUSH1 0x0 JUMPDEST DUP4 DUP2 LT ISZERO PUSH3 0x37D JUMPI DUP1 DUP3 ADD MLOAD DUP2 DUP5 ADD MSTORE PUSH1 0x20 DUP2 ADD SWAP1 POP PUSH3 0x360 JUMP JUMPDEST DUP4 DUP2 GT ISZERO PUSH3 0x38D JUMPI PUSH1 0x0 DUP5 DUP5 ADD MSTORE JUMPDEST POP POP POP POP JUMP JUMPDEST PUSH1 0x0 PUSH1 0x2 DUP3 DIV SWAP1 POP PUSH1 0x1 DUP3 AND DUP1 PUSH3 0x3AC JUMPI PUSH1 0x7F DUP3 AND SWAP2 POP JUMPDEST PUSH1 0x20 DUP3 LT DUP2 EQ ISZERO PUSH3 0x3C3 JUMPI PUSH3 0x3C2 PUSH3 0x3FF JUMP JUMPDEST JUMPDEST POP SWAP2 SWAP1 POP JUMP JUMPDEST PUSH3 0x3D4 DUP3 PUSH3 0x471 JUMP JUMPDEST DUP2 ADD DUP2 DUP2 LT PUSH8 0xFFFFFFFFFFFFFFFF DUP3 GT OR ISZERO PUSH3 0x3F6 JUMPI PUSH3 0x3F5 PUSH3 0x42E JUMP JUMPDEST JUMPDEST DUP1 PUSH1 0x40 MSTORE POP POP POP JUMP JUMPDEST PUSH32 0x4E487B7100000000000000000000000000000000000000000000000000000000 PUSH1 0x0 MSTORE PUSH1 0x22 PUSH1 0x4 MSTORE PUSH1 0x24 PUSH1 0x0 REVERT JUMPDEST PUSH32 0x4E487B7100000000000000000000000000000000000000000000000000000000 PUSH1 0x0 MSTORE PUSH1 0x41 PUSH1 0x4 MSTORE PUSH1 0x24 PUSH1 0x0 REVERT JUMPDEST PUSH1 0x0 DUP1 REVERT JUMPDEST PUSH1 0x0 DUP1 REVERT JUMPDEST PUSH1 0x0 DUP1 REVERT JUMPDEST PUSH1 0x0 DUP1 REVERT JUMPDEST PUSH1 0x0 PUSH1 0x1F NOT PUSH1 0x1F DUP4 ADD AND SWAP1 POP SWAP2 SWAP1 POP JUMP JUMPDEST PUSH3 0x48D DUP2 PUSH3 0x346 JUMP JUMPDEST DUP2 EQ PUSH3 0x499 JUMPI PUSH1 0x0 DUP1 REVERT JUMPDEST POP JUMP JUMPDEST PUSH3 0x4A7 DUP2 PUSH3 0x350 JUMP JUMPDEST DUP2 EQ PUSH3 0x4B3 JUMPI PUSH1 0x0 DUP1 REVERT JUMPDEST POP JUMP JUMPDEST PUSH2 0xBAA DUP1 PUSH3 0x4C6 PUSH1 0x0 CODECOPY PUSH1 0x0 RETURN INVALID PUSH1 0x80 PUSH1 0x40 MSTORE CALLVALUE DUP1 ISZERO PUSH2 0x10 JUMPI PUSH1 0x0 DUP1 REVERT JUMPDEST POP PUSH1 0x4 CALLDATASIZE LT PUSH2 0x9E JUMPI PUSH1 0x0 CALLDATALOAD PUSH1 0xE0 SHR DUP1 PUSH4 0x70A08231 GT PUSH2 0x66 JUMPI DUP1 PUSH4 0x70A08231 EQ PUSH2 0x15D JUMPI DUP1 PUSH4 0x95D89B41 EQ PUSH2 0x18D JUMPI DUP1 PUSH4 0xA0712D68 EQ PUSH2 0x1AB JUMPI DUP1 PUSH4 0xA9059CBB EQ PUSH2 0x1DB JUMPI DUP1 PUSH4 0xDD62ED3E EQ PUSH2 0x20B JUMPI PUSH2 0x9E JUMP JUMPDEST DUP1 PUSH4 0x6FDDE03 EQ PUSH2 0xA3 JUMPI DUP1 PUSH4 0x95EA7B3 EQ PUSH2 0xC1 JUMPI DUP1 PUSH4 0x18160DDD EQ PUSH2 0xF1 JUMPI DUP1 PUSH4 0x313CE567 EQ PUSH2 0x10F JUMPI DUP1 PUSH4 0x42966C68 EQ PUSH2 0x12D JUMPI JUMPDEST PUSH1 0x0 DUP1 REVERT JUMPDEST PUSH2 0xAB PUSH2 0x23B JUMP JUMPDEST PUSH1 0x40 MLOAD PUSH2 0xB8 SWAP2 SWAP1 PUSH2 0x91A JUMP JUMPDEST PUSH1 0x40 MLOAD DUP1 SWAP2 SUB SWAP1 RETURN JUMPDEST PUSH2 0xDB PUSH1 0x4 DUP1 CALLDATASIZE SUB DUP2 ADD SWAP1 PUSH2 0xD6 SWAP2 SWAP1 PUSH2 0x82C JUMP JUMPDEST PUSH2 0x2C9 JUMP JUMPDEST PUSH1 0x40 MLOAD PUSH2 0xE8 SWAP2 SWAP1 PUSH2 0x8FF JUMP JUMPDEST PUSH1 0x40 MLOAD DUP1 SWAP2 SUB SWAP1 RETURN JUMPDEST PUSH2 0xF9 PUSH2 0x3BB JUMP JUMPDEST PUSH1 0x40 MLOAD PUSH2 0x106 SWAP2 SWAP1 PUSH2 0x93C JUMP JUMPDEST PUSH1 0x40 MLOAD DUP1 SWAP2 SUB SWAP1 RETURN JUMPDEST PUSH2 0x117 PUSH2 0x3C5 JUMP JUMPDEST PUSH1 0x40 MLOAD PUSH2 0x124 SWAP2 SWAP1 PUSH2 0x957 JUMP JUMPDEST PUSH1 0x40 MLOAD DUP1 SWAP2 SUB SWAP1 RETURN JUMPDEST PUSH2 0x147 PUSH1 0x4 DUP1 CALLDATASIZE SUB DUP2 ADD SWAP1 PUSH2 0x142 SWAP2 SWAP1 PUSH2 0x86C JUMP JUMPDEST PUSH2 0x3D8 JUMP JUMPDEST PUSH1 0x40 MLOAD PUSH2 0x154 SWAP2 SWAP1 PUSH2 0x93C JUMP JUMPDEST PUSH1 0x40 MLOAD DUP1 SWAP2 SUB SWAP1 RETURN JUMPDEST PUSH2 0x177 PUSH1 0x4 DUP1 CALLDATASIZE SUB DUP2 ADD SWAP1 PUSH2 0x172 SWAP2 SWAP1 PUSH2 0x7BF JUMP JUMPDEST PUSH2 0x453 JUMP JUMPDEST PUSH1 0x40 MLOAD PUSH2 0x184 SWAP2 SWAP1 PUSH2 0x93C JUMP JUMPDEST PUSH1 0x40 MLOAD DUP1 SWAP2 SUB SWAP1 RETURN JUMPDEST PUSH2 0x195 PUSH2 0x49C JUMP JUMPDEST PUSH1 0x40 MLOAD PUSH2 0x1A2 SWAP2 SWAP1 PUSH2 0x91A JUMP JUMPDEST PUSH1 0x40 MLOAD DUP1 SWAP2 SUB SWAP1 RETURN JUMPDEST PUSH2 0x1C5 PUSH1 0x4 DUP1 CALLDATASIZE SUB DUP2 ADD SWAP1 PUSH2 0x1C0 SWAP2 SWAP1 PUSH2 0x86C JUMP JUMPDEST PUSH2 0x52A JUMP JUMPDEST PUSH1 0x40 MLOAD PUSH2 0x1D2 SWAP2 SWAP1 PUSH2 0x93C JUMP JUMPDEST PUSH1 0x40 MLOAD DUP1 SWAP2 SUB SWAP1 RETURN JUMPDEST PUSH2 0x1F5 PUSH1 0x4 DUP1 CALLDATASIZE SUB DUP2 ADD SWAP1 PUSH2 0x1F0 SWAP2 SWAP1 PUSH2 0x82C JUMP JUMPDEST PUSH2 0x5A5 JUMP JUMPDEST PUSH1 0x40 MLOAD PUSH2 0x202 SWAP2 SWAP1 PUSH2 0x8FF JUMP JUMPDEST PUSH1 0x40 MLOAD DUP1 SWAP2 SUB SWAP1 RETURN JUMPDEST PUSH2 0x225 PUSH1 0x4 DUP1 CALLDATASIZE SUB DUP2 ADD SWAP1 PUSH2 0x220 SWAP2 SWAP1 PUSH2 0x7EC JUMP JUMPDEST PUSH2 0x70E JUMP JUMPDEST PUSH1 0x40 MLOAD PUSH2 0x232 SWAP2 SWAP1 PUSH2 0x93C JUMP JUMPDEST PUSH1 0x40 MLOAD DUP1 SWAP2 SUB SWAP1 RETURN JUMPDEST PUSH1 0x0 DUP1 SLOAD PUSH2 0x248 SWAP1 PUSH2 0xAA0 JUMP JUMPDEST DUP1 PUSH1 0x1F ADD PUSH1 0x20 DUP1 SWAP2 DIV MUL PUSH1 0x20 ADD PUSH1 0x40 MLOAD SWAP1 DUP2 ADD PUSH1 0x40 MSTORE DUP1 SWAP3 SWAP2 SWAP1 DUP2 DUP2 MSTORE PUSH1 0x20 ADD DUP3 DUP1 SLOAD PUSH2 0x274 SWAP1 PUSH2 0xAA0 JUMP JUMPDEST DUP1 ISZERO PUSH2 0x2C1 JUMPI DUP1 PUSH1 0x1F LT PUSH2 0x296 JUMPI PUSH2 0x100 DUP1 DUP4 SLOAD DIV MUL DUP4 MSTORE SWAP2 PUSH1 0x20 ADD SWAP2 PUSH2 0x2C1 JUMP JUMPDEST DUP3 ADD SWAP2 SWAP1 PUSH1 0x0 MSTORE PUSH1 0x20 PUSH1 0x0 KECCAK256 SWAP1 JUMPDEST DUP2 SLOAD DUP2 MSTORE SWAP1 PUSH1 0x1 ADD SWAP1 PUSH1 0x20 ADD DUP1 DUP4 GT PUSH2 0x2A4 JUMPI DUP3 SWAP1 SUB PUSH1 0x1F AND DUP3 ADD SWAP2 JUMPDEST POP POP POP POP POP DUP2 JUMP JUMPDEST PUSH1 0x0 DUP2 PUSH1 0x4 PUSH1 0x0 CALLER PUSH20 0xFFFFFFFFFFFFFFFFFFFFFFFFFFFFFFFFFFFFFFFF AND PUSH20 0xFFFFFFFFFFFFFFFFFFFFFFFFFFFFFFFFFFFFFFFF AND DUP2 MSTORE PUSH1 0x20 ADD SWAP1 DUP2 MSTORE PUSH1 0x20 ADD PUSH1 0x0 KECCAK256 PUSH1 0x0 DUP6 PUSH20 0xFFFFFFFFFFFFFFFFFFFFFFFFFFFFFFFFFFFFFFFF AND PUSH20 0xFFFFFFFFFFFFFFFFFFFFFFFFFFFFFFFFFFFFFFFF AND DUP2 MSTORE PUSH1 0x20 ADD SWAP1 DUP2 MSTORE PUSH1 0x20 ADD PUSH1 0x0 KECCAK256 DUP2 SWAP1 SSTORE POP DUP3 PUSH20 0xFFFFFFFFFFFFFFFFFFFFFFFFFFFFFFFFFFFFFFFF AND CALLER PUSH20 0xFFFFFFFFFFFFFFFFFFFFFFFFFFFFFFFFFFFFFFFF AND PUSH32 0x8C5BE1E5EBEC7D5BD14F71427D1E84F3DD0314C0F7B2291E5B200AC8C7C3B925 DUP5 PUSH1 0x40 MLOAD PUSH2 0x3A9 SWAP2 SWAP1 PUSH2 0x93C JUMP JUMPDEST PUSH1 0x40 MLOAD DUP1 SWAP2 SUB SWAP1 LOG3 PUSH1 0x1 SWAP1 POP SWAP3 SWAP2 POP POP JUMP JUMPDEST PUSH1 0x0 PUSH1 0x5 SLOAD SWAP1 POP SWAP1 JUMP JUMPDEST PUSH1 0x2 PUSH1 0x0 SWAP1 SLOAD SWAP1 PUSH2 0x100 EXP SWAP1 DIV PUSH1 0xFF AND DUP2 JUMP JUMPDEST PUSH1 0x0 DUP2 PUSH1 0x5 PUSH1 0x0 DUP3 DUP3 SLOAD PUSH2 0x3EC SWAP2 SWAP1 PUSH2 0x9E4 JUMP JUMPDEST SWAP3 POP POP DUP2 SWAP1 SSTORE POP DUP2 PUSH1 0x3 PUSH1 0x0 CALLER PUSH20 0xFFFFFFFFFFFFFFFFFFFFFFFFFFFFFFFFFFFFFFFF AND PUSH20 0xFFFFFFFFFFFFFFFFFFFFFFFFFFFFFFFFFFFFFFFF AND DUP2 MSTORE PUSH1 0x20 ADD SWAP1 DUP2 MSTORE PUSH1 0x20 ADD PUSH1 0x0 KECCAK256 PUSH1 0x0 DUP3 DUP3 SLOAD PUSH2 0x442 SWAP2 SWAP1 PUSH2 0x9E4 JUMP JUMPDEST SWAP3 POP POP DUP2 SWAP1 SSTORE POP PUSH1 0x5 SLOAD SWAP1 POP SWAP2 SWAP1 POP JUMP JUMPDEST PUSH1 0x0 PUSH1 0x3 PUSH1 0x0 DUP4 PUSH20 0xFFFFFFFFFFFFFFFFFFFFFFFFFFFFFFFFFFFFFFFF AND PUSH20 0xFFFFFFFFFFFFFFFFFFFFFFFFFFFFFFFFFFFFFFFF AND DUP2 MSTORE PUSH1 0x20 ADD SWAP1 DUP2 MSTORE PUSH1 0x20 ADD PUSH1 0x0 KECCAK256 SLOAD SWAP1 POP SWAP2 SWAP1 POP JUMP JUMPDEST PUSH1 0x1 DUP1 SLOAD PUSH2 0x4A9 SWAP1 PUSH2 0xAA0 JUMP JUMPDEST DUP1 PUSH1 0x1F ADD PUSH1 0x20 DUP1 SWAP2 DIV MUL PUSH1 0x20 ADD PUSH1 0x40 MLOAD SWAP1 DUP2 ADD PUSH1 0x40 MSTORE DUP1 SWAP3 SWAP2 SWAP1 DUP2 DUP2 MSTORE PUSH1 0x20 ADD DUP3 DUP1 SLOAD PUSH2 0x4D5 SWAP1 PUSH2 0xAA0 JUMP JUMPDEST DUP1 ISZERO PUSH2 0x522 JUMPI DUP1 PUSH1 0x1F LT PUSH2 0x4F7 JUMPI PUSH2 0x100 DUP1 DUP4 SLOAD DIV MUL DUP4 MSTORE SWAP2 PUSH1 0x20 ADD SWAP2 PUSH2 0x522 JUMP JUMPDEST DUP3 ADD SWAP2 SWAP1 PUSH1 0x0 MSTORE PUSH1 0x20 PUSH1 0x0 KECCAK256 SWAP1 JUMPDEST DUP2 SLOAD DUP2 MSTORE SWAP1 PUSH1 0x1 ADD SWAP1 PUSH1 0x20 ADD DUP1 DUP4 GT PUSH2 0x505 JUMPI DUP3 SWAP1 SUB PUSH1 0x1F AND DUP3 ADD SWAP2 JUMPDEST POP POP POP POP POP DUP2 JUMP JUMPDEST PUSH1 0x0 DUP2 PUSH1 0x5 PUSH1 0x0 DUP3 DUP3 SLOAD PUSH2 0x53E SWAP2 SWAP1 PUSH2 0x98E JUMP JUMPDEST SWAP3 POP POP DUP2 SWAP1 SSTORE POP DUP2 PUSH1 0x3 PUSH1 0x0 CALLER PUSH20 0xFFFFFFFFFFFFFFFFFFFFFFFFFFFFFFFFFFFFFFFF AND PUSH20 0xFFFFFFFFFFFFFFFFFFFFFFFFFFFFFFFFFFFFFFFF AND DUP2 MSTORE PUSH1 0x20 ADD SWAP1 DUP2 MSTORE PUSH1 0x20 ADD PUSH1 0x0 KECCAK256 PUSH1 0x0 DUP3 DUP3 SLOAD PUSH2 0x594 SWAP2 SWAP1 PUSH2 0x98E JUMP JUMPDEST SWAP3 POP POP DUP2 SWAP1 SSTORE POP PUSH1 0x5 SLOAD SWAP1 POP SWAP2 SWAP1 POP JUMP JUMPDEST PUSH1 0x0 PUSH1 0x3 PUSH1 0x0 CALLER PUSH20 0xFFFFFFFFFFFFFFFFFFFFFFFFFFFFFFFFFFFFFFFF AND PUSH20 0xFFFFFFFFFFFFFFFFFFFFFFFFFFFFFFFFFFFFFFFF AND DUP2 MSTORE PUSH1 0x20 ADD SWAP1 DUP2 MSTORE PUSH1 0x20 ADD PUSH1 0x0 KECCAK256 SLOAD DUP3 GT ISZERO PUSH2 0x5F3 JUMPI PUSH1 0x0 DUP1 REVERT JUMPDEST DUP2 PUSH1 0x3 PUSH1 0x0 CALLER PUSH20 0xFFFFFFFFFFFFFFFFFFFFFFFFFFFFFFFFFFFFFFFF AND PUSH20 0xFFFFFFFFFFFFFFFFFFFFFFFFFFFFFFFFFFFFFFFF AND DUP2 MSTORE PUSH1 0x20 ADD SWAP1 DUP2 MSTORE PUSH1 0x20 ADD PUSH1 0x0 KECCAK256 PUSH1 0x0 DUP3 DUP3 SLOAD PUSH2 0x642 SWAP2 SWAP1 PUSH2 0x9E4 JUMP JUMPDEST SWAP3 POP POP DUP2 SWAP1 SSTORE POP DUP2 PUSH1 0x3 PUSH1 0x0 DUP6 PUSH20 0xFFFFFFFFFFFFFFFFFFFFFFFFFFFFFFFFFFFFFFFF AND PUSH20 0xFFFFFFFFFFFFFFFFFFFFFFFFFFFFFFFFFFFFFFFF AND DUP2 MSTORE PUSH1 0x20 ADD SWAP1 DUP2 MSTORE PUSH1 0x20 ADD PUSH1 0x0 KECCAK256 PUSH1 0x0 DUP3 DUP3 SLOAD PUSH2 0x698 SWAP2 SWAP1 PUSH2 0x98E JUMP JUMPDEST SWAP3 POP POP DUP2 SWAP1 SSTORE POP DUP3 PUSH20 0xFFFFFFFFFFFFFFFFFFFFFFFFFFFFFFFFFFFFFFFF AND CALLER PUSH20 0xFFFFFFFFFFFFFFFFFFFFFFFFFFFFFFFFFFFFFFFF AND PUSH32 0xDDF252AD1BE2C89B69C2B068FC378DAA952BA7F163C4A11628F55A4DF523B3EF DUP5 PUSH1 0x40 MLOAD PUSH2 0x6FC SWAP2 SWAP1 PUSH2 0x93C JUMP JUMPDEST PUSH1 0x40 MLOAD DUP1 SWAP2 SUB SWAP1 LOG3 PUSH1 0x1 SWAP1 POP SWAP3 SWAP2 POP POP JUMP JUMPDEST PUSH1 0x0 PUSH1 0x4 PUSH1 0x0 DUP5 PUSH20 0xFFFFFFFFFFFFFFFFFFFFFFFFFFFFFFFFFFFFFFFF AND PUSH20 0xFFFFFFFFFFFFFFFFFFFFFFFFFFFFFFFFFFFFFFFF AND DUP2 MSTORE PUSH1 0x20 ADD SWAP1 DUP2 MSTORE PUSH1 0x20 ADD PUSH1 0x0 KECCAK256 PUSH1 0x0 DUP4 PUSH20 0xFFFFFFFFFFFFFFFFFFFFFFFFFFFFFFFFFFFFFFFF AND PUSH20 0xFFFFFFFFFFFFFFFFFFFFFFFFFFFFFFFFFFFFFFFF AND DUP2 MSTORE PUSH1 0x20 ADD SWAP1 DUP2 MSTORE PUSH1 0x20 ADD PUSH1 0x0 KECCAK256 SLOAD SWAP1 POP SWAP3 SWAP2 POP POP JUMP JUMPDEST PUSH1 0x0 DUP2 CALLDATALOAD SWAP1 POP PUSH2 0x7A4 DUP2 PUSH2 0xB46 JUMP JUMPDEST SWAP3 SWAP2 POP POP JUMP JUMPDEST PUSH1 0x0 DUP2 CALLDATALOAD SWAP1 POP PUSH2 0x7B9 DUP2 PUSH2 0xB5D JUMP JUMPDEST SWAP3 SWAP2 POP POP JUMP JUMPDEST PUSH1 0x0 PUSH1 0x20 DUP3 DUP5 SUB SLT ISZERO PUSH2 0x7D5 JUMPI PUSH2 0x7D4 PUSH2 0xB30 JUMP JUMPDEST JUMPDEST PUSH1 0x0 PUSH2 0x7E3 DUP5 DUP3 DUP6 ADD PUSH2 0x795 JUMP JUMPDEST SWAP2 POP POP SWAP3 SWAP2 POP POP JUMP JUMPDEST PUSH1 0x0 DUP1 PUSH1 0x40 DUP4 DUP6 SUB SLT ISZERO PUSH2 0x803 JUMPI PUSH2 0x802 PUSH2 0xB30 JUMP JUMPDEST JUMPDEST PUSH1 0x0 PUSH2 0x811 DUP6 DUP3 DUP7 ADD PUSH2 0x795 JUMP JUMPDEST SWAP3 POP POP PUSH1 0x20 PUSH2 0x822 DUP6 DUP3 DUP7 ADD PUSH2 0x795 JUMP JUMPDEST SWAP2 POP POP SWAP3 POP SWAP3 SWAP1 POP JUMP JUMPDEST PUSH1 0x0 DUP1 PUSH1 0x40 DUP4 DUP6 SUB SLT ISZERO PUSH2 0x843 JUMPI PUSH2 0x842 PUSH2 0xB30 JUMP JUMPDEST JUMPDEST PUSH1 0x0 PUSH2 0x851 DUP6 DUP3 DUP7 ADD PUSH2 0x795 JUMP JUMPDEST SWAP3 POP POP PUSH1 0x20 PUSH2 0x862 DUP6 DUP3 DUP7 ADD PUSH2 0x7AA JUMP JUMPDEST SWAP2 POP POP SWAP3 POP SWAP3 SWAP1 POP JUMP JUMPDEST PUSH1 0x0 PUSH1 0x20 DUP3 DUP5 SUB SLT ISZERO PUSH2 0x882 JUMPI PUSH2 0x881 PUSH2 0xB30 JUMP JUMPDEST JUMPDEST PUSH1 0x0 PUSH2 0x890 DUP5 DUP3 DUP6 ADD PUSH2 0x7AA JUMP JUMPDEST SWAP2 POP POP SWAP3 SWAP2 POP POP JUMP JUMPDEST PUSH2 0x8A2 DUP2 PUSH2 0xA2A JUMP JUMPDEST DUP3 MSTORE POP POP JUMP JUMPDEST PUSH1 0x0 PUSH2 0x8B3 DUP3 PUSH2 0x972 JUMP JUMPDEST PUSH2 0x8BD DUP2 DUP6 PUSH2 0x97D JUMP JUMPDEST SWAP4 POP PUSH2 0x8CD DUP2 DUP6 PUSH1 0x20 DUP7 ADD PUSH2 0xA6D JUMP JUMPDEST PUSH2 0x8D6 DUP2 PUSH2 0xB35 JUMP JUMPDEST DUP5 ADD SWAP2 POP POP SWAP3 SWAP2 POP POP JUMP JUMPDEST PUSH2 0x8EA DUP2 PUSH2 0xA56 JUMP JUMPDEST DUP3 MSTORE POP POP JUMP JUMPDEST PUSH2 0x8F9 DUP2 PUSH2 0xA60 JUMP JUMPDEST DUP3 MSTORE POP POP JUMP JUMPDEST PUSH1 0x0 PUSH1 0x20 DUP3 ADD SWAP1 POP PUSH2 0x914 PUSH1 0x0 DUP4 ADD DUP5 PUSH2 0x899 JUMP JUMPDEST SWAP3 SWAP2 POP POP JUMP JUMPDEST PUSH1 0x0 PUSH1 0x20 DUP3 ADD SWAP1 POP DUP2 DUP2 SUB PUSH1 0x0 DUP4 ADD MSTORE PUSH2 0x934 DUP2 DUP5 PUSH2 0x8A8 JUMP JUMPDEST SWAP1 POP SWAP3 SWAP2 POP POP JUMP JUMPDEST PUSH1 0x0 PUSH1 0x20 DUP3 ADD SWAP1 POP PUSH2 0x951 PUSH1 0x0 DUP4 ADD DUP5 PUSH2 0x8E1 JUMP JUMPDEST SWAP3 SWAP2 POP POP JUMP JUMPDEST PUSH1 0x0 PUSH1 0x20 DUP3 ADD SWAP1 POP PUSH2 0x96C PUSH1 0x0 DUP4 ADD DUP5 PUSH2 0x8F0 JUMP JUMPDEST SWAP3 SWAP2 POP POP JUMP JUMPDEST PUSH1 0x0 DUP2 MLOAD SWAP1 POP SWAP2 SWAP1 POP JUMP JUMPDEST PUSH1 0x0 DUP3 DUP3 MSTORE PUSH1 0x20 DUP3 ADD SWAP1 POP SWAP3 SWAP2 POP POP JUMP JUMPDEST PUSH1 0x0 PUSH2 0x999 DUP3 PUSH2 0xA56 JUMP JUMPDEST SWAP2 POP PUSH2 0x9A4 DUP4 PUSH2 0xA56 JUMP JUMPDEST SWAP3 POP DUP3 PUSH32 0xFFFFFFFFFFFFFFFFFFFFFFFFFFFFFFFFFFFFFFFFFFFFFFFFFFFFFFFFFFFFFFFF SUB DUP3 GT ISZERO PUSH2 0x9D9 JUMPI PUSH2 0x9D8 PUSH2 0xAD2 JUMP JUMPDEST JUMPDEST DUP3 DUP3 ADD SWAP1 POP SWAP3 SWAP2 POP POP JUMP JUMPDEST PUSH1 0x0 PUSH2 0x9EF DUP3 PUSH2 0xA56 JUMP JUMPDEST SWAP2 POP PUSH2 0x9FA DUP4 PUSH2 0xA56 JUMP JUMPDEST SWAP3 POP DUP3 DUP3 LT ISZERO PUSH2 0xA0D JUMPI PUSH2 0xA0C PUSH2 0xAD2 JUMP JUMPDEST JUMPDEST DUP3 DUP3 SUB SWAP1 POP SWAP3 SWAP2 POP POP JUMP JUMPDEST PUSH1 0x0 PUSH2 0xA23 DUP3 PUSH2 0xA36 JUMP JUMPDEST SWAP1 POP SWAP2 SWAP1 POP JUMP JUMPDEST PUSH1 0x0 DUP2 ISZERO ISZERO SWAP1 POP SWAP2 SWAP1 POP JUMP JUMPDEST PUSH1 0x0 PUSH20 0xFFFFFFFFFFFFFFFFFFFFFFFFFFFFFFFFFFFFFFFF DUP3 AND SWAP1 POP SWAP2 SWAP1 POP JUMP JUMPDEST PUSH1 0x0 DUP2 SWAP1 POP SWAP2 SWAP1 POP JUMP JUMPDEST PUSH1 0x0 PUSH1 0xFF DUP3 AND SWAP1 POP SWAP2 SWAP1 POP JUMP JUMPDEST PUSH1 0x0 JUMPDEST DUP4 DUP2 LT ISZERO PUSH2 0xA8B JUMPI DUP1 DUP3 ADD MLOAD DUP2 DUP5 ADD MSTORE PUSH1 0x20 DUP2 ADD SWAP1 POP PUSH2 0xA70 JUMP JUMPDEST DUP4 DUP2 GT ISZERO PUSH2 0xA9A JUMPI PUSH1 0x0 DUP5 DUP5 ADD MSTORE JUMPDEST POP POP POP POP JUMP JUMPDEST PUSH1 0x0 PUSH1 0x2 DUP3 DIV SWAP1 POP PUSH1 0x1 DUP3 AND DUP1 PUSH2 0xAB8 JUMPI PUSH1 0x7F DUP3 AND SWAP2 POP JUMPDEST PUSH1 0x20 DUP3 LT DUP2 EQ ISZERO PUSH2 0xACC JUMPI PUSH2 0xACB PUSH2 0xB01 JUMP JUMPDEST JUMPDEST POP SWAP2 SWAP1 POP JUMP JUMPDEST PUSH32 0x4E487B7100000000000000000000000000000000000000000000000000000000 PUSH1 0x0 MSTORE PUSH1 0x11 PUSH1 0x4 MSTORE PUSH1 0x24 PUSH1 0x0 REVERT JUMPDEST PUSH32 0x4E487B7100000000000000000000000000000000000000000000000000000000 PUSH1 0x0 MSTORE PUSH1 0x22 PUSH1 0x4 MSTORE PUSH1 0x24 PUSH1 0x0 REVERT JUMPDEST PUSH1 0x0 DUP1 REVERT JUMPDEST PUSH1 0x0 PUSH1 0x1F NOT PUSH1 0x1F DUP4 ADD AND SWAP1 POP SWAP2 SWAP1 POP JUMP JUMPDEST PUSH2 0xB4F DUP2 PUSH2 0xA18 JUMP JUMPDEST DUP2 EQ PUSH2 0xB5A JUMPI PUSH1 0x0 DUP1 REVERT JUMPDEST POP JUMP JUMPDEST PUSH2 0xB66 DUP2 PUSH2 0xA56 JUMP JUMPDEST DUP2 EQ PUSH2 0xB71 JUMPI PUSH1 0x0 DUP1 REVERT JUMPDEST POP JUMP INVALID LOG2 PUSH5 0x6970667358 0x22 SLT KECCAK256 LOG0 PUSH12 0x456D726152BA2E668E6B3EEF 0x5F DIFFICULTY 0xD7 0xAF 0xA9 0xAC 0x2B AND EXTCODEHASH GT 0xC 0xC3 PUSH8 0x7C0915387964736F PUSH13 0x63430008070033000000000000 "
				},
				"gasEstimates": {
					"creation": {
						"codeDepositCost": "597200",
						"executionCost": "infinite",
						"totalCost": "infinite"
					},
					"external": {
						"allowance(address,address)": "infinite",
						"approve(address,uint256)": "infinite",
						"balanceOf(address)": "2841",
						"burn(uint256)": "infinite",
						"decimals()": "2538",
						"mint(uint256)": "infinite",
						"name()": "infinite",
						"symbol()": "infinite",
						"totalSupply()": "2482",
						"transfer(address,uint256)": "infinite"
					}
				},
				"methodIdentifiers": {
					"allowance(address,address)": "dd62ed3e",
					"approve(address,uint256)": "095ea7b3",
					"balanceOf(address)": "70a08231",
					"burn(uint256)": "42966c68",
					"decimals()": "313ce567",
					"mint(uint256)": "a0712d68",
					"name()": "06fdde03",
					"symbol()": "95d89b41",
					"totalSupply()": "18160ddd",
					"transfer(address,uint256)": "a9059cbb"
				}
			},
			"storageLayout": {
				"storage": [
					{
						"astId": 35,
						"contract": "contracts/Erc20.sol:CGCToken",
						"label": "name",
						"offset": 0,
						"slot": "0",
						"type": "t_string_storage"
					},
					{
						"astId": 37,
						"contract": "contracts/Erc20.sol:CGCToken",
						"label": "symbol",
						"offset": 0,
						"slot": "1",
						"type": "t_string_storage"
					},
					{
						"astId": 39,
						"contract": "contracts/Erc20.sol:CGCToken",
						"label": "decimals",
						"offset": 0,
						"slot": "2",
						"type": "t_uint8"
					},
					{
						"astId": 51,
						"contract": "contracts/Erc20.sol:CGCToken",
						"label": "balances",
						"offset": 0,
						"slot": "3",
						"type": "t_mapping(t_address,t_uint256)"
					},
					{
						"astId": 57,
						"contract": "contracts/Erc20.sol:CGCToken",
						"label": "allowed",
						"offset": 0,
						"slot": "4",
						"type": "t_mapping(t_address,t_mapping(t_address,t_uint256))"
					},
					{
						"astId": 59,
						"contract": "contracts/Erc20.sol:CGCToken",
						"label": "_totalSupply",
						"offset": 0,
						"slot": "5",
						"type": "t_uint256"
					}
				],
				"types": {
					"t_address": {
						"encoding": "inplace",
						"label": "address",
						"numberOfBytes": "20"
					},
					"t_mapping(t_address,t_mapping(t_address,t_uint256))": {
						"encoding": "mapping",
						"key": "t_address",
						"label": "mapping(address => mapping(address => uint256))",
						"numberOfBytes": "32",
						"value": "t_mapping(t_address,t_uint256)"
					},
					"t_mapping(t_address,t_uint256)": {
						"encoding": "mapping",
						"key": "t_address",
						"label": "mapping(address => uint256)",
						"numberOfBytes": "32",
						"value": "t_uint256"
					},
					"t_string_storage": {
						"encoding": "bytes",
						"label": "string",
						"numberOfBytes": "32"
					},
					"t_uint256": {
						"encoding": "inplace",
						"label": "uint256",
						"numberOfBytes": "32"
					},
					"t_uint8": {
						"encoding": "inplace",
						"label": "uint8",
						"numberOfBytes": "1"
					}
				}
			},
			"userdoc": {
				"kind": "user",
				"methods": {},
				"version": 1
			}
		}
	}
}