{
	"contracts/Bitcoin.sol": {
		"MyBitcoin": {
			"abi": [
				{
					"inputs": [],
					"stateMutability": "nonpayable",
					"type": "constructor"
				},
				{
					"inputs": [
						{
							"internalType": "address",
							"name": "spender",
							"type": "address"
						},
						{
							"internalType": "uint256",
							"name": "numTokens",
							"type": "uint256"
						}
					],
					"name": "Approval",
					"outputs": [
						{
							"internalType": "bool",
							"name": "",
							"type": "bool"
						}
					],
					"stateMutability": "nonpayable",
					"type": "function"
				},
				{
					"inputs": [
						{
							"internalType": "address",
							"name": "",
							"type": "address"
						},
						{
							"internalType": "address",
							"name": "",
							"type": "address"
						}
					],
					"name": "_allowance",
					"outputs": [
						{
							"internalType": "uint256",
							"name": "",
							"type": "uint256"
						}
					],
					"stateMutability": "view",
					"type": "function"
				},
				{
					"inputs": [
						{
							"internalType": "address",
							"name": "",
							"type": "address"
						},
						{
							"internalType": "address",
							"name": "",
							"type": "address"
						}
					],
					"name": "_approval",
					"outputs": [
						{
							"internalType": "uint256",
							"name": "",
							"type": "uint256"
						}
					],
					"stateMutability": "view",
					"type": "function"
				},
				{
					"inputs": [
						{
							"internalType": "address",
							"name": "msgsender",
							"type": "address"
						},
						{
							"internalType": "address",
							"name": "spender",
							"type": "address"
						},
						{
							"internalType": "uint256",
							"name": "numTokens",
							"type": "uint256"
						}
					],
					"name": "allowance",
					"outputs": [
						{
							"internalType": "bool",
							"name": "",
							"type": "bool"
						}
					],
					"stateMutability": "nonpayable",
					"type": "function"
				},
				{
					"inputs": [
						{
							"internalType": "address",
							"name": "",
							"type": "address"
						}
					],
					"name": "balances",
					"outputs": [
						{
							"internalType": "uint256",
							"name": "",
							"type": "uint256"
						}
					],
					"stateMutability": "view",
					"type": "function"
				},
				{
					"inputs": [
						{
							"internalType": "address",
							"name": "receiver",
							"type": "address"
						},
						{
							"internalType": "uint256",
							"name": "amount",
							"type": "uint256"
						}
					],
					"name": "burn",
					"outputs": [],
					"stateMutability": "nonpayable",
					"type": "function"
				},
				{
					"inputs": [],
					"name": "decimals",
					"outputs": [
						{
							"internalType": "uint8",
							"name": "",
							"type": "uint8"
						}
					],
					"stateMutability": "view",
					"type": "function"
				},
				{
					"inputs": [
						{
							"internalType": "address",
							"name": "receiver",
							"type": "address"
						},
						{
							"internalType": "uint256",
							"name": "amount",
							"type": "uint256"
						}
					],
					"name": "mint",
					"outputs": [],
					"stateMutability": "nonpayable",
					"type": "function"
				},
				{
					"inputs": [
						{
							"internalType": "address",
							"name": "receiver",
							"type": "address"
						},
						{
							"internalType": "uint256",
							"name": "amount",
							"type": "uint256"
						}
					],
					"name": "transfer",
					"outputs": [],
					"stateMutability": "nonpayable",
					"type": "function"
				},
				{
					"inputs": [
						{
							"internalType": "address",
							"name": "current_sender",
							"type": "address"
						},
						{
							"internalType": "address",
							"name": "receiver",
							"type": "address"
						},
						{
							"internalType": "uint256",
							"name": "amount",
							"type": "uint256"
						}
					],
					"name": "transferFrom",
					"outputs": [],
					"stateMutability": "nonpayable",
					"type": "function"
				},
				{
					"inputs": [],
					"name": "wakar",
					"outputs": [
						{
							"internalType": "address",
							"name": "",
							"type": "address"
						}
					],
					"stateMutability": "view",
					"type": "function"
				}
			],
			"devdoc": {
				"kind": "dev",
				"methods": {},
				"version": 1
			},
			"evm": {
				"assembly": "    /* \"contracts/Bitcoin.sol\":72:1336  contract MyBitcoin {\r... */\n  mstore(0x40, 0x80)\n    /* \"contracts/Bitcoin.sol\":353:402  constructor() {\r... */\n  callvalue\n  dup1\n  iszero\n  tag_1\n  jumpi\n  0x00\n  dup1\n  revert\ntag_1:\n  pop\n    /* \"contracts/Bitcoin.sol\":381:391  msg.sender */\n  caller\n    /* \"contracts/Bitcoin.sol\":374:379  wakar */\n  0x00\n  dup1\n    /* \"contracts/Bitcoin.sol\":374:391  wakar =msg.sender */\n  0x0100\n  exp\n  dup2\n  sload\n  dup2\n  0xffffffffffffffffffffffffffffffffffffffff\n  mul\n  not\n  and\n  swap1\n  dup4\n  0xffffffffffffffffffffffffffffffffffffffff\n  and\n  mul\n  or\n  swap1\n  sstore\n  pop\n    /* \"contracts/Bitcoin.sol\":72:1336  contract MyBitcoin {\r... */\n  dataSize(sub_0)\n  dup1\n  dataOffset(sub_0)\n  0x00\n  codecopy\n  0x00\n  return\nstop\n\nsub_0: assembly {\n        /* \"contracts/Bitcoin.sol\":72:1336  contract MyBitcoin {\r... */\n      mstore(0x40, 0x80)\n      callvalue\n      dup1\n      iszero\n      tag_1\n      jumpi\n      0x00\n      dup1\n      revert\n    tag_1:\n      pop\n      jumpi(tag_2, lt(calldatasize, 0x04))\n      shr(0xe0, calldataload(0x00))\n      dup1\n      0x313ce567\n      gt\n      tag_14\n      jumpi\n      dup1\n      0x313ce567\n      eq\n      tag_8\n      jumpi\n      dup1\n      0x40c10f19\n      eq\n      tag_9\n      jumpi\n      dup1\n      0x598af9e7\n      eq\n      tag_10\n      jumpi\n      dup1\n      0x9dc29fac\n      eq\n      tag_11\n      jumpi\n      dup1\n      0xa9059cbb\n      eq\n      tag_12\n      jumpi\n      dup1\n      0xdd336c12\n      eq\n      tag_13\n      jumpi\n      jump(tag_2)\n    tag_14:\n      dup1\n      0x13f27ae3\n      eq\n      tag_3\n      jumpi\n      dup1\n      0x1e410981\n      eq\n      tag_4\n      jumpi\n      dup1\n      0x23b872dd\n      eq\n      tag_5\n      jumpi\n      dup1\n      0x27e235e3\n      eq\n      tag_6\n      jumpi\n      dup1\n      0x2f5f1b6d\n      eq\n      tag_7\n      jumpi\n    tag_2:\n      0x00\n      dup1\n      revert\n        /* \"contracts/Bitcoin.sol\":98:118  address public wakar */\n    tag_3:\n      tag_15\n      tag_16\n      jump\t// in\n    tag_15:\n      mload(0x40)\n      tag_17\n      swap2\n      swap1\n      tag_18\n      jump\t// in\n    tag_17:\n      mload(0x40)\n      dup1\n      swap2\n      sub\n      swap1\n      return\n        /* \"contracts/Bitcoin.sol\":1096:1234  function Approval(address spender,uint numTokens) public  returns (bool) {\r... */\n    tag_4:\n      tag_19\n      0x04\n      dup1\n      calldatasize\n      sub\n      dup2\n      add\n      swap1\n      tag_20\n      swap2\n      swap1\n      tag_21\n      jump\t// in\n    tag_20:\n      tag_22\n      jump\t// in\n    tag_19:\n      mload(0x40)\n      tag_23\n      swap2\n      swap1\n      tag_24\n      jump\t// in\n    tag_23:\n      mload(0x40)\n      dup1\n      swap2\n      sub\n      swap1\n      return\n        /* \"contracts/Bitcoin.sol\":899:1094  function transferFrom(address current_sender, address receiver, uint amount) public {\r... */\n    tag_5:\n      tag_25\n      0x04\n      dup1\n      calldatasize\n      sub\n      dup2\n      add\n      swap1\n      tag_26\n      swap2\n      swap1\n      tag_27\n      jump\t// in\n    tag_26:\n      tag_28\n      jump\t// in\n    tag_25:\n      stop\n        /* \"contracts/Bitcoin.sol\":125:165  mapping (address =>uint) public balances */\n    tag_6:\n      tag_29\n      0x04\n      dup1\n      calldatasize\n      sub\n      dup2\n      add\n      swap1\n      tag_30\n      swap2\n      swap1\n      tag_31\n      jump\t// in\n    tag_30:\n      tag_32\n      jump\t// in\n    tag_29:\n      mload(0x40)\n      tag_33\n      swap2\n      swap1\n      tag_34\n      jump\t// in\n    tag_33:\n      mload(0x40)\n      dup1\n      swap2\n      sub\n      swap1\n      return\n        /* \"contracts/Bitcoin.sol\":218:279  mapping(address => mapping(address => uint)) public _approval */\n    tag_7:\n      tag_35\n      0x04\n      dup1\n      calldatasize\n      sub\n      dup2\n      add\n      swap1\n      tag_36\n      swap2\n      swap1\n      tag_37\n      jump\t// in\n    tag_36:\n      tag_38\n      jump\t// in\n    tag_35:\n      mload(0x40)\n      tag_39\n      swap2\n      swap1\n      tag_34\n      jump\t// in\n    tag_39:\n      mload(0x40)\n      dup1\n      swap2\n      sub\n      swap1\n      return\n        /* \"contracts/Bitcoin.sol\":172:207  uint8 public constant decimals = 12 */\n    tag_8:\n      tag_40\n      tag_41\n      jump\t// in\n    tag_40:\n      mload(0x40)\n      tag_42\n      swap2\n      swap1\n      tag_43\n      jump\t// in\n    tag_42:\n      mload(0x40)\n      dup1\n      swap2\n      sub\n      swap1\n      return\n        /* \"contracts/Bitcoin.sol\":407:560  function mint(address receiver,uint amount) public {\r... */\n    tag_9:\n      tag_44\n      0x04\n      dup1\n      calldatasize\n      sub\n      dup2\n      add\n      swap1\n      tag_45\n      swap2\n      swap1\n      tag_21\n      jump\t// in\n    tag_45:\n      tag_46\n      jump\t// in\n    tag_44:\n      stop\n        /* \"contracts/Bitcoin.sol\":1236:1333  function allowance(address msgsender,address spender,uint numTokens) public returns (bool) {\r... */\n    tag_10:\n      tag_47\n      0x04\n      dup1\n      calldatasize\n      sub\n      dup2\n      add\n      swap1\n      tag_48\n      swap2\n      swap1\n      tag_27\n      jump\t// in\n    tag_48:\n      tag_49\n      jump\t// in\n    tag_47:\n      mload(0x40)\n      tag_50\n      swap2\n      swap1\n      tag_24\n      jump\t// in\n    tag_50:\n      mload(0x40)\n      dup1\n      swap2\n      sub\n      swap1\n      return\n        /* \"contracts/Bitcoin.sol\":564:717  function burn(address receiver,uint amount) public {\r... */\n    tag_11:\n      tag_51\n      0x04\n      dup1\n      calldatasize\n      sub\n      dup2\n      add\n      swap1\n      tag_52\n      swap2\n      swap1\n      tag_21\n      jump\t// in\n    tag_52:\n      tag_53\n      jump\t// in\n    tag_51:\n      stop\n        /* \"contracts/Bitcoin.sol\":721:897  function transfer(address receiver, uint amount) public {\r... */\n    tag_12:\n      tag_54\n      0x04\n      dup1\n      calldatasize\n      sub\n      dup2\n      add\n      swap1\n      tag_55\n      swap2\n      swap1\n      tag_21\n      jump\t// in\n    tag_55:\n      tag_56\n      jump\t// in\n    tag_54:\n      stop\n        /* \"contracts/Bitcoin.sol\":284:346  mapping(address => mapping(address => uint)) public _allowance */\n    tag_13:\n      tag_57\n      0x04\n      dup1\n      calldatasize\n      sub\n      dup2\n      add\n      swap1\n      tag_58\n      swap2\n      swap1\n      tag_37\n      jump\t// in\n    tag_58:\n      tag_59\n      jump\t// in\n    tag_57:\n      mload(0x40)\n      tag_60\n      swap2\n      swap1\n      tag_34\n      jump\t// in\n    tag_60:\n      mload(0x40)\n      dup1\n      swap2\n      sub\n      swap1\n      return\n        /* \"contracts/Bitcoin.sol\":98:118  address public wakar */\n    tag_16:\n      0x00\n      dup1\n      sload\n      swap1\n      0x0100\n      exp\n      swap1\n      div\n      0xffffffffffffffffffffffffffffffffffffffff\n      and\n      dup2\n      jump\t// out\n        /* \"contracts/Bitcoin.sol\":1096:1234  function Approval(address spender,uint numTokens) public  returns (bool) {\r... */\n    tag_22:\n        /* \"contracts/Bitcoin.sol\":1163:1167  bool */\n      0x00\n        /* \"contracts/Bitcoin.sol\":1204:1213  numTokens */\n      dup2\n        /* \"contracts/Bitcoin.sol\":1172:1182  _allowance */\n      0x03\n        /* \"contracts/Bitcoin.sol\":1172:1194  _allowance[msg.sender] */\n      0x00\n        /* \"contracts/Bitcoin.sol\":1183:1193  msg.sender */\n      caller\n        /* \"contracts/Bitcoin.sol\":1172:1194  _allowance[msg.sender] */\n      0xffffffffffffffffffffffffffffffffffffffff\n      and\n      0xffffffffffffffffffffffffffffffffffffffff\n      and\n      dup2\n      mstore\n      0x20\n      add\n      swap1\n      dup2\n      mstore\n      0x20\n      add\n      0x00\n      keccak256\n        /* \"contracts/Bitcoin.sol\":1172:1203  _allowance[msg.sender][spender] */\n      0x00\n        /* \"contracts/Bitcoin.sol\":1195:1202  spender */\n      dup6\n        /* \"contracts/Bitcoin.sol\":1172:1203  _allowance[msg.sender][spender] */\n      0xffffffffffffffffffffffffffffffffffffffff\n      and\n      0xffffffffffffffffffffffffffffffffffffffff\n      and\n      dup2\n      mstore\n      0x20\n      add\n      swap1\n      dup2\n      mstore\n      0x20\n      add\n      0x00\n      keccak256\n        /* \"contracts/Bitcoin.sol\":1172:1213  _allowance[msg.sender][spender]=numTokens */\n      dup2\n      swap1\n      sstore\n      pop\n        /* \"contracts/Bitcoin.sol\":1226:1230  true */\n      0x01\n        /* \"contracts/Bitcoin.sol\":1219:1230  return true */\n      swap1\n      pop\n        /* \"contracts/Bitcoin.sol\":1096:1234  function Approval(address spender,uint numTokens) public  returns (bool) {\r... */\n      swap3\n      swap2\n      pop\n      pop\n      jump\t// out\n        /* \"contracts/Bitcoin.sol\":899:1094  function transferFrom(address current_sender, address receiver, uint amount) public {\r... */\n    tag_28:\n        /* \"contracts/Bitcoin.sol\":1005:1015  msg.sender */\n      caller\n        /* \"contracts/Bitcoin.sol\":990:1015  current_sender=msg.sender */\n      swap3\n      pop\n        /* \"contracts/Bitcoin.sol\":1047:1053  amount */\n      dup1\n        /* \"contracts/Bitcoin.sol\":1019:1027  balances */\n      0x01\n        /* \"contracts/Bitcoin.sol\":1019:1043  balances[current_sender] */\n      0x00\n        /* \"contracts/Bitcoin.sol\":1028:1042  current_sender */\n      dup6\n        /* \"contracts/Bitcoin.sol\":1019:1043  balances[current_sender] */\n      0xffffffffffffffffffffffffffffffffffffffff\n      and\n      0xffffffffffffffffffffffffffffffffffffffff\n      and\n      dup2\n      mstore\n      0x20\n      add\n      swap1\n      dup2\n      mstore\n      0x20\n      add\n      0x00\n      keccak256\n      0x00\n        /* \"contracts/Bitcoin.sol\":1019:1053  balances[current_sender] -= amount */\n      dup3\n      dup3\n      sload\n      tag_63\n      swap2\n      swap1\n      tag_64\n      jump\t// in\n    tag_63:\n      swap3\n      pop\n      pop\n      dup2\n      swap1\n      sstore\n      pop\n        /* \"contracts/Bitcoin.sol\":1082:1088  amount */\n      dup1\n        /* \"contracts/Bitcoin.sol\":1060:1068  balances */\n      0x01\n        /* \"contracts/Bitcoin.sol\":1060:1078  balances[receiver] */\n      0x00\n        /* \"contracts/Bitcoin.sol\":1069:1077  receiver */\n      dup5\n        /* \"contracts/Bitcoin.sol\":1060:1078  balances[receiver] */\n      0xffffffffffffffffffffffffffffffffffffffff\n      and\n      0xffffffffffffffffffffffffffffffffffffffff\n      and\n      dup2\n      mstore\n      0x20\n      add\n      swap1\n      dup2\n      mstore\n      0x20\n      add\n      0x00\n      keccak256\n      0x00\n        /* \"contracts/Bitcoin.sol\":1060:1088  balances[receiver] += amount */\n      dup3\n      dup3\n      sload\n      tag_65\n      swap2\n      swap1\n      tag_66\n      jump\t// in\n    tag_65:\n      swap3\n      pop\n      pop\n      dup2\n      swap1\n      sstore\n      pop\n        /* \"contracts/Bitcoin.sol\":899:1094  function transferFrom(address current_sender, address receiver, uint amount) public {\r... */\n      pop\n      pop\n      pop\n      jump\t// out\n        /* \"contracts/Bitcoin.sol\":125:165  mapping (address =>uint) public balances */\n    tag_32:\n      mstore(0x20, 0x01)\n      dup1\n      0x00\n      mstore\n      keccak256(0x00, 0x40)\n      0x00\n      swap2\n      pop\n      swap1\n      pop\n      sload\n      dup2\n      jump\t// out\n        /* \"contracts/Bitcoin.sol\":218:279  mapping(address => mapping(address => uint)) public _approval */\n    tag_38:\n      mstore(0x20, 0x02)\n      dup2\n      0x00\n      mstore\n      mstore(0x20, keccak256(0x00, 0x40))\n      dup1\n      0x00\n      mstore\n      keccak256(0x00, 0x40)\n      0x00\n      swap2\n      pop\n      swap2\n      pop\n      pop\n      sload\n      dup2\n      jump\t// out\n        /* \"contracts/Bitcoin.sol\":172:207  uint8 public constant decimals = 12 */\n    tag_41:\n        /* \"contracts/Bitcoin.sol\":205:207  12 */\n      0x0c\n        /* \"contracts/Bitcoin.sol\":172:207  uint8 public constant decimals = 12 */\n      dup2\n      jump\t// out\n        /* \"contracts/Bitcoin.sol\":407:560  function mint(address receiver,uint amount) public {\r... */\n    tag_46:\n        /* \"contracts/Bitcoin.sol\":490:495  wakar */\n      0x00\n      dup1\n      sload\n      swap1\n      0x0100\n      exp\n      swap1\n      div\n      0xffffffffffffffffffffffffffffffffffffffff\n      and\n        /* \"contracts/Bitcoin.sol\":476:495  msg.sender == wakar */\n      0xffffffffffffffffffffffffffffffffffffffff\n      and\n        /* \"contracts/Bitcoin.sol\":476:486  msg.sender */\n      caller\n        /* \"contracts/Bitcoin.sol\":476:495  msg.sender == wakar */\n      0xffffffffffffffffffffffffffffffffffffffff\n      and\n      eq\n        /* \"contracts/Bitcoin.sol\":468:518  require(msg.sender == wakar,\"your not the minter\") */\n      tag_68\n      jumpi\n      mload(0x40)\n      0x08c379a000000000000000000000000000000000000000000000000000000000\n      dup2\n      mstore\n      0x04\n      add\n      tag_69\n      swap1\n      tag_70\n      jump\t// in\n    tag_69:\n      mload(0x40)\n      dup1\n      swap2\n      sub\n      swap1\n      revert\n    tag_68:\n        /* \"contracts/Bitcoin.sol\":550:556  amount */\n      dup1\n        /* \"contracts/Bitcoin.sol\":528:536  balances */\n      0x01\n        /* \"contracts/Bitcoin.sol\":528:546  balances[receiver] */\n      0x00\n        /* \"contracts/Bitcoin.sol\":537:545  receiver */\n      dup5\n        /* \"contracts/Bitcoin.sol\":528:546  balances[receiver] */\n      0xffffffffffffffffffffffffffffffffffffffff\n      and\n      0xffffffffffffffffffffffffffffffffffffffff\n      and\n      dup2\n      mstore\n      0x20\n      add\n      swap1\n      dup2\n      mstore\n      0x20\n      add\n      0x00\n      keccak256\n      0x00\n        /* \"contracts/Bitcoin.sol\":528:556  balances[receiver] += amount */\n      dup3\n      dup3\n      sload\n      tag_71\n      swap2\n      swap1\n      tag_66\n      jump\t// in\n    tag_71:\n      swap3\n      pop\n      pop\n      dup2\n      swap1\n      sstore\n      pop\n        /* \"contracts/Bitcoin.sol\":407:560  function mint(address receiver,uint amount) public {\r... */\n      pop\n      pop\n      jump\t// out\n        /* \"contracts/Bitcoin.sol\":1236:1333  function allowance(address msgsender,address spender,uint numTokens) public returns (bool) {\r... */\n    tag_49:\n        /* \"contracts/Bitcoin.sol\":1321:1325  bool */\n      0x00\n        /* \"contracts/Bitcoin.sol\":1236:1333  function allowance(address msgsender,address spender,uint numTokens) public returns (bool) {\r... */\n      swap4\n      swap3\n      pop\n      pop\n      pop\n      jump\t// out\n        /* \"contracts/Bitcoin.sol\":564:717  function burn(address receiver,uint amount) public {\r... */\n    tag_53:\n        /* \"contracts/Bitcoin.sol\":647:652  wakar */\n      0x00\n      dup1\n      sload\n      swap1\n      0x0100\n      exp\n      swap1\n      div\n      0xffffffffffffffffffffffffffffffffffffffff\n      and\n        /* \"contracts/Bitcoin.sol\":633:652  msg.sender == wakar */\n      0xffffffffffffffffffffffffffffffffffffffff\n      and\n        /* \"contracts/Bitcoin.sol\":633:643  msg.sender */\n      caller\n        /* \"contracts/Bitcoin.sol\":633:652  msg.sender == wakar */\n      0xffffffffffffffffffffffffffffffffffffffff\n      and\n      eq\n        /* \"contracts/Bitcoin.sol\":625:675  require(msg.sender == wakar,\"your not the minter\") */\n      tag_74\n      jumpi\n      mload(0x40)\n      0x08c379a000000000000000000000000000000000000000000000000000000000\n      dup2\n      mstore\n      0x04\n      add\n      tag_75\n      swap1\n      tag_70\n      jump\t// in\n    tag_75:\n      mload(0x40)\n      dup1\n      swap2\n      sub\n      swap1\n      revert\n    tag_74:\n        /* \"contracts/Bitcoin.sol\":707:713  amount */\n      dup1\n        /* \"contracts/Bitcoin.sol\":685:693  balances */\n      0x01\n        /* \"contracts/Bitcoin.sol\":685:703  balances[receiver] */\n      0x00\n        /* \"contracts/Bitcoin.sol\":694:702  receiver */\n      dup5\n        /* \"contracts/Bitcoin.sol\":685:703  balances[receiver] */\n      0xffffffffffffffffffffffffffffffffffffffff\n      and\n      0xffffffffffffffffffffffffffffffffffffffff\n      and\n      dup2\n      mstore\n      0x20\n      add\n      swap1\n      dup2\n      mstore\n      0x20\n      add\n      0x00\n      keccak256\n      0x00\n        /* \"contracts/Bitcoin.sol\":685:713  balances[receiver] -= amount */\n      dup3\n      dup3\n      sload\n      tag_76\n      swap2\n      swap1\n      tag_64\n      jump\t// in\n    tag_76:\n      swap3\n      pop\n      pop\n      dup2\n      swap1\n      sstore\n      pop\n        /* \"contracts/Bitcoin.sol\":564:717  function burn(address receiver,uint amount) public {\r... */\n      pop\n      pop\n      jump\t// out\n        /* \"contracts/Bitcoin.sol\":721:897  function transfer(address receiver, uint amount) public {\r... */\n    tag_56:\n        /* \"contracts/Bitcoin.sol\":814:820  amount */\n      dup1\n        /* \"contracts/Bitcoin.sol\":792:800  balances */\n      0x01\n        /* \"contracts/Bitcoin.sol\":792:812  balances[msg.sender] */\n      0x00\n        /* \"contracts/Bitcoin.sol\":801:811  msg.sender */\n      caller\n        /* \"contracts/Bitcoin.sol\":792:812  balances[msg.sender] */\n      0xffffffffffffffffffffffffffffffffffffffff\n      and\n      0xffffffffffffffffffffffffffffffffffffffff\n      and\n      dup2\n      mstore\n      0x20\n      add\n      swap1\n      dup2\n      mstore\n      0x20\n      add\n      0x00\n      keccak256\n      sload\n        /* \"contracts/Bitcoin.sol\":792:820  balances[msg.sender]>=amount */\n      lt\n      iszero\n        /* \"contracts/Bitcoin.sol\":784:821  require(balances[msg.sender]>=amount) */\n      tag_78\n      jumpi\n      0x00\n      dup1\n      revert\n    tag_78:\n        /* \"contracts/Bitcoin.sol\":852:858  amount */\n      dup1\n        /* \"contracts/Bitcoin.sol\":828:836  balances */\n      0x01\n        /* \"contracts/Bitcoin.sol\":828:848  balances[msg.sender] */\n      0x00\n        /* \"contracts/Bitcoin.sol\":837:847  msg.sender */\n      caller\n        /* \"contracts/Bitcoin.sol\":828:848  balances[msg.sender] */\n      0xffffffffffffffffffffffffffffffffffffffff\n      and\n      0xffffffffffffffffffffffffffffffffffffffff\n      and\n      dup2\n      mstore\n      0x20\n      add\n      swap1\n      dup2\n      mstore\n      0x20\n      add\n      0x00\n      keccak256\n      0x00\n        /* \"contracts/Bitcoin.sol\":828:858  balances[msg.sender] -= amount */\n      dup3\n      dup3\n      sload\n      tag_79\n      swap2\n      swap1\n      tag_64\n      jump\t// in\n    tag_79:\n      swap3\n      pop\n      pop\n      dup2\n      swap1\n      sstore\n      pop\n        /* \"contracts/Bitcoin.sol\":887:893  amount */\n      dup1\n        /* \"contracts/Bitcoin.sol\":865:873  balances */\n      0x01\n        /* \"contracts/Bitcoin.sol\":865:883  balances[receiver] */\n      0x00\n        /* \"contracts/Bitcoin.sol\":874:882  receiver */\n      dup5\n        /* \"contracts/Bitcoin.sol\":865:883  balances[receiver] */\n      0xffffffffffffffffffffffffffffffffffffffff\n      and\n      0xffffffffffffffffffffffffffffffffffffffff\n      and\n      dup2\n      mstore\n      0x20\n      add\n      swap1\n      dup2\n      mstore\n      0x20\n      add\n      0x00\n      keccak256\n      0x00\n        /* \"contracts/Bitcoin.sol\":865:893  balances[receiver] += amount */\n      dup3\n      dup3\n      sload\n      tag_80\n      swap2\n      swap1\n      tag_66\n      jump\t// in\n    tag_80:\n      swap3\n      pop\n      pop\n      dup2\n      swap1\n      sstore\n      pop\n        /* \"contracts/Bitcoin.sol\":721:897  function transfer(address receiver, uint amount) public {\r... */\n      pop\n      pop\n      jump\t// out\n        /* \"contracts/Bitcoin.sol\":284:346  mapping(address => mapping(address => uint)) public _allowance */\n    tag_59:\n      mstore(0x20, 0x03)\n      dup2\n      0x00\n      mstore\n      mstore(0x20, keccak256(0x00, 0x40))\n      dup1\n      0x00\n      mstore\n      keccak256(0x00, 0x40)\n      0x00\n      swap2\n      pop\n      swap2\n      pop\n      pop\n      sload\n      dup2\n      jump\t// out\n        /* \"#utility.yul\":7:146   */\n    tag_82:\n        /* \"#utility.yul\":53:58   */\n      0x00\n        /* \"#utility.yul\":91:97   */\n      dup2\n        /* \"#utility.yul\":78:98   */\n      calldataload\n        /* \"#utility.yul\":69:98   */\n      swap1\n      pop\n        /* \"#utility.yul\":107:140   */\n      tag_84\n        /* \"#utility.yul\":134:139   */\n      dup2\n        /* \"#utility.yul\":107:140   */\n      tag_85\n      jump\t// in\n    tag_84:\n        /* \"#utility.yul\":7:146   */\n      swap3\n      swap2\n      pop\n      pop\n      jump\t// out\n        /* \"#utility.yul\":152:291   */\n    tag_86:\n        /* \"#utility.yul\":198:203   */\n      0x00\n        /* \"#utility.yul\":236:242   */\n      dup2\n        /* \"#utility.yul\":223:243   */\n      calldataload\n        /* \"#utility.yul\":214:243   */\n      swap1\n      pop\n        /* \"#utility.yul\":252:285   */\n      tag_88\n        /* \"#utility.yul\":279:284   */\n      dup2\n        /* \"#utility.yul\":252:285   */\n      tag_89\n      jump\t// in\n    tag_88:\n        /* \"#utility.yul\":152:291   */\n      swap3\n      swap2\n      pop\n      pop\n      jump\t// out\n        /* \"#utility.yul\":297:626   */\n    tag_31:\n        /* \"#utility.yul\":356:362   */\n      0x00\n        /* \"#utility.yul\":405:407   */\n      0x20\n        /* \"#utility.yul\":393:402   */\n      dup3\n        /* \"#utility.yul\":384:391   */\n      dup5\n        /* \"#utility.yul\":380:403   */\n      sub\n        /* \"#utility.yul\":376:408   */\n      slt\n        /* \"#utility.yul\":373:492   */\n      iszero\n      tag_91\n      jumpi\n        /* \"#utility.yul\":411:490   */\n      tag_92\n      tag_93\n      jump\t// in\n    tag_92:\n        /* \"#utility.yul\":373:492   */\n    tag_91:\n        /* \"#utility.yul\":531:532   */\n      0x00\n        /* \"#utility.yul\":556:609   */\n      tag_94\n        /* \"#utility.yul\":601:608   */\n      dup5\n        /* \"#utility.yul\":592:598   */\n      dup3\n        /* \"#utility.yul\":581:590   */\n      dup6\n        /* \"#utility.yul\":577:599   */\n      add\n        /* \"#utility.yul\":556:609   */\n      tag_82\n      jump\t// in\n    tag_94:\n        /* \"#utility.yul\":546:609   */\n      swap2\n      pop\n        /* \"#utility.yul\":502:619   */\n      pop\n        /* \"#utility.yul\":297:626   */\n      swap3\n      swap2\n      pop\n      pop\n      jump\t// out\n        /* \"#utility.yul\":632:1106   */\n    tag_37:\n        /* \"#utility.yul\":700:706   */\n      0x00\n        /* \"#utility.yul\":708:714   */\n      dup1\n        /* \"#utility.yul\":757:759   */\n      0x40\n        /* \"#utility.yul\":745:754   */\n      dup4\n        /* \"#utility.yul\":736:743   */\n      dup6\n        /* \"#utility.yul\":732:755   */\n      sub\n        /* \"#utility.yul\":728:760   */\n      slt\n        /* \"#utility.yul\":725:844   */\n      iszero\n      tag_96\n      jumpi\n        /* \"#utility.yul\":763:842   */\n      tag_97\n      tag_93\n      jump\t// in\n    tag_97:\n        /* \"#utility.yul\":725:844   */\n    tag_96:\n        /* \"#utility.yul\":883:884   */\n      0x00\n        /* \"#utility.yul\":908:961   */\n      tag_98\n        /* \"#utility.yul\":953:960   */\n      dup6\n        /* \"#utility.yul\":944:950   */\n      dup3\n        /* \"#utility.yul\":933:942   */\n      dup7\n        /* \"#utility.yul\":929:951   */\n      add\n        /* \"#utility.yul\":908:961   */\n      tag_82\n      jump\t// in\n    tag_98:\n        /* \"#utility.yul\":898:961   */\n      swap3\n      pop\n        /* \"#utility.yul\":854:971   */\n      pop\n        /* \"#utility.yul\":1010:1012   */\n      0x20\n        /* \"#utility.yul\":1036:1089   */\n      tag_99\n        /* \"#utility.yul\":1081:1088   */\n      dup6\n        /* \"#utility.yul\":1072:1078   */\n      dup3\n        /* \"#utility.yul\":1061:1070   */\n      dup7\n        /* \"#utility.yul\":1057:1079   */\n      add\n        /* \"#utility.yul\":1036:1089   */\n      tag_82\n      jump\t// in\n    tag_99:\n        /* \"#utility.yul\":1026:1089   */\n      swap2\n      pop\n        /* \"#utility.yul\":981:1099   */\n      pop\n        /* \"#utility.yul\":632:1106   */\n      swap3\n      pop\n      swap3\n      swap1\n      pop\n      jump\t// out\n        /* \"#utility.yul\":1112:1731   */\n    tag_27:\n        /* \"#utility.yul\":1189:1195   */\n      0x00\n        /* \"#utility.yul\":1197:1203   */\n      dup1\n        /* \"#utility.yul\":1205:1211   */\n      0x00\n        /* \"#utility.yul\":1254:1256   */\n      0x60\n        /* \"#utility.yul\":1242:1251   */\n      dup5\n        /* \"#utility.yul\":1233:1240   */\n      dup7\n        /* \"#utility.yul\":1229:1252   */\n      sub\n        /* \"#utility.yul\":1225:1257   */\n      slt\n        /* \"#utility.yul\":1222:1341   */\n      iszero\n      tag_101\n      jumpi\n        /* \"#utility.yul\":1260:1339   */\n      tag_102\n      tag_93\n      jump\t// in\n    tag_102:\n        /* \"#utility.yul\":1222:1341   */\n    tag_101:\n        /* \"#utility.yul\":1380:1381   */\n      0x00\n        /* \"#utility.yul\":1405:1458   */\n      tag_103\n        /* \"#utility.yul\":1450:1457   */\n      dup7\n        /* \"#utility.yul\":1441:1447   */\n      dup3\n        /* \"#utility.yul\":1430:1439   */\n      dup8\n        /* \"#utility.yul\":1426:1448   */\n      add\n        /* \"#utility.yul\":1405:1458   */\n      tag_82\n      jump\t// in\n    tag_103:\n        /* \"#utility.yul\":1395:1458   */\n      swap4\n      pop\n        /* \"#utility.yul\":1351:1468   */\n      pop\n        /* \"#utility.yul\":1507:1509   */\n      0x20\n        /* \"#utility.yul\":1533:1586   */\n      tag_104\n        /* \"#utility.yul\":1578:1585   */\n      dup7\n        /* \"#utility.yul\":1569:1575   */\n      dup3\n        /* \"#utility.yul\":1558:1567   */\n      dup8\n        /* \"#utility.yul\":1554:1576   */\n      add\n        /* \"#utility.yul\":1533:1586   */\n      tag_82\n      jump\t// in\n    tag_104:\n        /* \"#utility.yul\":1523:1586   */\n      swap3\n      pop\n        /* \"#utility.yul\":1478:1596   */\n      pop\n        /* \"#utility.yul\":1635:1637   */\n      0x40\n        /* \"#utility.yul\":1661:1714   */\n      tag_105\n        /* \"#utility.yul\":1706:1713   */\n      dup7\n        /* \"#utility.yul\":1697:1703   */\n      dup3\n        /* \"#utility.yul\":1686:1695   */\n      dup8\n        /* \"#utility.yul\":1682:1704   */\n      add\n        /* \"#utility.yul\":1661:1714   */\n      tag_86\n      jump\t// in\n    tag_105:\n        /* \"#utility.yul\":1651:1714   */\n      swap2\n      pop\n        /* \"#utility.yul\":1606:1724   */\n      pop\n        /* \"#utility.yul\":1112:1731   */\n      swap3\n      pop\n      swap3\n      pop\n      swap3\n      jump\t// out\n        /* \"#utility.yul\":1737:2211   */\n    tag_21:\n        /* \"#utility.yul\":1805:1811   */\n      0x00\n        /* \"#utility.yul\":1813:1819   */\n      dup1\n        /* \"#utility.yul\":1862:1864   */\n      0x40\n        /* \"#utility.yul\":1850:1859   */\n      dup4\n        /* \"#utility.yul\":1841:1848   */\n      dup6\n        /* \"#utility.yul\":1837:1860   */\n      sub\n        /* \"#utility.yul\":1833:1865   */\n      slt\n        /* \"#utility.yul\":1830:1949   */\n      iszero\n      tag_107\n      jumpi\n        /* \"#utility.yul\":1868:1947   */\n      tag_108\n      tag_93\n      jump\t// in\n    tag_108:\n        /* \"#utility.yul\":1830:1949   */\n    tag_107:\n        /* \"#utility.yul\":1988:1989   */\n      0x00\n        /* \"#utility.yul\":2013:2066   */\n      tag_109\n        /* \"#utility.yul\":2058:2065   */\n      dup6\n        /* \"#utility.yul\":2049:2055   */\n      dup3\n        /* \"#utility.yul\":2038:2047   */\n      dup7\n        /* \"#utility.yul\":2034:2056   */\n      add\n        /* \"#utility.yul\":2013:2066   */\n      tag_82\n      jump\t// in\n    tag_109:\n        /* \"#utility.yul\":2003:2066   */\n      swap3\n      pop\n        /* \"#utility.yul\":1959:2076   */\n      pop\n        /* \"#utility.yul\":2115:2117   */\n      0x20\n        /* \"#utility.yul\":2141:2194   */\n      tag_110\n        /* \"#utility.yul\":2186:2193   */\n      dup6\n        /* \"#utility.yul\":2177:2183   */\n      dup3\n        /* \"#utility.yul\":2166:2175   */\n      dup7\n        /* \"#utility.yul\":2162:2184   */\n      add\n        /* \"#utility.yul\":2141:2194   */\n      tag_86\n      jump\t// in\n    tag_110:\n        /* \"#utility.yul\":2131:2194   */\n      swap2\n      pop\n        /* \"#utility.yul\":2086:2204   */\n      pop\n        /* \"#utility.yul\":1737:2211   */\n      swap3\n      pop\n      swap3\n      swap1\n      pop\n      jump\t// out\n        /* \"#utility.yul\":2217:2335   */\n    tag_111:\n        /* \"#utility.yul\":2304:2328   */\n      tag_113\n        /* \"#utility.yul\":2322:2327   */\n      dup2\n        /* \"#utility.yul\":2304:2328   */\n      tag_114\n      jump\t// in\n    tag_113:\n        /* \"#utility.yul\":2299:2302   */\n      dup3\n        /* \"#utility.yul\":2292:2329   */\n      mstore\n        /* \"#utility.yul\":2217:2335   */\n      pop\n      pop\n      jump\t// out\n        /* \"#utility.yul\":2341:2450   */\n    tag_115:\n        /* \"#utility.yul\":2422:2443   */\n      tag_117\n        /* \"#utility.yul\":2437:2442   */\n      dup2\n        /* \"#utility.yul\":2422:2443   */\n      tag_118\n      jump\t// in\n    tag_117:\n        /* \"#utility.yul\":2417:2420   */\n      dup3\n        /* \"#utility.yul\":2410:2444   */\n      mstore\n        /* \"#utility.yul\":2341:2450   */\n      pop\n      pop\n      jump\t// out\n        /* \"#utility.yul\":2456:2822   */\n    tag_119:\n        /* \"#utility.yul\":2598:2601   */\n      0x00\n        /* \"#utility.yul\":2619:2686   */\n      tag_121\n        /* \"#utility.yul\":2683:2685   */\n      0x13\n        /* \"#utility.yul\":2678:2681   */\n      dup4\n        /* \"#utility.yul\":2619:2686   */\n      tag_122\n      jump\t// in\n    tag_121:\n        /* \"#utility.yul\":2612:2686   */\n      swap2\n      pop\n        /* \"#utility.yul\":2695:2788   */\n      tag_123\n        /* \"#utility.yul\":2784:2787   */\n      dup3\n        /* \"#utility.yul\":2695:2788   */\n      tag_124\n      jump\t// in\n    tag_123:\n        /* \"#utility.yul\":2813:2815   */\n      0x20\n        /* \"#utility.yul\":2808:2811   */\n      dup3\n        /* \"#utility.yul\":2804:2816   */\n      add\n        /* \"#utility.yul\":2797:2816   */\n      swap1\n      pop\n        /* \"#utility.yul\":2456:2822   */\n      swap2\n      swap1\n      pop\n      jump\t// out\n        /* \"#utility.yul\":2828:2946   */\n    tag_125:\n        /* \"#utility.yul\":2915:2939   */\n      tag_127\n        /* \"#utility.yul\":2933:2938   */\n      dup2\n        /* \"#utility.yul\":2915:2939   */\n      tag_128\n      jump\t// in\n    tag_127:\n        /* \"#utility.yul\":2910:2913   */\n      dup3\n        /* \"#utility.yul\":2903:2940   */\n      mstore\n        /* \"#utility.yul\":2828:2946   */\n      pop\n      pop\n      jump\t// out\n        /* \"#utility.yul\":2952:3064   */\n    tag_129:\n        /* \"#utility.yul\":3035:3057   */\n      tag_131\n        /* \"#utility.yul\":3051:3056   */\n      dup2\n        /* \"#utility.yul\":3035:3057   */\n      tag_132\n      jump\t// in\n    tag_131:\n        /* \"#utility.yul\":3030:3033   */\n      dup3\n        /* \"#utility.yul\":3023:3058   */\n      mstore\n        /* \"#utility.yul\":2952:3064   */\n      pop\n      pop\n      jump\t// out\n        /* \"#utility.yul\":3070:3292   */\n    tag_18:\n        /* \"#utility.yul\":3163:3167   */\n      0x00\n        /* \"#utility.yul\":3201:3203   */\n      0x20\n        /* \"#utility.yul\":3190:3199   */\n      dup3\n        /* \"#utility.yul\":3186:3204   */\n      add\n        /* \"#utility.yul\":3178:3204   */\n      swap1\n      pop\n        /* \"#utility.yul\":3214:3285   */\n      tag_134\n        /* \"#utility.yul\":3282:3283   */\n      0x00\n        /* \"#utility.yul\":3271:3280   */\n      dup4\n        /* \"#utility.yul\":3267:3284   */\n      add\n        /* \"#utility.yul\":3258:3264   */\n      dup5\n        /* \"#utility.yul\":3214:3285   */\n      tag_111\n      jump\t// in\n    tag_134:\n        /* \"#utility.yul\":3070:3292   */\n      swap3\n      swap2\n      pop\n      pop\n      jump\t// out\n        /* \"#utility.yul\":3298:3508   */\n    tag_24:\n        /* \"#utility.yul\":3385:3389   */\n      0x00\n        /* \"#utility.yul\":3423:3425   */\n      0x20\n        /* \"#utility.yul\":3412:3421   */\n      dup3\n        /* \"#utility.yul\":3408:3426   */\n      add\n        /* \"#utility.yul\":3400:3426   */\n      swap1\n      pop\n        /* \"#utility.yul\":3436:3501   */\n      tag_136\n        /* \"#utility.yul\":3498:3499   */\n      0x00\n        /* \"#utility.yul\":3487:3496   */\n      dup4\n        /* \"#utility.yul\":3483:3500   */\n      add\n        /* \"#utility.yul\":3474:3480   */\n      dup5\n        /* \"#utility.yul\":3436:3501   */\n      tag_115\n      jump\t// in\n    tag_136:\n        /* \"#utility.yul\":3298:3508   */\n      swap3\n      swap2\n      pop\n      pop\n      jump\t// out\n        /* \"#utility.yul\":3514:3933   */\n    tag_70:\n        /* \"#utility.yul\":3680:3684   */\n      0x00\n        /* \"#utility.yul\":3718:3720   */\n      0x20\n        /* \"#utility.yul\":3707:3716   */\n      dup3\n        /* \"#utility.yul\":3703:3721   */\n      add\n        /* \"#utility.yul\":3695:3721   */\n      swap1\n      pop\n        /* \"#utility.yul\":3767:3776   */\n      dup2\n        /* \"#utility.yul\":3761:3765   */\n      dup2\n        /* \"#utility.yul\":3757:3777   */\n      sub\n        /* \"#utility.yul\":3753:3754   */\n      0x00\n        /* \"#utility.yul\":3742:3751   */\n      dup4\n        /* \"#utility.yul\":3738:3755   */\n      add\n        /* \"#utility.yul\":3731:3778   */\n      mstore\n        /* \"#utility.yul\":3795:3926   */\n      tag_138\n        /* \"#utility.yul\":3921:3925   */\n      dup2\n        /* \"#utility.yul\":3795:3926   */\n      tag_119\n      jump\t// in\n    tag_138:\n        /* \"#utility.yul\":3787:3926   */\n      swap1\n      pop\n        /* \"#utility.yul\":3514:3933   */\n      swap2\n      swap1\n      pop\n      jump\t// out\n        /* \"#utility.yul\":3939:4161   */\n    tag_34:\n        /* \"#utility.yul\":4032:4036   */\n      0x00\n        /* \"#utility.yul\":4070:4072   */\n      0x20\n        /* \"#utility.yul\":4059:4068   */\n      dup3\n        /* \"#utility.yul\":4055:4073   */\n      add\n        /* \"#utility.yul\":4047:4073   */\n      swap1\n      pop\n        /* \"#utility.yul\":4083:4154   */\n      tag_140\n        /* \"#utility.yul\":4151:4152   */\n      0x00\n        /* \"#utility.yul\":4140:4149   */\n      dup4\n        /* \"#utility.yul\":4136:4153   */\n      add\n        /* \"#utility.yul\":4127:4133   */\n      dup5\n        /* \"#utility.yul\":4083:4154   */\n      tag_125\n      jump\t// in\n    tag_140:\n        /* \"#utility.yul\":3939:4161   */\n      swap3\n      swap2\n      pop\n      pop\n      jump\t// out\n        /* \"#utility.yul\":4167:4381   */\n    tag_43:\n        /* \"#utility.yul\":4256:4260   */\n      0x00\n        /* \"#utility.yul\":4294:4296   */\n      0x20\n        /* \"#utility.yul\":4283:4292   */\n      dup3\n        /* \"#utility.yul\":4279:4297   */\n      add\n        /* \"#utility.yul\":4271:4297   */\n      swap1\n      pop\n        /* \"#utility.yul\":4307:4374   */\n      tag_142\n        /* \"#utility.yul\":4371:4372   */\n      0x00\n        /* \"#utility.yul\":4360:4369   */\n      dup4\n        /* \"#utility.yul\":4356:4373   */\n      add\n        /* \"#utility.yul\":4347:4353   */\n      dup5\n        /* \"#utility.yul\":4307:4374   */\n      tag_129\n      jump\t// in\n    tag_142:\n        /* \"#utility.yul\":4167:4381   */\n      swap3\n      swap2\n      pop\n      pop\n      jump\t// out\n        /* \"#utility.yul\":4468:4637   */\n    tag_122:\n        /* \"#utility.yul\":4552:4563   */\n      0x00\n        /* \"#utility.yul\":4586:4592   */\n      dup3\n        /* \"#utility.yul\":4581:4584   */\n      dup3\n        /* \"#utility.yul\":4574:4593   */\n      mstore\n        /* \"#utility.yul\":4626:4630   */\n      0x20\n        /* \"#utility.yul\":4621:4624   */\n      dup3\n        /* \"#utility.yul\":4617:4631   */\n      add\n        /* \"#utility.yul\":4602:4631   */\n      swap1\n      pop\n        /* \"#utility.yul\":4468:4637   */\n      swap3\n      swap2\n      pop\n      pop\n      jump\t// out\n        /* \"#utility.yul\":4643:4948   */\n    tag_66:\n        /* \"#utility.yul\":4683:4686   */\n      0x00\n        /* \"#utility.yul\":4702:4722   */\n      tag_147\n        /* \"#utility.yul\":4720:4721   */\n      dup3\n        /* \"#utility.yul\":4702:4722   */\n      tag_128\n      jump\t// in\n    tag_147:\n        /* \"#utility.yul\":4697:4722   */\n      swap2\n      pop\n        /* \"#utility.yul\":4736:4756   */\n      tag_148\n        /* \"#utility.yul\":4754:4755   */\n      dup4\n        /* \"#utility.yul\":4736:4756   */\n      tag_128\n      jump\t// in\n    tag_148:\n        /* \"#utility.yul\":4731:4756   */\n      swap3\n      pop\n        /* \"#utility.yul\":4890:4891   */\n      dup3\n        /* \"#utility.yul\":4822:4888   */\n      0xffffffffffffffffffffffffffffffffffffffffffffffffffffffffffffffff\n        /* \"#utility.yul\":4818:4892   */\n      sub\n        /* \"#utility.yul\":4815:4816   */\n      dup3\n        /* \"#utility.yul\":4812:4893   */\n      gt\n        /* \"#utility.yul\":4809:4916   */\n      iszero\n      tag_149\n      jumpi\n        /* \"#utility.yul\":4896:4914   */\n      tag_150\n      tag_151\n      jump\t// in\n    tag_150:\n        /* \"#utility.yul\":4809:4916   */\n    tag_149:\n        /* \"#utility.yul\":4940:4941   */\n      dup3\n        /* \"#utility.yul\":4937:4938   */\n      dup3\n        /* \"#utility.yul\":4933:4942   */\n      add\n        /* \"#utility.yul\":4926:4942   */\n      swap1\n      pop\n        /* \"#utility.yul\":4643:4948   */\n      swap3\n      swap2\n      pop\n      pop\n      jump\t// out\n        /* \"#utility.yul\":4954:5145   */\n    tag_64:\n        /* \"#utility.yul\":4994:4998   */\n      0x00\n        /* \"#utility.yul\":5014:5034   */\n      tag_153\n        /* \"#utility.yul\":5032:5033   */\n      dup3\n        /* \"#utility.yul\":5014:5034   */\n      tag_128\n      jump\t// in\n    tag_153:\n        /* \"#utility.yul\":5009:5034   */\n      swap2\n      pop\n        /* \"#utility.yul\":5048:5068   */\n      tag_154\n        /* \"#utility.yul\":5066:5067   */\n      dup4\n        /* \"#utility.yul\":5048:5068   */\n      tag_128\n      jump\t// in\n    tag_154:\n        /* \"#utility.yul\":5043:5068   */\n      swap3\n      pop\n        /* \"#utility.yul\":5087:5088   */\n      dup3\n        /* \"#utility.yul\":5084:5085   */\n      dup3\n        /* \"#utility.yul\":5081:5089   */\n      lt\n        /* \"#utility.yul\":5078:5112   */\n      iszero\n      tag_155\n      jumpi\n        /* \"#utility.yul\":5092:5110   */\n      tag_156\n      tag_151\n      jump\t// in\n    tag_156:\n        /* \"#utility.yul\":5078:5112   */\n    tag_155:\n        /* \"#utility.yul\":5137:5138   */\n      dup3\n        /* \"#utility.yul\":5134:5135   */\n      dup3\n        /* \"#utility.yul\":5130:5139   */\n      sub\n        /* \"#utility.yul\":5122:5139   */\n      swap1\n      pop\n        /* \"#utility.yul\":4954:5145   */\n      swap3\n      swap2\n      pop\n      pop\n      jump\t// out\n        /* \"#utility.yul\":5151:5247   */\n    tag_114:\n        /* \"#utility.yul\":5188:5195   */\n      0x00\n        /* \"#utility.yul\":5217:5241   */\n      tag_158\n        /* \"#utility.yul\":5235:5240   */\n      dup3\n        /* \"#utility.yul\":5217:5241   */\n      tag_159\n      jump\t// in\n    tag_158:\n        /* \"#utility.yul\":5206:5241   */\n      swap1\n      pop\n        /* \"#utility.yul\":5151:5247   */\n      swap2\n      swap1\n      pop\n      jump\t// out\n        /* \"#utility.yul\":5253:5343   */\n    tag_118:\n        /* \"#utility.yul\":5287:5294   */\n      0x00\n        /* \"#utility.yul\":5330:5335   */\n      dup2\n        /* \"#utility.yul\":5323:5336   */\n      iszero\n        /* \"#utility.yul\":5316:5337   */\n      iszero\n        /* \"#utility.yul\":5305:5337   */\n      swap1\n      pop\n        /* \"#utility.yul\":5253:5343   */\n      swap2\n      swap1\n      pop\n      jump\t// out\n        /* \"#utility.yul\":5349:5475   */\n    tag_159:\n        /* \"#utility.yul\":5386:5393   */\n      0x00\n        /* \"#utility.yul\":5426:5468   */\n      0xffffffffffffffffffffffffffffffffffffffff\n        /* \"#utility.yul\":5419:5424   */\n      dup3\n        /* \"#utility.yul\":5415:5469   */\n      and\n        /* \"#utility.yul\":5404:5469   */\n      swap1\n      pop\n        /* \"#utility.yul\":5349:5475   */\n      swap2\n      swap1\n      pop\n      jump\t// out\n        /* \"#utility.yul\":5481:5558   */\n    tag_128:\n        /* \"#utility.yul\":5518:5525   */\n      0x00\n        /* \"#utility.yul\":5547:5552   */\n      dup2\n        /* \"#utility.yul\":5536:5552   */\n      swap1\n      pop\n        /* \"#utility.yul\":5481:5558   */\n      swap2\n      swap1\n      pop\n      jump\t// out\n        /* \"#utility.yul\":5564:5650   */\n    tag_132:\n        /* \"#utility.yul\":5599:5606   */\n      0x00\n        /* \"#utility.yul\":5639:5643   */\n      0xff\n        /* \"#utility.yul\":5632:5637   */\n      dup3\n        /* \"#utility.yul\":5628:5644   */\n      and\n        /* \"#utility.yul\":5617:5644   */\n      swap1\n      pop\n        /* \"#utility.yul\":5564:5650   */\n      swap2\n      swap1\n      pop\n      jump\t// out\n        /* \"#utility.yul\":5656:5836   */\n    tag_151:\n        /* \"#utility.yul\":5704:5781   */\n      0x4e487b7100000000000000000000000000000000000000000000000000000000\n        /* \"#utility.yul\":5701:5702   */\n      0x00\n        /* \"#utility.yul\":5694:5782   */\n      mstore\n        /* \"#utility.yul\":5801:5805   */\n      0x11\n        /* \"#utility.yul\":5798:5799   */\n      0x04\n        /* \"#utility.yul\":5791:5806   */\n      mstore\n        /* \"#utility.yul\":5825:5829   */\n      0x24\n        /* \"#utility.yul\":5822:5823   */\n      0x00\n        /* \"#utility.yul\":5815:5830   */\n      revert\n        /* \"#utility.yul\":5965:6082   */\n    tag_93:\n        /* \"#utility.yul\":6074:6075   */\n      0x00\n        /* \"#utility.yul\":6071:6072   */\n      dup1\n        /* \"#utility.yul\":6064:6076   */\n      revert\n        /* \"#utility.yul\":6088:6257   */\n    tag_124:\n        /* \"#utility.yul\":6228:6249   */\n      0x796f7572206e6f7420746865206d696e74657200000000000000000000000000\n        /* \"#utility.yul\":6224:6225   */\n      0x00\n        /* \"#utility.yul\":6216:6222   */\n      dup3\n        /* \"#utility.yul\":6212:6226   */\n      add\n        /* \"#utility.yul\":6205:6250   */\n      mstore\n        /* \"#utility.yul\":6088:6257   */\n      pop\n      jump\t// out\n        /* \"#utility.yul\":6263:6385   */\n    tag_85:\n        /* \"#utility.yul\":6336:6360   */\n      tag_170\n        /* \"#utility.yul\":6354:6359   */\n      dup2\n        /* \"#utility.yul\":6336:6360   */\n      tag_114\n      jump\t// in\n    tag_170:\n        /* \"#utility.yul\":6329:6334   */\n      dup2\n        /* \"#utility.yul\":6326:6361   */\n      eq\n        /* \"#utility.yul\":6316:6379   */\n      tag_171\n      jumpi\n        /* \"#utility.yul\":6375:6376   */\n      0x00\n        /* \"#utility.yul\":6372:6373   */\n      dup1\n        /* \"#utility.yul\":6365:6377   */\n      revert\n        /* \"#utility.yul\":6316:6379   */\n    tag_171:\n        /* \"#utility.yul\":6263:6385   */\n      pop\n      jump\t// out\n        /* \"#utility.yul\":6391:6513   */\n    tag_89:\n        /* \"#utility.yul\":6464:6488   */\n      tag_173\n        /* \"#utility.yul\":6482:6487   */\n      dup2\n        /* \"#utility.yul\":6464:6488   */\n      tag_128\n      jump\t// in\n    tag_173:\n        /* \"#utility.yul\":6457:6462   */\n      dup2\n        /* \"#utility.yul\":6454:6489   */\n      eq\n        /* \"#utility.yul\":6444:6507   */\n      tag_174\n      jumpi\n        /* \"#utility.yul\":6503:6504   */\n      0x00\n        /* \"#utility.yul\":6500:6501   */\n      dup1\n        /* \"#utility.yul\":6493:6505   */\n      revert\n        /* \"#utility.yul\":6444:6507   */\n    tag_174:\n        /* \"#utility.yul\":6391:6513   */\n      pop\n      jump\t// out\n\n    auxdata: 0xa2646970667358221220583839b9c23a53cf5ecb2b3f79cebee5b29205aabe3add4c69150989ca046c1764736f6c63430008070033\n}\n",
				"bytecode": {
					"linkReferences": {},
					"object": "608060405234801561001057600080fd5b50336000806101000a81548173ffffffffffffffffffffffffffffffffffffffff021916908373ffffffffffffffffffffffffffffffffffffffff160217905550610ab1806100606000396000f3fe608060405234801561001057600080fd5b50600436106100a95760003560e01c8063313ce56711610071578063313ce5671461017857806340c10f1914610196578063598af9e7146101b25780639dc29fac146101e2578063a9059cbb146101fe578063dd336c121461021a576100a9565b806313f27ae3146100ae5780631e410981146100cc57806323b872dd146100fc57806327e235e3146101185780632f5f1b6d14610148575b600080fd5b6100b661024a565b6040516100c39190610874565b60405180910390f35b6100e660048036038101906100e191906107d5565b61026e565b6040516100f3919061088f565b60405180910390f35b61011660048036038101906101119190610782565b6102fb565b005b610132600480360381019061012d9190610715565b6103af565b60405161013f91906108ca565b60405180910390f35b610162600480360381019061015d9190610742565b6103c7565b60405161016f91906108ca565b60405180910390f35b6101806103ec565b60405161018d91906108e5565b60405180910390f35b6101b060048036038101906101ab91906107d5565b6103f1565b005b6101cc60048036038101906101c79190610782565b6104d9565b6040516101d9919061088f565b60405180910390f35b6101fc60048036038101906101f791906107d5565b6104e2565b005b610218600480360381019061021391906107d5565b6105ca565b005b610234600480360381019061022f9190610742565b6106c6565b60405161024191906108ca565b60405180910390f35b60008054906101000a900473ffffffffffffffffffffffffffffffffffffffff1681565b600081600360003373ffffffffffffffffffffffffffffffffffffffff1673ffffffffffffffffffffffffffffffffffffffff16815260200190815260200160002060008573ffffffffffffffffffffffffffffffffffffffff1673ffffffffffffffffffffffffffffffffffffffff168152602001908152602001600020819055506001905092915050565b33925080600160008573ffffffffffffffffffffffffffffffffffffffff1673ffffffffffffffffffffffffffffffffffffffff168152602001908152602001600020600082825461034d9190610967565b9250508190555080600160008473ffffffffffffffffffffffffffffffffffffffff1673ffffffffffffffffffffffffffffffffffffffff16815260200190815260200160002060008282546103a39190610911565b92505081905550505050565b60016020528060005260406000206000915090505481565b6002602052816000526040600020602052806000526040600020600091509150505481565b600c81565b60008054906101000a900473ffffffffffffffffffffffffffffffffffffffff1673ffffffffffffffffffffffffffffffffffffffff163373ffffffffffffffffffffffffffffffffffffffff161461047f576040517f08c379a0000000000000000000000000000000000000000000000000000000008152600401610476906108aa565b60405180910390fd5b80600160008473ffffffffffffffffffffffffffffffffffffffff1673ffffffffffffffffffffffffffffffffffffffff16815260200190815260200160002060008282546104ce9190610911565b925050819055505050565b60009392505050565b60008054906101000a900473ffffffffffffffffffffffffffffffffffffffff1673ffffffffffffffffffffffffffffffffffffffff163373ffffffffffffffffffffffffffffffffffffffff1614610570576040517f08c379a0000000000000000000000000000000000000000000000000000000008152600401610567906108aa565b60405180910390fd5b80600160008473ffffffffffffffffffffffffffffffffffffffff1673ffffffffffffffffffffffffffffffffffffffff16815260200190815260200160002060008282546105bf9190610967565b925050819055505050565b80600160003373ffffffffffffffffffffffffffffffffffffffff1673ffffffffffffffffffffffffffffffffffffffff16815260200190815260200160002054101561061657600080fd5b80600160003373ffffffffffffffffffffffffffffffffffffffff1673ffffffffffffffffffffffffffffffffffffffff16815260200190815260200160002060008282546106659190610967565b9250508190555080600160008473ffffffffffffffffffffffffffffffffffffffff1673ffffffffffffffffffffffffffffffffffffffff16815260200190815260200160002060008282546106bb9190610911565b925050819055505050565b6003602052816000526040600020602052806000526040600020600091509150505481565b6000813590506106fa81610a4d565b92915050565b60008135905061070f81610a64565b92915050565b60006020828403121561072b5761072a610a1f565b5b6000610739848285016106eb565b91505092915050565b6000806040838503121561075957610758610a1f565b5b6000610767858286016106eb565b9250506020610778858286016106eb565b9150509250929050565b60008060006060848603121561079b5761079a610a1f565b5b60006107a9868287016106eb565b93505060206107ba868287016106eb565b92505060406107cb86828701610700565b9150509250925092565b600080604083850312156107ec576107eb610a1f565b5b60006107fa858286016106eb565b925050602061080b85828601610700565b9150509250929050565b61081e8161099b565b82525050565b61082d816109ad565b82525050565b6000610840601383610900565b915061084b82610a24565b602082019050919050565b61085f816109d9565b82525050565b61086e816109e3565b82525050565b60006020820190506108896000830184610815565b92915050565b60006020820190506108a46000830184610824565b92915050565b600060208201905081810360008301526108c381610833565b9050919050565b60006020820190506108df6000830184610856565b92915050565b60006020820190506108fa6000830184610865565b92915050565b600082825260208201905092915050565b600061091c826109d9565b9150610927836109d9565b9250827fffffffffffffffffffffffffffffffffffffffffffffffffffffffffffffffff0382111561095c5761095b6109f0565b5b828201905092915050565b6000610972826109d9565b915061097d836109d9565b9250828210156109905761098f6109f0565b5b828203905092915050565b60006109a6826109b9565b9050919050565b60008115159050919050565b600073ffffffffffffffffffffffffffffffffffffffff82169050919050565b6000819050919050565b600060ff82169050919050565b7f4e487b7100000000000000000000000000000000000000000000000000000000600052601160045260246000fd5b600080fd5b7f796f7572206e6f7420746865206d696e74657200000000000000000000000000600082015250565b610a568161099b565b8114610a6157600080fd5b50565b610a6d816109d9565b8114610a7857600080fd5b5056fea2646970667358221220583839b9c23a53cf5ecb2b3f79cebee5b29205aabe3add4c69150989ca046c1764736f6c63430008070033",
					"opcodes": "PUSH1 0x80 PUSH1 0x40 MSTORE CALLVALUE DUP1 ISZERO PUSH2 0x10 JUMPI PUSH1 0x0 DUP1 REVERT JUMPDEST POP CALLER PUSH1 0x0 DUP1 PUSH2 0x100 EXP DUP2 SLOAD DUP2 PUSH20 0xFFFFFFFFFFFFFFFFFFFFFFFFFFFFFFFFFFFFFFFF MUL NOT AND SWAP1 DUP4 PUSH20 0xFFFFFFFFFFFFFFFFFFFFFFFFFFFFFFFFFFFFFFFF AND MUL OR SWAP1 SSTORE POP PUSH2 0xAB1 DUP1 PUSH2 0x60 PUSH1 0x0 CODECOPY PUSH1 0x0 RETURN INVALID PUSH1 0x80 PUSH1 0x40 MSTORE CALLVALUE DUP1 ISZERO PUSH2 0x10 JUMPI PUSH1 0x0 DUP1 REVERT JUMPDEST POP PUSH1 0x4 CALLDATASIZE LT PUSH2 0xA9 JUMPI PUSH1 0x0 CALLDATALOAD PUSH1 0xE0 SHR DUP1 PUSH4 0x313CE567 GT PUSH2 0x71 JUMPI DUP1 PUSH4 0x313CE567 EQ PUSH2 0x178 JUMPI DUP1 PUSH4 0x40C10F19 EQ PUSH2 0x196 JUMPI DUP1 PUSH4 0x598AF9E7 EQ PUSH2 0x1B2 JUMPI DUP1 PUSH4 0x9DC29FAC EQ PUSH2 0x1E2 JUMPI DUP1 PUSH4 0xA9059CBB EQ PUSH2 0x1FE JUMPI DUP1 PUSH4 0xDD336C12 EQ PUSH2 0x21A JUMPI PUSH2 0xA9 JUMP JUMPDEST DUP1 PUSH4 0x13F27AE3 EQ PUSH2 0xAE JUMPI DUP1 PUSH4 0x1E410981 EQ PUSH2 0xCC JUMPI DUP1 PUSH4 0x23B872DD EQ PUSH2 0xFC JUMPI DUP1 PUSH4 0x27E235E3 EQ PUSH2 0x118 JUMPI DUP1 PUSH4 0x2F5F1B6D EQ PUSH2 0x148 JUMPI JUMPDEST PUSH1 0x0 DUP1 REVERT JUMPDEST PUSH2 0xB6 PUSH2 0x24A JUMP JUMPDEST PUSH1 0x40 MLOAD PUSH2 0xC3 SWAP2 SWAP1 PUSH2 0x874 JUMP JUMPDEST PUSH1 0x40 MLOAD DUP1 SWAP2 SUB SWAP1 RETURN JUMPDEST PUSH2 0xE6 PUSH1 0x4 DUP1 CALLDATASIZE SUB DUP2 ADD SWAP1 PUSH2 0xE1 SWAP2 SWAP1 PUSH2 0x7D5 JUMP JUMPDEST PUSH2 0x26E JUMP JUMPDEST PUSH1 0x40 MLOAD PUSH2 0xF3 SWAP2 SWAP1 PUSH2 0x88F JUMP JUMPDEST PUSH1 0x40 MLOAD DUP1 SWAP2 SUB SWAP1 RETURN JUMPDEST PUSH2 0x116 PUSH1 0x4 DUP1 CALLDATASIZE SUB DUP2 ADD SWAP1 PUSH2 0x111 SWAP2 SWAP1 PUSH2 0x782 JUMP JUMPDEST PUSH2 0x2FB JUMP JUMPDEST STOP JUMPDEST PUSH2 0x132 PUSH1 0x4 DUP1 CALLDATASIZE SUB DUP2 ADD SWAP1 PUSH2 0x12D SWAP2 SWAP1 PUSH2 0x715 JUMP JUMPDEST PUSH2 0x3AF JUMP JUMPDEST PUSH1 0x40 MLOAD PUSH2 0x13F SWAP2 SWAP1 PUSH2 0x8CA JUMP JUMPDEST PUSH1 0x40 MLOAD DUP1 SWAP2 SUB SWAP1 RETURN JUMPDEST PUSH2 0x162 PUSH1 0x4 DUP1 CALLDATASIZE SUB DUP2 ADD SWAP1 PUSH2 0x15D SWAP2 SWAP1 PUSH2 0x742 JUMP JUMPDEST PUSH2 0x3C7 JUMP JUMPDEST PUSH1 0x40 MLOAD PUSH2 0x16F SWAP2 SWAP1 PUSH2 0x8CA JUMP JUMPDEST PUSH1 0x40 MLOAD DUP1 SWAP2 SUB SWAP1 RETURN JUMPDEST PUSH2 0x180 PUSH2 0x3EC JUMP JUMPDEST PUSH1 0x40 MLOAD PUSH2 0x18D SWAP2 SWAP1 PUSH2 0x8E5 JUMP JUMPDEST PUSH1 0x40 MLOAD DUP1 SWAP2 SUB SWAP1 RETURN JUMPDEST PUSH2 0x1B0 PUSH1 0x4 DUP1 CALLDATASIZE SUB DUP2 ADD SWAP1 PUSH2 0x1AB SWAP2 SWAP1 PUSH2 0x7D5 JUMP JUMPDEST PUSH2 0x3F1 JUMP JUMPDEST STOP JUMPDEST PUSH2 0x1CC PUSH1 0x4 DUP1 CALLDATASIZE SUB DUP2 ADD SWAP1 PUSH2 0x1C7 SWAP2 SWAP1 PUSH2 0x782 JUMP JUMPDEST PUSH2 0x4D9 JUMP JUMPDEST PUSH1 0x40 MLOAD PUSH2 0x1D9 SWAP2 SWAP1 PUSH2 0x88F JUMP JUMPDEST PUSH1 0x40 MLOAD DUP1 SWAP2 SUB SWAP1 RETURN JUMPDEST PUSH2 0x1FC PUSH1 0x4 DUP1 CALLDATASIZE SUB DUP2 ADD SWAP1 PUSH2 0x1F7 SWAP2 SWAP1 PUSH2 0x7D5 JUMP JUMPDEST PUSH2 0x4E2 JUMP JUMPDEST STOP JUMPDEST PUSH2 0x218 PUSH1 0x4 DUP1 CALLDATASIZE SUB DUP2 ADD SWAP1 PUSH2 0x213 SWAP2 SWAP1 PUSH2 0x7D5 JUMP JUMPDEST PUSH2 0x5CA JUMP JUMPDEST STOP JUMPDEST PUSH2 0x234 PUSH1 0x4 DUP1 CALLDATASIZE SUB DUP2 ADD SWAP1 PUSH2 0x22F SWAP2 SWAP1 PUSH2 0x742 JUMP JUMPDEST PUSH2 0x6C6 JUMP JUMPDEST PUSH1 0x40 MLOAD PUSH2 0x241 SWAP2 SWAP1 PUSH2 0x8CA JUMP JUMPDEST PUSH1 0x40 MLOAD DUP1 SWAP2 SUB SWAP1 RETURN JUMPDEST PUSH1 0x0 DUP1 SLOAD SWAP1 PUSH2 0x100 EXP SWAP1 DIV PUSH20 0xFFFFFFFFFFFFFFFFFFFFFFFFFFFFFFFFFFFFFFFF AND DUP2 JUMP JUMPDEST PUSH1 0x0 DUP2 PUSH1 0x3 PUSH1 0x0 CALLER PUSH20 0xFFFFFFFFFFFFFFFFFFFFFFFFFFFFFFFFFFFFFFFF AND PUSH20 0xFFFFFFFFFFFFFFFFFFFFFFFFFFFFFFFFFFFFFFFF AND DUP2 MSTORE PUSH1 0x20 ADD SWAP1 DUP2 MSTORE PUSH1 0x20 ADD PUSH1 0x0 KECCAK256 PUSH1 0x0 DUP6 PUSH20 0xFFFFFFFFFFFFFFFFFFFFFFFFFFFFFFFFFFFFFFFF AND PUSH20 0xFFFFFFFFFFFFFFFFFFFFFFFFFFFFFFFFFFFFFFFF AND DUP2 MSTORE PUSH1 0x20 ADD SWAP1 DUP2 MSTORE PUSH1 0x20 ADD PUSH1 0x0 KECCAK256 DUP2 SWAP1 SSTORE POP PUSH1 0x1 SWAP1 POP SWAP3 SWAP2 POP POP JUMP JUMPDEST CALLER SWAP3 POP DUP1 PUSH1 0x1 PUSH1 0x0 DUP6 PUSH20 0xFFFFFFFFFFFFFFFFFFFFFFFFFFFFFFFFFFFFFFFF AND PUSH20 0xFFFFFFFFFFFFFFFFFFFFFFFFFFFFFFFFFFFFFFFF AND DUP2 MSTORE PUSH1 0x20 ADD SWAP1 DUP2 MSTORE PUSH1 0x20 ADD PUSH1 0x0 KECCAK256 PUSH1 0x0 DUP3 DUP3 SLOAD PUSH2 0x34D SWAP2 SWAP1 PUSH2 0x967 JUMP JUMPDEST SWAP3 POP POP DUP2 SWAP1 SSTORE POP DUP1 PUSH1 0x1 PUSH1 0x0 DUP5 PUSH20 0xFFFFFFFFFFFFFFFFFFFFFFFFFFFFFFFFFFFFFFFF AND PUSH20 0xFFFFFFFFFFFFFFFFFFFFFFFFFFFFFFFFFFFFFFFF AND DUP2 MSTORE PUSH1 0x20 ADD SWAP1 DUP2 MSTORE PUSH1 0x20 ADD PUSH1 0x0 KECCAK256 PUSH1 0x0 DUP3 DUP3 SLOAD PUSH2 0x3A3 SWAP2 SWAP1 PUSH2 0x911 JUMP JUMPDEST SWAP3 POP POP DUP2 SWAP1 SSTORE POP POP POP POP JUMP JUMPDEST PUSH1 0x1 PUSH1 0x20 MSTORE DUP1 PUSH1 0x0 MSTORE PUSH1 0x40 PUSH1 0x0 KECCAK256 PUSH1 0x0 SWAP2 POP SWAP1 POP SLOAD DUP2 JUMP JUMPDEST PUSH1 0x2 PUSH1 0x20 MSTORE DUP2 PUSH1 0x0 MSTORE PUSH1 0x40 PUSH1 0x0 KECCAK256 PUSH1 0x20 MSTORE DUP1 PUSH1 0x0 MSTORE PUSH1 0x40 PUSH1 0x0 KECCAK256 PUSH1 0x0 SWAP2 POP SWAP2 POP POP SLOAD DUP2 JUMP JUMPDEST PUSH1 0xC DUP2 JUMP JUMPDEST PUSH1 0x0 DUP1 SLOAD SWAP1 PUSH2 0x100 EXP SWAP1 DIV PUSH20 0xFFFFFFFFFFFFFFFFFFFFFFFFFFFFFFFFFFFFFFFF AND PUSH20 0xFFFFFFFFFFFFFFFFFFFFFFFFFFFFFFFFFFFFFFFF AND CALLER PUSH20 0xFFFFFFFFFFFFFFFFFFFFFFFFFFFFFFFFFFFFFFFF AND EQ PUSH2 0x47F JUMPI PUSH1 0x40 MLOAD PUSH32 0x8C379A000000000000000000000000000000000000000000000000000000000 DUP2 MSTORE PUSH1 0x4 ADD PUSH2 0x476 SWAP1 PUSH2 0x8AA JUMP JUMPDEST PUSH1 0x40 MLOAD DUP1 SWAP2 SUB SWAP1 REVERT JUMPDEST DUP1 PUSH1 0x1 PUSH1 0x0 DUP5 PUSH20 0xFFFFFFFFFFFFFFFFFFFFFFFFFFFFFFFFFFFFFFFF AND PUSH20 0xFFFFFFFFFFFFFFFFFFFFFFFFFFFFFFFFFFFFFFFF AND DUP2 MSTORE PUSH1 0x20 ADD SWAP1 DUP2 MSTORE PUSH1 0x20 ADD PUSH1 0x0 KECCAK256 PUSH1 0x0 DUP3 DUP3 SLOAD PUSH2 0x4CE SWAP2 SWAP1 PUSH2 0x911 JUMP JUMPDEST SWAP3 POP POP DUP2 SWAP1 SSTORE POP POP POP JUMP JUMPDEST PUSH1 0x0 SWAP4 SWAP3 POP POP POP JUMP JUMPDEST PUSH1 0x0 DUP1 SLOAD SWAP1 PUSH2 0x100 EXP SWAP1 DIV PUSH20 0xFFFFFFFFFFFFFFFFFFFFFFFFFFFFFFFFFFFFFFFF AND PUSH20 0xFFFFFFFFFFFFFFFFFFFFFFFFFFFFFFFFFFFFFFFF AND CALLER PUSH20 0xFFFFFFFFFFFFFFFFFFFFFFFFFFFFFFFFFFFFFFFF AND EQ PUSH2 0x570 JUMPI PUSH1 0x40 MLOAD PUSH32 0x8C379A000000000000000000000000000000000000000000000000000000000 DUP2 MSTORE PUSH1 0x4 ADD PUSH2 0x567 SWAP1 PUSH2 0x8AA JUMP JUMPDEST PUSH1 0x40 MLOAD DUP1 SWAP2 SUB SWAP1 REVERT JUMPDEST DUP1 PUSH1 0x1 PUSH1 0x0 DUP5 PUSH20 0xFFFFFFFFFFFFFFFFFFFFFFFFFFFFFFFFFFFFFFFF AND PUSH20 0xFFFFFFFFFFFFFFFFFFFFFFFFFFFFFFFFFFFFFFFF AND DUP2 MSTORE PUSH1 0x20 ADD SWAP1 DUP2 MSTORE PUSH1 0x20 ADD PUSH1 0x0 KECCAK256 PUSH1 0x0 DUP3 DUP3 SLOAD PUSH2 0x5BF SWAP2 SWAP1 PUSH2 0x967 JUMP JUMPDEST SWAP3 POP POP DUP2 SWAP1 SSTORE POP POP POP JUMP JUMPDEST DUP1 PUSH1 0x1 PUSH1 0x0 CALLER PUSH20 0xFFFFFFFFFFFFFFFFFFFFFFFFFFFFFFFFFFFFFFFF AND PUSH20 0xFFFFFFFFFFFFFFFFFFFFFFFFFFFFFFFFFFFFFFFF AND DUP2 MSTORE PUSH1 0x20 ADD SWAP1 DUP2 MSTORE PUSH1 0x20 ADD PUSH1 0x0 KECCAK256 SLOAD LT ISZERO PUSH2 0x616 JUMPI PUSH1 0x0 DUP1 REVERT JUMPDEST DUP1 PUSH1 0x1 PUSH1 0x0 CALLER PUSH20 0xFFFFFFFFFFFFFFFFFFFFFFFFFFFFFFFFFFFFFFFF AND PUSH20 0xFFFFFFFFFFFFFFFFFFFFFFFFFFFFFFFFFFFFFFFF AND DUP2 MSTORE PUSH1 0x20 ADD SWAP1 DUP2 MSTORE PUSH1 0x20 ADD PUSH1 0x0 KECCAK256 PUSH1 0x0 DUP3 DUP3 SLOAD PUSH2 0x665 SWAP2 SWAP1 PUSH2 0x967 JUMP JUMPDEST SWAP3 POP POP DUP2 SWAP1 SSTORE POP DUP1 PUSH1 0x1 PUSH1 0x0 DUP5 PUSH20 0xFFFFFFFFFFFFFFFFFFFFFFFFFFFFFFFFFFFFFFFF AND PUSH20 0xFFFFFFFFFFFFFFFFFFFFFFFFFFFFFFFFFFFFFFFF AND DUP2 MSTORE PUSH1 0x20 ADD SWAP1 DUP2 MSTORE PUSH1 0x20 ADD PUSH1 0x0 KECCAK256 PUSH1 0x0 DUP3 DUP3 SLOAD PUSH2 0x6BB SWAP2 SWAP1 PUSH2 0x911 JUMP JUMPDEST SWAP3 POP POP DUP2 SWAP1 SSTORE POP POP POP JUMP JUMPDEST PUSH1 0x3 PUSH1 0x20 MSTORE DUP2 PUSH1 0x0 MSTORE PUSH1 0x40 PUSH1 0x0 KECCAK256 PUSH1 0x20 MSTORE DUP1 PUSH1 0x0 MSTORE PUSH1 0x40 PUSH1 0x0 KECCAK256 PUSH1 0x0 SWAP2 POP SWAP2 POP POP SLOAD DUP2 JUMP JUMPDEST PUSH1 0x0 DUP2 CALLDATALOAD SWAP1 POP PUSH2 0x6FA DUP2 PUSH2 0xA4D JUMP JUMPDEST SWAP3 SWAP2 POP POP JUMP JUMPDEST PUSH1 0x0 DUP2 CALLDATALOAD SWAP1 POP PUSH2 0x70F DUP2 PUSH2 0xA64 JUMP JUMPDEST SWAP3 SWAP2 POP POP JUMP JUMPDEST PUSH1 0x0 PUSH1 0x20 DUP3 DUP5 SUB SLT ISZERO PUSH2 0x72B JUMPI PUSH2 0x72A PUSH2 0xA1F JUMP JUMPDEST JUMPDEST PUSH1 0x0 PUSH2 0x739 DUP5 DUP3 DUP6 ADD PUSH2 0x6EB JUMP JUMPDEST SWAP2 POP POP SWAP3 SWAP2 POP POP JUMP JUMPDEST PUSH1 0x0 DUP1 PUSH1 0x40 DUP4 DUP6 SUB SLT ISZERO PUSH2 0x759 JUMPI PUSH2 0x758 PUSH2 0xA1F JUMP JUMPDEST JUMPDEST PUSH1 0x0 PUSH2 0x767 DUP6 DUP3 DUP7 ADD PUSH2 0x6EB JUMP JUMPDEST SWAP3 POP POP PUSH1 0x20 PUSH2 0x778 DUP6 DUP3 DUP7 ADD PUSH2 0x6EB JUMP JUMPDEST SWAP2 POP POP SWAP3 POP SWAP3 SWAP1 POP JUMP JUMPDEST PUSH1 0x0 DUP1 PUSH1 0x0 PUSH1 0x60 DUP5 DUP7 SUB SLT ISZERO PUSH2 0x79B JUMPI PUSH2 0x79A PUSH2 0xA1F JUMP JUMPDEST JUMPDEST PUSH1 0x0 PUSH2 0x7A9 DUP7 DUP3 DUP8 ADD PUSH2 0x6EB JUMP JUMPDEST SWAP4 POP POP PUSH1 0x20 PUSH2 0x7BA DUP7 DUP3 DUP8 ADD PUSH2 0x6EB JUMP JUMPDEST SWAP3 POP POP PUSH1 0x40 PUSH2 0x7CB DUP7 DUP3 DUP8 ADD PUSH2 0x700 JUMP JUMPDEST SWAP2 POP POP SWAP3 POP SWAP3 POP SWAP3 JUMP JUMPDEST PUSH1 0x0 DUP1 PUSH1 0x40 DUP4 DUP6 SUB SLT ISZERO PUSH2 0x7EC JUMPI PUSH2 0x7EB PUSH2 0xA1F JUMP JUMPDEST JUMPDEST PUSH1 0x0 PUSH2 0x7FA DUP6 DUP3 DUP7 ADD PUSH2 0x6EB JUMP JUMPDEST SWAP3 POP POP PUSH1 0x20 PUSH2 0x80B DUP6 DUP3 DUP7 ADD PUSH2 0x700 JUMP JUMPDEST SWAP2 POP POP SWAP3 POP SWAP3 SWAP1 POP JUMP JUMPDEST PUSH2 0x81E DUP2 PUSH2 0x99B JUMP JUMPDEST DUP3 MSTORE POP POP JUMP JUMPDEST PUSH2 0x82D DUP2 PUSH2 0x9AD JUMP JUMPDEST DUP3 MSTORE POP POP JUMP JUMPDEST PUSH1 0x0 PUSH2 0x840 PUSH1 0x13 DUP4 PUSH2 0x900 JUMP JUMPDEST SWAP2 POP PUSH2 0x84B DUP3 PUSH2 0xA24 JUMP JUMPDEST PUSH1 0x20 DUP3 ADD SWAP1 POP SWAP2 SWAP1 POP JUMP JUMPDEST PUSH2 0x85F DUP2 PUSH2 0x9D9 JUMP JUMPDEST DUP3 MSTORE POP POP JUMP JUMPDEST PUSH2 0x86E DUP2 PUSH2 0x9E3 JUMP JUMPDEST DUP3 MSTORE POP POP JUMP JUMPDEST PUSH1 0x0 PUSH1 0x20 DUP3 ADD SWAP1 POP PUSH2 0x889 PUSH1 0x0 DUP4 ADD DUP5 PUSH2 0x815 JUMP JUMPDEST SWAP3 SWAP2 POP POP JUMP JUMPDEST PUSH1 0x0 PUSH1 0x20 DUP3 ADD SWAP1 POP PUSH2 0x8A4 PUSH1 0x0 DUP4 ADD DUP5 PUSH2 0x824 JUMP JUMPDEST SWAP3 SWAP2 POP POP JUMP JUMPDEST PUSH1 0x0 PUSH1 0x20 DUP3 ADD SWAP1 POP DUP2 DUP2 SUB PUSH1 0x0 DUP4 ADD MSTORE PUSH2 0x8C3 DUP2 PUSH2 0x833 JUMP JUMPDEST SWAP1 POP SWAP2 SWAP1 POP JUMP JUMPDEST PUSH1 0x0 PUSH1 0x20 DUP3 ADD SWAP1 POP PUSH2 0x8DF PUSH1 0x0 DUP4 ADD DUP5 PUSH2 0x856 JUMP JUMPDEST SWAP3 SWAP2 POP POP JUMP JUMPDEST PUSH1 0x0 PUSH1 0x20 DUP3 ADD SWAP1 POP PUSH2 0x8FA PUSH1 0x0 DUP4 ADD DUP5 PUSH2 0x865 JUMP JUMPDEST SWAP3 SWAP2 POP POP JUMP JUMPDEST PUSH1 0x0 DUP3 DUP3 MSTORE PUSH1 0x20 DUP3 ADD SWAP1 POP SWAP3 SWAP2 POP POP JUMP JUMPDEST PUSH1 0x0 PUSH2 0x91C DUP3 PUSH2 0x9D9 JUMP JUMPDEST SWAP2 POP PUSH2 0x927 DUP4 PUSH2 0x9D9 JUMP JUMPDEST SWAP3 POP DUP3 PUSH32 0xFFFFFFFFFFFFFFFFFFFFFFFFFFFFFFFFFFFFFFFFFFFFFFFFFFFFFFFFFFFFFFFF SUB DUP3 GT ISZERO PUSH2 0x95C JUMPI PUSH2 0x95B PUSH2 0x9F0 JUMP JUMPDEST JUMPDEST DUP3 DUP3 ADD SWAP1 POP SWAP3 SWAP2 POP POP JUMP JUMPDEST PUSH1 0x0 PUSH2 0x972 DUP3 PUSH2 0x9D9 JUMP JUMPDEST SWAP2 POP PUSH2 0x97D DUP4 PUSH2 0x9D9 JUMP JUMPDEST SWAP3 POP DUP3 DUP3 LT ISZERO PUSH2 0x990 JUMPI PUSH2 0x98F PUSH2 0x9F0 JUMP JUMPDEST JUMPDEST DUP3 DUP3 SUB SWAP1 POP SWAP3 SWAP2 POP POP JUMP JUMPDEST PUSH1 0x0 PUSH2 0x9A6 DUP3 PUSH2 0x9B9 JUMP JUMPDEST SWAP1 POP SWAP2 SWAP1 POP JUMP JUMPDEST PUSH1 0x0 DUP2 ISZERO ISZERO SWAP1 POP SWAP2 SWAP1 POP JUMP JUMPDEST PUSH1 0x0 PUSH20 0xFFFFFFFFFFFFFFFFFFFFFFFFFFFFFFFFFFFFFFFF DUP3 AND SWAP1 POP SWAP2 SWAP1 POP JUMP JUMPDEST PUSH1 0x0 DUP2 SWAP1 POP SWAP2 SWAP1 POP JUMP JUMPDEST PUSH1 0x0 PUSH1 0xFF DUP3 AND SWAP1 POP SWAP2 SWAP1 POP JUMP JUMPDEST PUSH32 0x4E487B7100000000000000000000000000000000000000000000000000000000 PUSH1 0x0 MSTORE PUSH1 0x11 PUSH1 0x4 MSTORE PUSH1 0x24 PUSH1 0x0 REVERT JUMPDEST PUSH1 0x0 DUP1 REVERT JUMPDEST PUSH32 0x796F7572206E6F7420746865206D696E74657200000000000000000000000000 PUSH1 0x0 DUP3 ADD MSTORE POP JUMP JUMPDEST PUSH2 0xA56 DUP2 PUSH2 0x99B JUMP JUMPDEST DUP2 EQ PUSH2 0xA61 JUMPI PUSH1 0x0 DUP1 REVERT JUMPDEST POP JUMP JUMPDEST PUSH2 0xA6D DUP2 PUSH2 0x9D9 JUMP JUMPDEST DUP2 EQ PUSH2 0xA78 JUMPI PUSH1 0x0 DUP1 REVERT JUMPDEST POP JUMP INVALID LOG2 PUSH5 0x6970667358 0x22 SLT KECCAK256 PC CODESIZE CODECOPY 0xB9 0xC2 GASPRICE MSTORE8 0xCF 0x5E 0xCB 0x2B EXTCODEHASH PUSH26 0xCEBEE5B29205AABE3ADD4C69150989CA046C1764736F6C634300 ADDMOD SMOD STOP CALLER "
				},
				"gasEstimates": {
					"creation": {
						"codeDepositCost": "547400",
						"executionCost": "24847",
						"totalCost": "572247"
					},
					"external": {
						"Approval(address,uint256)": "23146",
						"_allowance(address,address)": "infinite",
						"_approval(address,address)": "infinite",
						"allowance(address,address,uint256)": "infinite",
						"balances(address)": "2881",
						"burn(address,uint256)": "infinite",
						"decimals()": "335",
						"mint(address,uint256)": "infinite",
						"transfer(address,uint256)": "infinite",
						"transferFrom(address,address,uint256)": "infinite",
						"wakar()": "2512"
					}
				},
				"methodIdentifiers": {
					"Approval(address,uint256)": "1e410981",
					"_allowance(address,address)": "dd336c12",
					"_approval(address,address)": "2f5f1b6d",
					"allowance(address,address,uint256)": "598af9e7",
					"balances(address)": "27e235e3",
					"burn(address,uint256)": "9dc29fac",
					"decimals()": "313ce567",
					"mint(address,uint256)": "40c10f19",
					"transfer(address,uint256)": "a9059cbb",
					"transferFrom(address,address,uint256)": "23b872dd",
					"wakar()": "13f27ae3"
				}
			},
			"userdoc": {
				"kind": "user",
				"methods": {},
				"version": 1
			}
		}
	}
}