{
	"contracts/Bitcoin.sol": {
		"MyBitcoin": {
			"abi": [
				{
					"inputs": [],
					"stateMutability": "nonpayable",
					"type": "constructor"
				},
				{
					"inputs": [
						{
							"internalType": "address",
							"name": "",
							"type": "address"
						}
					],
					"name": "balances",
					"outputs": [
						{
							"internalType": "uint256",
							"name": "",
							"type": "uint256"
						}
					],
					"stateMutability": "view",
					"type": "function"
				},
				{
					"inputs": [
						{
							"internalType": "address",
							"name": "receiver",
							"type": "address"
						},
						{
							"internalType": "uint256",
							"name": "amount",
							"type": "uint256"
						}
					],
					"name": "burn",
					"outputs": [],
					"stateMutability": "nonpayable",
					"type": "function"
				},
				{
					"inputs": [
						{
							"internalType": "address",
							"name": "receiver",
							"type": "address"
						},
						{
							"internalType": "uint256",
							"name": "amount",
							"type": "uint256"
						}
					],
					"name": "mint",
					"outputs": [],
					"stateMutability": "nonpayable",
					"type": "function"
				},
				{
					"inputs": [
						{
							"internalType": "address",
							"name": "receiver",
							"type": "address"
						},
						{
							"internalType": "uint256",
							"name": "amount",
							"type": "uint256"
						}
					],
					"name": "transfer",
					"outputs": [],
					"stateMutability": "nonpayable",
					"type": "function"
				},
				{
					"inputs": [
						{
							"internalType": "address",
							"name": "current_sender",
							"type": "address"
						},
						{
							"internalType": "address",
							"name": "receiver",
							"type": "address"
						},
						{
							"internalType": "uint256",
							"name": "amount",
							"type": "uint256"
						}
					],
					"name": "transferFrom",
					"outputs": [],
					"stateMutability": "nonpayable",
					"type": "function"
				},
				{
					"inputs": [],
					"name": "wakar",
					"outputs": [
						{
							"internalType": "address",
							"name": "",
							"type": "address"
						}
					],
					"stateMutability": "view",
					"type": "function"
				}
			],
			"devdoc": {
				"kind": "dev",
				"methods": {},
				"version": 1
			},
			"evm": {
				"assembly": "    /* \"contracts/Bitcoin.sol\":72:919  contract MyBitcoin {\r... */\n  mstore(0x40, 0x80)\n    /* \"contracts/Bitcoin.sol\":170:219  constructor() {\r... */\n  callvalue\n  dup1\n  iszero\n  tag_1\n  jumpi\n  0x00\n  dup1\n  revert\ntag_1:\n  pop\n    /* \"contracts/Bitcoin.sol\":198:208  msg.sender */\n  caller\n    /* \"contracts/Bitcoin.sol\":191:196  wakar */\n  0x00\n  dup1\n    /* \"contracts/Bitcoin.sol\":191:208  wakar =msg.sender */\n  0x0100\n  exp\n  dup2\n  sload\n  dup2\n  0xffffffffffffffffffffffffffffffffffffffff\n  mul\n  not\n  and\n  swap1\n  dup4\n  0xffffffffffffffffffffffffffffffffffffffff\n  and\n  mul\n  or\n  swap1\n  sstore\n  pop\n    /* \"contracts/Bitcoin.sol\":72:919  contract MyBitcoin {\r... */\n  dataSize(sub_0)\n  dup1\n  dataOffset(sub_0)\n  0x00\n  codecopy\n  0x00\n  return\nstop\n\nsub_0: assembly {\n        /* \"contracts/Bitcoin.sol\":72:919  contract MyBitcoin {\r... */\n      mstore(0x40, 0x80)\n      callvalue\n      dup1\n      iszero\n      tag_1\n      jumpi\n      0x00\n      dup1\n      revert\n    tag_1:\n      pop\n      jumpi(tag_2, lt(calldatasize, 0x04))\n      shr(0xe0, calldataload(0x00))\n      dup1\n      0x13f27ae3\n      eq\n      tag_3\n      jumpi\n      dup1\n      0x23b872dd\n      eq\n      tag_4\n      jumpi\n      dup1\n      0x27e235e3\n      eq\n      tag_5\n      jumpi\n      dup1\n      0x40c10f19\n      eq\n      tag_6\n      jumpi\n      dup1\n      0x9dc29fac\n      eq\n      tag_7\n      jumpi\n      dup1\n      0xa9059cbb\n      eq\n      tag_8\n      jumpi\n    tag_2:\n      0x00\n      dup1\n      revert\n        /* \"contracts/Bitcoin.sol\":98:118  address public wakar */\n    tag_3:\n      tag_9\n      tag_10\n      jump\t// in\n    tag_9:\n      mload(0x40)\n      tag_11\n      swap2\n      swap1\n      tag_12\n      jump\t// in\n    tag_11:\n      mload(0x40)\n      dup1\n      swap2\n      sub\n      swap1\n      return\n        /* \"contracts/Bitcoin.sol\":716:909  function transferFrom(address current_sender, address receiver, uint amount) public {\r... */\n    tag_4:\n      tag_13\n      0x04\n      dup1\n      calldatasize\n      sub\n      dup2\n      add\n      swap1\n      tag_14\n      swap2\n      swap1\n      tag_15\n      jump\t// in\n    tag_14:\n      tag_16\n      jump\t// in\n    tag_13:\n      stop\n        /* \"contracts/Bitcoin.sol\":125:165  mapping (address =>uint) public balances */\n    tag_5:\n      tag_17\n      0x04\n      dup1\n      calldatasize\n      sub\n      dup2\n      add\n      swap1\n      tag_18\n      swap2\n      swap1\n      tag_19\n      jump\t// in\n    tag_18:\n      tag_20\n      jump\t// in\n    tag_17:\n      mload(0x40)\n      tag_21\n      swap2\n      swap1\n      tag_22\n      jump\t// in\n    tag_21:\n      mload(0x40)\n      dup1\n      swap2\n      sub\n      swap1\n      return\n        /* \"contracts/Bitcoin.sol\":224:377  function mint(address receiver,uint amount) public {\r... */\n    tag_6:\n      tag_23\n      0x04\n      dup1\n      calldatasize\n      sub\n      dup2\n      add\n      swap1\n      tag_24\n      swap2\n      swap1\n      tag_25\n      jump\t// in\n    tag_24:\n      tag_26\n      jump\t// in\n    tag_23:\n      stop\n        /* \"contracts/Bitcoin.sol\":381:534  function burn(address receiver,uint amount) public {\r... */\n    tag_7:\n      tag_27\n      0x04\n      dup1\n      calldatasize\n      sub\n      dup2\n      add\n      swap1\n      tag_28\n      swap2\n      swap1\n      tag_25\n      jump\t// in\n    tag_28:\n      tag_29\n      jump\t// in\n    tag_27:\n      stop\n        /* \"contracts/Bitcoin.sol\":538:714  function transfer(address receiver, uint amount) public {\r... */\n    tag_8:\n      tag_30\n      0x04\n      dup1\n      calldatasize\n      sub\n      dup2\n      add\n      swap1\n      tag_31\n      swap2\n      swap1\n      tag_25\n      jump\t// in\n    tag_31:\n      tag_32\n      jump\t// in\n    tag_30:\n      stop\n        /* \"contracts/Bitcoin.sol\":98:118  address public wakar */\n    tag_10:\n      0x00\n      dup1\n      sload\n      swap1\n      0x0100\n      exp\n      swap1\n      div\n      0xffffffffffffffffffffffffffffffffffffffff\n      and\n      dup2\n      jump\t// out\n        /* \"contracts/Bitcoin.sol\":716:909  function transferFrom(address current_sender, address receiver, uint amount) public {\r... */\n    tag_16:\n        /* \"contracts/Bitcoin.sol\":822:832  msg.sender */\n      caller\n        /* \"contracts/Bitcoin.sol\":807:832  current_sender=msg.sender */\n      swap3\n      pop\n        /* \"contracts/Bitcoin.sol\":864:870  amount */\n      dup1\n        /* \"contracts/Bitcoin.sol\":836:844  balances */\n      0x01\n        /* \"contracts/Bitcoin.sol\":836:860  balances[current_sender] */\n      0x00\n        /* \"contracts/Bitcoin.sol\":845:859  current_sender */\n      dup6\n        /* \"contracts/Bitcoin.sol\":836:860  balances[current_sender] */\n      0xffffffffffffffffffffffffffffffffffffffff\n      and\n      0xffffffffffffffffffffffffffffffffffffffff\n      and\n      dup2\n      mstore\n      0x20\n      add\n      swap1\n      dup2\n      mstore\n      0x20\n      add\n      0x00\n      keccak256\n      0x00\n        /* \"contracts/Bitcoin.sol\":836:870  balances[current_sender] -= amount */\n      dup3\n      dup3\n      sload\n      tag_34\n      swap2\n      swap1\n      tag_35\n      jump\t// in\n    tag_34:\n      swap3\n      pop\n      pop\n      dup2\n      swap1\n      sstore\n      pop\n        /* \"contracts/Bitcoin.sol\":899:905  amount */\n      dup1\n        /* \"contracts/Bitcoin.sol\":877:885  balances */\n      0x01\n        /* \"contracts/Bitcoin.sol\":877:895  balances[receiver] */\n      0x00\n        /* \"contracts/Bitcoin.sol\":886:894  receiver */\n      dup5\n        /* \"contracts/Bitcoin.sol\":877:895  balances[receiver] */\n      0xffffffffffffffffffffffffffffffffffffffff\n      and\n      0xffffffffffffffffffffffffffffffffffffffff\n      and\n      dup2\n      mstore\n      0x20\n      add\n      swap1\n      dup2\n      mstore\n      0x20\n      add\n      0x00\n      keccak256\n      0x00\n        /* \"contracts/Bitcoin.sol\":877:905  balances[receiver] += amount */\n      dup3\n      dup3\n      sload\n      tag_36\n      swap2\n      swap1\n      tag_37\n      jump\t// in\n    tag_36:\n      swap3\n      pop\n      pop\n      dup2\n      swap1\n      sstore\n      pop\n        /* \"contracts/Bitcoin.sol\":716:909  function transferFrom(address current_sender, address receiver, uint amount) public {\r... */\n      pop\n      pop\n      pop\n      jump\t// out\n        /* \"contracts/Bitcoin.sol\":125:165  mapping (address =>uint) public balances */\n    tag_20:\n      mstore(0x20, 0x01)\n      dup1\n      0x00\n      mstore\n      keccak256(0x00, 0x40)\n      0x00\n      swap2\n      pop\n      swap1\n      pop\n      sload\n      dup2\n      jump\t// out\n        /* \"contracts/Bitcoin.sol\":224:377  function mint(address receiver,uint amount) public {\r... */\n    tag_26:\n        /* \"contracts/Bitcoin.sol\":307:312  wakar */\n      0x00\n      dup1\n      sload\n      swap1\n      0x0100\n      exp\n      swap1\n      div\n      0xffffffffffffffffffffffffffffffffffffffff\n      and\n        /* \"contracts/Bitcoin.sol\":293:312  msg.sender == wakar */\n      0xffffffffffffffffffffffffffffffffffffffff\n      and\n        /* \"contracts/Bitcoin.sol\":293:303  msg.sender */\n      caller\n        /* \"contracts/Bitcoin.sol\":293:312  msg.sender == wakar */\n      0xffffffffffffffffffffffffffffffffffffffff\n      and\n      eq\n        /* \"contracts/Bitcoin.sol\":285:335  require(msg.sender == wakar,\"your not the minter\") */\n      tag_39\n      jumpi\n      mload(0x40)\n      0x08c379a000000000000000000000000000000000000000000000000000000000\n      dup2\n      mstore\n      0x04\n      add\n      tag_40\n      swap1\n      tag_41\n      jump\t// in\n    tag_40:\n      mload(0x40)\n      dup1\n      swap2\n      sub\n      swap1\n      revert\n    tag_39:\n        /* \"contracts/Bitcoin.sol\":367:373  amount */\n      dup1\n        /* \"contracts/Bitcoin.sol\":345:353  balances */\n      0x01\n        /* \"contracts/Bitcoin.sol\":345:363  balances[receiver] */\n      0x00\n        /* \"contracts/Bitcoin.sol\":354:362  receiver */\n      dup5\n        /* \"contracts/Bitcoin.sol\":345:363  balances[receiver] */\n      0xffffffffffffffffffffffffffffffffffffffff\n      and\n      0xffffffffffffffffffffffffffffffffffffffff\n      and\n      dup2\n      mstore\n      0x20\n      add\n      swap1\n      dup2\n      mstore\n      0x20\n      add\n      0x00\n      keccak256\n      0x00\n        /* \"contracts/Bitcoin.sol\":345:373  balances[receiver] += amount */\n      dup3\n      dup3\n      sload\n      tag_42\n      swap2\n      swap1\n      tag_37\n      jump\t// in\n    tag_42:\n      swap3\n      pop\n      pop\n      dup2\n      swap1\n      sstore\n      pop\n        /* \"contracts/Bitcoin.sol\":224:377  function mint(address receiver,uint amount) public {\r... */\n      pop\n      pop\n      jump\t// out\n        /* \"contracts/Bitcoin.sol\":381:534  function burn(address receiver,uint amount) public {\r... */\n    tag_29:\n        /* \"contracts/Bitcoin.sol\":464:469  wakar */\n      0x00\n      dup1\n      sload\n      swap1\n      0x0100\n      exp\n      swap1\n      div\n      0xffffffffffffffffffffffffffffffffffffffff\n      and\n        /* \"contracts/Bitcoin.sol\":450:469  msg.sender == wakar */\n      0xffffffffffffffffffffffffffffffffffffffff\n      and\n        /* \"contracts/Bitcoin.sol\":450:460  msg.sender */\n      caller\n        /* \"contracts/Bitcoin.sol\":450:469  msg.sender == wakar */\n      0xffffffffffffffffffffffffffffffffffffffff\n      and\n      eq\n        /* \"contracts/Bitcoin.sol\":442:492  require(msg.sender == wakar,\"your not the minter\") */\n      tag_44\n      jumpi\n      mload(0x40)\n      0x08c379a000000000000000000000000000000000000000000000000000000000\n      dup2\n      mstore\n      0x04\n      add\n      tag_45\n      swap1\n      tag_41\n      jump\t// in\n    tag_45:\n      mload(0x40)\n      dup1\n      swap2\n      sub\n      swap1\n      revert\n    tag_44:\n        /* \"contracts/Bitcoin.sol\":524:530  amount */\n      dup1\n        /* \"contracts/Bitcoin.sol\":502:510  balances */\n      0x01\n        /* \"contracts/Bitcoin.sol\":502:520  balances[receiver] */\n      0x00\n        /* \"contracts/Bitcoin.sol\":511:519  receiver */\n      dup5\n        /* \"contracts/Bitcoin.sol\":502:520  balances[receiver] */\n      0xffffffffffffffffffffffffffffffffffffffff\n      and\n      0xffffffffffffffffffffffffffffffffffffffff\n      and\n      dup2\n      mstore\n      0x20\n      add\n      swap1\n      dup2\n      mstore\n      0x20\n      add\n      0x00\n      keccak256\n      0x00\n        /* \"contracts/Bitcoin.sol\":502:530  balances[receiver] -= amount */\n      dup3\n      dup3\n      sload\n      tag_46\n      swap2\n      swap1\n      tag_35\n      jump\t// in\n    tag_46:\n      swap3\n      pop\n      pop\n      dup2\n      swap1\n      sstore\n      pop\n        /* \"contracts/Bitcoin.sol\":381:534  function burn(address receiver,uint amount) public {\r... */\n      pop\n      pop\n      jump\t// out\n        /* \"contracts/Bitcoin.sol\":538:714  function transfer(address receiver, uint amount) public {\r... */\n    tag_32:\n        /* \"contracts/Bitcoin.sol\":631:637  amount */\n      dup1\n        /* \"contracts/Bitcoin.sol\":609:617  balances */\n      0x01\n        /* \"contracts/Bitcoin.sol\":609:629  balances[msg.sender] */\n      0x00\n        /* \"contracts/Bitcoin.sol\":618:628  msg.sender */\n      caller\n        /* \"contracts/Bitcoin.sol\":609:629  balances[msg.sender] */\n      0xffffffffffffffffffffffffffffffffffffffff\n      and\n      0xffffffffffffffffffffffffffffffffffffffff\n      and\n      dup2\n      mstore\n      0x20\n      add\n      swap1\n      dup2\n      mstore\n      0x20\n      add\n      0x00\n      keccak256\n      sload\n        /* \"contracts/Bitcoin.sol\":609:637  balances[msg.sender]>=amount */\n      lt\n      iszero\n        /* \"contracts/Bitcoin.sol\":601:638  require(balances[msg.sender]>=amount) */\n      tag_48\n      jumpi\n      0x00\n      dup1\n      revert\n    tag_48:\n        /* \"contracts/Bitcoin.sol\":669:675  amount */\n      dup1\n        /* \"contracts/Bitcoin.sol\":645:653  balances */\n      0x01\n        /* \"contracts/Bitcoin.sol\":645:665  balances[msg.sender] */\n      0x00\n        /* \"contracts/Bitcoin.sol\":654:664  msg.sender */\n      caller\n        /* \"contracts/Bitcoin.sol\":645:665  balances[msg.sender] */\n      0xffffffffffffffffffffffffffffffffffffffff\n      and\n      0xffffffffffffffffffffffffffffffffffffffff\n      and\n      dup2\n      mstore\n      0x20\n      add\n      swap1\n      dup2\n      mstore\n      0x20\n      add\n      0x00\n      keccak256\n      0x00\n        /* \"contracts/Bitcoin.sol\":645:675  balances[msg.sender] -= amount */\n      dup3\n      dup3\n      sload\n      tag_49\n      swap2\n      swap1\n      tag_35\n      jump\t// in\n    tag_49:\n      swap3\n      pop\n      pop\n      dup2\n      swap1\n      sstore\n      pop\n        /* \"contracts/Bitcoin.sol\":704:710  amount */\n      dup1\n        /* \"contracts/Bitcoin.sol\":682:690  balances */\n      0x01\n        /* \"contracts/Bitcoin.sol\":682:700  balances[receiver] */\n      0x00\n        /* \"contracts/Bitcoin.sol\":691:699  receiver */\n      dup5\n        /* \"contracts/Bitcoin.sol\":682:700  balances[receiver] */\n      0xffffffffffffffffffffffffffffffffffffffff\n      and\n      0xffffffffffffffffffffffffffffffffffffffff\n      and\n      dup2\n      mstore\n      0x20\n      add\n      swap1\n      dup2\n      mstore\n      0x20\n      add\n      0x00\n      keccak256\n      0x00\n        /* \"contracts/Bitcoin.sol\":682:710  balances[receiver] += amount */\n      dup3\n      dup3\n      sload\n      tag_50\n      swap2\n      swap1\n      tag_37\n      jump\t// in\n    tag_50:\n      swap3\n      pop\n      pop\n      dup2\n      swap1\n      sstore\n      pop\n        /* \"contracts/Bitcoin.sol\":538:714  function transfer(address receiver, uint amount) public {\r... */\n      pop\n      pop\n      jump\t// out\n        /* \"#utility.yul\":7:146   */\n    tag_52:\n        /* \"#utility.yul\":53:58   */\n      0x00\n        /* \"#utility.yul\":91:97   */\n      dup2\n        /* \"#utility.yul\":78:98   */\n      calldataload\n        /* \"#utility.yul\":69:98   */\n      swap1\n      pop\n        /* \"#utility.yul\":107:140   */\n      tag_54\n        /* \"#utility.yul\":134:139   */\n      dup2\n        /* \"#utility.yul\":107:140   */\n      tag_55\n      jump\t// in\n    tag_54:\n        /* \"#utility.yul\":7:146   */\n      swap3\n      swap2\n      pop\n      pop\n      jump\t// out\n        /* \"#utility.yul\":152:291   */\n    tag_56:\n        /* \"#utility.yul\":198:203   */\n      0x00\n        /* \"#utility.yul\":236:242   */\n      dup2\n        /* \"#utility.yul\":223:243   */\n      calldataload\n        /* \"#utility.yul\":214:243   */\n      swap1\n      pop\n        /* \"#utility.yul\":252:285   */\n      tag_58\n        /* \"#utility.yul\":279:284   */\n      dup2\n        /* \"#utility.yul\":252:285   */\n      tag_59\n      jump\t// in\n    tag_58:\n        /* \"#utility.yul\":152:291   */\n      swap3\n      swap2\n      pop\n      pop\n      jump\t// out\n        /* \"#utility.yul\":297:626   */\n    tag_19:\n        /* \"#utility.yul\":356:362   */\n      0x00\n        /* \"#utility.yul\":405:407   */\n      0x20\n        /* \"#utility.yul\":393:402   */\n      dup3\n        /* \"#utility.yul\":384:391   */\n      dup5\n        /* \"#utility.yul\":380:403   */\n      sub\n        /* \"#utility.yul\":376:408   */\n      slt\n        /* \"#utility.yul\":373:492   */\n      iszero\n      tag_61\n      jumpi\n        /* \"#utility.yul\":411:490   */\n      tag_62\n      tag_63\n      jump\t// in\n    tag_62:\n        /* \"#utility.yul\":373:492   */\n    tag_61:\n        /* \"#utility.yul\":531:532   */\n      0x00\n        /* \"#utility.yul\":556:609   */\n      tag_64\n        /* \"#utility.yul\":601:608   */\n      dup5\n        /* \"#utility.yul\":592:598   */\n      dup3\n        /* \"#utility.yul\":581:590   */\n      dup6\n        /* \"#utility.yul\":577:599   */\n      add\n        /* \"#utility.yul\":556:609   */\n      tag_52\n      jump\t// in\n    tag_64:\n        /* \"#utility.yul\":546:609   */\n      swap2\n      pop\n        /* \"#utility.yul\":502:619   */\n      pop\n        /* \"#utility.yul\":297:626   */\n      swap3\n      swap2\n      pop\n      pop\n      jump\t// out\n        /* \"#utility.yul\":632:1251   */\n    tag_15:\n        /* \"#utility.yul\":709:715   */\n      0x00\n        /* \"#utility.yul\":717:723   */\n      dup1\n        /* \"#utility.yul\":725:731   */\n      0x00\n        /* \"#utility.yul\":774:776   */\n      0x60\n        /* \"#utility.yul\":762:771   */\n      dup5\n        /* \"#utility.yul\":753:760   */\n      dup7\n        /* \"#utility.yul\":749:772   */\n      sub\n        /* \"#utility.yul\":745:777   */\n      slt\n        /* \"#utility.yul\":742:861   */\n      iszero\n      tag_66\n      jumpi\n        /* \"#utility.yul\":780:859   */\n      tag_67\n      tag_63\n      jump\t// in\n    tag_67:\n        /* \"#utility.yul\":742:861   */\n    tag_66:\n        /* \"#utility.yul\":900:901   */\n      0x00\n        /* \"#utility.yul\":925:978   */\n      tag_68\n        /* \"#utility.yul\":970:977   */\n      dup7\n        /* \"#utility.yul\":961:967   */\n      dup3\n        /* \"#utility.yul\":950:959   */\n      dup8\n        /* \"#utility.yul\":946:968   */\n      add\n        /* \"#utility.yul\":925:978   */\n      tag_52\n      jump\t// in\n    tag_68:\n        /* \"#utility.yul\":915:978   */\n      swap4\n      pop\n        /* \"#utility.yul\":871:988   */\n      pop\n        /* \"#utility.yul\":1027:1029   */\n      0x20\n        /* \"#utility.yul\":1053:1106   */\n      tag_69\n        /* \"#utility.yul\":1098:1105   */\n      dup7\n        /* \"#utility.yul\":1089:1095   */\n      dup3\n        /* \"#utility.yul\":1078:1087   */\n      dup8\n        /* \"#utility.yul\":1074:1096   */\n      add\n        /* \"#utility.yul\":1053:1106   */\n      tag_52\n      jump\t// in\n    tag_69:\n        /* \"#utility.yul\":1043:1106   */\n      swap3\n      pop\n        /* \"#utility.yul\":998:1116   */\n      pop\n        /* \"#utility.yul\":1155:1157   */\n      0x40\n        /* \"#utility.yul\":1181:1234   */\n      tag_70\n        /* \"#utility.yul\":1226:1233   */\n      dup7\n        /* \"#utility.yul\":1217:1223   */\n      dup3\n        /* \"#utility.yul\":1206:1215   */\n      dup8\n        /* \"#utility.yul\":1202:1224   */\n      add\n        /* \"#utility.yul\":1181:1234   */\n      tag_56\n      jump\t// in\n    tag_70:\n        /* \"#utility.yul\":1171:1234   */\n      swap2\n      pop\n        /* \"#utility.yul\":1126:1244   */\n      pop\n        /* \"#utility.yul\":632:1251   */\n      swap3\n      pop\n      swap3\n      pop\n      swap3\n      jump\t// out\n        /* \"#utility.yul\":1257:1731   */\n    tag_25:\n        /* \"#utility.yul\":1325:1331   */\n      0x00\n        /* \"#utility.yul\":1333:1339   */\n      dup1\n        /* \"#utility.yul\":1382:1384   */\n      0x40\n        /* \"#utility.yul\":1370:1379   */\n      dup4\n        /* \"#utility.yul\":1361:1368   */\n      dup6\n        /* \"#utility.yul\":1357:1380   */\n      sub\n        /* \"#utility.yul\":1353:1385   */\n      slt\n        /* \"#utility.yul\":1350:1469   */\n      iszero\n      tag_72\n      jumpi\n        /* \"#utility.yul\":1388:1467   */\n      tag_73\n      tag_63\n      jump\t// in\n    tag_73:\n        /* \"#utility.yul\":1350:1469   */\n    tag_72:\n        /* \"#utility.yul\":1508:1509   */\n      0x00\n        /* \"#utility.yul\":1533:1586   */\n      tag_74\n        /* \"#utility.yul\":1578:1585   */\n      dup6\n        /* \"#utility.yul\":1569:1575   */\n      dup3\n        /* \"#utility.yul\":1558:1567   */\n      dup7\n        /* \"#utility.yul\":1554:1576   */\n      add\n        /* \"#utility.yul\":1533:1586   */\n      tag_52\n      jump\t// in\n    tag_74:\n        /* \"#utility.yul\":1523:1586   */\n      swap3\n      pop\n        /* \"#utility.yul\":1479:1596   */\n      pop\n        /* \"#utility.yul\":1635:1637   */\n      0x20\n        /* \"#utility.yul\":1661:1714   */\n      tag_75\n        /* \"#utility.yul\":1706:1713   */\n      dup6\n        /* \"#utility.yul\":1697:1703   */\n      dup3\n        /* \"#utility.yul\":1686:1695   */\n      dup7\n        /* \"#utility.yul\":1682:1704   */\n      add\n        /* \"#utility.yul\":1661:1714   */\n      tag_56\n      jump\t// in\n    tag_75:\n        /* \"#utility.yul\":1651:1714   */\n      swap2\n      pop\n        /* \"#utility.yul\":1606:1724   */\n      pop\n        /* \"#utility.yul\":1257:1731   */\n      swap3\n      pop\n      swap3\n      swap1\n      pop\n      jump\t// out\n        /* \"#utility.yul\":1737:1855   */\n    tag_76:\n        /* \"#utility.yul\":1824:1848   */\n      tag_78\n        /* \"#utility.yul\":1842:1847   */\n      dup2\n        /* \"#utility.yul\":1824:1848   */\n      tag_79\n      jump\t// in\n    tag_78:\n        /* \"#utility.yul\":1819:1822   */\n      dup3\n        /* \"#utility.yul\":1812:1849   */\n      mstore\n        /* \"#utility.yul\":1737:1855   */\n      pop\n      pop\n      jump\t// out\n        /* \"#utility.yul\":1861:2227   */\n    tag_80:\n        /* \"#utility.yul\":2003:2006   */\n      0x00\n        /* \"#utility.yul\":2024:2091   */\n      tag_82\n        /* \"#utility.yul\":2088:2090   */\n      0x13\n        /* \"#utility.yul\":2083:2086   */\n      dup4\n        /* \"#utility.yul\":2024:2091   */\n      tag_83\n      jump\t// in\n    tag_82:\n        /* \"#utility.yul\":2017:2091   */\n      swap2\n      pop\n        /* \"#utility.yul\":2100:2193   */\n      tag_84\n        /* \"#utility.yul\":2189:2192   */\n      dup3\n        /* \"#utility.yul\":2100:2193   */\n      tag_85\n      jump\t// in\n    tag_84:\n        /* \"#utility.yul\":2218:2220   */\n      0x20\n        /* \"#utility.yul\":2213:2216   */\n      dup3\n        /* \"#utility.yul\":2209:2221   */\n      add\n        /* \"#utility.yul\":2202:2221   */\n      swap1\n      pop\n        /* \"#utility.yul\":1861:2227   */\n      swap2\n      swap1\n      pop\n      jump\t// out\n        /* \"#utility.yul\":2233:2351   */\n    tag_86:\n        /* \"#utility.yul\":2320:2344   */\n      tag_88\n        /* \"#utility.yul\":2338:2343   */\n      dup2\n        /* \"#utility.yul\":2320:2344   */\n      tag_89\n      jump\t// in\n    tag_88:\n        /* \"#utility.yul\":2315:2318   */\n      dup3\n        /* \"#utility.yul\":2308:2345   */\n      mstore\n        /* \"#utility.yul\":2233:2351   */\n      pop\n      pop\n      jump\t// out\n        /* \"#utility.yul\":2357:2579   */\n    tag_12:\n        /* \"#utility.yul\":2450:2454   */\n      0x00\n        /* \"#utility.yul\":2488:2490   */\n      0x20\n        /* \"#utility.yul\":2477:2486   */\n      dup3\n        /* \"#utility.yul\":2473:2491   */\n      add\n        /* \"#utility.yul\":2465:2491   */\n      swap1\n      pop\n        /* \"#utility.yul\":2501:2572   */\n      tag_91\n        /* \"#utility.yul\":2569:2570   */\n      0x00\n        /* \"#utility.yul\":2558:2567   */\n      dup4\n        /* \"#utility.yul\":2554:2571   */\n      add\n        /* \"#utility.yul\":2545:2551   */\n      dup5\n        /* \"#utility.yul\":2501:2572   */\n      tag_76\n      jump\t// in\n    tag_91:\n        /* \"#utility.yul\":2357:2579   */\n      swap3\n      swap2\n      pop\n      pop\n      jump\t// out\n        /* \"#utility.yul\":2585:3004   */\n    tag_41:\n        /* \"#utility.yul\":2751:2755   */\n      0x00\n        /* \"#utility.yul\":2789:2791   */\n      0x20\n        /* \"#utility.yul\":2778:2787   */\n      dup3\n        /* \"#utility.yul\":2774:2792   */\n      add\n        /* \"#utility.yul\":2766:2792   */\n      swap1\n      pop\n        /* \"#utility.yul\":2838:2847   */\n      dup2\n        /* \"#utility.yul\":2832:2836   */\n      dup2\n        /* \"#utility.yul\":2828:2848   */\n      sub\n        /* \"#utility.yul\":2824:2825   */\n      0x00\n        /* \"#utility.yul\":2813:2822   */\n      dup4\n        /* \"#utility.yul\":2809:2826   */\n      add\n        /* \"#utility.yul\":2802:2849   */\n      mstore\n        /* \"#utility.yul\":2866:2997   */\n      tag_93\n        /* \"#utility.yul\":2992:2996   */\n      dup2\n        /* \"#utility.yul\":2866:2997   */\n      tag_80\n      jump\t// in\n    tag_93:\n        /* \"#utility.yul\":2858:2997   */\n      swap1\n      pop\n        /* \"#utility.yul\":2585:3004   */\n      swap2\n      swap1\n      pop\n      jump\t// out\n        /* \"#utility.yul\":3010:3232   */\n    tag_22:\n        /* \"#utility.yul\":3103:3107   */\n      0x00\n        /* \"#utility.yul\":3141:3143   */\n      0x20\n        /* \"#utility.yul\":3130:3139   */\n      dup3\n        /* \"#utility.yul\":3126:3144   */\n      add\n        /* \"#utility.yul\":3118:3144   */\n      swap1\n      pop\n        /* \"#utility.yul\":3154:3225   */\n      tag_95\n        /* \"#utility.yul\":3222:3223   */\n      0x00\n        /* \"#utility.yul\":3211:3220   */\n      dup4\n        /* \"#utility.yul\":3207:3224   */\n      add\n        /* \"#utility.yul\":3198:3204   */\n      dup5\n        /* \"#utility.yul\":3154:3225   */\n      tag_86\n      jump\t// in\n    tag_95:\n        /* \"#utility.yul\":3010:3232   */\n      swap3\n      swap2\n      pop\n      pop\n      jump\t// out\n        /* \"#utility.yul\":3319:3488   */\n    tag_83:\n        /* \"#utility.yul\":3403:3414   */\n      0x00\n        /* \"#utility.yul\":3437:3443   */\n      dup3\n        /* \"#utility.yul\":3432:3435   */\n      dup3\n        /* \"#utility.yul\":3425:3444   */\n      mstore\n        /* \"#utility.yul\":3477:3481   */\n      0x20\n        /* \"#utility.yul\":3472:3475   */\n      dup3\n        /* \"#utility.yul\":3468:3482   */\n      add\n        /* \"#utility.yul\":3453:3482   */\n      swap1\n      pop\n        /* \"#utility.yul\":3319:3488   */\n      swap3\n      swap2\n      pop\n      pop\n      jump\t// out\n        /* \"#utility.yul\":3494:3799   */\n    tag_37:\n        /* \"#utility.yul\":3534:3537   */\n      0x00\n        /* \"#utility.yul\":3553:3573   */\n      tag_100\n        /* \"#utility.yul\":3571:3572   */\n      dup3\n        /* \"#utility.yul\":3553:3573   */\n      tag_89\n      jump\t// in\n    tag_100:\n        /* \"#utility.yul\":3548:3573   */\n      swap2\n      pop\n        /* \"#utility.yul\":3587:3607   */\n      tag_101\n        /* \"#utility.yul\":3605:3606   */\n      dup4\n        /* \"#utility.yul\":3587:3607   */\n      tag_89\n      jump\t// in\n    tag_101:\n        /* \"#utility.yul\":3582:3607   */\n      swap3\n      pop\n        /* \"#utility.yul\":3741:3742   */\n      dup3\n        /* \"#utility.yul\":3673:3739   */\n      0xffffffffffffffffffffffffffffffffffffffffffffffffffffffffffffffff\n        /* \"#utility.yul\":3669:3743   */\n      sub\n        /* \"#utility.yul\":3666:3667   */\n      dup3\n        /* \"#utility.yul\":3663:3744   */\n      gt\n        /* \"#utility.yul\":3660:3767   */\n      iszero\n      tag_102\n      jumpi\n        /* \"#utility.yul\":3747:3765   */\n      tag_103\n      tag_104\n      jump\t// in\n    tag_103:\n        /* \"#utility.yul\":3660:3767   */\n    tag_102:\n        /* \"#utility.yul\":3791:3792   */\n      dup3\n        /* \"#utility.yul\":3788:3789   */\n      dup3\n        /* \"#utility.yul\":3784:3793   */\n      add\n        /* \"#utility.yul\":3777:3793   */\n      swap1\n      pop\n        /* \"#utility.yul\":3494:3799   */\n      swap3\n      swap2\n      pop\n      pop\n      jump\t// out\n        /* \"#utility.yul\":3805:3996   */\n    tag_35:\n        /* \"#utility.yul\":3845:3849   */\n      0x00\n        /* \"#utility.yul\":3865:3885   */\n      tag_106\n        /* \"#utility.yul\":3883:3884   */\n      dup3\n        /* \"#utility.yul\":3865:3885   */\n      tag_89\n      jump\t// in\n    tag_106:\n        /* \"#utility.yul\":3860:3885   */\n      swap2\n      pop\n        /* \"#utility.yul\":3899:3919   */\n      tag_107\n        /* \"#utility.yul\":3917:3918   */\n      dup4\n        /* \"#utility.yul\":3899:3919   */\n      tag_89\n      jump\t// in\n    tag_107:\n        /* \"#utility.yul\":3894:3919   */\n      swap3\n      pop\n        /* \"#utility.yul\":3938:3939   */\n      dup3\n        /* \"#utility.yul\":3935:3936   */\n      dup3\n        /* \"#utility.yul\":3932:3940   */\n      lt\n        /* \"#utility.yul\":3929:3963   */\n      iszero\n      tag_108\n      jumpi\n        /* \"#utility.yul\":3943:3961   */\n      tag_109\n      tag_104\n      jump\t// in\n    tag_109:\n        /* \"#utility.yul\":3929:3963   */\n    tag_108:\n        /* \"#utility.yul\":3988:3989   */\n      dup3\n        /* \"#utility.yul\":3985:3986   */\n      dup3\n        /* \"#utility.yul\":3981:3990   */\n      sub\n        /* \"#utility.yul\":3973:3990   */\n      swap1\n      pop\n        /* \"#utility.yul\":3805:3996   */\n      swap3\n      swap2\n      pop\n      pop\n      jump\t// out\n        /* \"#utility.yul\":4002:4098   */\n    tag_79:\n        /* \"#utility.yul\":4039:4046   */\n      0x00\n        /* \"#utility.yul\":4068:4092   */\n      tag_111\n        /* \"#utility.yul\":4086:4091   */\n      dup3\n        /* \"#utility.yul\":4068:4092   */\n      tag_112\n      jump\t// in\n    tag_111:\n        /* \"#utility.yul\":4057:4092   */\n      swap1\n      pop\n        /* \"#utility.yul\":4002:4098   */\n      swap2\n      swap1\n      pop\n      jump\t// out\n        /* \"#utility.yul\":4104:4230   */\n    tag_112:\n        /* \"#utility.yul\":4141:4148   */\n      0x00\n        /* \"#utility.yul\":4181:4223   */\n      0xffffffffffffffffffffffffffffffffffffffff\n        /* \"#utility.yul\":4174:4179   */\n      dup3\n        /* \"#utility.yul\":4170:4224   */\n      and\n        /* \"#utility.yul\":4159:4224   */\n      swap1\n      pop\n        /* \"#utility.yul\":4104:4230   */\n      swap2\n      swap1\n      pop\n      jump\t// out\n        /* \"#utility.yul\":4236:4313   */\n    tag_89:\n        /* \"#utility.yul\":4273:4280   */\n      0x00\n        /* \"#utility.yul\":4302:4307   */\n      dup2\n        /* \"#utility.yul\":4291:4307   */\n      swap1\n      pop\n        /* \"#utility.yul\":4236:4313   */\n      swap2\n      swap1\n      pop\n      jump\t// out\n        /* \"#utility.yul\":4319:4499   */\n    tag_104:\n        /* \"#utility.yul\":4367:4444   */\n      0x4e487b7100000000000000000000000000000000000000000000000000000000\n        /* \"#utility.yul\":4364:4365   */\n      0x00\n        /* \"#utility.yul\":4357:4445   */\n      mstore\n        /* \"#utility.yul\":4464:4468   */\n      0x11\n        /* \"#utility.yul\":4461:4462   */\n      0x04\n        /* \"#utility.yul\":4454:4469   */\n      mstore\n        /* \"#utility.yul\":4488:4492   */\n      0x24\n        /* \"#utility.yul\":4485:4486   */\n      0x00\n        /* \"#utility.yul\":4478:4493   */\n      revert\n        /* \"#utility.yul\":4628:4745   */\n    tag_63:\n        /* \"#utility.yul\":4737:4738   */\n      0x00\n        /* \"#utility.yul\":4734:4735   */\n      dup1\n        /* \"#utility.yul\":4727:4739   */\n      revert\n        /* \"#utility.yul\":4751:4920   */\n    tag_85:\n        /* \"#utility.yul\":4891:4912   */\n      0x796f7572206e6f7420746865206d696e74657200000000000000000000000000\n        /* \"#utility.yul\":4887:4888   */\n      0x00\n        /* \"#utility.yul\":4879:4885   */\n      dup3\n        /* \"#utility.yul\":4875:4889   */\n      add\n        /* \"#utility.yul\":4868:4913   */\n      mstore\n        /* \"#utility.yul\":4751:4920   */\n      pop\n      jump\t// out\n        /* \"#utility.yul\":4926:5048   */\n    tag_55:\n        /* \"#utility.yul\":4999:5023   */\n      tag_121\n        /* \"#utility.yul\":5017:5022   */\n      dup2\n        /* \"#utility.yul\":4999:5023   */\n      tag_79\n      jump\t// in\n    tag_121:\n        /* \"#utility.yul\":4992:4997   */\n      dup2\n        /* \"#utility.yul\":4989:5024   */\n      eq\n        /* \"#utility.yul\":4979:5042   */\n      tag_122\n      jumpi\n        /* \"#utility.yul\":5038:5039   */\n      0x00\n        /* \"#utility.yul\":5035:5036   */\n      dup1\n        /* \"#utility.yul\":5028:5040   */\n      revert\n        /* \"#utility.yul\":4979:5042   */\n    tag_122:\n        /* \"#utility.yul\":4926:5048   */\n      pop\n      jump\t// out\n        /* \"#utility.yul\":5054:5176   */\n    tag_59:\n        /* \"#utility.yul\":5127:5151   */\n      tag_124\n        /* \"#utility.yul\":5145:5150   */\n      dup2\n        /* \"#utility.yul\":5127:5151   */\n      tag_89\n      jump\t// in\n    tag_124:\n        /* \"#utility.yul\":5120:5125   */\n      dup2\n        /* \"#utility.yul\":5117:5152   */\n      eq\n        /* \"#utility.yul\":5107:5170   */\n      tag_125\n      jumpi\n        /* \"#utility.yul\":5166:5167   */\n      0x00\n        /* \"#utility.yul\":5163:5164   */\n      dup1\n        /* \"#utility.yul\":5156:5168   */\n      revert\n        /* \"#utility.yul\":5107:5170   */\n    tag_125:\n        /* \"#utility.yul\":5054:5176   */\n      pop\n      jump\t// out\n\n    auxdata: 0xa26469706673582212203d30484b625d87991d80ecbff0ee3e22400763b5f186d0e40248130354aa07dc64736f6c63430008070033\n}\n",
				"bytecode": {
					"linkReferences": {},
					"object": "608060405234801561001057600080fd5b50336000806101000a81548173ffffffffffffffffffffffffffffffffffffffff021916908373ffffffffffffffffffffffffffffffffffffffff1602179055506107fa806100606000396000f3fe608060405234801561001057600080fd5b50600436106100625760003560e01c806313f27ae31461006757806323b872dd1461008557806327e235e3146100a157806340c10f19146100d15780639dc29fac146100ed578063a9059cbb14610109575b600080fd5b61006f610125565b60405161007c919061060c565b60405180910390f35b61009f600480360381019061009a9190610538565b610149565b005b6100bb60048036038101906100b6919061050b565b6101fd565b6040516100c89190610647565b60405180910390f35b6100eb60048036038101906100e6919061058b565b610215565b005b6101076004803603810190610102919061058b565b6102fd565b005b610123600480360381019061011e919061058b565b6103e5565b005b60008054906101000a900473ffffffffffffffffffffffffffffffffffffffff1681565b33925080600160008573ffffffffffffffffffffffffffffffffffffffff1673ffffffffffffffffffffffffffffffffffffffff168152602001908152602001600020600082825461019b91906106c9565b9250508190555080600160008473ffffffffffffffffffffffffffffffffffffffff1673ffffffffffffffffffffffffffffffffffffffff16815260200190815260200160002060008282546101f19190610673565b92505081905550505050565b60016020528060005260406000206000915090505481565b60008054906101000a900473ffffffffffffffffffffffffffffffffffffffff1673ffffffffffffffffffffffffffffffffffffffff163373ffffffffffffffffffffffffffffffffffffffff16146102a3576040517f08c379a000000000000000000000000000000000000000000000000000000000815260040161029a90610627565b60405180910390fd5b80600160008473ffffffffffffffffffffffffffffffffffffffff1673ffffffffffffffffffffffffffffffffffffffff16815260200190815260200160002060008282546102f29190610673565b925050819055505050565b60008054906101000a900473ffffffffffffffffffffffffffffffffffffffff1673ffffffffffffffffffffffffffffffffffffffff163373ffffffffffffffffffffffffffffffffffffffff161461038b576040517f08c379a000000000000000000000000000000000000000000000000000000000815260040161038290610627565b60405180910390fd5b80600160008473ffffffffffffffffffffffffffffffffffffffff1673ffffffffffffffffffffffffffffffffffffffff16815260200190815260200160002060008282546103da91906106c9565b925050819055505050565b80600160003373ffffffffffffffffffffffffffffffffffffffff1673ffffffffffffffffffffffffffffffffffffffff16815260200190815260200160002054101561043157600080fd5b80600160003373ffffffffffffffffffffffffffffffffffffffff1673ffffffffffffffffffffffffffffffffffffffff168152602001908152602001600020600082825461048091906106c9565b9250508190555080600160008473ffffffffffffffffffffffffffffffffffffffff1673ffffffffffffffffffffffffffffffffffffffff16815260200190815260200160002060008282546104d69190610673565b925050819055505050565b6000813590506104f081610796565b92915050565b600081359050610505816107ad565b92915050565b60006020828403121561052157610520610768565b5b600061052f848285016104e1565b91505092915050565b60008060006060848603121561055157610550610768565b5b600061055f868287016104e1565b9350506020610570868287016104e1565b9250506040610581868287016104f6565b9150509250925092565b600080604083850312156105a2576105a1610768565b5b60006105b0858286016104e1565b92505060206105c1858286016104f6565b9150509250929050565b6105d4816106fd565b82525050565b60006105e7601383610662565b91506105f28261076d565b602082019050919050565b6106068161072f565b82525050565b600060208201905061062160008301846105cb565b92915050565b60006020820190508181036000830152610640816105da565b9050919050565b600060208201905061065c60008301846105fd565b92915050565b600082825260208201905092915050565b600061067e8261072f565b91506106898361072f565b9250827fffffffffffffffffffffffffffffffffffffffffffffffffffffffffffffffff038211156106be576106bd610739565b5b828201905092915050565b60006106d48261072f565b91506106df8361072f565b9250828210156106f2576106f1610739565b5b828203905092915050565b60006107088261070f565b9050919050565b600073ffffffffffffffffffffffffffffffffffffffff82169050919050565b6000819050919050565b7f4e487b7100000000000000000000000000000000000000000000000000000000600052601160045260246000fd5b600080fd5b7f796f7572206e6f7420746865206d696e74657200000000000000000000000000600082015250565b61079f816106fd565b81146107aa57600080fd5b50565b6107b68161072f565b81146107c157600080fd5b5056fea26469706673582212203d30484b625d87991d80ecbff0ee3e22400763b5f186d0e40248130354aa07dc64736f6c63430008070033",
					"opcodes": "PUSH1 0x80 PUSH1 0x40 MSTORE CALLVALUE DUP1 ISZERO PUSH2 0x10 JUMPI PUSH1 0x0 DUP1 REVERT JUMPDEST POP CALLER PUSH1 0x0 DUP1 PUSH2 0x100 EXP DUP2 SLOAD DUP2 PUSH20 0xFFFFFFFFFFFFFFFFFFFFFFFFFFFFFFFFFFFFFFFF MUL NOT AND SWAP1 DUP4 PUSH20 0xFFFFFFFFFFFFFFFFFFFFFFFFFFFFFFFFFFFFFFFF AND MUL OR SWAP1 SSTORE POP PUSH2 0x7FA DUP1 PUSH2 0x60 PUSH1 0x0 CODECOPY PUSH1 0x0 RETURN INVALID PUSH1 0x80 PUSH1 0x40 MSTORE CALLVALUE DUP1 ISZERO PUSH2 0x10 JUMPI PUSH1 0x0 DUP1 REVERT JUMPDEST POP PUSH1 0x4 CALLDATASIZE LT PUSH2 0x62 JUMPI PUSH1 0x0 CALLDATALOAD PUSH1 0xE0 SHR DUP1 PUSH4 0x13F27AE3 EQ PUSH2 0x67 JUMPI DUP1 PUSH4 0x23B872DD EQ PUSH2 0x85 JUMPI DUP1 PUSH4 0x27E235E3 EQ PUSH2 0xA1 JUMPI DUP1 PUSH4 0x40C10F19 EQ PUSH2 0xD1 JUMPI DUP1 PUSH4 0x9DC29FAC EQ PUSH2 0xED JUMPI DUP1 PUSH4 0xA9059CBB EQ PUSH2 0x109 JUMPI JUMPDEST PUSH1 0x0 DUP1 REVERT JUMPDEST PUSH2 0x6F PUSH2 0x125 JUMP JUMPDEST PUSH1 0x40 MLOAD PUSH2 0x7C SWAP2 SWAP1 PUSH2 0x60C JUMP JUMPDEST PUSH1 0x40 MLOAD DUP1 SWAP2 SUB SWAP1 RETURN JUMPDEST PUSH2 0x9F PUSH1 0x4 DUP1 CALLDATASIZE SUB DUP2 ADD SWAP1 PUSH2 0x9A SWAP2 SWAP1 PUSH2 0x538 JUMP JUMPDEST PUSH2 0x149 JUMP JUMPDEST STOP JUMPDEST PUSH2 0xBB PUSH1 0x4 DUP1 CALLDATASIZE SUB DUP2 ADD SWAP1 PUSH2 0xB6 SWAP2 SWAP1 PUSH2 0x50B JUMP JUMPDEST PUSH2 0x1FD JUMP JUMPDEST PUSH1 0x40 MLOAD PUSH2 0xC8 SWAP2 SWAP1 PUSH2 0x647 JUMP JUMPDEST PUSH1 0x40 MLOAD DUP1 SWAP2 SUB SWAP1 RETURN JUMPDEST PUSH2 0xEB PUSH1 0x4 DUP1 CALLDATASIZE SUB DUP2 ADD SWAP1 PUSH2 0xE6 SWAP2 SWAP1 PUSH2 0x58B JUMP JUMPDEST PUSH2 0x215 JUMP JUMPDEST STOP JUMPDEST PUSH2 0x107 PUSH1 0x4 DUP1 CALLDATASIZE SUB DUP2 ADD SWAP1 PUSH2 0x102 SWAP2 SWAP1 PUSH2 0x58B JUMP JUMPDEST PUSH2 0x2FD JUMP JUMPDEST STOP JUMPDEST PUSH2 0x123 PUSH1 0x4 DUP1 CALLDATASIZE SUB DUP2 ADD SWAP1 PUSH2 0x11E SWAP2 SWAP1 PUSH2 0x58B JUMP JUMPDEST PUSH2 0x3E5 JUMP JUMPDEST STOP JUMPDEST PUSH1 0x0 DUP1 SLOAD SWAP1 PUSH2 0x100 EXP SWAP1 DIV PUSH20 0xFFFFFFFFFFFFFFFFFFFFFFFFFFFFFFFFFFFFFFFF AND DUP2 JUMP JUMPDEST CALLER SWAP3 POP DUP1 PUSH1 0x1 PUSH1 0x0 DUP6 PUSH20 0xFFFFFFFFFFFFFFFFFFFFFFFFFFFFFFFFFFFFFFFF AND PUSH20 0xFFFFFFFFFFFFFFFFFFFFFFFFFFFFFFFFFFFFFFFF AND DUP2 MSTORE PUSH1 0x20 ADD SWAP1 DUP2 MSTORE PUSH1 0x20 ADD PUSH1 0x0 KECCAK256 PUSH1 0x0 DUP3 DUP3 SLOAD PUSH2 0x19B SWAP2 SWAP1 PUSH2 0x6C9 JUMP JUMPDEST SWAP3 POP POP DUP2 SWAP1 SSTORE POP DUP1 PUSH1 0x1 PUSH1 0x0 DUP5 PUSH20 0xFFFFFFFFFFFFFFFFFFFFFFFFFFFFFFFFFFFFFFFF AND PUSH20 0xFFFFFFFFFFFFFFFFFFFFFFFFFFFFFFFFFFFFFFFF AND DUP2 MSTORE PUSH1 0x20 ADD SWAP1 DUP2 MSTORE PUSH1 0x20 ADD PUSH1 0x0 KECCAK256 PUSH1 0x0 DUP3 DUP3 SLOAD PUSH2 0x1F1 SWAP2 SWAP1 PUSH2 0x673 JUMP JUMPDEST SWAP3 POP POP DUP2 SWAP1 SSTORE POP POP POP POP JUMP JUMPDEST PUSH1 0x1 PUSH1 0x20 MSTORE DUP1 PUSH1 0x0 MSTORE PUSH1 0x40 PUSH1 0x0 KECCAK256 PUSH1 0x0 SWAP2 POP SWAP1 POP SLOAD DUP2 JUMP JUMPDEST PUSH1 0x0 DUP1 SLOAD SWAP1 PUSH2 0x100 EXP SWAP1 DIV PUSH20 0xFFFFFFFFFFFFFFFFFFFFFFFFFFFFFFFFFFFFFFFF AND PUSH20 0xFFFFFFFFFFFFFFFFFFFFFFFFFFFFFFFFFFFFFFFF AND CALLER PUSH20 0xFFFFFFFFFFFFFFFFFFFFFFFFFFFFFFFFFFFFFFFF AND EQ PUSH2 0x2A3 JUMPI PUSH1 0x40 MLOAD PUSH32 0x8C379A000000000000000000000000000000000000000000000000000000000 DUP2 MSTORE PUSH1 0x4 ADD PUSH2 0x29A SWAP1 PUSH2 0x627 JUMP JUMPDEST PUSH1 0x40 MLOAD DUP1 SWAP2 SUB SWAP1 REVERT JUMPDEST DUP1 PUSH1 0x1 PUSH1 0x0 DUP5 PUSH20 0xFFFFFFFFFFFFFFFFFFFFFFFFFFFFFFFFFFFFFFFF AND PUSH20 0xFFFFFFFFFFFFFFFFFFFFFFFFFFFFFFFFFFFFFFFF AND DUP2 MSTORE PUSH1 0x20 ADD SWAP1 DUP2 MSTORE PUSH1 0x20 ADD PUSH1 0x0 KECCAK256 PUSH1 0x0 DUP3 DUP3 SLOAD PUSH2 0x2F2 SWAP2 SWAP1 PUSH2 0x673 JUMP JUMPDEST SWAP3 POP POP DUP2 SWAP1 SSTORE POP POP POP JUMP JUMPDEST PUSH1 0x0 DUP1 SLOAD SWAP1 PUSH2 0x100 EXP SWAP1 DIV PUSH20 0xFFFFFFFFFFFFFFFFFFFFFFFFFFFFFFFFFFFFFFFF AND PUSH20 0xFFFFFFFFFFFFFFFFFFFFFFFFFFFFFFFFFFFFFFFF AND CALLER PUSH20 0xFFFFFFFFFFFFFFFFFFFFFFFFFFFFFFFFFFFFFFFF AND EQ PUSH2 0x38B JUMPI PUSH1 0x40 MLOAD PUSH32 0x8C379A000000000000000000000000000000000000000000000000000000000 DUP2 MSTORE PUSH1 0x4 ADD PUSH2 0x382 SWAP1 PUSH2 0x627 JUMP JUMPDEST PUSH1 0x40 MLOAD DUP1 SWAP2 SUB SWAP1 REVERT JUMPDEST DUP1 PUSH1 0x1 PUSH1 0x0 DUP5 PUSH20 0xFFFFFFFFFFFFFFFFFFFFFFFFFFFFFFFFFFFFFFFF AND PUSH20 0xFFFFFFFFFFFFFFFFFFFFFFFFFFFFFFFFFFFFFFFF AND DUP2 MSTORE PUSH1 0x20 ADD SWAP1 DUP2 MSTORE PUSH1 0x20 ADD PUSH1 0x0 KECCAK256 PUSH1 0x0 DUP3 DUP3 SLOAD PUSH2 0x3DA SWAP2 SWAP1 PUSH2 0x6C9 JUMP JUMPDEST SWAP3 POP POP DUP2 SWAP1 SSTORE POP POP POP JUMP JUMPDEST DUP1 PUSH1 0x1 PUSH1 0x0 CALLER PUSH20 0xFFFFFFFFFFFFFFFFFFFFFFFFFFFFFFFFFFFFFFFF AND PUSH20 0xFFFFFFFFFFFFFFFFFFFFFFFFFFFFFFFFFFFFFFFF AND DUP2 MSTORE PUSH1 0x20 ADD SWAP1 DUP2 MSTORE PUSH1 0x20 ADD PUSH1 0x0 KECCAK256 SLOAD LT ISZERO PUSH2 0x431 JUMPI PUSH1 0x0 DUP1 REVERT JUMPDEST DUP1 PUSH1 0x1 PUSH1 0x0 CALLER PUSH20 0xFFFFFFFFFFFFFFFFFFFFFFFFFFFFFFFFFFFFFFFF AND PUSH20 0xFFFFFFFFFFFFFFFFFFFFFFFFFFFFFFFFFFFFFFFF AND DUP2 MSTORE PUSH1 0x20 ADD SWAP1 DUP2 MSTORE PUSH1 0x20 ADD PUSH1 0x0 KECCAK256 PUSH1 0x0 DUP3 DUP3 SLOAD PUSH2 0x480 SWAP2 SWAP1 PUSH2 0x6C9 JUMP JUMPDEST SWAP3 POP POP DUP2 SWAP1 SSTORE POP DUP1 PUSH1 0x1 PUSH1 0x0 DUP5 PUSH20 0xFFFFFFFFFFFFFFFFFFFFFFFFFFFFFFFFFFFFFFFF AND PUSH20 0xFFFFFFFFFFFFFFFFFFFFFFFFFFFFFFFFFFFFFFFF AND DUP2 MSTORE PUSH1 0x20 ADD SWAP1 DUP2 MSTORE PUSH1 0x20 ADD PUSH1 0x0 KECCAK256 PUSH1 0x0 DUP3 DUP3 SLOAD PUSH2 0x4D6 SWAP2 SWAP1 PUSH2 0x673 JUMP JUMPDEST SWAP3 POP POP DUP2 SWAP1 SSTORE POP POP POP JUMP JUMPDEST PUSH1 0x0 DUP2 CALLDATALOAD SWAP1 POP PUSH2 0x4F0 DUP2 PUSH2 0x796 JUMP JUMPDEST SWAP3 SWAP2 POP POP JUMP JUMPDEST PUSH1 0x0 DUP2 CALLDATALOAD SWAP1 POP PUSH2 0x505 DUP2 PUSH2 0x7AD JUMP JUMPDEST SWAP3 SWAP2 POP POP JUMP JUMPDEST PUSH1 0x0 PUSH1 0x20 DUP3 DUP5 SUB SLT ISZERO PUSH2 0x521 JUMPI PUSH2 0x520 PUSH2 0x768 JUMP JUMPDEST JUMPDEST PUSH1 0x0 PUSH2 0x52F DUP5 DUP3 DUP6 ADD PUSH2 0x4E1 JUMP JUMPDEST SWAP2 POP POP SWAP3 SWAP2 POP POP JUMP JUMPDEST PUSH1 0x0 DUP1 PUSH1 0x0 PUSH1 0x60 DUP5 DUP7 SUB SLT ISZERO PUSH2 0x551 JUMPI PUSH2 0x550 PUSH2 0x768 JUMP JUMPDEST JUMPDEST PUSH1 0x0 PUSH2 0x55F DUP7 DUP3 DUP8 ADD PUSH2 0x4E1 JUMP JUMPDEST SWAP4 POP POP PUSH1 0x20 PUSH2 0x570 DUP7 DUP3 DUP8 ADD PUSH2 0x4E1 JUMP JUMPDEST SWAP3 POP POP PUSH1 0x40 PUSH2 0x581 DUP7 DUP3 DUP8 ADD PUSH2 0x4F6 JUMP JUMPDEST SWAP2 POP POP SWAP3 POP SWAP3 POP SWAP3 JUMP JUMPDEST PUSH1 0x0 DUP1 PUSH1 0x40 DUP4 DUP6 SUB SLT ISZERO PUSH2 0x5A2 JUMPI PUSH2 0x5A1 PUSH2 0x768 JUMP JUMPDEST JUMPDEST PUSH1 0x0 PUSH2 0x5B0 DUP6 DUP3 DUP7 ADD PUSH2 0x4E1 JUMP JUMPDEST SWAP3 POP POP PUSH1 0x20 PUSH2 0x5C1 DUP6 DUP3 DUP7 ADD PUSH2 0x4F6 JUMP JUMPDEST SWAP2 POP POP SWAP3 POP SWAP3 SWAP1 POP JUMP JUMPDEST PUSH2 0x5D4 DUP2 PUSH2 0x6FD JUMP JUMPDEST DUP3 MSTORE POP POP JUMP JUMPDEST PUSH1 0x0 PUSH2 0x5E7 PUSH1 0x13 DUP4 PUSH2 0x662 JUMP JUMPDEST SWAP2 POP PUSH2 0x5F2 DUP3 PUSH2 0x76D JUMP JUMPDEST PUSH1 0x20 DUP3 ADD SWAP1 POP SWAP2 SWAP1 POP JUMP JUMPDEST PUSH2 0x606 DUP2 PUSH2 0x72F JUMP JUMPDEST DUP3 MSTORE POP POP JUMP JUMPDEST PUSH1 0x0 PUSH1 0x20 DUP3 ADD SWAP1 POP PUSH2 0x621 PUSH1 0x0 DUP4 ADD DUP5 PUSH2 0x5CB JUMP JUMPDEST SWAP3 SWAP2 POP POP JUMP JUMPDEST PUSH1 0x0 PUSH1 0x20 DUP3 ADD SWAP1 POP DUP2 DUP2 SUB PUSH1 0x0 DUP4 ADD MSTORE PUSH2 0x640 DUP2 PUSH2 0x5DA JUMP JUMPDEST SWAP1 POP SWAP2 SWAP1 POP JUMP JUMPDEST PUSH1 0x0 PUSH1 0x20 DUP3 ADD SWAP1 POP PUSH2 0x65C PUSH1 0x0 DUP4 ADD DUP5 PUSH2 0x5FD JUMP JUMPDEST SWAP3 SWAP2 POP POP JUMP JUMPDEST PUSH1 0x0 DUP3 DUP3 MSTORE PUSH1 0x20 DUP3 ADD SWAP1 POP SWAP3 SWAP2 POP POP JUMP JUMPDEST PUSH1 0x0 PUSH2 0x67E DUP3 PUSH2 0x72F JUMP JUMPDEST SWAP2 POP PUSH2 0x689 DUP4 PUSH2 0x72F JUMP JUMPDEST SWAP3 POP DUP3 PUSH32 0xFFFFFFFFFFFFFFFFFFFFFFFFFFFFFFFFFFFFFFFFFFFFFFFFFFFFFFFFFFFFFFFF SUB DUP3 GT ISZERO PUSH2 0x6BE JUMPI PUSH2 0x6BD PUSH2 0x739 JUMP JUMPDEST JUMPDEST DUP3 DUP3 ADD SWAP1 POP SWAP3 SWAP2 POP POP JUMP JUMPDEST PUSH1 0x0 PUSH2 0x6D4 DUP3 PUSH2 0x72F JUMP JUMPDEST SWAP2 POP PUSH2 0x6DF DUP4 PUSH2 0x72F JUMP JUMPDEST SWAP3 POP DUP3 DUP3 LT ISZERO PUSH2 0x6F2 JUMPI PUSH2 0x6F1 PUSH2 0x739 JUMP JUMPDEST JUMPDEST DUP3 DUP3 SUB SWAP1 POP SWAP3 SWAP2 POP POP JUMP JUMPDEST PUSH1 0x0 PUSH2 0x708 DUP3 PUSH2 0x70F JUMP JUMPDEST SWAP1 POP SWAP2 SWAP1 POP JUMP JUMPDEST PUSH1 0x0 PUSH20 0xFFFFFFFFFFFFFFFFFFFFFFFFFFFFFFFFFFFFFFFF DUP3 AND SWAP1 POP SWAP2 SWAP1 POP JUMP JUMPDEST PUSH1 0x0 DUP2 SWAP1 POP SWAP2 SWAP1 POP JUMP JUMPDEST PUSH32 0x4E487B7100000000000000000000000000000000000000000000000000000000 PUSH1 0x0 MSTORE PUSH1 0x11 PUSH1 0x4 MSTORE PUSH1 0x24 PUSH1 0x0 REVERT JUMPDEST PUSH1 0x0 DUP1 REVERT JUMPDEST PUSH32 0x796F7572206E6F7420746865206D696E74657200000000000000000000000000 PUSH1 0x0 DUP3 ADD MSTORE POP JUMP JUMPDEST PUSH2 0x79F DUP2 PUSH2 0x6FD JUMP JUMPDEST DUP2 EQ PUSH2 0x7AA JUMPI PUSH1 0x0 DUP1 REVERT JUMPDEST POP JUMP JUMPDEST PUSH2 0x7B6 DUP2 PUSH2 0x72F JUMP JUMPDEST DUP2 EQ PUSH2 0x7C1 JUMPI PUSH1 0x0 DUP1 REVERT JUMPDEST POP JUMP INVALID LOG2 PUSH5 0x6970667358 0x22 SLT KECCAK256 RETURNDATASIZE ADDRESS BASEFEE 0x4B PUSH3 0x5D8799 SAR DUP1 0xEC 0xBF CREATE 0xEE RETURNDATACOPY 0x22 BLOCKHASH SMOD PUSH4 0xB5F186D0 0xE4 MUL BASEFEE SGT SUB SLOAD 0xAA SMOD 0xDC PUSH5 0x736F6C6343 STOP ADDMOD SMOD STOP CALLER "
				},
				"gasEstimates": {
					"creation": {
						"codeDepositCost": "408400",
						"executionCost": "24709",
						"totalCost": "433109"
					},
					"external": {
						"balances(address)": "2836",
						"burn(address,uint256)": "infinite",
						"mint(address,uint256)": "infinite",
						"transfer(address,uint256)": "infinite",
						"transferFrom(address,address,uint256)": "infinite",
						"wakar()": "2489"
					}
				},
				"methodIdentifiers": {
					"balances(address)": "27e235e3",
					"burn(address,uint256)": "9dc29fac",
					"mint(address,uint256)": "40c10f19",
					"transfer(address,uint256)": "a9059cbb",
					"transferFrom(address,address,uint256)": "23b872dd",
					"wakar()": "13f27ae3"
				}
			},
			"userdoc": {
				"kind": "user",
				"methods": {},
				"version": 1
			}
		}
	}
}