{
	"contracts/Bitcoin.sol": {
		"MyBitcoin": {
			"abi": [
				{
					"inputs": [],
					"stateMutability": "nonpayable",
					"type": "constructor"
				},
				{
					"inputs": [
						{
							"internalType": "address",
							"name": "",
							"type": "address"
						},
						{
							"internalType": "address",
							"name": "",
							"type": "address"
						}
					],
					"name": "_allowances",
					"outputs": [
						{
							"internalType": "uint256",
							"name": "",
							"type": "uint256"
						}
					],
					"stateMutability": "view",
					"type": "function"
				},
				{
					"inputs": [
						{
							"internalType": "address",
							"name": "",
							"type": "address"
						},
						{
							"internalType": "address",
							"name": "",
							"type": "address"
						}
					],
					"name": "_approval",
					"outputs": [
						{
							"internalType": "uint256",
							"name": "",
							"type": "uint256"
						}
					],
					"stateMutability": "view",
					"type": "function"
				},
				{
					"inputs": [
						{
							"internalType": "address",
							"name": "",
							"type": "address"
						}
					],
					"name": "balances",
					"outputs": [
						{
							"internalType": "uint256",
							"name": "",
							"type": "uint256"
						}
					],
					"stateMutability": "view",
					"type": "function"
				},
				{
					"inputs": [
						{
							"internalType": "address",
							"name": "receiver",
							"type": "address"
						},
						{
							"internalType": "uint256",
							"name": "amount",
							"type": "uint256"
						}
					],
					"name": "burn",
					"outputs": [],
					"stateMutability": "nonpayable",
					"type": "function"
				},
				{
					"inputs": [],
					"name": "decimals",
					"outputs": [
						{
							"internalType": "uint8",
							"name": "",
							"type": "uint8"
						}
					],
					"stateMutability": "view",
					"type": "function"
				},
				{
					"inputs": [
						{
							"internalType": "address",
							"name": "receiver",
							"type": "address"
						},
						{
							"internalType": "uint256",
							"name": "amount",
							"type": "uint256"
						}
					],
					"name": "mint",
					"outputs": [],
					"stateMutability": "nonpayable",
					"type": "function"
				},
				{
					"inputs": [
						{
							"internalType": "address",
							"name": "receiver",
							"type": "address"
						},
						{
							"internalType": "uint256",
							"name": "amount",
							"type": "uint256"
						}
					],
					"name": "transfer",
					"outputs": [],
					"stateMutability": "nonpayable",
					"type": "function"
				},
				{
					"inputs": [
						{
							"internalType": "address",
							"name": "current_sender",
							"type": "address"
						},
						{
							"internalType": "address",
							"name": "receiver",
							"type": "address"
						},
						{
							"internalType": "uint256",
							"name": "amount",
							"type": "uint256"
						}
					],
					"name": "transferFrom",
					"outputs": [],
					"stateMutability": "nonpayable",
					"type": "function"
				},
				{
					"inputs": [],
					"name": "wakar",
					"outputs": [
						{
							"internalType": "address",
							"name": "",
							"type": "address"
						}
					],
					"stateMutability": "view",
					"type": "function"
				}
			],
			"devdoc": {
				"kind": "dev",
				"methods": {},
				"version": 1
			},
			"evm": {
				"assembly": "    /* \"contracts/Bitcoin.sol\":72:1100  contract MyBitcoin {\r... */\n  mstore(0x40, 0x80)\n    /* \"contracts/Bitcoin.sol\":356:405  constructor() {\r... */\n  callvalue\n  dup1\n  iszero\n  tag_1\n  jumpi\n  0x00\n  dup1\n  revert\ntag_1:\n  pop\n    /* \"contracts/Bitcoin.sol\":384:394  msg.sender */\n  caller\n    /* \"contracts/Bitcoin.sol\":377:382  wakar */\n  0x00\n  dup1\n    /* \"contracts/Bitcoin.sol\":377:394  wakar =msg.sender */\n  0x0100\n  exp\n  dup2\n  sload\n  dup2\n  0xffffffffffffffffffffffffffffffffffffffff\n  mul\n  not\n  and\n  swap1\n  dup4\n  0xffffffffffffffffffffffffffffffffffffffff\n  and\n  mul\n  or\n  swap1\n  sstore\n  pop\n    /* \"contracts/Bitcoin.sol\":72:1100  contract MyBitcoin {\r... */\n  dataSize(sub_0)\n  dup1\n  dataOffset(sub_0)\n  0x00\n  codecopy\n  0x00\n  return\nstop\n\nsub_0: assembly {\n        /* \"contracts/Bitcoin.sol\":72:1100  contract MyBitcoin {\r... */\n      mstore(0x40, 0x80)\n      callvalue\n      dup1\n      iszero\n      tag_1\n      jumpi\n      0x00\n      dup1\n      revert\n    tag_1:\n      pop\n      jumpi(tag_2, lt(calldatasize, 0x04))\n      shr(0xe0, calldataload(0x00))\n      dup1\n      0x2f5f1b6d\n      gt\n      tag_12\n      jumpi\n      dup1\n      0x2f5f1b6d\n      eq\n      tag_7\n      jumpi\n      dup1\n      0x313ce567\n      eq\n      tag_8\n      jumpi\n      dup1\n      0x40c10f19\n      eq\n      tag_9\n      jumpi\n      dup1\n      0x9dc29fac\n      eq\n      tag_10\n      jumpi\n      dup1\n      0xa9059cbb\n      eq\n      tag_11\n      jumpi\n      jump(tag_2)\n    tag_12:\n      dup1\n      0x024c2ddd\n      eq\n      tag_3\n      jumpi\n      dup1\n      0x13f27ae3\n      eq\n      tag_4\n      jumpi\n      dup1\n      0x23b872dd\n      eq\n      tag_5\n      jumpi\n      dup1\n      0x27e235e3\n      eq\n      tag_6\n      jumpi\n    tag_2:\n      0x00\n      dup1\n      revert\n        /* \"contracts/Bitcoin.sol\":218:281  mapping(address => mapping(address => uint)) public _allowances */\n    tag_3:\n      tag_13\n      0x04\n      dup1\n      calldatasize\n      sub\n      dup2\n      add\n      swap1\n      tag_14\n      swap2\n      swap1\n      tag_15\n      jump\t// in\n    tag_14:\n      tag_16\n      jump\t// in\n    tag_13:\n      mload(0x40)\n      tag_17\n      swap2\n      swap1\n      tag_18\n      jump\t// in\n    tag_17:\n      mload(0x40)\n      dup1\n      swap2\n      sub\n      swap1\n      return\n        /* \"contracts/Bitcoin.sol\":98:118  address public wakar */\n    tag_4:\n      tag_19\n      tag_20\n      jump\t// in\n    tag_19:\n      mload(0x40)\n      tag_21\n      swap2\n      swap1\n      tag_22\n      jump\t// in\n    tag_21:\n      mload(0x40)\n      dup1\n      swap2\n      sub\n      swap1\n      return\n        /* \"contracts/Bitcoin.sol\":902:1097  function transferFrom(address current_sender, address receiver, uint amount) public {\r... */\n    tag_5:\n      tag_23\n      0x04\n      dup1\n      calldatasize\n      sub\n      dup2\n      add\n      swap1\n      tag_24\n      swap2\n      swap1\n      tag_25\n      jump\t// in\n    tag_24:\n      tag_26\n      jump\t// in\n    tag_23:\n      stop\n        /* \"contracts/Bitcoin.sol\":125:165  mapping (address =>uint) public balances */\n    tag_6:\n      tag_27\n      0x04\n      dup1\n      calldatasize\n      sub\n      dup2\n      add\n      swap1\n      tag_28\n      swap2\n      swap1\n      tag_29\n      jump\t// in\n    tag_28:\n      tag_30\n      jump\t// in\n    tag_27:\n      mload(0x40)\n      tag_31\n      swap2\n      swap1\n      tag_18\n      jump\t// in\n    tag_31:\n      mload(0x40)\n      dup1\n      swap2\n      sub\n      swap1\n      return\n        /* \"contracts/Bitcoin.sol\":288:349  mapping(address => mapping(address => uint)) public _approval */\n    tag_7:\n      tag_32\n      0x04\n      dup1\n      calldatasize\n      sub\n      dup2\n      add\n      swap1\n      tag_33\n      swap2\n      swap1\n      tag_15\n      jump\t// in\n    tag_33:\n      tag_34\n      jump\t// in\n    tag_32:\n      mload(0x40)\n      tag_35\n      swap2\n      swap1\n      tag_18\n      jump\t// in\n    tag_35:\n      mload(0x40)\n      dup1\n      swap2\n      sub\n      swap1\n      return\n        /* \"contracts/Bitcoin.sol\":172:207  uint8 public constant decimals = 12 */\n    tag_8:\n      tag_36\n      tag_37\n      jump\t// in\n    tag_36:\n      mload(0x40)\n      tag_38\n      swap2\n      swap1\n      tag_39\n      jump\t// in\n    tag_38:\n      mload(0x40)\n      dup1\n      swap2\n      sub\n      swap1\n      return\n        /* \"contracts/Bitcoin.sol\":410:563  function mint(address receiver,uint amount) public {\r... */\n    tag_9:\n      tag_40\n      0x04\n      dup1\n      calldatasize\n      sub\n      dup2\n      add\n      swap1\n      tag_41\n      swap2\n      swap1\n      tag_42\n      jump\t// in\n    tag_41:\n      tag_43\n      jump\t// in\n    tag_40:\n      stop\n        /* \"contracts/Bitcoin.sol\":567:720  function burn(address receiver,uint amount) public {\r... */\n    tag_10:\n      tag_44\n      0x04\n      dup1\n      calldatasize\n      sub\n      dup2\n      add\n      swap1\n      tag_45\n      swap2\n      swap1\n      tag_42\n      jump\t// in\n    tag_45:\n      tag_46\n      jump\t// in\n    tag_44:\n      stop\n        /* \"contracts/Bitcoin.sol\":724:900  function transfer(address receiver, uint amount) public {\r... */\n    tag_11:\n      tag_47\n      0x04\n      dup1\n      calldatasize\n      sub\n      dup2\n      add\n      swap1\n      tag_48\n      swap2\n      swap1\n      tag_42\n      jump\t// in\n    tag_48:\n      tag_49\n      jump\t// in\n    tag_47:\n      stop\n        /* \"contracts/Bitcoin.sol\":218:281  mapping(address => mapping(address => uint)) public _allowances */\n    tag_16:\n      mstore(0x20, 0x02)\n      dup2\n      0x00\n      mstore\n      mstore(0x20, keccak256(0x00, 0x40))\n      dup1\n      0x00\n      mstore\n      keccak256(0x00, 0x40)\n      0x00\n      swap2\n      pop\n      swap2\n      pop\n      pop\n      sload\n      dup2\n      jump\t// out\n        /* \"contracts/Bitcoin.sol\":98:118  address public wakar */\n    tag_20:\n      0x00\n      dup1\n      sload\n      swap1\n      0x0100\n      exp\n      swap1\n      div\n      0xffffffffffffffffffffffffffffffffffffffff\n      and\n      dup2\n      jump\t// out\n        /* \"contracts/Bitcoin.sol\":902:1097  function transferFrom(address current_sender, address receiver, uint amount) public {\r... */\n    tag_26:\n        /* \"contracts/Bitcoin.sol\":1008:1018  msg.sender */\n      caller\n        /* \"contracts/Bitcoin.sol\":993:1018  current_sender=msg.sender */\n      swap3\n      pop\n        /* \"contracts/Bitcoin.sol\":1050:1056  amount */\n      dup1\n        /* \"contracts/Bitcoin.sol\":1022:1030  balances */\n      0x01\n        /* \"contracts/Bitcoin.sol\":1022:1046  balances[current_sender] */\n      0x00\n        /* \"contracts/Bitcoin.sol\":1031:1045  current_sender */\n      dup6\n        /* \"contracts/Bitcoin.sol\":1022:1046  balances[current_sender] */\n      0xffffffffffffffffffffffffffffffffffffffff\n      and\n      0xffffffffffffffffffffffffffffffffffffffff\n      and\n      dup2\n      mstore\n      0x20\n      add\n      swap1\n      dup2\n      mstore\n      0x20\n      add\n      0x00\n      keccak256\n      0x00\n        /* \"contracts/Bitcoin.sol\":1022:1056  balances[current_sender] -= amount */\n      dup3\n      dup3\n      sload\n      tag_51\n      swap2\n      swap1\n      tag_52\n      jump\t// in\n    tag_51:\n      swap3\n      pop\n      pop\n      dup2\n      swap1\n      sstore\n      pop\n        /* \"contracts/Bitcoin.sol\":1085:1091  amount */\n      dup1\n        /* \"contracts/Bitcoin.sol\":1063:1071  balances */\n      0x01\n        /* \"contracts/Bitcoin.sol\":1063:1081  balances[receiver] */\n      0x00\n        /* \"contracts/Bitcoin.sol\":1072:1080  receiver */\n      dup5\n        /* \"contracts/Bitcoin.sol\":1063:1081  balances[receiver] */\n      0xffffffffffffffffffffffffffffffffffffffff\n      and\n      0xffffffffffffffffffffffffffffffffffffffff\n      and\n      dup2\n      mstore\n      0x20\n      add\n      swap1\n      dup2\n      mstore\n      0x20\n      add\n      0x00\n      keccak256\n      0x00\n        /* \"contracts/Bitcoin.sol\":1063:1091  balances[receiver] += amount */\n      dup3\n      dup3\n      sload\n      tag_53\n      swap2\n      swap1\n      tag_54\n      jump\t// in\n    tag_53:\n      swap3\n      pop\n      pop\n      dup2\n      swap1\n      sstore\n      pop\n        /* \"contracts/Bitcoin.sol\":902:1097  function transferFrom(address current_sender, address receiver, uint amount) public {\r... */\n      pop\n      pop\n      pop\n      jump\t// out\n        /* \"contracts/Bitcoin.sol\":125:165  mapping (address =>uint) public balances */\n    tag_30:\n      mstore(0x20, 0x01)\n      dup1\n      0x00\n      mstore\n      keccak256(0x00, 0x40)\n      0x00\n      swap2\n      pop\n      swap1\n      pop\n      sload\n      dup2\n      jump\t// out\n        /* \"contracts/Bitcoin.sol\":288:349  mapping(address => mapping(address => uint)) public _approval */\n    tag_34:\n      mstore(0x20, 0x03)\n      dup2\n      0x00\n      mstore\n      mstore(0x20, keccak256(0x00, 0x40))\n      dup1\n      0x00\n      mstore\n      keccak256(0x00, 0x40)\n      0x00\n      swap2\n      pop\n      swap2\n      pop\n      pop\n      sload\n      dup2\n      jump\t// out\n        /* \"contracts/Bitcoin.sol\":172:207  uint8 public constant decimals = 12 */\n    tag_37:\n        /* \"contracts/Bitcoin.sol\":205:207  12 */\n      0x0c\n        /* \"contracts/Bitcoin.sol\":172:207  uint8 public constant decimals = 12 */\n      dup2\n      jump\t// out\n        /* \"contracts/Bitcoin.sol\":410:563  function mint(address receiver,uint amount) public {\r... */\n    tag_43:\n        /* \"contracts/Bitcoin.sol\":493:498  wakar */\n      0x00\n      dup1\n      sload\n      swap1\n      0x0100\n      exp\n      swap1\n      div\n      0xffffffffffffffffffffffffffffffffffffffff\n      and\n        /* \"contracts/Bitcoin.sol\":479:498  msg.sender == wakar */\n      0xffffffffffffffffffffffffffffffffffffffff\n      and\n        /* \"contracts/Bitcoin.sol\":479:489  msg.sender */\n      caller\n        /* \"contracts/Bitcoin.sol\":479:498  msg.sender == wakar */\n      0xffffffffffffffffffffffffffffffffffffffff\n      and\n      eq\n        /* \"contracts/Bitcoin.sol\":471:521  require(msg.sender == wakar,\"your not the minter\") */\n      tag_56\n      jumpi\n      mload(0x40)\n      0x08c379a000000000000000000000000000000000000000000000000000000000\n      dup2\n      mstore\n      0x04\n      add\n      tag_57\n      swap1\n      tag_58\n      jump\t// in\n    tag_57:\n      mload(0x40)\n      dup1\n      swap2\n      sub\n      swap1\n      revert\n    tag_56:\n        /* \"contracts/Bitcoin.sol\":553:559  amount */\n      dup1\n        /* \"contracts/Bitcoin.sol\":531:539  balances */\n      0x01\n        /* \"contracts/Bitcoin.sol\":531:549  balances[receiver] */\n      0x00\n        /* \"contracts/Bitcoin.sol\":540:548  receiver */\n      dup5\n        /* \"contracts/Bitcoin.sol\":531:549  balances[receiver] */\n      0xffffffffffffffffffffffffffffffffffffffff\n      and\n      0xffffffffffffffffffffffffffffffffffffffff\n      and\n      dup2\n      mstore\n      0x20\n      add\n      swap1\n      dup2\n      mstore\n      0x20\n      add\n      0x00\n      keccak256\n      0x00\n        /* \"contracts/Bitcoin.sol\":531:559  balances[receiver] += amount */\n      dup3\n      dup3\n      sload\n      tag_59\n      swap2\n      swap1\n      tag_54\n      jump\t// in\n    tag_59:\n      swap3\n      pop\n      pop\n      dup2\n      swap1\n      sstore\n      pop\n        /* \"contracts/Bitcoin.sol\":410:563  function mint(address receiver,uint amount) public {\r... */\n      pop\n      pop\n      jump\t// out\n        /* \"contracts/Bitcoin.sol\":567:720  function burn(address receiver,uint amount) public {\r... */\n    tag_46:\n        /* \"contracts/Bitcoin.sol\":650:655  wakar */\n      0x00\n      dup1\n      sload\n      swap1\n      0x0100\n      exp\n      swap1\n      div\n      0xffffffffffffffffffffffffffffffffffffffff\n      and\n        /* \"contracts/Bitcoin.sol\":636:655  msg.sender == wakar */\n      0xffffffffffffffffffffffffffffffffffffffff\n      and\n        /* \"contracts/Bitcoin.sol\":636:646  msg.sender */\n      caller\n        /* \"contracts/Bitcoin.sol\":636:655  msg.sender == wakar */\n      0xffffffffffffffffffffffffffffffffffffffff\n      and\n      eq\n        /* \"contracts/Bitcoin.sol\":628:678  require(msg.sender == wakar,\"your not the minter\") */\n      tag_61\n      jumpi\n      mload(0x40)\n      0x08c379a000000000000000000000000000000000000000000000000000000000\n      dup2\n      mstore\n      0x04\n      add\n      tag_62\n      swap1\n      tag_58\n      jump\t// in\n    tag_62:\n      mload(0x40)\n      dup1\n      swap2\n      sub\n      swap1\n      revert\n    tag_61:\n        /* \"contracts/Bitcoin.sol\":710:716  amount */\n      dup1\n        /* \"contracts/Bitcoin.sol\":688:696  balances */\n      0x01\n        /* \"contracts/Bitcoin.sol\":688:706  balances[receiver] */\n      0x00\n        /* \"contracts/Bitcoin.sol\":697:705  receiver */\n      dup5\n        /* \"contracts/Bitcoin.sol\":688:706  balances[receiver] */\n      0xffffffffffffffffffffffffffffffffffffffff\n      and\n      0xffffffffffffffffffffffffffffffffffffffff\n      and\n      dup2\n      mstore\n      0x20\n      add\n      swap1\n      dup2\n      mstore\n      0x20\n      add\n      0x00\n      keccak256\n      0x00\n        /* \"contracts/Bitcoin.sol\":688:716  balances[receiver] -= amount */\n      dup3\n      dup3\n      sload\n      tag_63\n      swap2\n      swap1\n      tag_52\n      jump\t// in\n    tag_63:\n      swap3\n      pop\n      pop\n      dup2\n      swap1\n      sstore\n      pop\n        /* \"contracts/Bitcoin.sol\":567:720  function burn(address receiver,uint amount) public {\r... */\n      pop\n      pop\n      jump\t// out\n        /* \"contracts/Bitcoin.sol\":724:900  function transfer(address receiver, uint amount) public {\r... */\n    tag_49:\n        /* \"contracts/Bitcoin.sol\":817:823  amount */\n      dup1\n        /* \"contracts/Bitcoin.sol\":795:803  balances */\n      0x01\n        /* \"contracts/Bitcoin.sol\":795:815  balances[msg.sender] */\n      0x00\n        /* \"contracts/Bitcoin.sol\":804:814  msg.sender */\n      caller\n        /* \"contracts/Bitcoin.sol\":795:815  balances[msg.sender] */\n      0xffffffffffffffffffffffffffffffffffffffff\n      and\n      0xffffffffffffffffffffffffffffffffffffffff\n      and\n      dup2\n      mstore\n      0x20\n      add\n      swap1\n      dup2\n      mstore\n      0x20\n      add\n      0x00\n      keccak256\n      sload\n        /* \"contracts/Bitcoin.sol\":795:823  balances[msg.sender]>=amount */\n      lt\n      iszero\n        /* \"contracts/Bitcoin.sol\":787:824  require(balances[msg.sender]>=amount) */\n      tag_65\n      jumpi\n      0x00\n      dup1\n      revert\n    tag_65:\n        /* \"contracts/Bitcoin.sol\":855:861  amount */\n      dup1\n        /* \"contracts/Bitcoin.sol\":831:839  balances */\n      0x01\n        /* \"contracts/Bitcoin.sol\":831:851  balances[msg.sender] */\n      0x00\n        /* \"contracts/Bitcoin.sol\":840:850  msg.sender */\n      caller\n        /* \"contracts/Bitcoin.sol\":831:851  balances[msg.sender] */\n      0xffffffffffffffffffffffffffffffffffffffff\n      and\n      0xffffffffffffffffffffffffffffffffffffffff\n      and\n      dup2\n      mstore\n      0x20\n      add\n      swap1\n      dup2\n      mstore\n      0x20\n      add\n      0x00\n      keccak256\n      0x00\n        /* \"contracts/Bitcoin.sol\":831:861  balances[msg.sender] -= amount */\n      dup3\n      dup3\n      sload\n      tag_66\n      swap2\n      swap1\n      tag_52\n      jump\t// in\n    tag_66:\n      swap3\n      pop\n      pop\n      dup2\n      swap1\n      sstore\n      pop\n        /* \"contracts/Bitcoin.sol\":890:896  amount */\n      dup1\n        /* \"contracts/Bitcoin.sol\":868:876  balances */\n      0x01\n        /* \"contracts/Bitcoin.sol\":868:886  balances[receiver] */\n      0x00\n        /* \"contracts/Bitcoin.sol\":877:885  receiver */\n      dup5\n        /* \"contracts/Bitcoin.sol\":868:886  balances[receiver] */\n      0xffffffffffffffffffffffffffffffffffffffff\n      and\n      0xffffffffffffffffffffffffffffffffffffffff\n      and\n      dup2\n      mstore\n      0x20\n      add\n      swap1\n      dup2\n      mstore\n      0x20\n      add\n      0x00\n      keccak256\n      0x00\n        /* \"contracts/Bitcoin.sol\":868:896  balances[receiver] += amount */\n      dup3\n      dup3\n      sload\n      tag_67\n      swap2\n      swap1\n      tag_54\n      jump\t// in\n    tag_67:\n      swap3\n      pop\n      pop\n      dup2\n      swap1\n      sstore\n      pop\n        /* \"contracts/Bitcoin.sol\":724:900  function transfer(address receiver, uint amount) public {\r... */\n      pop\n      pop\n      jump\t// out\n        /* \"#utility.yul\":7:146   */\n    tag_69:\n        /* \"#utility.yul\":53:58   */\n      0x00\n        /* \"#utility.yul\":91:97   */\n      dup2\n        /* \"#utility.yul\":78:98   */\n      calldataload\n        /* \"#utility.yul\":69:98   */\n      swap1\n      pop\n        /* \"#utility.yul\":107:140   */\n      tag_71\n        /* \"#utility.yul\":134:139   */\n      dup2\n        /* \"#utility.yul\":107:140   */\n      tag_72\n      jump\t// in\n    tag_71:\n        /* \"#utility.yul\":7:146   */\n      swap3\n      swap2\n      pop\n      pop\n      jump\t// out\n        /* \"#utility.yul\":152:291   */\n    tag_73:\n        /* \"#utility.yul\":198:203   */\n      0x00\n        /* \"#utility.yul\":236:242   */\n      dup2\n        /* \"#utility.yul\":223:243   */\n      calldataload\n        /* \"#utility.yul\":214:243   */\n      swap1\n      pop\n        /* \"#utility.yul\":252:285   */\n      tag_75\n        /* \"#utility.yul\":279:284   */\n      dup2\n        /* \"#utility.yul\":252:285   */\n      tag_76\n      jump\t// in\n    tag_75:\n        /* \"#utility.yul\":152:291   */\n      swap3\n      swap2\n      pop\n      pop\n      jump\t// out\n        /* \"#utility.yul\":297:626   */\n    tag_29:\n        /* \"#utility.yul\":356:362   */\n      0x00\n        /* \"#utility.yul\":405:407   */\n      0x20\n        /* \"#utility.yul\":393:402   */\n      dup3\n        /* \"#utility.yul\":384:391   */\n      dup5\n        /* \"#utility.yul\":380:403   */\n      sub\n        /* \"#utility.yul\":376:408   */\n      slt\n        /* \"#utility.yul\":373:492   */\n      iszero\n      tag_78\n      jumpi\n        /* \"#utility.yul\":411:490   */\n      tag_79\n      tag_80\n      jump\t// in\n    tag_79:\n        /* \"#utility.yul\":373:492   */\n    tag_78:\n        /* \"#utility.yul\":531:532   */\n      0x00\n        /* \"#utility.yul\":556:609   */\n      tag_81\n        /* \"#utility.yul\":601:608   */\n      dup5\n        /* \"#utility.yul\":592:598   */\n      dup3\n        /* \"#utility.yul\":581:590   */\n      dup6\n        /* \"#utility.yul\":577:599   */\n      add\n        /* \"#utility.yul\":556:609   */\n      tag_69\n      jump\t// in\n    tag_81:\n        /* \"#utility.yul\":546:609   */\n      swap2\n      pop\n        /* \"#utility.yul\":502:619   */\n      pop\n        /* \"#utility.yul\":297:626   */\n      swap3\n      swap2\n      pop\n      pop\n      jump\t// out\n        /* \"#utility.yul\":632:1106   */\n    tag_15:\n        /* \"#utility.yul\":700:706   */\n      0x00\n        /* \"#utility.yul\":708:714   */\n      dup1\n        /* \"#utility.yul\":757:759   */\n      0x40\n        /* \"#utility.yul\":745:754   */\n      dup4\n        /* \"#utility.yul\":736:743   */\n      dup6\n        /* \"#utility.yul\":732:755   */\n      sub\n        /* \"#utility.yul\":728:760   */\n      slt\n        /* \"#utility.yul\":725:844   */\n      iszero\n      tag_83\n      jumpi\n        /* \"#utility.yul\":763:842   */\n      tag_84\n      tag_80\n      jump\t// in\n    tag_84:\n        /* \"#utility.yul\":725:844   */\n    tag_83:\n        /* \"#utility.yul\":883:884   */\n      0x00\n        /* \"#utility.yul\":908:961   */\n      tag_85\n        /* \"#utility.yul\":953:960   */\n      dup6\n        /* \"#utility.yul\":944:950   */\n      dup3\n        /* \"#utility.yul\":933:942   */\n      dup7\n        /* \"#utility.yul\":929:951   */\n      add\n        /* \"#utility.yul\":908:961   */\n      tag_69\n      jump\t// in\n    tag_85:\n        /* \"#utility.yul\":898:961   */\n      swap3\n      pop\n        /* \"#utility.yul\":854:971   */\n      pop\n        /* \"#utility.yul\":1010:1012   */\n      0x20\n        /* \"#utility.yul\":1036:1089   */\n      tag_86\n        /* \"#utility.yul\":1081:1088   */\n      dup6\n        /* \"#utility.yul\":1072:1078   */\n      dup3\n        /* \"#utility.yul\":1061:1070   */\n      dup7\n        /* \"#utility.yul\":1057:1079   */\n      add\n        /* \"#utility.yul\":1036:1089   */\n      tag_69\n      jump\t// in\n    tag_86:\n        /* \"#utility.yul\":1026:1089   */\n      swap2\n      pop\n        /* \"#utility.yul\":981:1099   */\n      pop\n        /* \"#utility.yul\":632:1106   */\n      swap3\n      pop\n      swap3\n      swap1\n      pop\n      jump\t// out\n        /* \"#utility.yul\":1112:1731   */\n    tag_25:\n        /* \"#utility.yul\":1189:1195   */\n      0x00\n        /* \"#utility.yul\":1197:1203   */\n      dup1\n        /* \"#utility.yul\":1205:1211   */\n      0x00\n        /* \"#utility.yul\":1254:1256   */\n      0x60\n        /* \"#utility.yul\":1242:1251   */\n      dup5\n        /* \"#utility.yul\":1233:1240   */\n      dup7\n        /* \"#utility.yul\":1229:1252   */\n      sub\n        /* \"#utility.yul\":1225:1257   */\n      slt\n        /* \"#utility.yul\":1222:1341   */\n      iszero\n      tag_88\n      jumpi\n        /* \"#utility.yul\":1260:1339   */\n      tag_89\n      tag_80\n      jump\t// in\n    tag_89:\n        /* \"#utility.yul\":1222:1341   */\n    tag_88:\n        /* \"#utility.yul\":1380:1381   */\n      0x00\n        /* \"#utility.yul\":1405:1458   */\n      tag_90\n        /* \"#utility.yul\":1450:1457   */\n      dup7\n        /* \"#utility.yul\":1441:1447   */\n      dup3\n        /* \"#utility.yul\":1430:1439   */\n      dup8\n        /* \"#utility.yul\":1426:1448   */\n      add\n        /* \"#utility.yul\":1405:1458   */\n      tag_69\n      jump\t// in\n    tag_90:\n        /* \"#utility.yul\":1395:1458   */\n      swap4\n      pop\n        /* \"#utility.yul\":1351:1468   */\n      pop\n        /* \"#utility.yul\":1507:1509   */\n      0x20\n        /* \"#utility.yul\":1533:1586   */\n      tag_91\n        /* \"#utility.yul\":1578:1585   */\n      dup7\n        /* \"#utility.yul\":1569:1575   */\n      dup3\n        /* \"#utility.yul\":1558:1567   */\n      dup8\n        /* \"#utility.yul\":1554:1576   */\n      add\n        /* \"#utility.yul\":1533:1586   */\n      tag_69\n      jump\t// in\n    tag_91:\n        /* \"#utility.yul\":1523:1586   */\n      swap3\n      pop\n        /* \"#utility.yul\":1478:1596   */\n      pop\n        /* \"#utility.yul\":1635:1637   */\n      0x40\n        /* \"#utility.yul\":1661:1714   */\n      tag_92\n        /* \"#utility.yul\":1706:1713   */\n      dup7\n        /* \"#utility.yul\":1697:1703   */\n      dup3\n        /* \"#utility.yul\":1686:1695   */\n      dup8\n        /* \"#utility.yul\":1682:1704   */\n      add\n        /* \"#utility.yul\":1661:1714   */\n      tag_73\n      jump\t// in\n    tag_92:\n        /* \"#utility.yul\":1651:1714   */\n      swap2\n      pop\n        /* \"#utility.yul\":1606:1724   */\n      pop\n        /* \"#utility.yul\":1112:1731   */\n      swap3\n      pop\n      swap3\n      pop\n      swap3\n      jump\t// out\n        /* \"#utility.yul\":1737:2211   */\n    tag_42:\n        /* \"#utility.yul\":1805:1811   */\n      0x00\n        /* \"#utility.yul\":1813:1819   */\n      dup1\n        /* \"#utility.yul\":1862:1864   */\n      0x40\n        /* \"#utility.yul\":1850:1859   */\n      dup4\n        /* \"#utility.yul\":1841:1848   */\n      dup6\n        /* \"#utility.yul\":1837:1860   */\n      sub\n        /* \"#utility.yul\":1833:1865   */\n      slt\n        /* \"#utility.yul\":1830:1949   */\n      iszero\n      tag_94\n      jumpi\n        /* \"#utility.yul\":1868:1947   */\n      tag_95\n      tag_80\n      jump\t// in\n    tag_95:\n        /* \"#utility.yul\":1830:1949   */\n    tag_94:\n        /* \"#utility.yul\":1988:1989   */\n      0x00\n        /* \"#utility.yul\":2013:2066   */\n      tag_96\n        /* \"#utility.yul\":2058:2065   */\n      dup6\n        /* \"#utility.yul\":2049:2055   */\n      dup3\n        /* \"#utility.yul\":2038:2047   */\n      dup7\n        /* \"#utility.yul\":2034:2056   */\n      add\n        /* \"#utility.yul\":2013:2066   */\n      tag_69\n      jump\t// in\n    tag_96:\n        /* \"#utility.yul\":2003:2066   */\n      swap3\n      pop\n        /* \"#utility.yul\":1959:2076   */\n      pop\n        /* \"#utility.yul\":2115:2117   */\n      0x20\n        /* \"#utility.yul\":2141:2194   */\n      tag_97\n        /* \"#utility.yul\":2186:2193   */\n      dup6\n        /* \"#utility.yul\":2177:2183   */\n      dup3\n        /* \"#utility.yul\":2166:2175   */\n      dup7\n        /* \"#utility.yul\":2162:2184   */\n      add\n        /* \"#utility.yul\":2141:2194   */\n      tag_73\n      jump\t// in\n    tag_97:\n        /* \"#utility.yul\":2131:2194   */\n      swap2\n      pop\n        /* \"#utility.yul\":2086:2204   */\n      pop\n        /* \"#utility.yul\":1737:2211   */\n      swap3\n      pop\n      swap3\n      swap1\n      pop\n      jump\t// out\n        /* \"#utility.yul\":2217:2335   */\n    tag_98:\n        /* \"#utility.yul\":2304:2328   */\n      tag_100\n        /* \"#utility.yul\":2322:2327   */\n      dup2\n        /* \"#utility.yul\":2304:2328   */\n      tag_101\n      jump\t// in\n    tag_100:\n        /* \"#utility.yul\":2299:2302   */\n      dup3\n        /* \"#utility.yul\":2292:2329   */\n      mstore\n        /* \"#utility.yul\":2217:2335   */\n      pop\n      pop\n      jump\t// out\n        /* \"#utility.yul\":2341:2707   */\n    tag_102:\n        /* \"#utility.yul\":2483:2486   */\n      0x00\n        /* \"#utility.yul\":2504:2571   */\n      tag_104\n        /* \"#utility.yul\":2568:2570   */\n      0x13\n        /* \"#utility.yul\":2563:2566   */\n      dup4\n        /* \"#utility.yul\":2504:2571   */\n      tag_105\n      jump\t// in\n    tag_104:\n        /* \"#utility.yul\":2497:2571   */\n      swap2\n      pop\n        /* \"#utility.yul\":2580:2673   */\n      tag_106\n        /* \"#utility.yul\":2669:2672   */\n      dup3\n        /* \"#utility.yul\":2580:2673   */\n      tag_107\n      jump\t// in\n    tag_106:\n        /* \"#utility.yul\":2698:2700   */\n      0x20\n        /* \"#utility.yul\":2693:2696   */\n      dup3\n        /* \"#utility.yul\":2689:2701   */\n      add\n        /* \"#utility.yul\":2682:2701   */\n      swap1\n      pop\n        /* \"#utility.yul\":2341:2707   */\n      swap2\n      swap1\n      pop\n      jump\t// out\n        /* \"#utility.yul\":2713:2831   */\n    tag_108:\n        /* \"#utility.yul\":2800:2824   */\n      tag_110\n        /* \"#utility.yul\":2818:2823   */\n      dup2\n        /* \"#utility.yul\":2800:2824   */\n      tag_111\n      jump\t// in\n    tag_110:\n        /* \"#utility.yul\":2795:2798   */\n      dup3\n        /* \"#utility.yul\":2788:2825   */\n      mstore\n        /* \"#utility.yul\":2713:2831   */\n      pop\n      pop\n      jump\t// out\n        /* \"#utility.yul\":2837:2949   */\n    tag_112:\n        /* \"#utility.yul\":2920:2942   */\n      tag_114\n        /* \"#utility.yul\":2936:2941   */\n      dup2\n        /* \"#utility.yul\":2920:2942   */\n      tag_115\n      jump\t// in\n    tag_114:\n        /* \"#utility.yul\":2915:2918   */\n      dup3\n        /* \"#utility.yul\":2908:2943   */\n      mstore\n        /* \"#utility.yul\":2837:2949   */\n      pop\n      pop\n      jump\t// out\n        /* \"#utility.yul\":2955:3177   */\n    tag_22:\n        /* \"#utility.yul\":3048:3052   */\n      0x00\n        /* \"#utility.yul\":3086:3088   */\n      0x20\n        /* \"#utility.yul\":3075:3084   */\n      dup3\n        /* \"#utility.yul\":3071:3089   */\n      add\n        /* \"#utility.yul\":3063:3089   */\n      swap1\n      pop\n        /* \"#utility.yul\":3099:3170   */\n      tag_117\n        /* \"#utility.yul\":3167:3168   */\n      0x00\n        /* \"#utility.yul\":3156:3165   */\n      dup4\n        /* \"#utility.yul\":3152:3169   */\n      add\n        /* \"#utility.yul\":3143:3149   */\n      dup5\n        /* \"#utility.yul\":3099:3170   */\n      tag_98\n      jump\t// in\n    tag_117:\n        /* \"#utility.yul\":2955:3177   */\n      swap3\n      swap2\n      pop\n      pop\n      jump\t// out\n        /* \"#utility.yul\":3183:3602   */\n    tag_58:\n        /* \"#utility.yul\":3349:3353   */\n      0x00\n        /* \"#utility.yul\":3387:3389   */\n      0x20\n        /* \"#utility.yul\":3376:3385   */\n      dup3\n        /* \"#utility.yul\":3372:3390   */\n      add\n        /* \"#utility.yul\":3364:3390   */\n      swap1\n      pop\n        /* \"#utility.yul\":3436:3445   */\n      dup2\n        /* \"#utility.yul\":3430:3434   */\n      dup2\n        /* \"#utility.yul\":3426:3446   */\n      sub\n        /* \"#utility.yul\":3422:3423   */\n      0x00\n        /* \"#utility.yul\":3411:3420   */\n      dup4\n        /* \"#utility.yul\":3407:3424   */\n      add\n        /* \"#utility.yul\":3400:3447   */\n      mstore\n        /* \"#utility.yul\":3464:3595   */\n      tag_119\n        /* \"#utility.yul\":3590:3594   */\n      dup2\n        /* \"#utility.yul\":3464:3595   */\n      tag_102\n      jump\t// in\n    tag_119:\n        /* \"#utility.yul\":3456:3595   */\n      swap1\n      pop\n        /* \"#utility.yul\":3183:3602   */\n      swap2\n      swap1\n      pop\n      jump\t// out\n        /* \"#utility.yul\":3608:3830   */\n    tag_18:\n        /* \"#utility.yul\":3701:3705   */\n      0x00\n        /* \"#utility.yul\":3739:3741   */\n      0x20\n        /* \"#utility.yul\":3728:3737   */\n      dup3\n        /* \"#utility.yul\":3724:3742   */\n      add\n        /* \"#utility.yul\":3716:3742   */\n      swap1\n      pop\n        /* \"#utility.yul\":3752:3823   */\n      tag_121\n        /* \"#utility.yul\":3820:3821   */\n      0x00\n        /* \"#utility.yul\":3809:3818   */\n      dup4\n        /* \"#utility.yul\":3805:3822   */\n      add\n        /* \"#utility.yul\":3796:3802   */\n      dup5\n        /* \"#utility.yul\":3752:3823   */\n      tag_108\n      jump\t// in\n    tag_121:\n        /* \"#utility.yul\":3608:3830   */\n      swap3\n      swap2\n      pop\n      pop\n      jump\t// out\n        /* \"#utility.yul\":3836:4050   */\n    tag_39:\n        /* \"#utility.yul\":3925:3929   */\n      0x00\n        /* \"#utility.yul\":3963:3965   */\n      0x20\n        /* \"#utility.yul\":3952:3961   */\n      dup3\n        /* \"#utility.yul\":3948:3966   */\n      add\n        /* \"#utility.yul\":3940:3966   */\n      swap1\n      pop\n        /* \"#utility.yul\":3976:4043   */\n      tag_123\n        /* \"#utility.yul\":4040:4041   */\n      0x00\n        /* \"#utility.yul\":4029:4038   */\n      dup4\n        /* \"#utility.yul\":4025:4042   */\n      add\n        /* \"#utility.yul\":4016:4022   */\n      dup5\n        /* \"#utility.yul\":3976:4043   */\n      tag_112\n      jump\t// in\n    tag_123:\n        /* \"#utility.yul\":3836:4050   */\n      swap3\n      swap2\n      pop\n      pop\n      jump\t// out\n        /* \"#utility.yul\":4137:4306   */\n    tag_105:\n        /* \"#utility.yul\":4221:4232   */\n      0x00\n        /* \"#utility.yul\":4255:4261   */\n      dup3\n        /* \"#utility.yul\":4250:4253   */\n      dup3\n        /* \"#utility.yul\":4243:4262   */\n      mstore\n        /* \"#utility.yul\":4295:4299   */\n      0x20\n        /* \"#utility.yul\":4290:4293   */\n      dup3\n        /* \"#utility.yul\":4286:4300   */\n      add\n        /* \"#utility.yul\":4271:4300   */\n      swap1\n      pop\n        /* \"#utility.yul\":4137:4306   */\n      swap3\n      swap2\n      pop\n      pop\n      jump\t// out\n        /* \"#utility.yul\":4312:4617   */\n    tag_54:\n        /* \"#utility.yul\":4352:4355   */\n      0x00\n        /* \"#utility.yul\":4371:4391   */\n      tag_128\n        /* \"#utility.yul\":4389:4390   */\n      dup3\n        /* \"#utility.yul\":4371:4391   */\n      tag_111\n      jump\t// in\n    tag_128:\n        /* \"#utility.yul\":4366:4391   */\n      swap2\n      pop\n        /* \"#utility.yul\":4405:4425   */\n      tag_129\n        /* \"#utility.yul\":4423:4424   */\n      dup4\n        /* \"#utility.yul\":4405:4425   */\n      tag_111\n      jump\t// in\n    tag_129:\n        /* \"#utility.yul\":4400:4425   */\n      swap3\n      pop\n        /* \"#utility.yul\":4559:4560   */\n      dup3\n        /* \"#utility.yul\":4491:4557   */\n      0xffffffffffffffffffffffffffffffffffffffffffffffffffffffffffffffff\n        /* \"#utility.yul\":4487:4561   */\n      sub\n        /* \"#utility.yul\":4484:4485   */\n      dup3\n        /* \"#utility.yul\":4481:4562   */\n      gt\n        /* \"#utility.yul\":4478:4585   */\n      iszero\n      tag_130\n      jumpi\n        /* \"#utility.yul\":4565:4583   */\n      tag_131\n      tag_132\n      jump\t// in\n    tag_131:\n        /* \"#utility.yul\":4478:4585   */\n    tag_130:\n        /* \"#utility.yul\":4609:4610   */\n      dup3\n        /* \"#utility.yul\":4606:4607   */\n      dup3\n        /* \"#utility.yul\":4602:4611   */\n      add\n        /* \"#utility.yul\":4595:4611   */\n      swap1\n      pop\n        /* \"#utility.yul\":4312:4617   */\n      swap3\n      swap2\n      pop\n      pop\n      jump\t// out\n        /* \"#utility.yul\":4623:4814   */\n    tag_52:\n        /* \"#utility.yul\":4663:4667   */\n      0x00\n        /* \"#utility.yul\":4683:4703   */\n      tag_134\n        /* \"#utility.yul\":4701:4702   */\n      dup3\n        /* \"#utility.yul\":4683:4703   */\n      tag_111\n      jump\t// in\n    tag_134:\n        /* \"#utility.yul\":4678:4703   */\n      swap2\n      pop\n        /* \"#utility.yul\":4717:4737   */\n      tag_135\n        /* \"#utility.yul\":4735:4736   */\n      dup4\n        /* \"#utility.yul\":4717:4737   */\n      tag_111\n      jump\t// in\n    tag_135:\n        /* \"#utility.yul\":4712:4737   */\n      swap3\n      pop\n        /* \"#utility.yul\":4756:4757   */\n      dup3\n        /* \"#utility.yul\":4753:4754   */\n      dup3\n        /* \"#utility.yul\":4750:4758   */\n      lt\n        /* \"#utility.yul\":4747:4781   */\n      iszero\n      tag_136\n      jumpi\n        /* \"#utility.yul\":4761:4779   */\n      tag_137\n      tag_132\n      jump\t// in\n    tag_137:\n        /* \"#utility.yul\":4747:4781   */\n    tag_136:\n        /* \"#utility.yul\":4806:4807   */\n      dup3\n        /* \"#utility.yul\":4803:4804   */\n      dup3\n        /* \"#utility.yul\":4799:4808   */\n      sub\n        /* \"#utility.yul\":4791:4808   */\n      swap1\n      pop\n        /* \"#utility.yul\":4623:4814   */\n      swap3\n      swap2\n      pop\n      pop\n      jump\t// out\n        /* \"#utility.yul\":4820:4916   */\n    tag_101:\n        /* \"#utility.yul\":4857:4864   */\n      0x00\n        /* \"#utility.yul\":4886:4910   */\n      tag_139\n        /* \"#utility.yul\":4904:4909   */\n      dup3\n        /* \"#utility.yul\":4886:4910   */\n      tag_140\n      jump\t// in\n    tag_139:\n        /* \"#utility.yul\":4875:4910   */\n      swap1\n      pop\n        /* \"#utility.yul\":4820:4916   */\n      swap2\n      swap1\n      pop\n      jump\t// out\n        /* \"#utility.yul\":4922:5048   */\n    tag_140:\n        /* \"#utility.yul\":4959:4966   */\n      0x00\n        /* \"#utility.yul\":4999:5041   */\n      0xffffffffffffffffffffffffffffffffffffffff\n        /* \"#utility.yul\":4992:4997   */\n      dup3\n        /* \"#utility.yul\":4988:5042   */\n      and\n        /* \"#utility.yul\":4977:5042   */\n      swap1\n      pop\n        /* \"#utility.yul\":4922:5048   */\n      swap2\n      swap1\n      pop\n      jump\t// out\n        /* \"#utility.yul\":5054:5131   */\n    tag_111:\n        /* \"#utility.yul\":5091:5098   */\n      0x00\n        /* \"#utility.yul\":5120:5125   */\n      dup2\n        /* \"#utility.yul\":5109:5125   */\n      swap1\n      pop\n        /* \"#utility.yul\":5054:5131   */\n      swap2\n      swap1\n      pop\n      jump\t// out\n        /* \"#utility.yul\":5137:5223   */\n    tag_115:\n        /* \"#utility.yul\":5172:5179   */\n      0x00\n        /* \"#utility.yul\":5212:5216   */\n      0xff\n        /* \"#utility.yul\":5205:5210   */\n      dup3\n        /* \"#utility.yul\":5201:5217   */\n      and\n        /* \"#utility.yul\":5190:5217   */\n      swap1\n      pop\n        /* \"#utility.yul\":5137:5223   */\n      swap2\n      swap1\n      pop\n      jump\t// out\n        /* \"#utility.yul\":5229:5409   */\n    tag_132:\n        /* \"#utility.yul\":5277:5354   */\n      0x4e487b7100000000000000000000000000000000000000000000000000000000\n        /* \"#utility.yul\":5274:5275   */\n      0x00\n        /* \"#utility.yul\":5267:5355   */\n      mstore\n        /* \"#utility.yul\":5374:5378   */\n      0x11\n        /* \"#utility.yul\":5371:5372   */\n      0x04\n        /* \"#utility.yul\":5364:5379   */\n      mstore\n        /* \"#utility.yul\":5398:5402   */\n      0x24\n        /* \"#utility.yul\":5395:5396   */\n      0x00\n        /* \"#utility.yul\":5388:5403   */\n      revert\n        /* \"#utility.yul\":5538:5655   */\n    tag_80:\n        /* \"#utility.yul\":5647:5648   */\n      0x00\n        /* \"#utility.yul\":5644:5645   */\n      dup1\n        /* \"#utility.yul\":5637:5649   */\n      revert\n        /* \"#utility.yul\":5661:5830   */\n    tag_107:\n        /* \"#utility.yul\":5801:5822   */\n      0x796f7572206e6f7420746865206d696e74657200000000000000000000000000\n        /* \"#utility.yul\":5797:5798   */\n      0x00\n        /* \"#utility.yul\":5789:5795   */\n      dup3\n        /* \"#utility.yul\":5785:5799   */\n      add\n        /* \"#utility.yul\":5778:5823   */\n      mstore\n        /* \"#utility.yul\":5661:5830   */\n      pop\n      jump\t// out\n        /* \"#utility.yul\":5836:5958   */\n    tag_72:\n        /* \"#utility.yul\":5909:5933   */\n      tag_150\n        /* \"#utility.yul\":5927:5932   */\n      dup2\n        /* \"#utility.yul\":5909:5933   */\n      tag_101\n      jump\t// in\n    tag_150:\n        /* \"#utility.yul\":5902:5907   */\n      dup2\n        /* \"#utility.yul\":5899:5934   */\n      eq\n        /* \"#utility.yul\":5889:5952   */\n      tag_151\n      jumpi\n        /* \"#utility.yul\":5948:5949   */\n      0x00\n        /* \"#utility.yul\":5945:5946   */\n      dup1\n        /* \"#utility.yul\":5938:5950   */\n      revert\n        /* \"#utility.yul\":5889:5952   */\n    tag_151:\n        /* \"#utility.yul\":5836:5958   */\n      pop\n      jump\t// out\n        /* \"#utility.yul\":5964:6086   */\n    tag_76:\n        /* \"#utility.yul\":6037:6061   */\n      tag_153\n        /* \"#utility.yul\":6055:6060   */\n      dup2\n        /* \"#utility.yul\":6037:6061   */\n      tag_111\n      jump\t// in\n    tag_153:\n        /* \"#utility.yul\":6030:6035   */\n      dup2\n        /* \"#utility.yul\":6027:6062   */\n      eq\n        /* \"#utility.yul\":6017:6080   */\n      tag_154\n      jumpi\n        /* \"#utility.yul\":6076:6077   */\n      0x00\n        /* \"#utility.yul\":6073:6074   */\n      dup1\n        /* \"#utility.yul\":6066:6078   */\n      revert\n        /* \"#utility.yul\":6017:6080   */\n    tag_154:\n        /* \"#utility.yul\":5964:6086   */\n      pop\n      jump\t// out\n\n    auxdata: 0xa26469706673582212203e8d3e7cb705ceb5dc46bf304ff7ee5e2c404947b6ef37960bad6d75a41c52f764736f6c63430008070033\n}\n",
				"bytecode": {
					"linkReferences": {},
					"object": "608060405234801561001057600080fd5b50336000806101000a81548173ffffffffffffffffffffffffffffffffffffffff021916908373ffffffffffffffffffffffffffffffffffffffff16021790555061096f806100606000396000f3fe608060405234801561001057600080fd5b50600436106100935760003560e01c80632f5f1b6d116100665780632f5f1b6d14610132578063313ce5671461016257806340c10f19146101805780639dc29fac1461019c578063a9059cbb146101b857610093565b8063024c2ddd1461009857806313f27ae3146100c857806323b872dd146100e657806327e235e314610102575b600080fd5b6100b260048036038101906100ad9190610636565b6101d4565b6040516100bf9190610794565b60405180910390f35b6100d06101f9565b6040516100dd9190610759565b60405180910390f35b61010060048036038101906100fb9190610676565b61021d565b005b61011c60048036038101906101179190610609565b6102d1565b6040516101299190610794565b60405180910390f35b61014c60048036038101906101479190610636565b6102e9565b6040516101599190610794565b60405180910390f35b61016a61030e565b60405161017791906107af565b60405180910390f35b61019a600480360381019061019591906106c9565b610313565b005b6101b660048036038101906101b191906106c9565b6103fb565b005b6101d260048036038101906101cd91906106c9565b6104e3565b005b6002602052816000526040600020602052806000526040600020600091509150505481565b60008054906101000a900473ffffffffffffffffffffffffffffffffffffffff1681565b33925080600160008573ffffffffffffffffffffffffffffffffffffffff1673ffffffffffffffffffffffffffffffffffffffff168152602001908152602001600020600082825461026f9190610831565b9250508190555080600160008473ffffffffffffffffffffffffffffffffffffffff1673ffffffffffffffffffffffffffffffffffffffff16815260200190815260200160002060008282546102c591906107db565b92505081905550505050565b60016020528060005260406000206000915090505481565b6003602052816000526040600020602052806000526040600020600091509150505481565b600c81565b60008054906101000a900473ffffffffffffffffffffffffffffffffffffffff1673ffffffffffffffffffffffffffffffffffffffff163373ffffffffffffffffffffffffffffffffffffffff16146103a1576040517f08c379a000000000000000000000000000000000000000000000000000000000815260040161039890610774565b60405180910390fd5b80600160008473ffffffffffffffffffffffffffffffffffffffff1673ffffffffffffffffffffffffffffffffffffffff16815260200190815260200160002060008282546103f091906107db565b925050819055505050565b60008054906101000a900473ffffffffffffffffffffffffffffffffffffffff1673ffffffffffffffffffffffffffffffffffffffff163373ffffffffffffffffffffffffffffffffffffffff1614610489576040517f08c379a000000000000000000000000000000000000000000000000000000000815260040161048090610774565b60405180910390fd5b80600160008473ffffffffffffffffffffffffffffffffffffffff1673ffffffffffffffffffffffffffffffffffffffff16815260200190815260200160002060008282546104d89190610831565b925050819055505050565b80600160003373ffffffffffffffffffffffffffffffffffffffff1673ffffffffffffffffffffffffffffffffffffffff16815260200190815260200160002054101561052f57600080fd5b80600160003373ffffffffffffffffffffffffffffffffffffffff1673ffffffffffffffffffffffffffffffffffffffff168152602001908152602001600020600082825461057e9190610831565b9250508190555080600160008473ffffffffffffffffffffffffffffffffffffffff1673ffffffffffffffffffffffffffffffffffffffff16815260200190815260200160002060008282546105d491906107db565b925050819055505050565b6000813590506105ee8161090b565b92915050565b60008135905061060381610922565b92915050565b60006020828403121561061f5761061e6108dd565b5b600061062d848285016105df565b91505092915050565b6000806040838503121561064d5761064c6108dd565b5b600061065b858286016105df565b925050602061066c858286016105df565b9150509250929050565b60008060006060848603121561068f5761068e6108dd565b5b600061069d868287016105df565b93505060206106ae868287016105df565b92505060406106bf868287016105f4565b9150509250925092565b600080604083850312156106e0576106df6108dd565b5b60006106ee858286016105df565b92505060206106ff858286016105f4565b9150509250929050565b61071281610865565b82525050565b60006107256013836107ca565b9150610730826108e2565b602082019050919050565b61074481610897565b82525050565b610753816108a1565b82525050565b600060208201905061076e6000830184610709565b92915050565b6000602082019050818103600083015261078d81610718565b9050919050565b60006020820190506107a9600083018461073b565b92915050565b60006020820190506107c4600083018461074a565b92915050565b600082825260208201905092915050565b60006107e682610897565b91506107f183610897565b9250827fffffffffffffffffffffffffffffffffffffffffffffffffffffffffffffffff03821115610826576108256108ae565b5b828201905092915050565b600061083c82610897565b915061084783610897565b92508282101561085a576108596108ae565b5b828203905092915050565b600061087082610877565b9050919050565b600073ffffffffffffffffffffffffffffffffffffffff82169050919050565b6000819050919050565b600060ff82169050919050565b7f4e487b7100000000000000000000000000000000000000000000000000000000600052601160045260246000fd5b600080fd5b7f796f7572206e6f7420746865206d696e74657200000000000000000000000000600082015250565b61091481610865565b811461091f57600080fd5b50565b61092b81610897565b811461093657600080fd5b5056fea26469706673582212203e8d3e7cb705ceb5dc46bf304ff7ee5e2c404947b6ef37960bad6d75a41c52f764736f6c63430008070033",
					"opcodes": "PUSH1 0x80 PUSH1 0x40 MSTORE CALLVALUE DUP1 ISZERO PUSH2 0x10 JUMPI PUSH1 0x0 DUP1 REVERT JUMPDEST POP CALLER PUSH1 0x0 DUP1 PUSH2 0x100 EXP DUP2 SLOAD DUP2 PUSH20 0xFFFFFFFFFFFFFFFFFFFFFFFFFFFFFFFFFFFFFFFF MUL NOT AND SWAP1 DUP4 PUSH20 0xFFFFFFFFFFFFFFFFFFFFFFFFFFFFFFFFFFFFFFFF AND MUL OR SWAP1 SSTORE POP PUSH2 0x96F DUP1 PUSH2 0x60 PUSH1 0x0 CODECOPY PUSH1 0x0 RETURN INVALID PUSH1 0x80 PUSH1 0x40 MSTORE CALLVALUE DUP1 ISZERO PUSH2 0x10 JUMPI PUSH1 0x0 DUP1 REVERT JUMPDEST POP PUSH1 0x4 CALLDATASIZE LT PUSH2 0x93 JUMPI PUSH1 0x0 CALLDATALOAD PUSH1 0xE0 SHR DUP1 PUSH4 0x2F5F1B6D GT PUSH2 0x66 JUMPI DUP1 PUSH4 0x2F5F1B6D EQ PUSH2 0x132 JUMPI DUP1 PUSH4 0x313CE567 EQ PUSH2 0x162 JUMPI DUP1 PUSH4 0x40C10F19 EQ PUSH2 0x180 JUMPI DUP1 PUSH4 0x9DC29FAC EQ PUSH2 0x19C JUMPI DUP1 PUSH4 0xA9059CBB EQ PUSH2 0x1B8 JUMPI PUSH2 0x93 JUMP JUMPDEST DUP1 PUSH4 0x24C2DDD EQ PUSH2 0x98 JUMPI DUP1 PUSH4 0x13F27AE3 EQ PUSH2 0xC8 JUMPI DUP1 PUSH4 0x23B872DD EQ PUSH2 0xE6 JUMPI DUP1 PUSH4 0x27E235E3 EQ PUSH2 0x102 JUMPI JUMPDEST PUSH1 0x0 DUP1 REVERT JUMPDEST PUSH2 0xB2 PUSH1 0x4 DUP1 CALLDATASIZE SUB DUP2 ADD SWAP1 PUSH2 0xAD SWAP2 SWAP1 PUSH2 0x636 JUMP JUMPDEST PUSH2 0x1D4 JUMP JUMPDEST PUSH1 0x40 MLOAD PUSH2 0xBF SWAP2 SWAP1 PUSH2 0x794 JUMP JUMPDEST PUSH1 0x40 MLOAD DUP1 SWAP2 SUB SWAP1 RETURN JUMPDEST PUSH2 0xD0 PUSH2 0x1F9 JUMP JUMPDEST PUSH1 0x40 MLOAD PUSH2 0xDD SWAP2 SWAP1 PUSH2 0x759 JUMP JUMPDEST PUSH1 0x40 MLOAD DUP1 SWAP2 SUB SWAP1 RETURN JUMPDEST PUSH2 0x100 PUSH1 0x4 DUP1 CALLDATASIZE SUB DUP2 ADD SWAP1 PUSH2 0xFB SWAP2 SWAP1 PUSH2 0x676 JUMP JUMPDEST PUSH2 0x21D JUMP JUMPDEST STOP JUMPDEST PUSH2 0x11C PUSH1 0x4 DUP1 CALLDATASIZE SUB DUP2 ADD SWAP1 PUSH2 0x117 SWAP2 SWAP1 PUSH2 0x609 JUMP JUMPDEST PUSH2 0x2D1 JUMP JUMPDEST PUSH1 0x40 MLOAD PUSH2 0x129 SWAP2 SWAP1 PUSH2 0x794 JUMP JUMPDEST PUSH1 0x40 MLOAD DUP1 SWAP2 SUB SWAP1 RETURN JUMPDEST PUSH2 0x14C PUSH1 0x4 DUP1 CALLDATASIZE SUB DUP2 ADD SWAP1 PUSH2 0x147 SWAP2 SWAP1 PUSH2 0x636 JUMP JUMPDEST PUSH2 0x2E9 JUMP JUMPDEST PUSH1 0x40 MLOAD PUSH2 0x159 SWAP2 SWAP1 PUSH2 0x794 JUMP JUMPDEST PUSH1 0x40 MLOAD DUP1 SWAP2 SUB SWAP1 RETURN JUMPDEST PUSH2 0x16A PUSH2 0x30E JUMP JUMPDEST PUSH1 0x40 MLOAD PUSH2 0x177 SWAP2 SWAP1 PUSH2 0x7AF JUMP JUMPDEST PUSH1 0x40 MLOAD DUP1 SWAP2 SUB SWAP1 RETURN JUMPDEST PUSH2 0x19A PUSH1 0x4 DUP1 CALLDATASIZE SUB DUP2 ADD SWAP1 PUSH2 0x195 SWAP2 SWAP1 PUSH2 0x6C9 JUMP JUMPDEST PUSH2 0x313 JUMP JUMPDEST STOP JUMPDEST PUSH2 0x1B6 PUSH1 0x4 DUP1 CALLDATASIZE SUB DUP2 ADD SWAP1 PUSH2 0x1B1 SWAP2 SWAP1 PUSH2 0x6C9 JUMP JUMPDEST PUSH2 0x3FB JUMP JUMPDEST STOP JUMPDEST PUSH2 0x1D2 PUSH1 0x4 DUP1 CALLDATASIZE SUB DUP2 ADD SWAP1 PUSH2 0x1CD SWAP2 SWAP1 PUSH2 0x6C9 JUMP JUMPDEST PUSH2 0x4E3 JUMP JUMPDEST STOP JUMPDEST PUSH1 0x2 PUSH1 0x20 MSTORE DUP2 PUSH1 0x0 MSTORE PUSH1 0x40 PUSH1 0x0 KECCAK256 PUSH1 0x20 MSTORE DUP1 PUSH1 0x0 MSTORE PUSH1 0x40 PUSH1 0x0 KECCAK256 PUSH1 0x0 SWAP2 POP SWAP2 POP POP SLOAD DUP2 JUMP JUMPDEST PUSH1 0x0 DUP1 SLOAD SWAP1 PUSH2 0x100 EXP SWAP1 DIV PUSH20 0xFFFFFFFFFFFFFFFFFFFFFFFFFFFFFFFFFFFFFFFF AND DUP2 JUMP JUMPDEST CALLER SWAP3 POP DUP1 PUSH1 0x1 PUSH1 0x0 DUP6 PUSH20 0xFFFFFFFFFFFFFFFFFFFFFFFFFFFFFFFFFFFFFFFF AND PUSH20 0xFFFFFFFFFFFFFFFFFFFFFFFFFFFFFFFFFFFFFFFF AND DUP2 MSTORE PUSH1 0x20 ADD SWAP1 DUP2 MSTORE PUSH1 0x20 ADD PUSH1 0x0 KECCAK256 PUSH1 0x0 DUP3 DUP3 SLOAD PUSH2 0x26F SWAP2 SWAP1 PUSH2 0x831 JUMP JUMPDEST SWAP3 POP POP DUP2 SWAP1 SSTORE POP DUP1 PUSH1 0x1 PUSH1 0x0 DUP5 PUSH20 0xFFFFFFFFFFFFFFFFFFFFFFFFFFFFFFFFFFFFFFFF AND PUSH20 0xFFFFFFFFFFFFFFFFFFFFFFFFFFFFFFFFFFFFFFFF AND DUP2 MSTORE PUSH1 0x20 ADD SWAP1 DUP2 MSTORE PUSH1 0x20 ADD PUSH1 0x0 KECCAK256 PUSH1 0x0 DUP3 DUP3 SLOAD PUSH2 0x2C5 SWAP2 SWAP1 PUSH2 0x7DB JUMP JUMPDEST SWAP3 POP POP DUP2 SWAP1 SSTORE POP POP POP POP JUMP JUMPDEST PUSH1 0x1 PUSH1 0x20 MSTORE DUP1 PUSH1 0x0 MSTORE PUSH1 0x40 PUSH1 0x0 KECCAK256 PUSH1 0x0 SWAP2 POP SWAP1 POP SLOAD DUP2 JUMP JUMPDEST PUSH1 0x3 PUSH1 0x20 MSTORE DUP2 PUSH1 0x0 MSTORE PUSH1 0x40 PUSH1 0x0 KECCAK256 PUSH1 0x20 MSTORE DUP1 PUSH1 0x0 MSTORE PUSH1 0x40 PUSH1 0x0 KECCAK256 PUSH1 0x0 SWAP2 POP SWAP2 POP POP SLOAD DUP2 JUMP JUMPDEST PUSH1 0xC DUP2 JUMP JUMPDEST PUSH1 0x0 DUP1 SLOAD SWAP1 PUSH2 0x100 EXP SWAP1 DIV PUSH20 0xFFFFFFFFFFFFFFFFFFFFFFFFFFFFFFFFFFFFFFFF AND PUSH20 0xFFFFFFFFFFFFFFFFFFFFFFFFFFFFFFFFFFFFFFFF AND CALLER PUSH20 0xFFFFFFFFFFFFFFFFFFFFFFFFFFFFFFFFFFFFFFFF AND EQ PUSH2 0x3A1 JUMPI PUSH1 0x40 MLOAD PUSH32 0x8C379A000000000000000000000000000000000000000000000000000000000 DUP2 MSTORE PUSH1 0x4 ADD PUSH2 0x398 SWAP1 PUSH2 0x774 JUMP JUMPDEST PUSH1 0x40 MLOAD DUP1 SWAP2 SUB SWAP1 REVERT JUMPDEST DUP1 PUSH1 0x1 PUSH1 0x0 DUP5 PUSH20 0xFFFFFFFFFFFFFFFFFFFFFFFFFFFFFFFFFFFFFFFF AND PUSH20 0xFFFFFFFFFFFFFFFFFFFFFFFFFFFFFFFFFFFFFFFF AND DUP2 MSTORE PUSH1 0x20 ADD SWAP1 DUP2 MSTORE PUSH1 0x20 ADD PUSH1 0x0 KECCAK256 PUSH1 0x0 DUP3 DUP3 SLOAD PUSH2 0x3F0 SWAP2 SWAP1 PUSH2 0x7DB JUMP JUMPDEST SWAP3 POP POP DUP2 SWAP1 SSTORE POP POP POP JUMP JUMPDEST PUSH1 0x0 DUP1 SLOAD SWAP1 PUSH2 0x100 EXP SWAP1 DIV PUSH20 0xFFFFFFFFFFFFFFFFFFFFFFFFFFFFFFFFFFFFFFFF AND PUSH20 0xFFFFFFFFFFFFFFFFFFFFFFFFFFFFFFFFFFFFFFFF AND CALLER PUSH20 0xFFFFFFFFFFFFFFFFFFFFFFFFFFFFFFFFFFFFFFFF AND EQ PUSH2 0x489 JUMPI PUSH1 0x40 MLOAD PUSH32 0x8C379A000000000000000000000000000000000000000000000000000000000 DUP2 MSTORE PUSH1 0x4 ADD PUSH2 0x480 SWAP1 PUSH2 0x774 JUMP JUMPDEST PUSH1 0x40 MLOAD DUP1 SWAP2 SUB SWAP1 REVERT JUMPDEST DUP1 PUSH1 0x1 PUSH1 0x0 DUP5 PUSH20 0xFFFFFFFFFFFFFFFFFFFFFFFFFFFFFFFFFFFFFFFF AND PUSH20 0xFFFFFFFFFFFFFFFFFFFFFFFFFFFFFFFFFFFFFFFF AND DUP2 MSTORE PUSH1 0x20 ADD SWAP1 DUP2 MSTORE PUSH1 0x20 ADD PUSH1 0x0 KECCAK256 PUSH1 0x0 DUP3 DUP3 SLOAD PUSH2 0x4D8 SWAP2 SWAP1 PUSH2 0x831 JUMP JUMPDEST SWAP3 POP POP DUP2 SWAP1 SSTORE POP POP POP JUMP JUMPDEST DUP1 PUSH1 0x1 PUSH1 0x0 CALLER PUSH20 0xFFFFFFFFFFFFFFFFFFFFFFFFFFFFFFFFFFFFFFFF AND PUSH20 0xFFFFFFFFFFFFFFFFFFFFFFFFFFFFFFFFFFFFFFFF AND DUP2 MSTORE PUSH1 0x20 ADD SWAP1 DUP2 MSTORE PUSH1 0x20 ADD PUSH1 0x0 KECCAK256 SLOAD LT ISZERO PUSH2 0x52F JUMPI PUSH1 0x0 DUP1 REVERT JUMPDEST DUP1 PUSH1 0x1 PUSH1 0x0 CALLER PUSH20 0xFFFFFFFFFFFFFFFFFFFFFFFFFFFFFFFFFFFFFFFF AND PUSH20 0xFFFFFFFFFFFFFFFFFFFFFFFFFFFFFFFFFFFFFFFF AND DUP2 MSTORE PUSH1 0x20 ADD SWAP1 DUP2 MSTORE PUSH1 0x20 ADD PUSH1 0x0 KECCAK256 PUSH1 0x0 DUP3 DUP3 SLOAD PUSH2 0x57E SWAP2 SWAP1 PUSH2 0x831 JUMP JUMPDEST SWAP3 POP POP DUP2 SWAP1 SSTORE POP DUP1 PUSH1 0x1 PUSH1 0x0 DUP5 PUSH20 0xFFFFFFFFFFFFFFFFFFFFFFFFFFFFFFFFFFFFFFFF AND PUSH20 0xFFFFFFFFFFFFFFFFFFFFFFFFFFFFFFFFFFFFFFFF AND DUP2 MSTORE PUSH1 0x20 ADD SWAP1 DUP2 MSTORE PUSH1 0x20 ADD PUSH1 0x0 KECCAK256 PUSH1 0x0 DUP3 DUP3 SLOAD PUSH2 0x5D4 SWAP2 SWAP1 PUSH2 0x7DB JUMP JUMPDEST SWAP3 POP POP DUP2 SWAP1 SSTORE POP POP POP JUMP JUMPDEST PUSH1 0x0 DUP2 CALLDATALOAD SWAP1 POP PUSH2 0x5EE DUP2 PUSH2 0x90B JUMP JUMPDEST SWAP3 SWAP2 POP POP JUMP JUMPDEST PUSH1 0x0 DUP2 CALLDATALOAD SWAP1 POP PUSH2 0x603 DUP2 PUSH2 0x922 JUMP JUMPDEST SWAP3 SWAP2 POP POP JUMP JUMPDEST PUSH1 0x0 PUSH1 0x20 DUP3 DUP5 SUB SLT ISZERO PUSH2 0x61F JUMPI PUSH2 0x61E PUSH2 0x8DD JUMP JUMPDEST JUMPDEST PUSH1 0x0 PUSH2 0x62D DUP5 DUP3 DUP6 ADD PUSH2 0x5DF JUMP JUMPDEST SWAP2 POP POP SWAP3 SWAP2 POP POP JUMP JUMPDEST PUSH1 0x0 DUP1 PUSH1 0x40 DUP4 DUP6 SUB SLT ISZERO PUSH2 0x64D JUMPI PUSH2 0x64C PUSH2 0x8DD JUMP JUMPDEST JUMPDEST PUSH1 0x0 PUSH2 0x65B DUP6 DUP3 DUP7 ADD PUSH2 0x5DF JUMP JUMPDEST SWAP3 POP POP PUSH1 0x20 PUSH2 0x66C DUP6 DUP3 DUP7 ADD PUSH2 0x5DF JUMP JUMPDEST SWAP2 POP POP SWAP3 POP SWAP3 SWAP1 POP JUMP JUMPDEST PUSH1 0x0 DUP1 PUSH1 0x0 PUSH1 0x60 DUP5 DUP7 SUB SLT ISZERO PUSH2 0x68F JUMPI PUSH2 0x68E PUSH2 0x8DD JUMP JUMPDEST JUMPDEST PUSH1 0x0 PUSH2 0x69D DUP7 DUP3 DUP8 ADD PUSH2 0x5DF JUMP JUMPDEST SWAP4 POP POP PUSH1 0x20 PUSH2 0x6AE DUP7 DUP3 DUP8 ADD PUSH2 0x5DF JUMP JUMPDEST SWAP3 POP POP PUSH1 0x40 PUSH2 0x6BF DUP7 DUP3 DUP8 ADD PUSH2 0x5F4 JUMP JUMPDEST SWAP2 POP POP SWAP3 POP SWAP3 POP SWAP3 JUMP JUMPDEST PUSH1 0x0 DUP1 PUSH1 0x40 DUP4 DUP6 SUB SLT ISZERO PUSH2 0x6E0 JUMPI PUSH2 0x6DF PUSH2 0x8DD JUMP JUMPDEST JUMPDEST PUSH1 0x0 PUSH2 0x6EE DUP6 DUP3 DUP7 ADD PUSH2 0x5DF JUMP JUMPDEST SWAP3 POP POP PUSH1 0x20 PUSH2 0x6FF DUP6 DUP3 DUP7 ADD PUSH2 0x5F4 JUMP JUMPDEST SWAP2 POP POP SWAP3 POP SWAP3 SWAP1 POP JUMP JUMPDEST PUSH2 0x712 DUP2 PUSH2 0x865 JUMP JUMPDEST DUP3 MSTORE POP POP JUMP JUMPDEST PUSH1 0x0 PUSH2 0x725 PUSH1 0x13 DUP4 PUSH2 0x7CA JUMP JUMPDEST SWAP2 POP PUSH2 0x730 DUP3 PUSH2 0x8E2 JUMP JUMPDEST PUSH1 0x20 DUP3 ADD SWAP1 POP SWAP2 SWAP1 POP JUMP JUMPDEST PUSH2 0x744 DUP2 PUSH2 0x897 JUMP JUMPDEST DUP3 MSTORE POP POP JUMP JUMPDEST PUSH2 0x753 DUP2 PUSH2 0x8A1 JUMP JUMPDEST DUP3 MSTORE POP POP JUMP JUMPDEST PUSH1 0x0 PUSH1 0x20 DUP3 ADD SWAP1 POP PUSH2 0x76E PUSH1 0x0 DUP4 ADD DUP5 PUSH2 0x709 JUMP JUMPDEST SWAP3 SWAP2 POP POP JUMP JUMPDEST PUSH1 0x0 PUSH1 0x20 DUP3 ADD SWAP1 POP DUP2 DUP2 SUB PUSH1 0x0 DUP4 ADD MSTORE PUSH2 0x78D DUP2 PUSH2 0x718 JUMP JUMPDEST SWAP1 POP SWAP2 SWAP1 POP JUMP JUMPDEST PUSH1 0x0 PUSH1 0x20 DUP3 ADD SWAP1 POP PUSH2 0x7A9 PUSH1 0x0 DUP4 ADD DUP5 PUSH2 0x73B JUMP JUMPDEST SWAP3 SWAP2 POP POP JUMP JUMPDEST PUSH1 0x0 PUSH1 0x20 DUP3 ADD SWAP1 POP PUSH2 0x7C4 PUSH1 0x0 DUP4 ADD DUP5 PUSH2 0x74A JUMP JUMPDEST SWAP3 SWAP2 POP POP JUMP JUMPDEST PUSH1 0x0 DUP3 DUP3 MSTORE PUSH1 0x20 DUP3 ADD SWAP1 POP SWAP3 SWAP2 POP POP JUMP JUMPDEST PUSH1 0x0 PUSH2 0x7E6 DUP3 PUSH2 0x897 JUMP JUMPDEST SWAP2 POP PUSH2 0x7F1 DUP4 PUSH2 0x897 JUMP JUMPDEST SWAP3 POP DUP3 PUSH32 0xFFFFFFFFFFFFFFFFFFFFFFFFFFFFFFFFFFFFFFFFFFFFFFFFFFFFFFFFFFFFFFFF SUB DUP3 GT ISZERO PUSH2 0x826 JUMPI PUSH2 0x825 PUSH2 0x8AE JUMP JUMPDEST JUMPDEST DUP3 DUP3 ADD SWAP1 POP SWAP3 SWAP2 POP POP JUMP JUMPDEST PUSH1 0x0 PUSH2 0x83C DUP3 PUSH2 0x897 JUMP JUMPDEST SWAP2 POP PUSH2 0x847 DUP4 PUSH2 0x897 JUMP JUMPDEST SWAP3 POP DUP3 DUP3 LT ISZERO PUSH2 0x85A JUMPI PUSH2 0x859 PUSH2 0x8AE JUMP JUMPDEST JUMPDEST DUP3 DUP3 SUB SWAP1 POP SWAP3 SWAP2 POP POP JUMP JUMPDEST PUSH1 0x0 PUSH2 0x870 DUP3 PUSH2 0x877 JUMP JUMPDEST SWAP1 POP SWAP2 SWAP1 POP JUMP JUMPDEST PUSH1 0x0 PUSH20 0xFFFFFFFFFFFFFFFFFFFFFFFFFFFFFFFFFFFFFFFF DUP3 AND SWAP1 POP SWAP2 SWAP1 POP JUMP JUMPDEST PUSH1 0x0 DUP2 SWAP1 POP SWAP2 SWAP1 POP JUMP JUMPDEST PUSH1 0x0 PUSH1 0xFF DUP3 AND SWAP1 POP SWAP2 SWAP1 POP JUMP JUMPDEST PUSH32 0x4E487B7100000000000000000000000000000000000000000000000000000000 PUSH1 0x0 MSTORE PUSH1 0x11 PUSH1 0x4 MSTORE PUSH1 0x24 PUSH1 0x0 REVERT JUMPDEST PUSH1 0x0 DUP1 REVERT JUMPDEST PUSH32 0x796F7572206E6F7420746865206D696E74657200000000000000000000000000 PUSH1 0x0 DUP3 ADD MSTORE POP JUMP JUMPDEST PUSH2 0x914 DUP2 PUSH2 0x865 JUMP JUMPDEST DUP2 EQ PUSH2 0x91F JUMPI PUSH1 0x0 DUP1 REVERT JUMPDEST POP JUMP JUMPDEST PUSH2 0x92B DUP2 PUSH2 0x897 JUMP JUMPDEST DUP2 EQ PUSH2 0x936 JUMPI PUSH1 0x0 DUP1 REVERT JUMPDEST POP JUMP INVALID LOG2 PUSH5 0x6970667358 0x22 SLT KECCAK256 RETURNDATACOPY DUP14 RETURNDATACOPY PUSH29 0xB705CEB5DC46BF304FF7EE5E2C404947B6EF37960BAD6D75A41C52F764 PUSH20 0x6F6C634300080700330000000000000000000000 "
				},
				"gasEstimates": {
					"creation": {
						"codeDepositCost": "483000",
						"executionCost": "24784",
						"totalCost": "507784"
					},
					"external": {
						"_allowances(address,address)": "infinite",
						"_approval(address,address)": "infinite",
						"balances(address)": "2881",
						"burn(address,uint256)": "infinite",
						"decimals()": "357",
						"mint(address,uint256)": "infinite",
						"transfer(address,uint256)": "infinite",
						"transferFrom(address,address,uint256)": "infinite",
						"wakar()": "2534"
					}
				},
				"methodIdentifiers": {
					"_allowances(address,address)": "024c2ddd",
					"_approval(address,address)": "2f5f1b6d",
					"balances(address)": "27e235e3",
					"burn(address,uint256)": "9dc29fac",
					"decimals()": "313ce567",
					"mint(address,uint256)": "40c10f19",
					"transfer(address,uint256)": "a9059cbb",
					"transferFrom(address,address,uint256)": "23b872dd",
					"wakar()": "13f27ae3"
				}
			},
			"userdoc": {
				"kind": "user",
				"methods": {},
				"version": 1
			}
		}
	}
}